{
  "_format": "hh-sol-artifact-1",
  "contractName": "ERC725",
  "sourceName": "contracts/ERC725.sol",
  "abi": [
    {
      "inputs": [
        {
          "internalType": "address",
          "name": "newOwner",
          "type": "address"
        }
      ],
      "stateMutability": "nonpayable",
      "type": "constructor"
    },
    {
      "anonymous": false,
      "inputs": [
        {
          "indexed": true,
          "internalType": "uint256",
          "name": "operation",
          "type": "uint256"
        },
        {
          "indexed": true,
          "internalType": "address",
          "name": "contractAddress",
          "type": "address"
        },
        {
          "indexed": true,
          "internalType": "uint256",
          "name": "value",
          "type": "uint256"
        }
      ],
      "name": "ContractCreated",
      "type": "event"
    },
    {
      "anonymous": false,
      "inputs": [
        {
          "indexed": true,
          "internalType": "bytes32",
          "name": "dataKey",
          "type": "bytes32"
        },
        {
          "indexed": false,
          "internalType": "bytes",
          "name": "dataValue",
          "type": "bytes"
        }
      ],
      "name": "DataChanged",
      "type": "event"
    },
    {
      "anonymous": false,
      "inputs": [
        {
          "indexed": true,
          "internalType": "uint256",
          "name": "operation",
          "type": "uint256"
        },
        {
          "indexed": true,
          "internalType": "address",
          "name": "to",
          "type": "address"
        },
        {
          "indexed": true,
          "internalType": "uint256",
          "name": "value",
          "type": "uint256"
        },
        {
          "indexed": false,
          "internalType": "bytes4",
          "name": "selector",
          "type": "bytes4"
        }
      ],
      "name": "Executed",
      "type": "event"
    },
    {
      "anonymous": false,
      "inputs": [
        {
          "indexed": true,
          "internalType": "address",
          "name": "previousOwner",
          "type": "address"
        },
        {
          "indexed": true,
          "internalType": "address",
          "name": "newOwner",
          "type": "address"
        }
      ],
      "name": "OwnershipTransferred",
      "type": "event"
    },
    {
      "inputs": [
        {
          "internalType": "uint256",
          "name": "operation",
          "type": "uint256"
        },
        {
          "internalType": "address",
          "name": "to",
          "type": "address"
        },
        {
          "internalType": "uint256",
          "name": "value",
          "type": "uint256"
        },
        {
          "internalType": "bytes",
          "name": "data",
          "type": "bytes"
        }
      ],
      "name": "execute",
      "outputs": [
        {
          "internalType": "bytes",
          "name": "",
          "type": "bytes"
        }
      ],
      "stateMutability": "payable",
      "type": "function"
    },
    {
      "inputs": [
        {
          "internalType": "bytes32[]",
          "name": "dataKeys",
          "type": "bytes32[]"
        }
      ],
      "name": "getData",
      "outputs": [
        {
          "internalType": "bytes[]",
          "name": "dataValues",
          "type": "bytes[]"
        }
      ],
      "stateMutability": "view",
      "type": "function"
    },
    {
      "inputs": [
        {
          "internalType": "bytes32",
          "name": "dataKey",
          "type": "bytes32"
        }
      ],
      "name": "getData",
      "outputs": [
        {
          "internalType": "bytes",
          "name": "dataValue",
          "type": "bytes"
        }
      ],
      "stateMutability": "view",
      "type": "function"
    },
    {
      "inputs": [],
      "name": "owner",
      "outputs": [
        {
          "internalType": "address",
          "name": "",
          "type": "address"
        }
      ],
      "stateMutability": "view",
      "type": "function"
    },
    {
      "inputs": [],
      "name": "renounceOwnership",
      "outputs": [],
      "stateMutability": "nonpayable",
      "type": "function"
    },
    {
      "inputs": [
        {
          "internalType": "bytes32[]",
          "name": "dataKeys",
          "type": "bytes32[]"
        },
        {
          "internalType": "bytes[]",
          "name": "dataValues",
          "type": "bytes[]"
        }
      ],
      "name": "setData",
      "outputs": [],
      "stateMutability": "nonpayable",
      "type": "function"
    },
    {
      "inputs": [
        {
          "internalType": "bytes32",
          "name": "dataKey",
          "type": "bytes32"
        },
        {
          "internalType": "bytes",
          "name": "dataValue",
          "type": "bytes"
        }
      ],
      "name": "setData",
      "outputs": [],
      "stateMutability": "nonpayable",
      "type": "function"
    },
    {
      "inputs": [
        {
          "internalType": "bytes4",
          "name": "interfaceId",
          "type": "bytes4"
        }
      ],
      "name": "supportsInterface",
      "outputs": [
        {
          "internalType": "bool",
          "name": "",
          "type": "bool"
        }
      ],
      "stateMutability": "view",
      "type": "function"
    },
    {
      "inputs": [
        {
          "internalType": "address",
          "name": "newOwner",
          "type": "address"
        }
      ],
      "name": "transferOwnership",
      "outputs": [],
      "stateMutability": "nonpayable",
      "type": "function"
    },
    {
      "stateMutability": "payable",
      "type": "receive"
    }
  ],
  "bytecode": "0x60806040523480156200001157600080fd5b5060405162002d6938038062002d69833981810160405281019062000037919062000261565b600073ffffffffffffffffffffffffffffffffffffffff168173ffffffffffffffffffffffffffffffffffffffff1603620000a9576040517f08c379a0000000000000000000000000000000000000000000000000000000008152600401620000a0906200031a565b60405180910390fd5b620000bf81620000c660201b620006451760201c565b506200033c565b620000d6620001ce60201b60201c565b73ffffffffffffffffffffffffffffffffffffffff168173ffffffffffffffffffffffffffffffffffffffff1614620001cb5760008060009054906101000a900473ffffffffffffffffffffffffffffffffffffffff169050816000806101000a81548173ffffffffffffffffffffffffffffffffffffffff021916908373ffffffffffffffffffffffffffffffffffffffff1602179055508173ffffffffffffffffffffffffffffffffffffffff168173ffffffffffffffffffffffffffffffffffffffff167f8be0079c531659141344cd1fd0a4f28419497f9722a3daafe3b4186f6b6457e060405160405180910390a3505b50565b60008060009054906101000a900473ffffffffffffffffffffffffffffffffffffffff16905090565b600080fd5b600073ffffffffffffffffffffffffffffffffffffffff82169050919050565b60006200022982620001fc565b9050919050565b6200023b816200021c565b81146200024757600080fd5b50565b6000815190506200025b8162000230565b92915050565b6000602082840312156200027a5762000279620001f7565b5b60006200028a848285016200024a565b91505092915050565b600082825260208201905092915050565b7f4f776e61626c653a206e6577206f776e657220697320746865207a65726f206160008201527f6464726573730000000000000000000000000000000000000000000000000000602082015250565b60006200030260268362000293565b91506200030f82620002a4565b604082019050919050565b600060208201905081810360008301526200033581620002f3565b9050919050565b612a1d806200034c6000396000f3fe60806040526004361061008a5760003560e01c806354f6127f1161005957806354f6127f14610169578063715018a6146101a65780637f23690c146101bd5780638da5cb5b146101e6578063f2fde38b1461021157610091565b806301ffc9a71461009657806314a6e293146100d357806344c028fe146100fc5780634e3e6e9c1461012c57610091565b3661009157005b600080fd5b3480156100a257600080fd5b506100bd60048036038101906100b89190611436565b61023a565b6040516100ca919061147e565b60405180910390f35b3480156100df57600080fd5b506100fa60048036038101906100f591906117be565b6102ea565b005b610116600480360381019061011191906118ca565b610395565b60405161012391906119d5565b60405180910390f35b34801561013857600080fd5b50610153600480360381019061014e91906119f7565b6104a7565b6040516101609190611b4c565b60405180910390f35b34801561017557600080fd5b50610190600480360381019061018b9190611b6e565b61055d565b60405161019d91906119d5565b60405180910390f35b3480156101b257600080fd5b506101bb61056f565b005b3480156101c957600080fd5b506101e460048036038101906101df9190611b9b565b610583565b005b3480156101f257600080fd5b506101fb610599565b6040516102089190611c06565b60405180910390f35b34801561021d57600080fd5b5061023860048036038101906102339190611c21565b6105c2565b005b600063570ef07360e01b7bffffffffffffffffffffffffffffffffffffffffffffffffffffffff1916827bffffffffffffffffffffffffffffffffffffffffffffffffffffffff191614806102d3575063714df77c60e01b7bffffffffffffffffffffffffffffffffffffffffffffffffffffffff1916827bffffffffffffffffffffffffffffffffffffffffffffffffffffffff1916145b806102e357506102e282610744565b5b9050919050565b6102f26107a5565b8051825114610336576040517f08c379a000000000000000000000000000000000000000000000000000000000815260040161032d90611cd1565b60405180910390fd5b60005b82518110156103905761038083828151811061035857610357611cf1565b5b602002602001015183838151811061037357610372611cf1565b5b602002602001015161081c565b61038981610879565b9050610339565b505050565b606061039f6107a5565b824710156103e2576040517f08c379a00000000000000000000000000000000000000000000000000000000081526004016103d990611d6c565b60405180910390fd5b600085036103fc576103f5848484610886565b905061049f565b600185036104165761040f84848461099d565b905061049f565b6002850361043057610429848484610b3d565b905061049f565b6003850361044a57610443848484610cab565b905061049f565b600485036104645761045d848484610e02565b905061049f565b6040517f08c379a000000000000000000000000000000000000000000000000000000000815260040161049690611dd8565b60405180910390fd5b949350505050565b6060815167ffffffffffffffff8111156104c4576104c36114af565b5b6040519080825280602002602001820160405280156104f757816020015b60608152602001906001900390816104e25790505b50905060005b82518110156105575761052983828151811061051c5761051b611cf1565b5b6020026020010151610f59565b82828151811061053c5761053b611cf1565b5b602002602001018190525061055081610879565b90506104fd565b50919050565b606061056882610f59565b9050919050565b6105776107a5565b6105816000610645565b565b61058b6107a5565b610595828261081c565b5050565b60008060009054906101000a900473ffffffffffffffffffffffffffffffffffffffff16905090565b6105ca6107a5565b600073ffffffffffffffffffffffffffffffffffffffff168173ffffffffffffffffffffffffffffffffffffffff1603610639576040517f08c379a000000000000000000000000000000000000000000000000000000000815260040161063090611e6a565b60405180910390fd5b61064281610645565b50565b61064d610599565b73ffffffffffffffffffffffffffffffffffffffff168173ffffffffffffffffffffffffffffffffffffffff16146107415760008060009054906101000a900473ffffffffffffffffffffffffffffffffffffffff169050816000806101000a81548173ffffffffffffffffffffffffffffffffffffffff021916908373ffffffffffffffffffffffffffffffffffffffff1602179055508173ffffffffffffffffffffffffffffffffffffffff168173ffffffffffffffffffffffffffffffffffffffff167f8be0079c531659141344cd1fd0a4f28419497f9722a3daafe3b4186f6b6457e060405160405180910390a3505b50565b600063714df77c60e01b7bffffffffffffffffffffffffffffffffffffffffffffffffffffffff1916827bffffffffffffffffffffffffffffffffffffffffffffffffffffffff1916148061079e575061079d82610ffe565b5b9050919050565b3373ffffffffffffffffffffffffffffffffffffffff166107c4610599565b73ffffffffffffffffffffffffffffffffffffffff161461081a576040517f08c379a000000000000000000000000000000000000000000000000000000000815260040161081190611ed6565b60405180910390fd5b565b8060016000848152602001908152602001600020908161083c9190612102565b50817fece574603820d07bc9b91f2a932baadf4628aabcb8afba49776529c14a6104b28260405161086d91906119d5565b60405180910390a25050565b6000600182019050919050565b60606000808573ffffffffffffffffffffffffffffffffffffffff1685856040516108b19190612210565b60006040518083038185875af1925050503d80600081146108ee576040519150601f19603f3d011682016040523d82523d6000602084013e6108f3565b606091505b509150915061093882826040518060400160405280601681526020017f455243373235583a20556e6b6e6f776e204572726f720000000000000000000081525061105f565b9250848673ffffffffffffffffffffffffffffffffffffffff1660007f4810874456b8e6487bd861375cf6abd8e1c8bb5858c8ce36a86a04dabfac199e8761097f9061224c565b60405161098c91906122c2565b60405180910390a450509392505050565b6060600073ffffffffffffffffffffffffffffffffffffffff168473ffffffffffffffffffffffffffffffffffffffff1614610a0e576040517f08c379a0000000000000000000000000000000000000000000000000000000008152600401610a0590612375565b60405180910390fd5b6000825103610a52576040517f08c379a0000000000000000000000000000000000000000000000000000000008152600401610a4990612407565b60405180910390fd5b600082516020840185f09050600073ffffffffffffffffffffffffffffffffffffffff168173ffffffffffffffffffffffffffffffffffffffff1603610acd576040517f08c379a0000000000000000000000000000000000000000000000000000000008152600401610ac490612499565b60405180910390fd5b80604051602001610ade9190612501565b6040516020818303038152906040529150838173ffffffffffffffffffffffffffffffffffffffff1660017f01c42bd7e97a66166063b02fce6924e6656b6c2c61966630165095c4fb0b7b2f60405160405180910390a4509392505050565b6060600073ffffffffffffffffffffffffffffffffffffffff168473ffffffffffffffffffffffffffffffffffffffff1614610bae576040517f08c379a0000000000000000000000000000000000000000000000000000000008152600401610ba590612375565b60405180910390fd5b6000825103610bf2576040517f08c379a0000000000000000000000000000000000000000000000000000000008152600401610be990612407565b60405180910390fd5b6000610c0b8360208551610c06919061254b565b611081565b90506000610c2884600060208751610c23919061254b565b6110e8565b90506000610c37868484611206565b905080604051602001610c4a9190612501565b6040516020818303038152906040529350858173ffffffffffffffffffffffffffffffffffffffff1660027f01c42bd7e97a66166063b02fce6924e6656b6c2c61966630165095c4fb0b7b2f60405160405180910390a45050509392505050565b606060008314610cf0576040517f08c379a0000000000000000000000000000000000000000000000000000000008152600401610ce7906125f1565b60405180910390fd5b6000808573ffffffffffffffffffffffffffffffffffffffff1684604051610d189190612210565b600060405180830381855afa9150503d8060008114610d53576040519150601f19603f3d011682016040523d82523d6000602084013e610d58565b606091505b5091509150610d9d82826040518060400160405280601681526020017f455243373235583a20556e6b6e6f776e204572726f720000000000000000000081525061105f565b9250848673ffffffffffffffffffffffffffffffffffffffff1660037f4810874456b8e6487bd861375cf6abd8e1c8bb5858c8ce36a86a04dabfac199e87610de49061224c565b604051610df191906122c2565b60405180910390a450509392505050565b606060008314610e47576040517f08c379a0000000000000000000000000000000000000000000000000000000008152600401610e3e90612683565b60405180910390fd5b6000808573ffffffffffffffffffffffffffffffffffffffff1684604051610e6f9190612210565b600060405180830381855af49150503d8060008114610eaa576040519150601f19603f3d011682016040523d82523d6000602084013e610eaf565b606091505b5091509150610ef482826040518060400160405280601681526020017f455243373235583a20556e6b6e6f776e204572726f720000000000000000000081525061105f565b9250848673ffffffffffffffffffffffffffffffffffffffff1660047f4810874456b8e6487bd861375cf6abd8e1c8bb5858c8ce36a86a04dabfac199e87610f3b9061224c565b604051610f4891906122c2565b60405180910390a450509392505050565b6060600160008381526020019081526020016000208054610f7990611f25565b80601f0160208091040260200160405190810160405280929190818152602001828054610fa590611f25565b8015610ff25780601f10610fc757610100808354040283529160200191610ff2565b820191906000526020600020905b815481529060010190602001808311610fd557829003601f168201915b50505050509050919050565b60006344c028fe60e01b7bffffffffffffffffffffffffffffffffffffffffffffffffffffffff1916827bffffffffffffffffffffffffffffffffffffffffffffffffffffffff19161480611058575061105782611310565b5b9050919050565b6060831561106f5782905061107a565b611079838361137a565b5b9392505050565b600060208261109091906126a3565b835110156110d3576040517f08c379a00000000000000000000000000000000000000000000000000000000081526004016110ca90612745565b60405180910390fd5b60008260208501015190508091505092915050565b606081601f836110f891906126a3565b1015611139576040517f08c379a0000000000000000000000000000000000000000000000000000000008152600401611130906127b1565b60405180910390fd5b818361114591906126a3565b84511015611188576040517f08c379a000000000000000000000000000000000000000000000000000000000815260040161117f9061281d565b60405180910390fd5b60608215600081146111a957604051915060008252602082016040526111fa565b6040519150601f8416801560200281840101858101878315602002848b0101015b818310156111e757805183526020830192506020810190506111ca565b50868552601f19601f8301166040525050505b50809150509392505050565b60008347101561124b576040517f08c379a000000000000000000000000000000000000000000000000000000000815260040161124290612889565b60405180910390fd5b600082510361128f576040517f08c379a0000000000000000000000000000000000000000000000000000000008152600401611286906128f5565b60405180910390fd5b8282516020840186f59050600073ffffffffffffffffffffffffffffffffffffffff168173ffffffffffffffffffffffffffffffffffffffff1603611309576040517f08c379a000000000000000000000000000000000000000000000000000000000815260040161130090612961565b60405180910390fd5b9392505050565b60007f01ffc9a7000000000000000000000000000000000000000000000000000000007bffffffffffffffffffffffffffffffffffffffffffffffffffffffff1916827bffffffffffffffffffffffffffffffffffffffffffffffffffffffff1916149050919050565b60008251111561138d5781518083602001fd5b806040517f08c379a00000000000000000000000000000000000000000000000000000000081526004016113c191906129c5565b60405180910390fd5b6000604051905090565b600080fd5b600080fd5b60007fffffffff0000000000000000000000000000000000000000000000000000000082169050919050565b611413816113de565b811461141e57600080fd5b50565b6000813590506114308161140a565b92915050565b60006020828403121561144c5761144b6113d4565b5b600061145a84828501611421565b91505092915050565b60008115159050919050565b61147881611463565b82525050565b6000602082019050611493600083018461146f565b92915050565b600080fd5b6000601f19601f8301169050919050565b7f4e487b7100000000000000000000000000000000000000000000000000000000600052604160045260246000fd5b6114e78261149e565b810181811067ffffffffffffffff82111715611506576115056114af565b5b80604052505050565b60006115196113ca565b905061152582826114de565b919050565b600067ffffffffffffffff821115611545576115446114af565b5b602082029050602081019050919050565b600080fd5b6000819050919050565b61156e8161155b565b811461157957600080fd5b50565b60008135905061158b81611565565b92915050565b60006115a461159f8461152a565b61150f565b905080838252602082019050602084028301858111156115c7576115c6611556565b5b835b818110156115f057806115dc888261157c565b8452602084019350506020810190506115c9565b5050509392505050565b600082601f83011261160f5761160e611499565b5b813561161f848260208601611591565b91505092915050565b600067ffffffffffffffff821115611643576116426114af565b5b602082029050602081019050919050565b600080fd5b600067ffffffffffffffff821115611674576116736114af565b5b61167d8261149e565b9050602081019050919050565b82818337600083830152505050565b60006116ac6116a784611659565b61150f565b9050828152602081018484840111156116c8576116c7611654565b5b6116d384828561168a565b509392505050565b600082601f8301126116f0576116ef611499565b5b8135611700848260208601611699565b91505092915050565b600061171c61171784611628565b61150f565b9050808382526020820190506020840283018581111561173f5761173e611556565b5b835b8181101561178657803567ffffffffffffffff81111561176457611763611499565b5b80860161177189826116db565b85526020850194505050602081019050611741565b5050509392505050565b600082601f8301126117a5576117a4611499565b5b81356117b5848260208601611709565b91505092915050565b600080604083850312156117d5576117d46113d4565b5b600083013567ffffffffffffffff8111156117f3576117f26113d9565b5b6117ff858286016115fa565b925050602083013567ffffffffffffffff8111156118205761181f6113d9565b5b61182c85828601611790565b9150509250929050565b6000819050919050565b61184981611836565b811461185457600080fd5b50565b60008135905061186681611840565b92915050565b600073ffffffffffffffffffffffffffffffffffffffff82169050919050565b60006118978261186c565b9050919050565b6118a78161188c565b81146118b257600080fd5b50565b6000813590506118c48161189e565b92915050565b600080600080608085870312156118e4576118e36113d4565b5b60006118f287828801611857565b9450506020611903878288016118b5565b935050604061191487828801611857565b925050606085013567ffffffffffffffff811115611935576119346113d9565b5b611941878288016116db565b91505092959194509250565b600081519050919050565b600082825260208201905092915050565b60005b8381101561198757808201518184015260208101905061196c565b83811115611996576000848401525b50505050565b60006119a78261194d565b6119b18185611958565b93506119c1818560208601611969565b6119ca8161149e565b840191505092915050565b600060208201905081810360008301526119ef818461199c565b905092915050565b600060208284031215611a0d57611a0c6113d4565b5b600082013567ffffffffffffffff811115611a2b57611a2a6113d9565b5b611a37848285016115fa565b91505092915050565b600081519050919050565b600082825260208201905092915050565b6000819050602082019050919050565b600082825260208201905092915050565b6000611a888261194d565b611a928185611a6c565b9350611aa2818560208601611969565b611aab8161149e565b840191505092915050565b6000611ac28383611a7d565b905092915050565b6000602082019050919050565b6000611ae282611a40565b611aec8185611a4b565b935083602082028501611afe85611a5c565b8060005b85811015611b3a5784840389528151611b1b8582611ab6565b9450611b2683611aca565b925060208a01995050600181019050611b02565b50829750879550505050505092915050565b60006020820190508181036000830152611b668184611ad7565b905092915050565b600060208284031215611b8457611b836113d4565b5b6000611b928482850161157c565b91505092915050565b60008060408385031215611bb257611bb16113d4565b5b6000611bc08582860161157c565b925050602083013567ffffffffffffffff811115611be157611be06113d9565b5b611bed858286016116db565b9150509250929050565b611c008161188c565b82525050565b6000602082019050611c1b6000830184611bf7565b92915050565b600060208284031215611c3757611c366113d4565b5b6000611c45848285016118b5565b91505092915050565b600082825260208201905092915050565b7f4b657973206c656e677468206e6f7420657175616c20746f2076616c7565732060008201527f6c656e6774680000000000000000000000000000000000000000000000000000602082015250565b6000611cbb602683611c4e565b9150611cc682611c5f565b604082019050919050565b60006020820190508181036000830152611cea81611cae565b9050919050565b7f4e487b7100000000000000000000000000000000000000000000000000000000600052603260045260246000fd5b7f455243373235583a20696e73756666696369656e742062616c616e6365000000600082015250565b6000611d56601d83611c4e565b9150611d6182611d20565b602082019050919050565b60006020820190508181036000830152611d8581611d49565b9050919050565b7f455243373235583a20556e6b6e6f776e206f7065726174696f6e207479706500600082015250565b6000611dc2601f83611c4e565b9150611dcd82611d8c565b602082019050919050565b60006020820190508181036000830152611df181611db5565b9050919050565b7f4f776e61626c653a206e6577206f776e657220697320746865207a65726f206160008201527f6464726573730000000000000000000000000000000000000000000000000000602082015250565b6000611e54602683611c4e565b9150611e5f82611df8565b604082019050919050565b60006020820190508181036000830152611e8381611e47565b9050919050565b7f4f776e61626c653a2063616c6c6572206973206e6f7420746865206f776e6572600082015250565b6000611ec0602083611c4e565b9150611ecb82611e8a565b602082019050919050565b60006020820190508181036000830152611eef81611eb3565b9050919050565b7f4e487b7100000000000000000000000000000000000000000000000000000000600052602260045260246000fd5b60006002820490506001821680611f3d57607f821691505b602082108103611f5057611f4f611ef6565b5b50919050565b60008190508160005260206000209050919050565b60006020601f8301049050919050565b600082821b905092915050565b600060088302611fb87fffffffffffffffffffffffffffffffffffffffffffffffffffffffffffffffff82611f7b565b611fc28683611f7b565b95508019841693508086168417925050509392505050565b6000819050919050565b6000611fff611ffa611ff584611836565b611fda565b611836565b9050919050565b6000819050919050565b61201983611fe4565b61202d61202582612006565b848454611f88565b825550505050565b600090565b612042612035565b61204d818484612010565b505050565b5b818110156120715761206660008261203a565b600181019050612053565b5050565b601f8211156120b65761208781611f56565b61209084611f6b565b8101602085101561209f578190505b6120b36120ab85611f6b565b830182612052565b50505b505050565b600082821c905092915050565b60006120d9600019846008026120bb565b1980831691505092915050565b60006120f283836120c8565b9150826002028217905092915050565b61210b8261194d565b67ffffffffffffffff811115612124576121236114af565b5b61212e8254611f25565b612139828285612075565b600060209050601f83116001811461216c576000841561215a578287015190505b61216485826120e6565b8655506121cc565b601f19841661217a86611f56565b60005b828110156121a25784890151825560018201915060208501945060208101905061217d565b868310156121bf57848901516121bb601f8916826120c8565b8355505b6001600288020188555050505b505050505050565b600081905092915050565b60006121ea8261194d565b6121f481856121d4565b9350612204818560208601611969565b80840191505092915050565b600061221c82846121df565b915081905092915050565b6000819050602082019050919050565b600061224382516113de565b80915050919050565b60006122578261194d565b8261226184612227565b905061226c81612237565b925060048210156122ac576122a77fffffffff0000000000000000000000000000000000000000000000000000000083600403600802611f7b565b831692505b5050919050565b6122bc816113de565b82525050565b60006020820190506122d760008301846122b3565b92915050565b7f455243373235583a20435245415445206f7065726174696f6e7320726571756960008201527f726520746865207265636569766572206164647265737320746f20626520656d60208201527f7074790000000000000000000000000000000000000000000000000000000000604082015250565b600061235f604383611c4e565b915061236a826122dd565b606082019050919050565b6000602082019050818103600083015261238e81612352565b9050919050565b7f455243373235583a204e6f20636f6e74726163742062797465636f646520707260008201527f6f76696465640000000000000000000000000000000000000000000000000000602082015250565b60006123f1602683611c4e565b91506123fc82612395565b604082019050919050565b60006020820190508181036000830152612420816123e4565b9050919050565b7f455243373235583a20436f756c64206e6f74206465706c6f7920636f6e74726160008201527f6374000000000000000000000000000000000000000000000000000000000000602082015250565b6000612483602283611c4e565b915061248e82612427565b604082019050919050565b600060208201905081810360008301526124b281612476565b9050919050565b60008160601b9050919050565b60006124d1826124b9565b9050919050565b60006124e3826124c6565b9050919050565b6124fb6124f68261188c565b6124d8565b82525050565b600061250d82846124ea565b60148201915081905092915050565b7f4e487b7100000000000000000000000000000000000000000000000000000000600052601160045260246000fd5b600061255682611836565b915061256183611836565b9250828210156125745761257361251c565b5b828203905092915050565b7f455243373235583a2063616e6e6f74207472616e736665722076616c7565207760008201527f697468206f7065726174696f6e2053544154494343414c4c0000000000000000602082015250565b60006125db603883611c4e565b91506125e68261257f565b604082019050919050565b6000602082019050818103600083015261260a816125ce565b9050919050565b7f455243373235583a2063616e6e6f74207472616e736665722076616c7565207760008201527f697468206f7065726174696f6e2044454c454741544543414c4c000000000000602082015250565b600061266d603a83611c4e565b915061267882612611565b604082019050919050565b6000602082019050818103600083015261269c81612660565b9050919050565b60006126ae82611836565b91506126b983611836565b9250827fffffffffffffffffffffffffffffffffffffffffffffffffffffffffffffffff038211156126ee576126ed61251c565b5b828201905092915050565b7f746f427974657333325f6f75744f66426f756e64730000000000000000000000600082015250565b600061272f601583611c4e565b915061273a826126f9565b602082019050919050565b6000602082019050818103600083015261275e81612722565b9050919050565b7f736c6963655f6f766572666c6f77000000000000000000000000000000000000600082015250565b600061279b600e83611c4e565b91506127a682612765565b602082019050919050565b600060208201905081810360008301526127ca8161278e565b9050919050565b7f736c6963655f6f75744f66426f756e6473000000000000000000000000000000600082015250565b6000612807601183611c4e565b9150612812826127d1565b602082019050919050565b60006020820190508181036000830152612836816127fa565b9050919050565b7f437265617465323a20696e73756666696369656e742062616c616e6365000000600082015250565b6000612873601d83611c4e565b915061287e8261283d565b602082019050919050565b600060208201905081810360008301526128a281612866565b9050919050565b7f437265617465323a2062797465636f6465206c656e677468206973207a65726f600082015250565b60006128df602083611c4e565b91506128ea826128a9565b602082019050919050565b6000602082019050818103600083015261290e816128d2565b9050919050565b7f437265617465323a204661696c6564206f6e206465706c6f7900000000000000600082015250565b600061294b601983611c4e565b915061295682612915565b602082019050919050565b6000602082019050818103600083015261297a8161293e565b9050919050565b600081519050919050565b600061299782612981565b6129a18185611c4e565b93506129b1818560208601611969565b6129ba8161149e565b840191505092915050565b600060208201905081810360008301526129df818461298c565b90509291505056fea2646970667358221220cedeb1766e880bff865fee63038e248fa941d48293dbcdc779aa0a0958c9122d64736f6c634300080f0033",
  "linkReferences": {},
  "deployedLinkReferences": {}
}