{
  "_format": "hh-sol-artifact-1",
  "contractName": "LSP8PinSave",
  "sourceName": "contracts/LSP8PinSave.sol",
  "abi": [
    {
      "inputs": [
        {
          "internalType": "string",
          "name": "name_",
          "type": "string"
        },
        {
          "internalType": "string",
          "name": "symbol_",
          "type": "string"
        },
        {
          "internalType": "address",
          "name": "newOwner_",
          "type": "address"
        }
      ],
      "stateMutability": "nonpayable",
      "type": "constructor"
    },
    {
      "inputs": [
        {
          "internalType": "uint256",
          "name": "dataKeysLength",
          "type": "uint256"
        },
        {
          "internalType": "uint256",
          "name": "dataValuesLength",
          "type": "uint256"
        }
      ],
      "name": "ERC725Y_DataKeysValuesLengthMismatch",
      "type": "error"
    },
    {
      "inputs": [],
      "name": "ERC725Y_MsgValueDisallowed",
      "type": "error"
    },
    {
      "inputs": [],
      "name": "LSP4TokenNameNotEditable",
      "type": "error"
    },
    {
      "inputs": [],
      "name": "LSP4TokenSymbolNotEditable",
      "type": "error"
    },
    {
      "inputs": [],
      "name": "LSP8CannotSendToAddressZero",
      "type": "error"
    },
    {
      "inputs": [],
      "name": "LSP8CannotSendToSelf",
      "type": "error"
    },
    {
      "inputs": [],
      "name": "LSP8CannotUseAddressZeroAsOperator",
      "type": "error"
    },
    {
      "inputs": [],
      "name": "LSP8InvalidTransferBatch",
      "type": "error"
    },
    {
      "inputs": [
        {
          "internalType": "bytes32",
          "name": "tokenId",
          "type": "bytes32"
        }
      ],
      "name": "LSP8NonExistentTokenId",
      "type": "error"
    },
    {
      "inputs": [
        {
          "internalType": "address",
          "name": "operator",
          "type": "address"
        },
        {
          "internalType": "bytes32",
          "name": "tokenId",
          "type": "bytes32"
        }
      ],
      "name": "LSP8NonExistingOperator",
      "type": "error"
    },
    {
      "inputs": [
        {
          "internalType": "bytes32",
          "name": "tokenId",
          "type": "bytes32"
        },
        {
          "internalType": "address",
          "name": "caller",
          "type": "address"
        }
      ],
      "name": "LSP8NotTokenOperator",
      "type": "error"
    },
    {
      "inputs": [
        {
          "internalType": "address",
          "name": "tokenOwner",
          "type": "address"
        },
        {
          "internalType": "bytes32",
          "name": "tokenId",
          "type": "bytes32"
        },
        {
          "internalType": "address",
          "name": "caller",
          "type": "address"
        }
      ],
      "name": "LSP8NotTokenOwner",
      "type": "error"
    },
    {
      "inputs": [
        {
          "internalType": "address",
          "name": "tokenReceiver",
          "type": "address"
        }
      ],
      "name": "LSP8NotifyTokenReceiverContractMissingLSP1Interface",
      "type": "error"
    },
    {
      "inputs": [
        {
          "internalType": "address",
          "name": "tokenReceiver",
          "type": "address"
        }
      ],
      "name": "LSP8NotifyTokenReceiverIsEOA",
      "type": "error"
    },
    {
      "inputs": [
        {
          "internalType": "address",
          "name": "operator",
          "type": "address"
        },
        {
          "internalType": "bytes32",
          "name": "tokenId",
          "type": "bytes32"
        }
      ],
      "name": "LSP8OperatorAlreadyAuthorized",
      "type": "error"
    },
    {
      "inputs": [
        {
          "internalType": "bytes32",
          "name": "tokenId",
          "type": "bytes32"
        }
      ],
      "name": "LSP8TokenIdAlreadyMinted",
      "type": "error"
    },
    {
      "inputs": [],
      "name": "LSP8TokenOwnerCannotBeOperator",
      "type": "error"
    },
    {
      "anonymous": false,
      "inputs": [
        {
          "indexed": true,
          "internalType": "address",
          "name": "operator",
          "type": "address"
        },
        {
          "indexed": true,
          "internalType": "address",
          "name": "tokenOwner",
          "type": "address"
        },
        {
          "indexed": true,
          "internalType": "bytes32",
          "name": "tokenId",
          "type": "bytes32"
        }
      ],
      "name": "AuthorizedOperator",
      "type": "event"
    },
    {
      "anonymous": false,
      "inputs": [
        {
          "indexed": true,
          "internalType": "bytes32",
          "name": "dataKey",
          "type": "bytes32"
        },
        {
          "indexed": false,
          "internalType": "bytes",
          "name": "dataValue",
          "type": "bytes"
        }
      ],
      "name": "DataChanged",
      "type": "event"
    },
    {
      "anonymous": false,
      "inputs": [
        {
          "indexed": true,
          "internalType": "address",
          "name": "previousOwner",
          "type": "address"
        },
        {
          "indexed": true,
          "internalType": "address",
          "name": "newOwner",
          "type": "address"
        }
      ],
      "name": "OwnershipTransferred",
      "type": "event"
    },
    {
      "anonymous": false,
      "inputs": [
        {
          "indexed": true,
          "internalType": "address",
          "name": "operator",
          "type": "address"
        },
        {
          "indexed": true,
          "internalType": "address",
          "name": "tokenOwner",
          "type": "address"
        },
        {
          "indexed": true,
          "internalType": "bytes32",
          "name": "tokenId",
          "type": "bytes32"
        }
      ],
      "name": "RevokedOperator",
      "type": "event"
    },
    {
      "anonymous": false,
      "inputs": [
        {
          "indexed": false,
          "internalType": "address",
          "name": "operator",
          "type": "address"
        },
        {
          "indexed": true,
          "internalType": "address",
          "name": "from",
          "type": "address"
        },
        {
          "indexed": true,
          "internalType": "address",
          "name": "to",
          "type": "address"
        },
        {
          "indexed": true,
          "internalType": "bytes32",
          "name": "tokenId",
          "type": "bytes32"
        },
        {
          "indexed": false,
          "internalType": "bool",
          "name": "allowNonLSP1Recipient",
          "type": "bool"
        },
        {
          "indexed": false,
          "internalType": "bytes",
          "name": "data",
          "type": "bytes"
        }
      ],
      "name": "Transfer",
      "type": "event"
    },
    {
      "inputs": [
        {
          "internalType": "address",
          "name": "operator",
          "type": "address"
        },
        {
          "internalType": "bytes32",
          "name": "tokenId",
          "type": "bytes32"
        }
      ],
      "name": "authorizeOperator",
      "outputs": [],
      "stateMutability": "nonpayable",
      "type": "function"
    },
    {
      "inputs": [
        {
          "internalType": "address",
          "name": "tokenOwner",
          "type": "address"
        }
      ],
      "name": "balanceOf",
      "outputs": [
        {
          "internalType": "uint256",
          "name": "",
          "type": "uint256"
        }
      ],
      "stateMutability": "view",
      "type": "function"
    },
    {
      "inputs": [
        {
          "internalType": "address",
          "name": "to",
          "type": "address"
        },
        {
          "internalType": "string[]",
          "name": "_cid",
          "type": "string[]"
        },
        {
          "internalType": "bytes32[]",
          "name": "tokenId",
          "type": "bytes32[]"
        }
      ],
      "name": "createBatchPosts",
      "outputs": [],
      "stateMutability": "nonpayable",
      "type": "function"
    },
    {
      "inputs": [
        {
          "internalType": "address",
          "name": "receiver",
          "type": "address"
        },
        {
          "internalType": "string",
          "name": "_cid",
          "type": "string"
        },
        {
          "internalType": "bytes32",
          "name": "tokenId",
          "type": "bytes32"
        }
      ],
      "name": "createPost",
      "outputs": [],
      "stateMutability": "nonpayable",
      "type": "function"
    },
    {
      "inputs": [
        {
          "internalType": "uint256",
          "name": "id",
          "type": "uint256"
        }
      ],
      "name": "getCreator",
      "outputs": [
        {
          "internalType": "address",
          "name": "",
          "type": "address"
        }
      ],
      "stateMutability": "view",
      "type": "function"
    },
    {
      "inputs": [
        {
          "internalType": "bytes32[]",
          "name": "dataKeys",
          "type": "bytes32[]"
        }
      ],
      "name": "getData",
      "outputs": [
        {
          "internalType": "bytes[]",
          "name": "dataValues",
          "type": "bytes[]"
        }
      ],
      "stateMutability": "view",
      "type": "function"
    },
    {
      "inputs": [
        {
          "internalType": "bytes32",
          "name": "dataKey",
          "type": "bytes32"
        }
      ],
      "name": "getData",
      "outputs": [
        {
          "internalType": "bytes",
          "name": "dataValue",
          "type": "bytes"
        }
      ],
      "stateMutability": "view",
      "type": "function"
    },
    {
      "inputs": [
        {
          "internalType": "bytes32",
          "name": "tokenId",
          "type": "bytes32"
        }
      ],
      "name": "getOperatorsOf",
      "outputs": [
        {
          "internalType": "address[]",
          "name": "",
          "type": "address[]"
        }
      ],
      "stateMutability": "view",
      "type": "function"
    },
    {
      "inputs": [
        {
          "internalType": "uint256",
          "name": "id",
          "type": "uint256"
        }
      ],
      "name": "getPost",
      "outputs": [
        {
          "internalType": "string",
          "name": "",
          "type": "string"
        }
      ],
      "stateMutability": "view",
      "type": "function"
    },
    {
      "inputs": [
        {
          "internalType": "uint256",
          "name": "id",
          "type": "uint256"
        }
      ],
      "name": "getPostOwner",
      "outputs": [
        {
          "internalType": "address",
          "name": "",
          "type": "address"
        }
      ],
      "stateMutability": "view",
      "type": "function"
    },
    {
      "inputs": [
        {
          "internalType": "address",
          "name": "operator",
          "type": "address"
        },
        {
          "internalType": "bytes32",
          "name": "tokenId",
          "type": "bytes32"
        }
      ],
      "name": "isOperatorFor",
      "outputs": [
        {
          "internalType": "bool",
          "name": "",
          "type": "bool"
        }
      ],
      "stateMutability": "view",
      "type": "function"
    },
    {
      "inputs": [],
      "name": "owner",
      "outputs": [
        {
          "internalType": "address",
          "name": "",
          "type": "address"
        }
      ],
      "stateMutability": "view",
      "type": "function"
    },
    {
      "inputs": [
        {
          "internalType": "uint256",
          "name": "",
          "type": "uint256"
        }
      ],
      "name": "postByTokenId",
      "outputs": [
        {
          "internalType": "string",
          "name": "cid",
          "type": "string"
        },
        {
          "internalType": "address",
          "name": "author",
          "type": "address"
        },
        {
          "internalType": "uint256",
          "name": "id",
          "type": "uint256"
        },
        {
          "internalType": "bytes32",
          "name": "tokenId",
          "type": "bytes32"
        }
      ],
      "stateMutability": "view",
      "type": "function"
    },
    {
      "inputs": [],
      "name": "renounceOwnership",
      "outputs": [],
      "stateMutability": "nonpayable",
      "type": "function"
    },
    {
      "inputs": [
        {
          "internalType": "address",
          "name": "operator",
          "type": "address"
        },
        {
          "internalType": "bytes32",
          "name": "tokenId",
          "type": "bytes32"
        }
      ],
      "name": "revokeOperator",
      "outputs": [],
      "stateMutability": "nonpayable",
      "type": "function"
    },
    {
      "inputs": [
        {
          "internalType": "bytes32[]",
          "name": "dataKeys",
          "type": "bytes32[]"
        },
        {
          "internalType": "bytes[]",
          "name": "dataValues",
          "type": "bytes[]"
        }
      ],
      "name": "setData",
      "outputs": [],
      "stateMutability": "payable",
      "type": "function"
    },
    {
      "inputs": [
        {
          "internalType": "bytes32",
          "name": "dataKey",
          "type": "bytes32"
        },
        {
          "internalType": "bytes",
          "name": "dataValue",
          "type": "bytes"
        }
      ],
      "name": "setData",
      "outputs": [],
      "stateMutability": "payable",
      "type": "function"
    },
    {
      "inputs": [
        {
          "internalType": "bytes4",
          "name": "interfaceId",
          "type": "bytes4"
        }
      ],
      "name": "supportsInterface",
      "outputs": [
        {
          "internalType": "bool",
          "name": "",
          "type": "bool"
        }
      ],
      "stateMutability": "view",
      "type": "function"
    },
    {
      "inputs": [
        {
          "internalType": "address",
          "name": "tokenOwner",
          "type": "address"
        }
      ],
      "name": "tokenIdsOf",
      "outputs": [
        {
          "internalType": "bytes32[]",
          "name": "",
          "type": "bytes32[]"
        }
      ],
      "stateMutability": "view",
      "type": "function"
    },
    {
      "inputs": [
        {
          "internalType": "bytes32",
          "name": "tokenId",
          "type": "bytes32"
        }
      ],
      "name": "tokenOwnerOf",
      "outputs": [
        {
          "internalType": "address",
          "name": "",
          "type": "address"
        }
      ],
      "stateMutability": "view",
      "type": "function"
    },
    {
      "inputs": [],
      "name": "totalSupply",
      "outputs": [
        {
          "internalType": "uint256",
          "name": "",
          "type": "uint256"
        }
      ],
      "stateMutability": "view",
      "type": "function"
    },
    {
      "inputs": [
        {
          "internalType": "address",
          "name": "from",
          "type": "address"
        },
        {
          "internalType": "address",
          "name": "to",
          "type": "address"
        },
        {
          "internalType": "bytes32",
          "name": "tokenId",
          "type": "bytes32"
        },
        {
          "internalType": "bool",
          "name": "allowNonLSP1Recipient",
          "type": "bool"
        },
        {
          "internalType": "bytes",
          "name": "data",
          "type": "bytes"
        }
      ],
      "name": "transfer",
      "outputs": [],
      "stateMutability": "nonpayable",
      "type": "function"
    },
    {
      "inputs": [
        {
          "internalType": "address[]",
          "name": "from",
          "type": "address[]"
        },
        {
          "internalType": "address[]",
          "name": "to",
          "type": "address[]"
        },
        {
          "internalType": "bytes32[]",
          "name": "tokenId",
          "type": "bytes32[]"
        },
        {
          "internalType": "bool[]",
          "name": "allowNonLSP1Recipient",
          "type": "bool[]"
        },
        {
          "internalType": "bytes[]",
          "name": "data",
          "type": "bytes[]"
        }
      ],
      "name": "transferBatch",
      "outputs": [],
      "stateMutability": "nonpayable",
      "type": "function"
    },
    {
      "inputs": [
        {
          "internalType": "address",
          "name": "newOwner",
          "type": "address"
        }
      ],
      "name": "transferOwnership",
      "outputs": [],
      "stateMutability": "nonpayable",
      "type": "function"
    }
  ],
  "bytecode": "0x60806040523480156200001157600080fd5b5060405162002ecd38038062002ecd8339810160408190526200003491620002ed565b828282828282806001600160a01b038116620000a55760405162461bcd60e51b815260206004820152602660248201527f4f776e61626c653a206e6577206f776e657220697320746865207a65726f206160448201526564647265737360d01b606482015260840160405180910390fd5b620000b08162000160565b506040805180820190915260048152632936598960e21b6020820152620000f9907feafec4d89fa9619884b60000a4d96624a38f7ac2d8d9a604ecf07c12c77e480c90620001c7565b620001257fdeba1e292f8ba88238e10ab3c7f88bd4be4fac56cad5194b6ecceaf653468af184620001c7565b620001517f2f0a68ab07768e01943a599e73362a0e17a63a72e94dd2e384d2c1d4db93275683620001c7565b5050505050505050506200050a565b6000546001600160a01b03828116911614620001c457600080546001600160a01b038381166001600160a01b0319831681178455604051919092169283917f8be0079c531659141344cd1fd0a4f28419497f9722a3daafe3b4186f6b6457e09190a3505b50565b6000828152600160205260409020620001e1828262000409565b50817fece574603820d07bc9b91f2a932baadf4628aabcb8afba49776529c14a6104b282604051620002149190620004d5565b60405180910390a25050565b634e487b7160e01b600052604160045260246000fd5b60005b838110156200025357818101518382015260200162000239565b50506000910152565b600082601f8301126200026e57600080fd5b81516001600160401b03808211156200028b576200028b62000220565b604051601f8301601f19908116603f01168101908282118183101715620002b657620002b662000220565b81604052838152866020858801011115620002d057600080fd5b620002e384602083016020890162000236565b9695505050505050565b6000806000606084860312156200030357600080fd5b83516001600160401b03808211156200031b57600080fd5b62000329878388016200025c565b945060208601519150808211156200034057600080fd5b506200034f868287016200025c565b604086015190935090506001600160a01b03811681146200036f57600080fd5b809150509250925092565b600181811c908216806200038f57607f821691505b602082108103620003b057634e487b7160e01b600052602260045260246000fd5b50919050565b601f8211156200040457600081815260208120601f850160051c81016020861015620003df5750805b601f850160051c820191505b818110156200040057828155600101620003eb565b5050505b505050565b81516001600160401b0381111562000425576200042562000220565b6200043d816200043684546200037a565b84620003b6565b602080601f8311600181146200047557600084156200045c5750858301515b600019600386901b1c1916600185901b17855562000400565b600085815260208120601f198616915b82811015620004a65788860151825594840194600190910190840162000485565b5085821015620004c55787850151600019600388901b60f8161c191681555b5050505050600190811b01905550565b6020815260008251806020840152620004f681604085016020870162000236565b601f01601f19169190910160400192915050565b6129b3806200051a6000396000f3fe60806040526004361061018b5760003560e01c806354f6127f116100d657806395b9945b1161007f578063cf5182ba11610059578063cf5182ba1461047b578063d48e638a1461049b578063f2fde38b146104d457600080fd5b806395b9945b1461040e578063a3b261f21461042e578063b92223c31461045b57600080fd5b80637e87632c116100b05780637e87632c146103bd5780637f23690c146103dd5780638da5cb5b146103f057600080fd5b806354f6127f1461036857806370a0823114610388578063715018a6146103a857600080fd5b8063217b22701161013857806349a6078d1161011257806349a6078d146102ee5780634e3e6e9c1461031b578063511b69521461034857600080fd5b8063217b2270146102815780632a3654a4146102a157806340731c24146102c157600080fd5b806314a6e2931161016957806314a6e2931461021f57806316ebbe041461023257806318160ddd1461026257600080fd5b806301ffc9a714610190578063085f441f146101c55780630b0c6d82146101fd575b600080fd5b34801561019c57600080fd5b506101b06101ab366004611d84565b6104f4565b60405190151581526020015b60405180910390f35b3480156101d157600080fd5b506101e56101e0366004611dc6565b610550565b6040516001600160a01b0390911681526020016101bc565b34801561020957600080fd5b5061021d610218366004611dfb565b61056b565b005b61021d61022d366004611ff4565b610659565b34801561023e57600080fd5b5061025261024d366004611dc6565b610731565b6040516101bc94939291906120a8565b34801561026e57600080fd5b506002545b6040519081526020016101bc565b34801561028d57600080fd5b506101e561029c366004611dc6565b6107ed565b3480156102ad57600080fd5b506101b06102bc366004611dfb565b61083f565b3480156102cd57600080fd5b506102e16102dc366004611dc6565b61085b565b6040516101bc91906120e0565b3480156102fa57600080fd5b5061030e610309366004611dc6565b6108fd565b6040516101bc91906120f3565b34801561032757600080fd5b5061033b610336366004612140565b61091f565b6040516101bc9190612175565b34801561035457600080fd5b5061021d610363366004612205565b6109d3565b34801561037457600080fd5b506102e1610383366004611dc6565b610a3b565b34801561039457600080fd5b506102736103a336600461227e565b610a46565b3480156103b457600080fd5b5061021d610a67565b3480156103c957600080fd5b5061021d6103d836600461235d565b610a7b565b61021d6103eb366004612422565b610b83565b3480156103fc57600080fd5b506000546001600160a01b03166101e5565b34801561041a57600080fd5b5061021d61042936600461245f565b610bd1565b34801561043a57600080fd5b5061044e61044936600461227e565b610c29565b6040516101bc9190612545565b34801561046757600080fd5b5061021d61047636600461257d565b610c4d565b34801561048757600080fd5b5061021d610496366004611dfb565b610d8d565b3480156104a757600080fd5b506101e56104b6366004611dc6565b6000908152600d60205260409020600101546001600160a01b031690565b3480156104e057600080fd5b5061021d6104ef36600461227e565b610f10565b60007fffffffff0000000000000000000000000000000000000000000000000000000082167f622e7a0100000000000000000000000000000000000000000000000000000000148061054a575061054a82610fa0565b92915050565b6000818152600d602052604081206003015461054a906107ed565b6000610576826107ed565b90506001600160a01b03811633146105be57604051632d938f5160e11b81526001600160a01b0382166004820152602481018390523360448201526064015b60405180910390fd5b6001600160a01b0383166105fe576040517f9577b8b300000000000000000000000000000000000000000000000000000000815260040160405180910390fd5b826001600160a01b0316816001600160a01b031603610649576040517f89fdad6200000000000000000000000000000000000000000000000000000000815260040160405180910390fd5b610654838284611037565b505050565b6106616110e1565b3415610699576040517ff36ba73700000000000000000000000000000000000000000000000000000000815260040160405180910390fd5b80518251146106e157815181516040517f43a3c266000000000000000000000000000000000000000000000000000000008152600481019290925260248201526044016105b5565b60005b825181101561065457610729838281518110610702576107026125d4565b602002602001015183838151811061071c5761071c6125d4565b602002602001015161114a565b6001016106e4565b600d6020526000908152604090208054819061074c906125ea565b80601f0160208091040260200160405190810160405280929190818152602001828054610778906125ea565b80156107c55780601f1061079a576101008083540402835291602001916107c5565b820191906000526020600020905b8154815290600101906020018083116107a857829003601f168201915b505050506001830154600284015460039094015492936001600160a01b039091169290915084565b6000818152600360205260408120546001600160a01b03168061054a576040517fae8f9a36000000000000000000000000000000000000000000000000000000008152600481018490526024016105b5565b600061084a82611270565b61085483836112c1565b9392505050565b6000818152600d60205260409020805460609190610878906125ea565b80601f01602080910402602001604051908101604052809291908181526020018280546108a4906125ea565b80156108f15780601f106108c6576101008083540402835291602001916108f1565b820191906000526020600020905b8154815290600101906020018083116108d457829003601f168201915b50505050509050919050565b606061090882611270565b600082815260056020526040902061054a9061130a565b6060815167ffffffffffffffff81111561093b5761093b611e25565b60405190808252806020026020018201604052801561096e57816020015b60608152602001906001900390816109595790505b50905060005b82518110156109cd5761099f838281518110610992576109926125d4565b6020026020010151611317565b8282815181106109b1576109b16125d4565b60200260200101819052506109c68160010190565b9050610974565b50919050565b336109de81856112c1565b610a26576040517f1294d2a9000000000000000000000000000000000000000000000000000000008152600481018590526001600160a01b03821660248201526044016105b5565b610a338686868686611334565b505050505050565b606061054a82611317565b6001600160a01b038116600090815260046020526040812061054a906114fd565b610a6f6110e1565b610a796000611507565b565b8451845181141580610a8e575083518114155b80610a9a575082518114155b80610aa6575081518114155b15610add576040517f93a8311900000000000000000000000000000000000000000000000000000000815260040160405180910390fd5b60005b81811015610b7a57610b72878281518110610afd57610afd6125d4565b6020026020010151878381518110610b1757610b176125d4565b6020026020010151878481518110610b3157610b316125d4565b6020026020010151878581518110610b4b57610b4b6125d4565b6020026020010151878681518110610b6557610b656125d4565b60200260200101516109d3565b600101610ae0565b50505050505050565b610b8b6110e1565b3415610bc3576040517ff36ba73700000000000000000000000000000000000000000000000000000000815260040160405180910390fd5b610bcd828261114a565b5050565b805160005b818114610c2257610c1a85858381518110610bf357610bf36125d4565b6020026020010151858481518110610c0d57610c0d6125d4565b6020026020010151610c4d565b600101610bd6565b5050505050565b6001600160a01b038116600090815260046020526040902060609061054a9061130a565b60075460ff1615610ca05760405162461bcd60e51b815260206004820152600e60248201527f4e6f2072652d656e7472616e637900000000000000000000000000000000000060448201526064016105b5565b6007805460ff191660011790556008610cb98382612664565b506009805473ffffffffffffffffffffffffffffffffffffffff191633179055600c8054600090610ce99061273a565b9182905550600a55600b819055600c546000908152600d6020526040902060089080610d158382612754565b50600182810154828201805473ffffffffffffffffffffffffffffffffffffffff19166001600160a01b03909216919091179055600280840154908301556003928301549290910191909155604080516020810190915260008152610d7e918591849190611579565b50506007805460ff1916905550565b6000610d98826107ed565b90506001600160a01b0381163314610ddb57604051632d938f5160e11b81526001600160a01b0382166004820152602481018390523360448201526064016105b5565b6001600160a01b038316610e1b576040517f9577b8b300000000000000000000000000000000000000000000000000000000815260040160405180910390fd5b826001600160a01b0316816001600160a01b031603610e66576040517f89fdad6200000000000000000000000000000000000000000000000000000000815260040160405180910390fd5b6000828152600560205260408120610e7e90856116cb565b905080610ec9576040517fa7626b680000000000000000000000000000000000000000000000000000000081526001600160a01b0385166004820152602481018490526044016105b5565b82826001600160a01b0316856001600160a01b03167f34b797fc5a526f7bf1d2b5de25f6564fd85ae364e3ee939aee7c1ac27871a98860405160405180910390a450505050565b610f186110e1565b6001600160a01b038116610f945760405162461bcd60e51b815260206004820152602660248201527f4f776e61626c653a206e6577206f776e657220697320746865207a65726f206160448201527f646472657373000000000000000000000000000000000000000000000000000060648201526084016105b5565b610f9d81611507565b50565b60007fffffffff0000000000000000000000000000000000000000000000000000000082167f714df77c00000000000000000000000000000000000000000000000000000000148061054a57507f01ffc9a7000000000000000000000000000000000000000000000000000000007fffffffff0000000000000000000000000000000000000000000000000000000083161461054a565b600081815260056020526040812061104f90856116e0565b90508061109a576040517f4aa31a8c0000000000000000000000000000000000000000000000000000000081526001600160a01b0385166004820152602481018390526044016105b5565b81836001600160a01b0316856001600160a01b03167f17d5389f6ab6adb2647dfa0aa365c323d37adacc30b33a65310b6158ce1373d560405160405180910390a450505050565b336110f46000546001600160a01b031690565b6001600160a01b031614610a795760405162461bcd60e51b815260206004820181905260248201527f4f776e61626c653a2063616c6c6572206973206e6f7420746865206f776e657260448201526064016105b5565b7f2145e1d6d074577dc71ef54c3807742b41b053a9352ae6b491331509acb9750f82016111a3576040517f85c169bd00000000000000000000000000000000000000000000000000000000815260040160405180910390fd5b7fd0f59754f88971fe6bc5a6618cc9d5f1e859c58d16b22d1c7b2d3e2b246cd8aa82016111fc576040517f76755b3800000000000000000000000000000000000000000000000000000000815260040160405180910390fd5b60008281526001602052604090206112148282612664565b50817fece574603820d07bc9b91f2a932baadf4628aabcb8afba49776529c14a6104b261010083511115611255576112508360006101006116f5565b611257565b825b60405161126491906120e0565b60405180910390a25050565b6000818152600360205260409020546001600160a01b0316610f9d576040517fae8f9a36000000000000000000000000000000000000000000000000000000008152600481018290526024016105b5565b6000806112cd836107ed565b9050806001600160a01b0316846001600160a01b0316148061130257506000838152600560205260409020611302908561181d565b949350505050565b606060006108548361183f565b6000818152600160205260409020805460609190610878906125ea565b836001600160a01b0316856001600160a01b03160361137f576040517f5d67d6c100000000000000000000000000000000000000000000000000000000815260040160405180910390fd5b600061138a846107ed565b9050856001600160a01b0316816001600160a01b0316146113d857604051632d938f5160e11b81526001600160a01b03808316600483015260248201869052871660448201526064016105b5565b6001600160a01b038516611418576040517f24ecef4d00000000000000000000000000000000000000000000000000000000815260040160405180910390fd5b33611423878661189a565b6001600160a01b038716600090815260046020526040902061144590866118e1565b506001600160a01b038616600090815260046020526040902061146890866118ed565b5060008581526003602052604090819020805473ffffffffffffffffffffffffffffffffffffffff19166001600160a01b0389811691821790925591518792918a16907fb333c813a7426a7a11e2b190cad52c44119421594b47f6f32ace6d8c7207b2bf906114dc9086908a908a90612827565b60405180910390a46114f0878787866118f9565b610b7a87878787876119d3565b600061054a825490565b6000546001600160a01b03828116911614610f9d57600080546001600160a01b0383811673ffffffffffffffffffffffffffffffffffffffff19831681178455604051919092169283917f8be0079c531659141344cd1fd0a4f28419497f9722a3daafe3b4186f6b6457e09190a35050565b6001600160a01b0384166115b9576040517f24ecef4d00000000000000000000000000000000000000000000000000000000815260040160405180910390fd5b6000838152600360205260409020546001600160a01b03161561160b576040517f34c7b511000000000000000000000000000000000000000000000000000000008152600481018490526024016105b5565b3360016002600082825461161f919061285a565b90915550506001600160a01b038516600090815260046020526040902061164690856118ed565b50600084815260036020526040808220805473ffffffffffffffffffffffffffffffffffffffff19166001600160a01b03891690811790915590518692907fb333c813a7426a7a11e2b190cad52c44119421594b47f6f32ace6d8c7207b2bf906116b590869089908990612827565b60405180910390a4610c226000868686866119d3565b6000610854836001600160a01b038416611b3d565b6000610854836001600160a01b038416611b8c565b60608161170381601f61285a565b10156117515760405162461bcd60e51b815260206004820152600e60248201527f736c6963655f6f766572666c6f7700000000000000000000000000000000000060448201526064016105b5565b61175b828461285a565b845110156117ab5760405162461bcd60e51b815260206004820152601160248201527f736c6963655f6f75744f66426f756e647300000000000000000000000000000060448201526064016105b5565b6060821580156117ca5760405191506000825260208201604052611814565b6040519150601f8416801560200281840101858101878315602002848b0101015b818310156118035780518352602092830192016117eb565b5050858452601f01601f1916604052505b50949350505050565b6001600160a01b03811660009081526001830160205260408120541515610854565b6060816000018054806020026020016040519081016040528092919081815260200182805480156108f157602002820191906000526020600020905b81548152602001906001019080831161187b5750505050509050919050565b6000818152600560205260408120906118b2826114fd565b905060005b81811015610c225760006118cb8482611c7f565b90506118d8818787611037565b506001016118b7565b60006108548383611b8c565b60006108548383611b3d565b61190a84631aed5a8560e21b611c8b565b156119cd57600084848484604051602001611928949392919061286d565b60408051601f1981840301815290829052631aed5a8560e21b825291506001600160a01b03861690636bb56a1490611986907fb23eae7e6d1564b295b4c3e3be402d9a2f0776c57bdf365903496f6fa481ab009085906004016128cd565b6000604051808303816000875af11580156119a5573d6000803e3d6000fd5b505050506040513d6000823e601f3d908101601f19168201604052610a3391908101906128e6565b50505050565b6119e484631aed5a8560e21b611c8b565b15611aae57600085858584604051602001611a02949392919061286d565b60408051601f1981840301815290829052631aed5a8560e21b825291506001600160a01b03861690636bb56a1490611a60907f0b084a55ebf70fd3c06fd755269dac2212c4d3f0f4d09079780bfa50c1b2984d9085906004016128cd565b6000604051808303816000875af1158015611a7f573d6000803e3d6000fd5b505050506040513d6000823e601f3d908101601f19168201604052611aa791908101906128e6565b5050610c22565b81610c22576001600160a01b0384163b15611b00576040517f4349776d0000000000000000000000000000000000000000000000000000000081526001600160a01b03851660048201526024016105b5565b6040517f031731370000000000000000000000000000000000000000000000000000000081526001600160a01b03851660048201526024016105b5565b6000818152600183016020526040812054611b845750815460018181018455600084815260208082209093018490558454848252828601909352604090209190915561054a565b50600061054a565b60008181526001830160205260408120548015611c75576000611bb0600183612954565b8554909150600090611bc490600190612954565b9050818114611c29576000866000018281548110611be457611be46125d4565b9060005260206000200154905080876000018481548110611c0757611c076125d4565b6000918252602080832090910192909255918252600188019052604090208390555b8554869080611c3a57611c3a612967565b60019003818190600052602060002001600090559055856001016000868152602001908152602001600020600090556001935050505061054a565b600091505061054a565b60006108548383611d5a565b604080517fffffffff000000000000000000000000000000000000000000000000000000008316602480830191909152825180830390910181526044909101909152602080820180517bffffffffffffffffffffffffffffffffffffffffffffffffffffffff167f01ffc9a700000000000000000000000000000000000000000000000000000000178152825160009392849283928392918391908a617530fa92503d91506000519050828015611d43575060208210155b8015611d4f5750600081115b979650505050505050565b6000826000018281548110611d7157611d716125d4565b9060005260206000200154905092915050565b600060208284031215611d9657600080fd5b81357fffffffff000000000000000000000000000000000000000000000000000000008116811461085457600080fd5b600060208284031215611dd857600080fd5b5035919050565b80356001600160a01b0381168114611df657600080fd5b919050565b60008060408385031215611e0e57600080fd5b611e1783611ddf565b946020939093013593505050565b634e487b7160e01b600052604160045260246000fd5b604051601f8201601f1916810167ffffffffffffffff81118282101715611e6457611e64611e25565b604052919050565b600067ffffffffffffffff821115611e8657611e86611e25565b5060051b60200190565b600082601f830112611ea157600080fd5b81356020611eb6611eb183611e6c565b611e3b565b82815260059290921b84018101918181019086841115611ed557600080fd5b8286015b84811015611ef05780358352918301918301611ed9565b509695505050505050565b600067ffffffffffffffff821115611f1557611f15611e25565b50601f01601f191660200190565b600082601f830112611f3457600080fd5b8135611f42611eb182611efb565b818152846020838601011115611f5757600080fd5b816020850160208301376000918101602001919091529392505050565b600082601f830112611f8557600080fd5b81356020611f95611eb183611e6c565b82815260059290921b84018101918181019086841115611fb457600080fd5b8286015b84811015611ef057803567ffffffffffffffff811115611fd85760008081fd5b611fe68986838b0101611f23565b845250918301918301611fb8565b6000806040838503121561200757600080fd5b823567ffffffffffffffff8082111561201f57600080fd5b61202b86838701611e90565b9350602085013591508082111561204157600080fd5b5061204e85828601611f74565b9150509250929050565b60005b8381101561207357818101518382015260200161205b565b50506000910152565b60008151808452612094816020860160208601612058565b601f01601f19169290920160200192915050565b6080815260006120bb608083018761207c565b6001600160a01b03959095166020830152506040810192909252606090910152919050565b602081526000610854602083018461207c565b6020808252825182820181905260009190848201906040850190845b818110156121345783516001600160a01b03168352928401929184019160010161210f565b50909695505050505050565b60006020828403121561215257600080fd5b813567ffffffffffffffff81111561216957600080fd5b61130284828501611e90565b6000602080830181845280855180835260408601915060408160051b870101925083870160005b828110156121e8577fffffffffffffffffffffffffffffffffffffffffffffffffffffffffffffffc08886030184526121d685835161207c565b9450928501929085019060010161219c565b5092979650505050505050565b80358015158114611df657600080fd5b600080600080600060a0868803121561221d57600080fd5b61222686611ddf565b945061223460208701611ddf565b935060408601359250612249606087016121f5565b9150608086013567ffffffffffffffff81111561226557600080fd5b61227188828901611f23565b9150509295509295909350565b60006020828403121561229057600080fd5b61085482611ddf565b600082601f8301126122aa57600080fd5b813560206122ba611eb183611e6c565b82815260059290921b840181019181810190868411156122d957600080fd5b8286015b84811015611ef0576122ee81611ddf565b83529183019183016122dd565b600082601f83011261230c57600080fd5b8135602061231c611eb183611e6c565b82815260059290921b8401810191818101908684111561233b57600080fd5b8286015b84811015611ef057612350816121f5565b835291830191830161233f565b600080600080600060a0868803121561237557600080fd5b853567ffffffffffffffff8082111561238d57600080fd5b61239989838a01612299565b965060208801359150808211156123af57600080fd5b6123bb89838a01612299565b955060408801359150808211156123d157600080fd5b6123dd89838a01611e90565b945060608801359150808211156123f357600080fd5b6123ff89838a016122fb565b9350608088013591508082111561241557600080fd5b5061227188828901611f74565b6000806040838503121561243557600080fd5b82359150602083013567ffffffffffffffff81111561245357600080fd5b61204e85828601611f23565b60008060006060848603121561247457600080fd5b61247d84611ddf565b925060208085013567ffffffffffffffff8082111561249b57600080fd5b818701915087601f8301126124af57600080fd5b81356124bd611eb182611e6c565b81815260059190911b8301840190848101908a8311156124dc57600080fd5b8585015b83811015612514578035858111156124f85760008081fd5b6125068d89838a0101611f23565b8452509186019186016124e0565b5096505050604087013592508083111561252d57600080fd5b505061253b86828701611e90565b9150509250925092565b6020808252825182820181905260009190848201906040850190845b8181101561213457835183529284019291840191600101612561565b60008060006060848603121561259257600080fd5b61259b84611ddf565b9250602084013567ffffffffffffffff8111156125b757600080fd5b6125c386828701611f23565b925050604084013590509250925092565b634e487b7160e01b600052603260045260246000fd5b600181811c908216806125fe57607f821691505b6020821081036109cd57634e487b7160e01b600052602260045260246000fd5b601f82111561065457600081815260208120601f850160051c810160208610156126455750805b601f850160051c820191505b81811015610a3357828155600101612651565b815167ffffffffffffffff81111561267e5761267e611e25565b6126928161268c84546125ea565b8461261e565b602080601f8311600181146126c757600084156126af5750858301515b600019600386901b1c1916600185901b178555610a33565b600085815260208120601f198616915b828110156126f6578886015182559484019460019091019084016126d7565b50858210156127145787850151600019600388901b60f8161c191681555b5050505050600190811b01905550565b634e487b7160e01b600052601160045260246000fd5b6000600019820361274d5761274d612724565b5060010190565b81810361275f575050565b61276982546125ea565b67ffffffffffffffff81111561278157612781611e25565b61278f8161268c84546125ea565b6000601f8211600181146127c357600083156127ab5750848201545b600019600385901b1c1916600184901b178455610c22565b600085815260209020601f19841690600086815260209020845b838110156127fd57828601548255600195860195909101906020016127dd565b50858310156127145793015460001960f8600387901b161c19169092555050600190811b01905550565b6001600160a01b03841681528215156020820152606060408201526000612851606083018461207c565b95945050505050565b8082018082111561054a5761054a612724565b60007fffffffffffffffffffffffffffffffffffffffff000000000000000000000000808760601b168352808660601b1660148401525083602883015282516128bd816048850160208701612058565b9190910160480195945050505050565b828152604060208201526000611302604083018461207c565b6000602082840312156128f857600080fd5b815167ffffffffffffffff81111561290f57600080fd5b8201601f8101841361292057600080fd5b805161292e611eb182611efb565b81815285602083850101111561294357600080fd5b612851826020830160208601612058565b8181038181111561054a5761054a612724565b634e487b7160e01b600052603160045260246000fdfea2646970667358221220623ebb34b1cfeabb949a22a1732b691d2531bf3b93213029cc76243371867e0b64736f6c63430008130033",
  "linkReferences": {},
  "deployedLinkReferences": {}
}