{
  "_format": "hh-sol-artifact-1",
  "contractName": "LSP8PinSave",
  "sourceName": "contracts/LSP8PinSave.sol",
  "abi": [
    {
      "inputs": [
        {
          "internalType": "string",
          "name": "name_",
          "type": "string"
        },
        {
          "internalType": "string",
          "name": "symbol_",
          "type": "string"
        },
        {
          "internalType": "address",
          "name": "newOwner_",
          "type": "address"
        }
      ],
      "stateMutability": "nonpayable",
      "type": "constructor"
    },
    {
      "inputs": [],
      "name": "ERC725Y_DataKeysValuesEmptyArray",
      "type": "error"
    },
    {
      "inputs": [],
      "name": "ERC725Y_DataKeysValuesLengthMismatch",
      "type": "error"
    },
    {
      "inputs": [],
      "name": "ERC725Y_MsgValueDisallowed",
      "type": "error"
    },
    {
      "inputs": [
        {
          "internalType": "bytes",
          "name": "storedData",
          "type": "bytes"
        }
      ],
      "name": "InvalidExtensionAddress",
      "type": "error"
    },
    {
      "inputs": [
        {
          "internalType": "bytes",
          "name": "data",
          "type": "bytes"
        }
      ],
      "name": "InvalidFunctionSelector",
      "type": "error"
    },
    {
      "inputs": [],
      "name": "LSP4TokenNameNotEditable",
      "type": "error"
    },
    {
      "inputs": [],
      "name": "LSP4TokenSymbolNotEditable",
      "type": "error"
    },
    {
      "inputs": [],
      "name": "LSP8CannotSendToAddressZero",
      "type": "error"
    },
    {
      "inputs": [],
      "name": "LSP8CannotSendToSelf",
      "type": "error"
    },
    {
      "inputs": [],
      "name": "LSP8CannotUseAddressZeroAsOperator",
      "type": "error"
    },
    {
      "inputs": [],
      "name": "LSP8InvalidTransferBatch",
      "type": "error"
    },
    {
      "inputs": [
        {
          "internalType": "bytes32",
          "name": "tokenId",
          "type": "bytes32"
        }
      ],
      "name": "LSP8NonExistentTokenId",
      "type": "error"
    },
    {
      "inputs": [
        {
          "internalType": "address",
          "name": "operator",
          "type": "address"
        },
        {
          "internalType": "bytes32",
          "name": "tokenId",
          "type": "bytes32"
        }
      ],
      "name": "LSP8NonExistingOperator",
      "type": "error"
    },
    {
      "inputs": [
        {
          "internalType": "bytes32",
          "name": "tokenId",
          "type": "bytes32"
        },
        {
          "internalType": "address",
          "name": "caller",
          "type": "address"
        }
      ],
      "name": "LSP8NotTokenOperator",
      "type": "error"
    },
    {
      "inputs": [
        {
          "internalType": "address",
          "name": "tokenOwner",
          "type": "address"
        },
        {
          "internalType": "bytes32",
          "name": "tokenId",
          "type": "bytes32"
        },
        {
          "internalType": "address",
          "name": "caller",
          "type": "address"
        }
      ],
      "name": "LSP8NotTokenOwner",
      "type": "error"
    },
    {
      "inputs": [
        {
          "internalType": "address",
          "name": "tokenReceiver",
          "type": "address"
        }
      ],
      "name": "LSP8NotifyTokenReceiverContractMissingLSP1Interface",
      "type": "error"
    },
    {
      "inputs": [
        {
          "internalType": "address",
          "name": "tokenReceiver",
          "type": "address"
        }
      ],
      "name": "LSP8NotifyTokenReceiverIsEOA",
      "type": "error"
    },
    {
      "inputs": [
        {
          "internalType": "address",
          "name": "operator",
          "type": "address"
        },
        {
          "internalType": "bytes32",
          "name": "tokenId",
          "type": "bytes32"
        }
      ],
      "name": "LSP8OperatorAlreadyAuthorized",
      "type": "error"
    },
    {
      "inputs": [
        {
          "internalType": "bytes32",
          "name": "tokenId",
          "type": "bytes32"
        }
      ],
      "name": "LSP8TokenIdAlreadyMinted",
      "type": "error"
    },
    {
      "inputs": [],
      "name": "LSP8TokenOwnerCannotBeOperator",
      "type": "error"
    },
    {
      "inputs": [
        {
          "internalType": "bytes4",
          "name": "functionSelector",
          "type": "bytes4"
        }
      ],
      "name": "NoExtensionFoundForFunctionSelector",
      "type": "error"
    },
    {
      "anonymous": false,
      "inputs": [
        {
          "indexed": true,
          "internalType": "address",
          "name": "operator",
          "type": "address"
        },
        {
          "indexed": true,
          "internalType": "address",
          "name": "tokenOwner",
          "type": "address"
        },
        {
          "indexed": true,
          "internalType": "bytes32",
          "name": "tokenId",
          "type": "bytes32"
        },
        {
          "indexed": false,
          "internalType": "bytes",
          "name": "operatorNotificationData",
          "type": "bytes"
        }
      ],
      "name": "AuthorizedOperator",
      "type": "event"
    },
    {
      "anonymous": false,
      "inputs": [
        {
          "indexed": true,
          "internalType": "bytes32",
          "name": "dataKey",
          "type": "bytes32"
        },
        {
          "indexed": false,
          "internalType": "bytes",
          "name": "dataValue",
          "type": "bytes"
        }
      ],
      "name": "DataChanged",
      "type": "event"
    },
    {
      "anonymous": false,
      "inputs": [
        {
          "indexed": true,
          "internalType": "address",
          "name": "previousOwner",
          "type": "address"
        },
        {
          "indexed": true,
          "internalType": "address",
          "name": "newOwner",
          "type": "address"
        }
      ],
      "name": "OwnershipTransferred",
      "type": "event"
    },
    {
      "anonymous": false,
      "inputs": [
        {
          "indexed": true,
          "internalType": "address",
          "name": "operator",
          "type": "address"
        },
        {
          "indexed": true,
          "internalType": "address",
          "name": "tokenOwner",
          "type": "address"
        },
        {
          "indexed": true,
          "internalType": "bytes32",
          "name": "tokenId",
          "type": "bytes32"
        },
        {
          "indexed": false,
          "internalType": "bytes",
          "name": "operatorNotificationData",
          "type": "bytes"
        }
      ],
      "name": "RevokedOperator",
      "type": "event"
    },
    {
      "anonymous": false,
      "inputs": [
        {
          "indexed": false,
          "internalType": "address",
          "name": "operator",
          "type": "address"
        },
        {
          "indexed": true,
          "internalType": "address",
          "name": "from",
          "type": "address"
        },
        {
          "indexed": true,
          "internalType": "address",
          "name": "to",
          "type": "address"
        },
        {
          "indexed": true,
          "internalType": "bytes32",
          "name": "tokenId",
          "type": "bytes32"
        },
        {
          "indexed": false,
          "internalType": "bool",
          "name": "allowNonLSP1Recipient",
          "type": "bool"
        },
        {
          "indexed": false,
          "internalType": "bytes",
          "name": "data",
          "type": "bytes"
        }
      ],
      "name": "Transfer",
      "type": "event"
    },
    {
      "stateMutability": "payable",
      "type": "fallback"
    },
    {
      "inputs": [
        {
          "internalType": "address",
          "name": "operator",
          "type": "address"
        },
        {
          "internalType": "bytes32",
          "name": "tokenId",
          "type": "bytes32"
        },
        {
          "internalType": "bytes",
          "name": "operatorNotificationData",
          "type": "bytes"
        }
      ],
      "name": "authorizeOperator",
      "outputs": [],
      "stateMutability": "nonpayable",
      "type": "function"
    },
    {
      "inputs": [
        {
          "internalType": "address",
          "name": "tokenOwner",
          "type": "address"
        }
      ],
      "name": "balanceOf",
      "outputs": [
        {
          "internalType": "uint256",
          "name": "",
          "type": "uint256"
        }
      ],
      "stateMutability": "view",
      "type": "function"
    },
    {
      "inputs": [
        {
          "internalType": "uint256",
          "name": "newFee",
          "type": "uint256"
        }
      ],
      "name": "changeFee",
      "outputs": [],
      "stateMutability": "nonpayable",
      "type": "function"
    },
    {
      "inputs": [
        {
          "internalType": "address",
          "name": "to",
          "type": "address"
        },
        {
          "internalType": "string[]",
          "name": "_cid",
          "type": "string[]"
        },
        {
          "internalType": "bytes32[]",
          "name": "tokenId",
          "type": "bytes32[]"
        }
      ],
      "name": "createBatchPosts",
      "outputs": [],
      "stateMutability": "nonpayable",
      "type": "function"
    },
    {
      "inputs": [
        {
          "internalType": "address",
          "name": "receiver",
          "type": "address"
        },
        {
          "internalType": "string",
          "name": "_cid",
          "type": "string"
        },
        {
          "internalType": "bytes32",
          "name": "tokenId",
          "type": "bytes32"
        }
      ],
      "name": "createPost",
      "outputs": [],
      "stateMutability": "payable",
      "type": "function"
    },
    {
      "inputs": [],
      "name": "feeSetter",
      "outputs": [
        {
          "internalType": "address",
          "name": "",
          "type": "address"
        }
      ],
      "stateMutability": "view",
      "type": "function"
    },
    {
      "inputs": [],
      "name": "getContractBalance",
      "outputs": [
        {
          "internalType": "uint256",
          "name": "",
          "type": "uint256"
        }
      ],
      "stateMutability": "view",
      "type": "function"
    },
    {
      "inputs": [
        {
          "internalType": "bytes32",
          "name": "dataKey",
          "type": "bytes32"
        }
      ],
      "name": "getData",
      "outputs": [
        {
          "internalType": "bytes",
          "name": "dataValue",
          "type": "bytes"
        }
      ],
      "stateMutability": "view",
      "type": "function"
    },
    {
      "inputs": [
        {
          "internalType": "bytes32[]",
          "name": "dataKeys",
          "type": "bytes32[]"
        }
      ],
      "name": "getDataBatch",
      "outputs": [
        {
          "internalType": "bytes[]",
          "name": "dataValues",
          "type": "bytes[]"
        }
      ],
      "stateMutability": "view",
      "type": "function"
    },
    {
      "inputs": [
        {
          "internalType": "bytes32",
          "name": "tokenId",
          "type": "bytes32"
        }
      ],
      "name": "getOperatorsOf",
      "outputs": [
        {
          "internalType": "address[]",
          "name": "",
          "type": "address[]"
        }
      ],
      "stateMutability": "view",
      "type": "function"
    },
    {
      "inputs": [
        {
          "internalType": "uint256",
          "name": "id",
          "type": "uint256"
        }
      ],
      "name": "getPostAuthor",
      "outputs": [
        {
          "internalType": "address",
          "name": "",
          "type": "address"
        }
      ],
      "stateMutability": "view",
      "type": "function"
    },
    {
      "inputs": [
        {
          "internalType": "uint256",
          "name": "id",
          "type": "uint256"
        }
      ],
      "name": "getPostCid",
      "outputs": [
        {
          "internalType": "string",
          "name": "",
          "type": "string"
        }
      ],
      "stateMutability": "view",
      "type": "function"
    },
    {
      "inputs": [
        {
          "internalType": "uint256",
          "name": "id",
          "type": "uint256"
        }
      ],
      "name": "getPostOwner",
      "outputs": [
        {
          "internalType": "address",
          "name": "",
          "type": "address"
        }
      ],
      "stateMutability": "view",
      "type": "function"
    },
    {
      "inputs": [
        {
          "internalType": "address",
          "name": "operator",
          "type": "address"
        },
        {
          "internalType": "bytes32",
          "name": "tokenId",
          "type": "bytes32"
        }
      ],
      "name": "isOperatorFor",
      "outputs": [
        {
          "internalType": "bool",
          "name": "",
          "type": "bool"
        }
      ],
      "stateMutability": "view",
      "type": "function"
    },
    {
      "inputs": [],
      "name": "mintingFee",
      "outputs": [
        {
          "internalType": "uint256",
          "name": "",
          "type": "uint256"
        }
      ],
      "stateMutability": "view",
      "type": "function"
    },
    {
      "inputs": [],
      "name": "owner",
      "outputs": [
        {
          "internalType": "address",
          "name": "",
          "type": "address"
        }
      ],
      "stateMutability": "view",
      "type": "function"
    },
    {
      "inputs": [
        {
          "internalType": "uint256",
          "name": "",
          "type": "uint256"
        }
      ],
      "name": "postByTokenId",
      "outputs": [
        {
          "internalType": "string",
          "name": "cid",
          "type": "string"
        },
        {
          "internalType": "address",
          "name": "author",
          "type": "address"
        },
        {
          "internalType": "uint256",
          "name": "id",
          "type": "uint256"
        },
        {
          "internalType": "bytes32",
          "name": "tokenId",
          "type": "bytes32"
        }
      ],
      "stateMutability": "view",
      "type": "function"
    },
    {
      "inputs": [],
      "name": "renounceOwnership",
      "outputs": [],
      "stateMutability": "nonpayable",
      "type": "function"
    },
    {
      "inputs": [
        {
          "internalType": "address",
          "name": "operator",
          "type": "address"
        },
        {
          "internalType": "bytes32",
          "name": "tokenId",
          "type": "bytes32"
        },
        {
          "internalType": "bytes",
          "name": "operatorNotificationData",
          "type": "bytes"
        }
      ],
      "name": "revokeOperator",
      "outputs": [],
      "stateMutability": "nonpayable",
      "type": "function"
    },
    {
      "inputs": [
        {
          "internalType": "bytes32",
          "name": "dataKey",
          "type": "bytes32"
        },
        {
          "internalType": "bytes",
          "name": "dataValue",
          "type": "bytes"
        }
      ],
      "name": "setData",
      "outputs": [],
      "stateMutability": "payable",
      "type": "function"
    },
    {
      "inputs": [
        {
          "internalType": "bytes32[]",
          "name": "dataKeys",
          "type": "bytes32[]"
        },
        {
          "internalType": "bytes[]",
          "name": "dataValues",
          "type": "bytes[]"
        }
      ],
      "name": "setDataBatch",
      "outputs": [],
      "stateMutability": "payable",
      "type": "function"
    },
    {
      "inputs": [
        {
          "internalType": "address",
          "name": "_feeSetter",
          "type": "address"
        }
      ],
      "name": "setFeeSetter",
      "outputs": [],
      "stateMutability": "nonpayable",
      "type": "function"
    },
    {
      "inputs": [
        {
          "internalType": "bytes4",
          "name": "interfaceId",
          "type": "bytes4"
        }
      ],
      "name": "supportsInterface",
      "outputs": [
        {
          "internalType": "bool",
          "name": "",
          "type": "bool"
        }
      ],
      "stateMutability": "view",
      "type": "function"
    },
    {
      "inputs": [
        {
          "internalType": "address",
          "name": "tokenOwner",
          "type": "address"
        }
      ],
      "name": "tokenIdsOf",
      "outputs": [
        {
          "internalType": "bytes32[]",
          "name": "",
          "type": "bytes32[]"
        }
      ],
      "stateMutability": "view",
      "type": "function"
    },
    {
      "inputs": [
        {
          "internalType": "bytes32",
          "name": "tokenId",
          "type": "bytes32"
        }
      ],
      "name": "tokenOwnerOf",
      "outputs": [
        {
          "internalType": "address",
          "name": "",
          "type": "address"
        }
      ],
      "stateMutability": "view",
      "type": "function"
    },
    {
      "inputs": [],
      "name": "totalSupply",
      "outputs": [
        {
          "internalType": "uint256",
          "name": "",
          "type": "uint256"
        }
      ],
      "stateMutability": "view",
      "type": "function"
    },
    {
      "inputs": [
        {
          "internalType": "address",
          "name": "from",
          "type": "address"
        },
        {
          "internalType": "address",
          "name": "to",
          "type": "address"
        },
        {
          "internalType": "bytes32",
          "name": "tokenId",
          "type": "bytes32"
        },
        {
          "internalType": "bool",
          "name": "allowNonLSP1Recipient",
          "type": "bool"
        },
        {
          "internalType": "bytes",
          "name": "data",
          "type": "bytes"
        }
      ],
      "name": "transfer",
      "outputs": [],
      "stateMutability": "nonpayable",
      "type": "function"
    },
    {
      "inputs": [
        {
          "internalType": "address[]",
          "name": "from",
          "type": "address[]"
        },
        {
          "internalType": "address[]",
          "name": "to",
          "type": "address[]"
        },
        {
          "internalType": "bytes32[]",
          "name": "tokenId",
          "type": "bytes32[]"
        },
        {
          "internalType": "bool[]",
          "name": "allowNonLSP1Recipient",
          "type": "bool[]"
        },
        {
          "internalType": "bytes[]",
          "name": "data",
          "type": "bytes[]"
        }
      ],
      "name": "transferBatch",
      "outputs": [],
      "stateMutability": "nonpayable",
      "type": "function"
    },
    {
      "inputs": [
        {
          "internalType": "address",
          "name": "newOwner",
          "type": "address"
        }
      ],
      "name": "transferOwnership",
      "outputs": [],
      "stateMutability": "nonpayable",
      "type": "function"
    },
    {
      "inputs": [],
      "name": "withdrawFees",
      "outputs": [],
      "stateMutability": "nonpayable",
      "type": "function"
    },
    {
      "stateMutability": "payable",
      "type": "receive"
    }
  ],
  "bytecode": "0x608060405234801562000010575f80fd5b5060405162005b4c38038062005b4c833981810160405281019062000036919062000552565b828282828282805f73ffffffffffffffffffffffffffffffffffffffff168173ffffffffffffffffffffffffffffffffffffffff1603620000ae576040517f08c379a0000000000000000000000000000000000000000000000000000000008152600401620000a5906200066d565b60405180910390fd5b620000bf81620001e160201b60201c565b50620001297feafec4d89fa9619884b60000a4d96624a38f7ac2d8d9a604ecf07c12c77e480c5f1b6040518060400160405280600481526020017fa4d9662400000000000000000000000000000000000000000000000000000000815250620002e660201b60201c565b6200015d7fdeba1e292f8ba88238e10ab3c7f88bd4be4fac56cad5194b6ecceaf653468af15f1b84620002e660201b60201c565b620001917f2f0a68ab07768e01943a599e73362a0e17a63a72e94dd2e384d2c1d4db9327565f1b83620002e660201b60201c565b50505050505080600760016101000a81548173ffffffffffffffffffffffffffffffffffffffff021916908373ffffffffffffffffffffffffffffffffffffffff16021790555050505062000a1a565b620001f16200034560201b60201c565b73ffffffffffffffffffffffffffffffffffffffff168173ffffffffffffffffffffffffffffffffffffffff1614620002e3575f805f9054906101000a900473ffffffffffffffffffffffffffffffffffffffff169050815f806101000a81548173ffffffffffffffffffffffffffffffffffffffff021916908373ffffffffffffffffffffffffffffffffffffffff1602179055508173ffffffffffffffffffffffffffffffffffffffff168173ffffffffffffffffffffffffffffffffffffffff167f8be0079c531659141344cd1fd0a4f28419497f9722a3daafe3b4186f6b6457e060405160405180910390a3505b50565b8060015f8481526020019081526020015f209081620003069190620008c4565b50817fece574603820d07bc9b91f2a932baadf4628aabcb8afba49776529c14a6104b282604051620003399190620009f8565b60405180910390a25050565b5f805f9054906101000a900473ffffffffffffffffffffffffffffffffffffffff16905090565b5f604051905090565b5f80fd5b5f80fd5b5f80fd5b5f80fd5b5f601f19601f8301169050919050565b7f4e487b71000000000000000000000000000000000000000000000000000000005f52604160045260245ffd5b620003cd8262000385565b810181811067ffffffffffffffff82111715620003ef57620003ee62000395565b5b80604052505050565b5f620004036200036c565b9050620004118282620003c2565b919050565b5f67ffffffffffffffff82111562000433576200043262000395565b5b6200043e8262000385565b9050602081019050919050565b5f5b838110156200046a5780820151818401526020810190506200044d565b5f8484015250505050565b5f6200048b620004858462000416565b620003f8565b905082815260208101848484011115620004aa57620004a962000381565b5b620004b78482856200044b565b509392505050565b5f82601f830112620004d657620004d56200037d565b5b8151620004e884826020860162000475565b91505092915050565b5f73ffffffffffffffffffffffffffffffffffffffff82169050919050565b5f6200051c82620004f1565b9050919050565b6200052e8162000510565b811462000539575f80fd5b50565b5f815190506200054c8162000523565b92915050565b5f805f606084860312156200056c576200056b62000375565b5b5f84015167ffffffffffffffff8111156200058c576200058b62000379565b5b6200059a86828701620004bf565b935050602084015167ffffffffffffffff811115620005be57620005bd62000379565b5b620005cc86828701620004bf565b9250506040620005df868287016200053c565b9150509250925092565b5f82825260208201905092915050565b7f4f776e61626c653a206e6577206f776e657220697320746865207a65726f20615f8201527f6464726573730000000000000000000000000000000000000000000000000000602082015250565b5f62000655602683620005e9565b91506200066282620005f9565b604082019050919050565b5f6020820190508181035f830152620006868162000647565b9050919050565b5f81519050919050565b7f4e487b71000000000000000000000000000000000000000000000000000000005f52602260045260245ffd5b5f6002820490506001821680620006dc57607f821691505b602082108103620006f257620006f162000697565b5b50919050565b5f819050815f5260205f209050919050565b5f6020601f8301049050919050565b5f82821b905092915050565b5f60088302620007567fffffffffffffffffffffffffffffffffffffffffffffffffffffffffffffffff8262000719565b62000762868362000719565b95508019841693508086168417925050509392505050565b5f819050919050565b5f819050919050565b5f620007ac620007a6620007a0846200077a565b62000783565b6200077a565b9050919050565b5f819050919050565b620007c7836200078c565b620007df620007d682620007b3565b84845462000725565b825550505050565b5f90565b620007f5620007e7565b62000802818484620007bc565b505050565b5b8181101562000829576200081d5f82620007eb565b60018101905062000808565b5050565b601f82111562000878576200084281620006f8565b6200084d846200070a565b810160208510156200085d578190505b620008756200086c856200070a565b83018262000807565b50505b505050565b5f82821c905092915050565b5f6200089a5f19846008026200087d565b1980831691505092915050565b5f620008b4838362000889565b9150826002028217905092915050565b620008cf826200068d565b67ffffffffffffffff811115620008eb57620008ea62000395565b5b620008f78254620006c4565b620009048282856200082d565b5f60209050601f8311600181146200093a575f841562000925578287015190505b620009318582620008a7565b865550620009a0565b601f1984166200094a86620006f8565b5f5b8281101562000973578489015182556001820191506020850194506020810190506200094c565b868310156200099357848901516200098f601f89168262000889565b8355505b6001600288020188555050505b505050505050565b5f82825260208201905092915050565b5f620009c4826200068d565b620009d08185620009a8565b9350620009e28185602086016200044b565b620009ed8162000385565b840191505092915050565b5f6020820190508181035f83015262000a128184620009b8565b905092915050565b6151248062000a285f395ff3fe6080604052600436106101d0575f3560e01c8063715018a6116100f65780639790242111610094578063b92223c311610063578063b92223c3146106fa578063dedff9c614610716578063f1b97e0414610752578063f2fde38b1461077a576101d7565b8063979024211461063e578063a3b261f21461065a578063a56581df14610696578063b19805af146106d2576101d7565b806386a10ddd116100d057806386a10ddd1461059a57806387cf3ef4146105c25780638da5cb5b146105ec57806395b9945b14610616576101d7565b8063715018a6146105405780637e87632c146105565780637f23690c1461057e576101d7565b8063476343ee1161016e5780635a64ad951161013d5780635a64ad95146104885780636a1db1bf146104b25780636f9fb98a146104da57806370a0823114610504576101d7565b8063476343ee146103d257806349a6078d146103e8578063511b69521461042457806354f6127f1461044c576101d7565b806318160ddd116101aa57806318160ddd146102f4578063217b22701461031e5780632a3654a41461035a57806345c1467114610396576101d7565b806301ffc9a71461023d578063085f441f1461027957806316ebbe04146102b5576101d7565b366101d757005b5f36606060045f36905010156102265782826040517fe5099ee300000000000000000000000000000000000000000000000000000000815260040161021d929190613061565b60405180910390fd5b61023083836107a2565b9050915050805190602001f35b348015610248575f80fd5b50610263600480360381019061025e91906130e9565b610917565b604051610270919061312e565b60405180910390f35b348015610284575f80fd5b5061029f600480360381019061029a919061317a565b610987565b6040516102ac91906131e4565b60405180910390f35b3480156102c0575f80fd5b506102db60048036038101906102d6919061317a565b6109ac565b6040516102eb949392919061329e565b60405180910390f35b3480156102ff575f80fd5b50610308610a7d565b60405161031591906132e8565b60405180910390f35b348015610329575f80fd5b50610344600480360381019061033f919061332b565b610a86565b60405161035191906131e4565b60405180910390f35b348015610365575f80fd5b50610380600480360381019061037b9190613380565b610b34565b60405161038d919061312e565b60405180910390f35b3480156103a1575f80fd5b506103bc60048036038101906103b7919061317a565b610b50565b6040516103c991906131e4565b60405180910390f35b3480156103dd575f80fd5b506103e6610b8c565b005b3480156103f3575f80fd5b5061040e6004803603810190610409919061332b565b610cee565b60405161041b9190613475565b60405180910390f35b34801561042f575f80fd5b5061044a600480360381019061044591906135dd565b610d19565b005b348015610457575f80fd5b50610472600480360381019061046d919061332b565b610d7f565b60405161047f91906136b2565b60405180910390f35b348015610493575f80fd5b5061049c610d91565b6040516104a991906132e8565b60405180910390f35b3480156104bd575f80fd5b506104d860048036038101906104d3919061317a565b610d97565b005b3480156104e5575f80fd5b506104ee610e31565b6040516104fb91906132e8565b60405180910390f35b34801561050f575f80fd5b5061052a600480360381019061052591906136d2565b610e38565b60405161053791906132e8565b60405180910390f35b34801561054b575f80fd5b50610554610e85565b005b348015610561575f80fd5b5061057c60048036038101906105779190613a1f565b610e98565b005b61059860048036038101906105939190613b22565b610faa565b005b3480156105a5575f80fd5b506105c060048036038101906105bb9190613b7c565b610ff9565b005b3480156105cd575f80fd5b506105d661124b565b6040516105e391906131e4565b60405180910390f35b3480156105f7575f80fd5b50610600611271565b60405161060d91906131e4565b60405180910390f35b348015610621575f80fd5b5061063c60048036038101906106379190613d64565b611298565b005b61065860048036038101906106539190613dec565b6112f7565b005b348015610665575f80fd5b50610680600480360381019061067b91906136d2565b611406565b60405161068d9190613f19565b60405180910390f35b3480156106a1575f80fd5b506106bc60048036038101906106b7919061317a565b611454565b6040516106c99190613f39565b60405180910390f35b3480156106dd575f80fd5b506106f860048036038101906106f391906136d2565b6114f7565b005b610714600480360381019061070f9190613f59565b6115cb565b005b348015610721575f80fd5b5061073c60048036038101906107379190613fc5565b6117d2565b604051610749919061410f565b60405180910390f35b34801561075d575f80fd5b5061077860048036038101906107739190613b7c565b611882565b005b348015610785575f80fd5b506107a0600480360381019061079b91906136d2565b611a10565b005b60605f6107d15f357fffffffff0000000000000000000000000000000000000000000000000000000016611a92565b90505f73ffffffffffffffffffffffffffffffffffffffff168173ffffffffffffffffffffffffffffffffffffffff1603610866575f357fffffffff00000000000000000000000000000000000000000000000000000000166040517fbb370b2b00000000000000000000000000000000000000000000000000000000815260040161085d919061413e565b60405180910390fd5b5f808273ffffffffffffffffffffffffffffffffffffffff16348787333460405160200161089794939291906141ea565b6040516020818303038152906040526040516108b39190614254565b5f6040518083038185875af1925050503d805f81146108ed576040519150601f19603f3d011682016040523d82523d5f602084013e6108f2565b606091505b5091509150811561090857809350505050610911565b80518060208301fd5b92915050565b5f631ae9ba1f60e01b7bffffffffffffffffffffffffffffffffffffffffffffffffffffffff1916827bffffffffffffffffffffffffffffffffffffffffffffffffffffffff19161480610970575061096f82611b43565b5b80610980575061097f82611ba3565b5b9050919050565b5f6109a5600e5f8481526020019081526020015f2060030154610a86565b9050919050565b600e602052805f5260405f205f91509050805f0180546109cb90614297565b80601f01602080910402602001604051908101604052809291908181526020018280546109f790614297565b8015610a425780601f10610a1957610100808354040283529160200191610a42565b820191905f5260205f20905b815481529060010190602001808311610a2557829003601f168201915b505050505090806001015f9054906101000a900473ffffffffffffffffffffffffffffffffffffffff16908060020154908060030154905084565b5f600254905090565b5f8060035f8481526020019081526020015f205f9054906101000a900473ffffffffffffffffffffffffffffffffffffffff1690505f73ffffffffffffffffffffffffffffffffffffffff168173ffffffffffffffffffffffffffffffffffffffff1603610b2b57826040517fae8f9a36000000000000000000000000000000000000000000000000000000008152600401610b2291906142c7565b60405180910390fd5b80915050919050565b5f610b3e82611c06565b610b488383611c53565b905092915050565b5f600e5f8381526020019081526020015f206001015f9054906101000a900473ffffffffffffffffffffffffffffffffffffffff169050919050565b600760019054906101000a900473ffffffffffffffffffffffffffffffffffffffff1673ffffffffffffffffffffffffffffffffffffffff163373ffffffffffffffffffffffffffffffffffffffff1614610c1c576040517f08c379a0000000000000000000000000000000000000000000000000000000008152600401610c139061432a565b60405180910390fd5b5f4790505f600760019054906101000a900473ffffffffffffffffffffffffffffffffffffffff1673ffffffffffffffffffffffffffffffffffffffff1682604051610c679061436b565b5f6040518083038185875af1925050503d805f8114610ca1576040519150601f19603f3d011682016040523d82523d5f602084013e610ca6565b606091505b5050905080610cea576040517f08c379a0000000000000000000000000000000000000000000000000000000008152600401610ce1906143c9565b60405180910390fd5b5050565b6060610cf982611c06565b610d1260055f8481526020019081526020015f20611cc2565b9050919050565b5f339050610d278185611c53565b610d6a5783816040517f1294d2a9000000000000000000000000000000000000000000000000000000008152600401610d619291906143e7565b60405180910390fd5b610d778686868686611ce1565b505050505050565b6060610d8a82611fe5565b9050919050565b60085481565b600760019054906101000a900473ffffffffffffffffffffffffffffffffffffffff1673ffffffffffffffffffffffffffffffffffffffff163373ffffffffffffffffffffffffffffffffffffffff1614610e27576040517f08c379a0000000000000000000000000000000000000000000000000000000008152600401610e1e90614458565b60405180910390fd5b8060088190555050565b5f47905090565b5f610e7e60045f8473ffffffffffffffffffffffffffffffffffffffff1673ffffffffffffffffffffffffffffffffffffffff1681526020019081526020015f20612086565b9050919050565b610e8d612099565b610e965f612110565b565b5f85519050845181141580610eae575083518114155b80610eba575082518114155b80610ec6575081518114155b15610efd576040517f93a8311900000000000000000000000000000000000000000000000000000000815260040160405180910390fd5b5f5b81811015610fa157610f96878281518110610f1d57610f1c614476565b5b6020026020010151878381518110610f3857610f37614476565b5b6020026020010151878481518110610f5357610f52614476565b5b6020026020010151878581518110610f6e57610f6d614476565b5b6020026020010151878681518110610f8957610f88614476565b5b6020026020010151610d19565b806001019050610eff565b50505050505050565b610fb2612099565b5f3414610feb576040517ff36ba73700000000000000000000000000000000000000000000000000000000815260040160405180910390fd5b610ff5828261220c565b5050565b5f61100383610a86565b90503373ffffffffffffffffffffffffffffffffffffffff168173ffffffffffffffffffffffffffffffffffffffff1614611079578083336040517f5b271ea2000000000000000000000000000000000000000000000000000000008152600401611070939291906144a3565b60405180910390fd5b5f73ffffffffffffffffffffffffffffffffffffffff168473ffffffffffffffffffffffffffffffffffffffff16036110de576040517f9577b8b300000000000000000000000000000000000000000000000000000000815260040160405180910390fd5b8373ffffffffffffffffffffffffffffffffffffffff168173ffffffffffffffffffffffffffffffffffffffff1603611143576040517f89fdad6200000000000000000000000000000000000000000000000000000000815260040160405180910390fd5b5f6111678560055f8781526020019081526020015f2061233b90919063ffffffff16565b9050806111ad5784846040517fa7626b680000000000000000000000000000000000000000000000000000000081526004016111a49291906144d8565b60405180910390fd5b838273ffffffffffffffffffffffffffffffffffffffff168673ffffffffffffffffffffffffffffffffffffffff167e52e433f2d4225671bc164dd1cdc9a76044356091f27ad234798bd0cbf083498660405161120a91906136b2565b60405180910390a45f338585604051602001611228939291906144ff565b60405160208183030381529060405290506112438682612368565b505050505050565b600760019054906101000a900473ffffffffffffffffffffffffffffffffffffffff1681565b5f805f9054906101000a900473ffffffffffffffffffffffffffffffffffffffff16905090565b5f815190505f5b8181146112f0576112e5858583815181106112bd576112bc614476565b5b60200260200101518584815181106112d8576112d7614476565b5b60200260200101516115cb565b80600101905061129f565b5050505050565b6112ff612099565b5f3414611338576040517ff36ba73700000000000000000000000000000000000000000000000000000000815260040160405180910390fd5b8051825114611373576040517f3bcc897900000000000000000000000000000000000000000000000000000000815260040160405180910390fd5b5f8251036113ad576040517f97da5f9500000000000000000000000000000000000000000000000000000000815260040160405180910390fd5b5f5b8251811015611401576113f68382815181106113ce576113cd614476565b5b60200260200101518383815181106113e9576113e8614476565b5b602002602001015161220c565b8060010190506113af565b505050565b606061144d60045f8473ffffffffffffffffffffffffffffffffffffffff1673ffffffffffffffffffffffffffffffffffffffff1681526020019081526020015f20612482565b9050919050565b6060600e5f8381526020019081526020015f205f01805461147490614297565b80601f01602080910402602001604051908101604052809291908181526020018280546114a090614297565b80156114eb5780601f106114c2576101008083540402835291602001916114eb565b820191905f5260205f20905b8154815290600101906020018083116114ce57829003601f168201915b50505050509050919050565b600760019054906101000a900473ffffffffffffffffffffffffffffffffffffffff1673ffffffffffffffffffffffffffffffffffffffff163373ffffffffffffffffffffffffffffffffffffffff1614611587576040517f08c379a000000000000000000000000000000000000000000000000000000000815260040161157e90614458565b60405180910390fd5b80600760016101000a81548173ffffffffffffffffffffffffffffffffffffffff021916908373ffffffffffffffffffffffffffffffffffffffff16021790555050565b60075f9054906101000a900460ff161561161a576040517f08c379a000000000000000000000000000000000000000000000000000000000815260040161161190614585565b60405180910390fd5b600160075f6101000a81548160ff021916908315150217905550600854341015611679576040517f08c379a0000000000000000000000000000000000000000000000000000000008152600401611670906145ed565b60405180910390fd5b8160095f01908161168a91906147a8565b503360096001015f6101000a81548173ffffffffffffffffffffffffffffffffffffffff021916908373ffffffffffffffffffffffffffffffffffffffff160217905550600d5f81546116dc906148a4565b919050819055600960020181905550806009600301819055506009600e5f600d5481526020019081526020015f205f8201815f01908161171c9190614900565b50600182015f9054906101000a900473ffffffffffffffffffffffffffffffffffffffff16816001015f6101000a81548173ffffffffffffffffffffffffffffffffffffffff021916908373ffffffffffffffffffffffffffffffffffffffff16021790555060028201548160020155600382015481600301559050506117b48382600160405180602001604052805f8152506124a1565b5f60075f6101000a81548160ff021916908315150217905550505050565b6060815167ffffffffffffffff8111156117ef576117ee6134c7565b5b60405190808252806020026020018201604052801561182257816020015b606081526020019060019003908161180d5790505b5090505f5b825181101561187c5761185383828151811061184657611845614476565b5b6020026020010151611fe5565b82828151811061186657611865614476565b5b6020026020010181905250806001019050611827565b50919050565b5f61188c83610a86565b90503373ffffffffffffffffffffffffffffffffffffffff168173ffffffffffffffffffffffffffffffffffffffff1614611902578083336040517f5b271ea20000000000000000000000000000000000000000000000000000000081526004016118f9939291906144a3565b60405180910390fd5b5f73ffffffffffffffffffffffffffffffffffffffff168473ffffffffffffffffffffffffffffffffffffffff1603611967576040517f9577b8b300000000000000000000000000000000000000000000000000000000815260040160405180910390fd5b8373ffffffffffffffffffffffffffffffffffffffff168173ffffffffffffffffffffffffffffffffffffffff16036119cc576040517f89fdad6200000000000000000000000000000000000000000000000000000000815260040160405180910390fd5b6119d8848285856126be565b5f3384846040516020016119ee939291906144ff565b6040516020818303038152906040529050611a098582612368565b5050505050565b611a18612099565b5f73ffffffffffffffffffffffffffffffffffffffff168173ffffffffffffffffffffffffffffffffffffffff1603611a86576040517f08c379a0000000000000000000000000000000000000000000000000000000008152600401611a7d90614a55565b60405180910390fd5b611a8f81612110565b50565b5f80611aca69cee78b4094da8601109660b01b847bffffffffffffffffffffffffffffffffffffffffffffffffffffffff1916612795565b90505f611ad682611fe5565b90506014815114158015611aeb57505f815114155b15611b2d57806040517f42bfe79f000000000000000000000000000000000000000000000000000000008152600401611b2491906136b2565b60405180910390fd5b80611b3790614ac1565b60601c92505050919050565b5f63a918fa6b60e01b7bffffffffffffffffffffffffffffffffffffffffffffffffffffffff1916827bffffffffffffffffffffffffffffffffffffffffffffffffffffffff19161480611b9c5750611b9b826127d3565b5b9050919050565b5f80611bb56301ffc9a760e01b611a92565b90505f73ffffffffffffffffffffffffffffffffffffffff168173ffffffffffffffffffffffffffffffffffffffff1603611bf3575f915050611c01565b611bfd8184612833565b9150505b919050565b611c0f816128cc565b611c5057806040517fae8f9a36000000000000000000000000000000000000000000000000000000008152600401611c4791906142c7565b60405180910390fd5b50565b5f80611c5e83610a86565b90508073ffffffffffffffffffffffffffffffffffffffff168473ffffffffffffffffffffffffffffffffffffffff161480611cb95750611cb88460055f8681526020019081526020015f2061293490919063ffffffff16565b5b91505092915050565b60605f611cd0835f01612961565b905060608190508092505050919050565b8373ffffffffffffffffffffffffffffffffffffffff168573ffffffffffffffffffffffffffffffffffffffff1603611d46576040517f5d67d6c100000000000000000000000000000000000000000000000000000000815260040160405180910390fd5b5f611d5084610a86565b90508573ffffffffffffffffffffffffffffffffffffffff168173ffffffffffffffffffffffffffffffffffffffff1614611dc6578084876040517f5b271ea2000000000000000000000000000000000000000000000000000000008152600401611dbd939291906144a3565b60405180910390fd5b5f73ffffffffffffffffffffffffffffffffffffffff168573ffffffffffffffffffffffffffffffffffffffff1603611e2b576040517f24ecef4d00000000000000000000000000000000000000000000000000000000815260040160405180910390fd5b5f339050611e3a8787876129ba565b611e4487866129bf565b611e938560045f8a73ffffffffffffffffffffffffffffffffffffffff1673ffffffffffffffffffffffffffffffffffffffff1681526020019081526020015f20612a2c90919063ffffffff16565b50611ee38560045f8973ffffffffffffffffffffffffffffffffffffffff1673ffffffffffffffffffffffffffffffffffffffff1681526020019081526020015f20612a4190919063ffffffff16565b508560035f8781526020019081526020015f205f6101000a81548173ffffffffffffffffffffffffffffffffffffffff021916908373ffffffffffffffffffffffffffffffffffffffff160217905550848673ffffffffffffffffffffffffffffffffffffffff168873ffffffffffffffffffffffffffffffffffffffff167fb333c813a7426a7a11e2b190cad52c44119421594b47f6f32ace6d8c7207b2bf848888604051611f9593929190614b27565b60405180910390a45f87878786604051602001611fb59493929190614b63565b6040516020818303038152906040529050611fd08882612a56565b611fdb878683612b12565b5050505050505050565b606060015f8381526020019081526020015f20805461200390614297565b80601f016020809104026020016040519081016040528092919081815260200182805461202f90614297565b801561207a5780601f106120515761010080835404028352916020019161207a565b820191905f5260205f20905b81548152906001019060200180831161205d57829003601f168201915b50505050509050919050565b5f612092825f01612c72565b9050919050565b3373ffffffffffffffffffffffffffffffffffffffff166120b8611271565b73ffffffffffffffffffffffffffffffffffffffff161461210e576040517f08c379a000000000000000000000000000000000000000000000000000000000815260040161210590614bf7565b60405180910390fd5b565b612118611271565b73ffffffffffffffffffffffffffffffffffffffff168173ffffffffffffffffffffffffffffffffffffffff1614612209575f805f9054906101000a900473ffffffffffffffffffffffffffffffffffffffff169050815f806101000a81548173ffffffffffffffffffffffffffffffffffffffff021916908373ffffffffffffffffffffffffffffffffffffffff1602179055508173ffffffffffffffffffffffffffffffffffffffff168173ffffffffffffffffffffffffffffffffffffffff167f8be0079c531659141344cd1fd0a4f28419497f9722a3daafe3b4186f6b6457e060405160405180910390a3505b50565b7fdeba1e292f8ba88238e10ab3c7f88bd4be4fac56cad5194b6ecceaf653468af15f1b8203612267576040517f85c169bd00000000000000000000000000000000000000000000000000000000815260040160405180910390fd5b7f2f0a68ab07768e01943a599e73362a0e17a63a72e94dd2e384d2c1d4db9327565f1b82036122c2576040517f76755b3800000000000000000000000000000000000000000000000000000000815260040160405180910390fd5b8060015f8481526020019081526020015f2090816122e09190614c6d565b50817fece574603820d07bc9b91f2a932baadf4628aabcb8afba49776529c14a6104b2610100835111156123205761231b835f610100612c81565b612322565b825b60405161232f91906136b2565b60405180910390a25050565b5f612360835f018373ffffffffffffffffffffffffffffffffffffffff165f1b612d9d565b905092915050565b61237982636bb56a1460e01b612833565b1561247e578173ffffffffffffffffffffffffffffffffffffffff16636bb56a1460e01b7f8a1c15a8799f71b547e08e2bcb2e85257e81b0a07eee2ce6712549eef1f009705f1b836040516024016123d2929190614d3c565b604051602081830303815290604052907bffffffffffffffffffffffffffffffffffffffffffffffffffffffff19166020820180517bffffffffffffffffffffffffffffffffffffffffffffffffffffffff838183161783525050505060405161243c9190614254565b5f604051808303815f865af19150503d805f8114612475576040519150601f19603f3d011682016040523d82523d5f602084013e61247a565b606091505b5050505b5050565b60605f612490835f01612961565b905060608190508092505050919050565b5f73ffffffffffffffffffffffffffffffffffffffff168473ffffffffffffffffffffffffffffffffffffffff1603612506576040517f24ecef4d00000000000000000000000000000000000000000000000000000000815260040160405180910390fd5b61250f836128cc565b1561255157826040517f34c7b51100000000000000000000000000000000000000000000000000000000815260040161254891906142c7565b60405180910390fd5b5f3390506125605f86866129ba565b600160025f8282546125729190614d6a565b925050819055506125c88460045f8873ffffffffffffffffffffffffffffffffffffffff1673ffffffffffffffffffffffffffffffffffffffff1681526020019081526020015f20612a4190919063ffffffff16565b508460035f8681526020019081526020015f205f6101000a81548173ffffffffffffffffffffffffffffffffffffffff021916908373ffffffffffffffffffffffffffffffffffffffff160217905550838573ffffffffffffffffffffffffffffffffffffffff165f73ffffffffffffffffffffffffffffffffffffffff167fb333c813a7426a7a11e2b190cad52c44119421594b47f6f32ace6d8c7207b2bf84878760405161267a93929190614b27565b60405180910390a45f8086868560405160200161269a9493929190614b63565b60405160208183030381529060405290506126b6868583612b12565b505050505050565b5f6126e28560055f8681526020019081526020015f20612e0490919063ffffffff16565b9050806127285784836040517f4aa31a8c00000000000000000000000000000000000000000000000000000000815260040161271f9291906144d8565b60405180910390fd5b828473ffffffffffffffffffffffffffffffffffffffff168673ffffffffffffffffffffffffffffffffffffffff167f501bc920d7f604417e315bcf29247652b2327fa1076b27b7f132bd8927cb15ea8560405161278691906136b2565b60405180910390a45050505050565b5f80835f60f01b846040516020016127af93929190614e53565b6040516020818303038152906040529050806127ca90614ea3565b91505092915050565b5f63629aa69460e01b7bffffffffffffffffffffffffffffffffffffffffffffffffffffffff1916827bffffffffffffffffffffffffffffffffffffffffffffffffffffffff1916148061282c575061282b82612e31565b5b9050919050565b5f8082604051602401612846919061413e565b6040516020818303038152906040526301ffc9a760e01b6020820180517bffffffffffffffffffffffffffffffffffffffffffffffffffffffff838183161783525050505090505f805f60205f8551602087018a617530fa92503d91505f5190508280156128b5575060208210155b80156128c057505f81115b94505050505092915050565b5f8073ffffffffffffffffffffffffffffffffffffffff1660035f8481526020019081526020015f205f9054906101000a900473ffffffffffffffffffffffffffffffffffffffff1673ffffffffffffffffffffffffffffffffffffffff1614159050919050565b5f612959835f018373ffffffffffffffffffffffffffffffffffffffff165f1b612e9a565b905092915050565b6060815f018054806020026020016040519081016040528092919081815260200182805480156129ae57602002820191905f5260205f20905b81548152602001906001019080831161299a575b50505050509050919050565b505050565b5f60055f8381526020019081526020015f2090505f6129dd82612eba565b90505f5b81811015612a25575f6129fd5f85612ecd90919063ffffffff16565b9050612a1981878760405180602001604052805f8152506126be565b816001019150506129e1565b5050505050565b5f612a39835f0183612ee4565b905092915050565b5f612a4e835f0183612d9d565b905092915050565b612a6782636bb56a1460e01b612833565b15612b0e578173ffffffffffffffffffffffffffffffffffffffff16636bb56a147fb23eae7e6d1564b295b4c3e3be402d9a2f0776c57bdf365903496f6fa481ab005f1b836040518363ffffffff1660e01b8152600401612ac9929190614d3c565b5f604051808303815f875af1158015612ae4573d5f803e3d5ffd5b505050506040513d5f823e3d601f19601f82011682018060405250810190612b0c9190614f77565b505b5050565b612b2383636bb56a1460e01b612833565b15612bce578273ffffffffffffffffffffffffffffffffffffffff16636bb56a147f0b084a55ebf70fd3c06fd755269dac2212c4d3f0f4d09079780bfa50c1b2984d5f1b836040518363ffffffff1660e01b8152600401612b85929190614d3c565b5f604051808303815f875af1158015612ba0573d5f803e3d5ffd5b505050506040513d5f823e3d601f19601f82011682018060405250810190612bc89190614f77565b50612c6d565b81612c6c575f8373ffffffffffffffffffffffffffffffffffffffff163b1115612c2f57826040517f4349776d000000000000000000000000000000000000000000000000000000008152600401612c2691906131e4565b60405180910390fd5b826040517f03173137000000000000000000000000000000000000000000000000000000008152600401612c6391906131e4565b60405180910390fd5b5b505050565b5f815f01805490509050919050565b606081601f83612c919190614d6a565b1015612cd2576040517f08c379a0000000000000000000000000000000000000000000000000000000008152600401612cc990615008565b60405180910390fd5b8183612cde9190614d6a565b84511015612d21576040517f08c379a0000000000000000000000000000000000000000000000000000000008152600401612d1890615070565b60405180910390fd5b606082155f8114612d405760405191505f825260208201604052612d91565b6040519150601f8416801560200281840101858101878315602002848b0101015b81831015612d7e5780518352602083019250602081019050612d61565b50868552601f19601f8301166040525050505b50809150509392505050565b5f612da88383612e9a565b612dfa57825f0182908060018154018082558091505060019003905f5260205f20015f9091909190915055825f0180549050836001015f8481526020019081526020015f208190555060019050612dfe565b5f90505b92915050565b5f612e29835f018373ffffffffffffffffffffffffffffffffffffffff165f1b612ee4565b905092915050565b5f7f01ffc9a7000000000000000000000000000000000000000000000000000000007bffffffffffffffffffffffffffffffffffffffffffffffffffffffff1916827bffffffffffffffffffffffffffffffffffffffffffffffffffffffff1916149050919050565b5f80836001015f8481526020019081526020015f20541415905092915050565b5f612ec6825f01612c72565b9050919050565b5f612eda835f0183612fe0565b5f1c905092915050565b5f80836001015f8481526020019081526020015f205490505f8114612fd5575f600182612f11919061508e565b90505f6001865f0180549050612f27919061508e565b9050808214612f8d575f865f018281548110612f4657612f45614476565b5b905f5260205f200154905080875f018481548110612f6757612f66614476565b5b905f5260205f20018190555083876001015f8381526020019081526020015f2081905550505b855f01805480612fa057612f9f6150c1565b5b600190038181905f5260205f20015f90559055856001015f8681526020019081526020015f205f905560019350505050612fda565b5f9150505b92915050565b5f825f018281548110612ff657612ff5614476565b5b905f5260205f200154905092915050565b5f82825260208201905092915050565b828183375f83830152505050565b5f601f19601f8301169050919050565b5f6130408385613007565b935061304d838584613017565b61305683613025565b840190509392505050565b5f6020820190508181035f83015261307a818486613035565b90509392505050565b5f604051905090565b5f80fd5b5f80fd5b5f7fffffffff0000000000000000000000000000000000000000000000000000000082169050919050565b6130c881613094565b81146130d2575f80fd5b50565b5f813590506130e3816130bf565b92915050565b5f602082840312156130fe576130fd61308c565b5b5f61310b848285016130d5565b91505092915050565b5f8115159050919050565b61312881613114565b82525050565b5f6020820190506131415f83018461311f565b92915050565b5f819050919050565b61315981613147565b8114613163575f80fd5b50565b5f8135905061317481613150565b92915050565b5f6020828403121561318f5761318e61308c565b5b5f61319c84828501613166565b91505092915050565b5f73ffffffffffffffffffffffffffffffffffffffff82169050919050565b5f6131ce826131a5565b9050919050565b6131de816131c4565b82525050565b5f6020820190506131f75f8301846131d5565b92915050565b5f81519050919050565b5f82825260208201905092915050565b5f5b83811015613234578082015181840152602081019050613219565b5f8484015250505050565b5f613249826131fd565b6132538185613207565b9350613263818560208601613217565b61326c81613025565b840191505092915050565b61328081613147565b82525050565b5f819050919050565b61329881613286565b82525050565b5f6080820190508181035f8301526132b6818761323f565b90506132c560208301866131d5565b6132d26040830185613277565b6132df606083018461328f565b95945050505050565b5f6020820190506132fb5f830184613277565b92915050565b61330a81613286565b8114613314575f80fd5b50565b5f8135905061332581613301565b92915050565b5f602082840312156133405761333f61308c565b5b5f61334d84828501613317565b91505092915050565b61335f816131c4565b8114613369575f80fd5b50565b5f8135905061337a81613356565b92915050565b5f80604083850312156133965761339561308c565b5b5f6133a38582860161336c565b92505060206133b485828601613317565b9150509250929050565b5f81519050919050565b5f82825260208201905092915050565b5f819050602082019050919050565b6133f0816131c4565b82525050565b5f61340183836133e7565b60208301905092915050565b5f602082019050919050565b5f613423826133be565b61342d81856133c8565b9350613438836133d8565b805f5b8381101561346857815161344f88826133f6565b975061345a8361340d565b92505060018101905061343b565b5085935050505092915050565b5f6020820190508181035f83015261348d8184613419565b905092915050565b61349e81613114565b81146134a8575f80fd5b50565b5f813590506134b981613495565b92915050565b5f80fd5b5f80fd5b7f4e487b71000000000000000000000000000000000000000000000000000000005f52604160045260245ffd5b6134fd82613025565b810181811067ffffffffffffffff8211171561351c5761351b6134c7565b5b80604052505050565b5f61352e613083565b905061353a82826134f4565b919050565b5f67ffffffffffffffff821115613559576135586134c7565b5b61356282613025565b9050602081019050919050565b5f61358161357c8461353f565b613525565b90508281526020810184848401111561359d5761359c6134c3565b5b6135a8848285613017565b509392505050565b5f82601f8301126135c4576135c36134bf565b5b81356135d484826020860161356f565b91505092915050565b5f805f805f60a086880312156135f6576135f561308c565b5b5f6136038882890161336c565b95505060206136148882890161336c565b945050604061362588828901613317565b9350506060613636888289016134ab565b925050608086013567ffffffffffffffff81111561365757613656613090565b5b613663888289016135b0565b9150509295509295909350565b5f81519050919050565b5f61368482613670565b61368e8185613007565b935061369e818560208601613217565b6136a781613025565b840191505092915050565b5f6020820190508181035f8301526136ca818461367a565b905092915050565b5f602082840312156136e7576136e661308c565b5b5f6136f48482850161336c565b91505092915050565b5f67ffffffffffffffff821115613717576137166134c7565b5b602082029050602081019050919050565b5f80fd5b5f61373e613739846136fd565b613525565b9050808382526020820190506020840283018581111561376157613760613728565b5b835b8181101561378a5780613776888261336c565b845260208401935050602081019050613763565b5050509392505050565b5f82601f8301126137a8576137a76134bf565b5b81356137b884826020860161372c565b91505092915050565b5f67ffffffffffffffff8211156137db576137da6134c7565b5b602082029050602081019050919050565b5f6137fe6137f9846137c1565b613525565b9050808382526020820190506020840283018581111561382157613820613728565b5b835b8181101561384a57806138368882613317565b845260208401935050602081019050613823565b5050509392505050565b5f82601f830112613868576138676134bf565b5b81356138788482602086016137ec565b91505092915050565b5f67ffffffffffffffff82111561389b5761389a6134c7565b5b602082029050602081019050919050565b5f6138be6138b984613881565b613525565b905080838252602082019050602084028301858111156138e1576138e0613728565b5b835b8181101561390a57806138f688826134ab565b8452602084019350506020810190506138e3565b5050509392505050565b5f82601f830112613928576139276134bf565b5b81356139388482602086016138ac565b91505092915050565b5f67ffffffffffffffff82111561395b5761395a6134c7565b5b602082029050602081019050919050565b5f61397e61397984613941565b613525565b905080838252602082019050602084028301858111156139a1576139a0613728565b5b835b818110156139e857803567ffffffffffffffff8111156139c6576139c56134bf565b5b8086016139d389826135b0565b855260208501945050506020810190506139a3565b5050509392505050565b5f82601f830112613a0657613a056134bf565b5b8135613a1684826020860161396c565b91505092915050565b5f805f805f60a08688031215613a3857613a3761308c565b5b5f86013567ffffffffffffffff811115613a5557613a54613090565b5b613a6188828901613794565b955050602086013567ffffffffffffffff811115613a8257613a81613090565b5b613a8e88828901613794565b945050604086013567ffffffffffffffff811115613aaf57613aae613090565b5b613abb88828901613854565b935050606086013567ffffffffffffffff811115613adc57613adb613090565b5b613ae888828901613914565b925050608086013567ffffffffffffffff811115613b0957613b08613090565b5b613b15888289016139f2565b9150509295509295909350565b5f8060408385031215613b3857613b3761308c565b5b5f613b4585828601613317565b925050602083013567ffffffffffffffff811115613b6657613b65613090565b5b613b72858286016135b0565b9150509250929050565b5f805f60608486031215613b9357613b9261308c565b5b5f613ba08682870161336c565b9350506020613bb186828701613317565b925050604084013567ffffffffffffffff811115613bd257613bd1613090565b5b613bde868287016135b0565b9150509250925092565b5f67ffffffffffffffff821115613c0257613c016134c7565b5b602082029050602081019050919050565b5f67ffffffffffffffff821115613c2d57613c2c6134c7565b5b613c3682613025565b9050602081019050919050565b5f613c55613c5084613c13565b613525565b905082815260208101848484011115613c7157613c706134c3565b5b613c7c848285613017565b509392505050565b5f82601f830112613c9857613c976134bf565b5b8135613ca8848260208601613c43565b91505092915050565b5f613cc3613cbe84613be8565b613525565b90508083825260208201905060208402830185811115613ce657613ce5613728565b5b835b81811015613d2d57803567ffffffffffffffff811115613d0b57613d0a6134bf565b5b808601613d188982613c84565b85526020850194505050602081019050613ce8565b5050509392505050565b5f82601f830112613d4b57613d4a6134bf565b5b8135613d5b848260208601613cb1565b91505092915050565b5f805f60608486031215613d7b57613d7a61308c565b5b5f613d888682870161336c565b935050602084013567ffffffffffffffff811115613da957613da8613090565b5b613db586828701613d37565b925050604084013567ffffffffffffffff811115613dd657613dd5613090565b5b613de286828701613854565b9150509250925092565b5f8060408385031215613e0257613e0161308c565b5b5f83013567ffffffffffffffff811115613e1f57613e1e613090565b5b613e2b85828601613854565b925050602083013567ffffffffffffffff811115613e4c57613e4b613090565b5b613e58858286016139f2565b9150509250929050565b5f81519050919050565b5f82825260208201905092915050565b5f819050602082019050919050565b613e9481613286565b82525050565b5f613ea58383613e8b565b60208301905092915050565b5f602082019050919050565b5f613ec782613e62565b613ed18185613e6c565b9350613edc83613e7c565b805f5b83811015613f0c578151613ef38882613e9a565b9750613efe83613eb1565b925050600181019050613edf565b5085935050505092915050565b5f6020820190508181035f830152613f318184613ebd565b905092915050565b5f6020820190508181035f830152613f51818461323f565b905092915050565b5f805f60608486031215613f7057613f6f61308c565b5b5f613f7d8682870161336c565b935050602084013567ffffffffffffffff811115613f9e57613f9d613090565b5b613faa86828701613c84565b9250506040613fbb86828701613317565b9150509250925092565b5f60208284031215613fda57613fd961308c565b5b5f82013567ffffffffffffffff811115613ff757613ff6613090565b5b61400384828501613854565b91505092915050565b5f81519050919050565b5f82825260208201905092915050565b5f819050602082019050919050565b5f82825260208201905092915050565b5f61404f82613670565b6140598185614035565b9350614069818560208601613217565b61407281613025565b840191505092915050565b5f6140888383614045565b905092915050565b5f602082019050919050565b5f6140a68261400c565b6140b08185614016565b9350836020820285016140c285614026565b805f5b858110156140fd57848403895281516140de858261407d565b94506140e983614090565b925060208a019950506001810190506140c5565b50829750879550505050505092915050565b5f6020820190508181035f830152614127818461409c565b905092915050565b61413881613094565b82525050565b5f6020820190506141515f83018461412f565b92915050565b5f81905092915050565b5f61416c8385614157565b9350614179838584613017565b82840190509392505050565b5f8160601b9050919050565b5f61419b82614185565b9050919050565b5f6141ac82614191565b9050919050565b6141c46141bf826131c4565b6141a2565b82525050565b5f819050919050565b6141e46141df82613147565b6141ca565b82525050565b5f6141f6828688614161565b915061420282856141b3565b60148201915061421282846141d3565b60208201915081905095945050505050565b5f61422e82613670565b6142388185614157565b9350614248818560208601613217565b80840191505092915050565b5f61425f8284614224565b915081905092915050565b7f4e487b71000000000000000000000000000000000000000000000000000000005f52602260045260245ffd5b5f60028204905060018216806142ae57607f821691505b6020821081036142c1576142c061426a565b5b50919050565b5f6020820190506142da5f83018461328f565b92915050565b7f4f6e6c792061646d696e2063616e2077697468647261772066656573000000005f82015250565b5f614314601c83613207565b915061431f826142e0565b602082019050919050565b5f6020820190508181035f83015261434181614308565b9050919050565b50565b5f6143565f83614157565b915061436182614348565b5f82019050919050565b5f6143758261434b565b9150819050919050565b7f4661696c656420746f2073656e642066656573000000000000000000000000005f82015250565b5f6143b3601383613207565b91506143be8261437f565b602082019050919050565b5f6020820190508181035f8301526143e0816143a7565b9050919050565b5f6040820190506143fa5f83018561328f565b61440760208301846131d5565b9392505050565b7f464f5242494444454e00000000000000000000000000000000000000000000005f82015250565b5f614442600983613207565b915061444d8261440e565b602082019050919050565b5f6020820190508181035f83015261446f81614436565b9050919050565b7f4e487b71000000000000000000000000000000000000000000000000000000005f52603260045260245ffd5b5f6060820190506144b65f8301866131d5565b6144c3602083018561328f565b6144d060408301846131d5565b949350505050565b5f6040820190506144eb5f8301856131d5565b6144f8602083018461328f565b9392505050565b5f6060820190506145125f8301866131d5565b61451f602083018561328f565b8181036040830152614531818461367a565b9050949350505050565b7f4e6f2072652d656e7472616e63790000000000000000000000000000000000005f82015250565b5f61456f600e83613207565b915061457a8261453b565b602082019050919050565b5f6020820190508181035f83015261459c81614563565b9050919050565b7f496e73756666696369656e7420666565000000000000000000000000000000005f82015250565b5f6145d7601083613207565b91506145e2826145a3565b602082019050919050565b5f6020820190508181035f830152614604816145cb565b9050919050565b5f819050815f5260205f209050919050565b5f6020601f8301049050919050565b5f82821b905092915050565b5f600883026146677fffffffffffffffffffffffffffffffffffffffffffffffffffffffffffffffff8261462c565b614671868361462c565b95508019841693508086168417925050509392505050565b5f819050919050565b5f6146ac6146a76146a284613147565b614689565b613147565b9050919050565b5f819050919050565b6146c583614692565b6146d96146d1826146b3565b848454614638565b825550505050565b5f90565b6146ed6146e1565b6146f88184846146bc565b505050565b5b8181101561471b576147105f826146e5565b6001810190506146fe565b5050565b601f821115614760576147318161460b565b61473a8461461d565b81016020851015614749578190505b61475d6147558561461d565b8301826146fd565b50505b505050565b5f82821c905092915050565b5f6147805f1984600802614765565b1980831691505092915050565b5f6147988383614771565b9150826002028217905092915050565b6147b1826131fd565b67ffffffffffffffff8111156147ca576147c96134c7565b5b6147d48254614297565b6147df82828561471f565b5f60209050601f831160018114614810575f84156147fe578287015190505b614808858261478d565b86555061486f565b601f19841661481e8661460b565b5f5b8281101561484557848901518255600182019150602085019450602081019050614820565b86831015614862578489015161485e601f891682614771565b8355505b6001600288020188555050505b505050505050565b7f4e487b71000000000000000000000000000000000000000000000000000000005f52601160045260245ffd5b5f6148ae82613147565b91507fffffffffffffffffffffffffffffffffffffffffffffffffffffffffffffffff82036148e0576148df614877565b5b600182019050919050565b5f815490506148f981614297565b9050919050565b81810361490e5750506149e3565b614917826148eb565b67ffffffffffffffff8111156149305761492f6134c7565b5b61493a8254614297565b61494582828561471f565b5f601f831160018114614972575f8415614960578287015490505b61496a858261478d565b8655506149dc565b601f1984166149808761460b565b965061498b8661460b565b5f5b828110156149b25784890154825560018201915060018501945060208101905061498d565b868310156149cf57848901546149cb601f891682614771565b8355505b6001600288020188555050505b5050505050505b565b7f4f776e61626c653a206e6577206f776e657220697320746865207a65726f20615f8201527f6464726573730000000000000000000000000000000000000000000000000000602082015250565b5f614a3f602683613207565b9150614a4a826149e5565b604082019050919050565b5f6020820190508181035f830152614a6c81614a33565b9050919050565b5f819050602082019050919050565b5f7fffffffffffffffffffffffffffffffffffffffff00000000000000000000000082169050919050565b5f614ab88251614a82565b80915050919050565b5f614acb82613670565b82614ad584614a73565b9050614ae081614aad565b92506014821015614b2057614b1b7fffffffffffffffffffffffffffffffffffffffff0000000000000000000000008360140360080261462c565b831692505b5050919050565b5f606082019050614b3a5f8301866131d5565b614b47602083018561311f565b8181036040830152614b59818461367a565b9050949350505050565b5f608082019050614b765f8301876131d5565b614b8360208301866131d5565b614b90604083018561328f565b8181036060830152614ba2818461367a565b905095945050505050565b7f4f776e61626c653a2063616c6c6572206973206e6f7420746865206f776e65725f82015250565b5f614be1602083613207565b9150614bec82614bad565b602082019050919050565b5f6020820190508181035f830152614c0e81614bd5565b9050919050565b5f819050815f5260205f209050919050565b601f821115614c6857614c3981614c15565b614c428461461d565b81016020851015614c51578190505b614c65614c5d8561461d565b8301826146fd565b50505b505050565b614c7682613670565b67ffffffffffffffff811115614c8f57614c8e6134c7565b5b614c998254614297565b614ca4828285614c27565b5f60209050601f831160018114614cd5575f8415614cc3578287015190505b614ccd858261478d565b865550614d34565b601f198416614ce386614c15565b5f5b82811015614d0a57848901518255600182019150602085019450602081019050614ce5565b86831015614d275784890151614d23601f891682614771565b8355505b6001600288020188555050505b505050505050565b5f604082019050614d4f5f83018561328f565b8181036020830152614d61818461367a565b90509392505050565b5f614d7482613147565b9150614d7f83613147565b9250828201905080821115614d9757614d96614877565b5b92915050565b5f7fffffffffffffffffffff0000000000000000000000000000000000000000000082169050919050565b5f819050919050565b614de2614ddd82614d9d565b614dc8565b82525050565b5f7fffff00000000000000000000000000000000000000000000000000000000000082169050919050565b5f819050919050565b614e2d614e2882614de8565b614e13565b82525050565b5f819050919050565b614e4d614e4882614a82565b614e33565b82525050565b5f614e5e8286614dd1565b600a82019150614e6e8285614e1c565b600282019150614e7e8284614e3c565b601482019150819050949350505050565b5f614e9a8251613286565b80915050919050565b5f614ead82613670565b82614eb784614a73565b9050614ec281614e8f565b92506020821015614f0257614efd7fffffffffffffffffffffffffffffffffffffffffffffffffffffffffffffffff8360200360080261462c565b831692505b5050919050565b5f614f1b614f168461353f565b613525565b905082815260208101848484011115614f3757614f366134c3565b5b614f42848285613217565b509392505050565b5f82601f830112614f5e57614f5d6134bf565b5b8151614f6e848260208601614f09565b91505092915050565b5f60208284031215614f8c57614f8b61308c565b5b5f82015167ffffffffffffffff811115614fa957614fa8613090565b5b614fb584828501614f4a565b91505092915050565b7f736c6963655f6f766572666c6f770000000000000000000000000000000000005f82015250565b5f614ff2600e83613207565b9150614ffd82614fbe565b602082019050919050565b5f6020820190508181035f83015261501f81614fe6565b9050919050565b7f736c6963655f6f75744f66426f756e64730000000000000000000000000000005f82015250565b5f61505a601183613207565b915061506582615026565b602082019050919050565b5f6020820190508181035f8301526150878161504e565b9050919050565b5f61509882613147565b91506150a383613147565b92508282039050818111156150bb576150ba614877565b5b92915050565b7f4e487b71000000000000000000000000000000000000000000000000000000005f52603160045260245ffdfea26469706673582212201ccc96519bfbb20b2e53a5d23184b46fe7d5ab8554840e04ecd380a87946788364736f6c63430008140033",
  "linkReferences": {},
  "deployedLinkReferences": {}
}