{
  "_format": "hh-sol-artifact-1",
  "contractName": "LSP8PinSave",
  "sourceName": "contracts/LSP8PinSave.sol",
  "abi": [
    {
      "inputs": [
        {
          "internalType": "string",
          "name": "name_",
          "type": "string"
        },
        {
          "internalType": "string",
          "name": "symbol_",
          "type": "string"
        },
        {
          "internalType": "address",
          "name": "newOwner_",
          "type": "address"
        }
      ],
      "stateMutability": "nonpayable",
      "type": "constructor"
    },
    {
      "inputs": [],
      "name": "ERC725Y_DataKeysValuesEmptyArray",
      "type": "error"
    },
    {
      "inputs": [],
      "name": "ERC725Y_DataKeysValuesLengthMismatch",
      "type": "error"
    },
    {
      "inputs": [],
      "name": "ERC725Y_MsgValueDisallowed",
      "type": "error"
    },
    {
      "inputs": [
        {
          "internalType": "bytes",
          "name": "storedData",
          "type": "bytes"
        }
      ],
      "name": "InvalidExtensionAddress",
      "type": "error"
    },
    {
      "inputs": [
        {
          "internalType": "bytes",
          "name": "data",
          "type": "bytes"
        }
      ],
      "name": "InvalidFunctionSelector",
      "type": "error"
    },
    {
      "inputs": [],
      "name": "LSP4TokenNameNotEditable",
      "type": "error"
    },
    {
      "inputs": [],
      "name": "LSP4TokenSymbolNotEditable",
      "type": "error"
    },
    {
      "inputs": [],
      "name": "LSP8CannotSendToAddressZero",
      "type": "error"
    },
    {
      "inputs": [],
      "name": "LSP8CannotSendToSelf",
      "type": "error"
    },
    {
      "inputs": [],
      "name": "LSP8CannotUseAddressZeroAsOperator",
      "type": "error"
    },
    {
      "inputs": [],
      "name": "LSP8InvalidTransferBatch",
      "type": "error"
    },
    {
      "inputs": [
        {
          "internalType": "bytes32",
          "name": "tokenId",
          "type": "bytes32"
        }
      ],
      "name": "LSP8NonExistentTokenId",
      "type": "error"
    },
    {
      "inputs": [
        {
          "internalType": "address",
          "name": "operator",
          "type": "address"
        },
        {
          "internalType": "bytes32",
          "name": "tokenId",
          "type": "bytes32"
        }
      ],
      "name": "LSP8NonExistingOperator",
      "type": "error"
    },
    {
      "inputs": [
        {
          "internalType": "bytes32",
          "name": "tokenId",
          "type": "bytes32"
        },
        {
          "internalType": "address",
          "name": "caller",
          "type": "address"
        }
      ],
      "name": "LSP8NotTokenOperator",
      "type": "error"
    },
    {
      "inputs": [
        {
          "internalType": "address",
          "name": "tokenOwner",
          "type": "address"
        },
        {
          "internalType": "bytes32",
          "name": "tokenId",
          "type": "bytes32"
        },
        {
          "internalType": "address",
          "name": "caller",
          "type": "address"
        }
      ],
      "name": "LSP8NotTokenOwner",
      "type": "error"
    },
    {
      "inputs": [
        {
          "internalType": "address",
          "name": "tokenReceiver",
          "type": "address"
        }
      ],
      "name": "LSP8NotifyTokenReceiverContractMissingLSP1Interface",
      "type": "error"
    },
    {
      "inputs": [
        {
          "internalType": "address",
          "name": "tokenReceiver",
          "type": "address"
        }
      ],
      "name": "LSP8NotifyTokenReceiverIsEOA",
      "type": "error"
    },
    {
      "inputs": [
        {
          "internalType": "address",
          "name": "operator",
          "type": "address"
        },
        {
          "internalType": "bytes32",
          "name": "tokenId",
          "type": "bytes32"
        }
      ],
      "name": "LSP8OperatorAlreadyAuthorized",
      "type": "error"
    },
    {
      "inputs": [
        {
          "internalType": "bytes32",
          "name": "tokenId",
          "type": "bytes32"
        }
      ],
      "name": "LSP8TokenIdAlreadyMinted",
      "type": "error"
    },
    {
      "inputs": [],
      "name": "LSP8TokenOwnerCannotBeOperator",
      "type": "error"
    },
    {
      "inputs": [
        {
          "internalType": "bytes4",
          "name": "functionSelector",
          "type": "bytes4"
        }
      ],
      "name": "NoExtensionFoundForFunctionSelector",
      "type": "error"
    },
    {
      "anonymous": false,
      "inputs": [
        {
          "indexed": true,
          "internalType": "address",
          "name": "operator",
          "type": "address"
        },
        {
          "indexed": true,
          "internalType": "address",
          "name": "tokenOwner",
          "type": "address"
        },
        {
          "indexed": true,
          "internalType": "bytes32",
          "name": "tokenId",
          "type": "bytes32"
        },
        {
          "indexed": false,
          "internalType": "bytes",
          "name": "operatorNotificationData",
          "type": "bytes"
        }
      ],
      "name": "AuthorizedOperator",
      "type": "event"
    },
    {
      "anonymous": false,
      "inputs": [
        {
          "indexed": true,
          "internalType": "bytes32",
          "name": "dataKey",
          "type": "bytes32"
        },
        {
          "indexed": false,
          "internalType": "bytes",
          "name": "dataValue",
          "type": "bytes"
        }
      ],
      "name": "DataChanged",
      "type": "event"
    },
    {
      "anonymous": false,
      "inputs": [
        {
          "indexed": true,
          "internalType": "address",
          "name": "previousOwner",
          "type": "address"
        },
        {
          "indexed": true,
          "internalType": "address",
          "name": "newOwner",
          "type": "address"
        }
      ],
      "name": "OwnershipTransferred",
      "type": "event"
    },
    {
      "anonymous": false,
      "inputs": [
        {
          "indexed": true,
          "internalType": "address",
          "name": "operator",
          "type": "address"
        },
        {
          "indexed": true,
          "internalType": "address",
          "name": "tokenOwner",
          "type": "address"
        },
        {
          "indexed": true,
          "internalType": "bytes32",
          "name": "tokenId",
          "type": "bytes32"
        },
        {
          "indexed": false,
          "internalType": "bytes",
          "name": "operatorNotificationData",
          "type": "bytes"
        }
      ],
      "name": "RevokedOperator",
      "type": "event"
    },
    {
      "anonymous": false,
      "inputs": [
        {
          "indexed": false,
          "internalType": "address",
          "name": "operator",
          "type": "address"
        },
        {
          "indexed": true,
          "internalType": "address",
          "name": "from",
          "type": "address"
        },
        {
          "indexed": true,
          "internalType": "address",
          "name": "to",
          "type": "address"
        },
        {
          "indexed": true,
          "internalType": "bytes32",
          "name": "tokenId",
          "type": "bytes32"
        },
        {
          "indexed": false,
          "internalType": "bool",
          "name": "allowNonLSP1Recipient",
          "type": "bool"
        },
        {
          "indexed": false,
          "internalType": "bytes",
          "name": "data",
          "type": "bytes"
        }
      ],
      "name": "Transfer",
      "type": "event"
    },
    {
      "stateMutability": "payable",
      "type": "fallback"
    },
    {
      "inputs": [
        {
          "internalType": "address",
          "name": "operator",
          "type": "address"
        },
        {
          "internalType": "bytes32",
          "name": "tokenId",
          "type": "bytes32"
        },
        {
          "internalType": "bytes",
          "name": "operatorNotificationData",
          "type": "bytes"
        }
      ],
      "name": "authorizeOperator",
      "outputs": [],
      "stateMutability": "nonpayable",
      "type": "function"
    },
    {
      "inputs": [
        {
          "internalType": "address",
          "name": "tokenOwner",
          "type": "address"
        }
      ],
      "name": "balanceOf",
      "outputs": [
        {
          "internalType": "uint256",
          "name": "",
          "type": "uint256"
        }
      ],
      "stateMutability": "view",
      "type": "function"
    },
    {
      "inputs": [
        {
          "internalType": "uint256",
          "name": "newFee",
          "type": "uint256"
        }
      ],
      "name": "changeFee",
      "outputs": [],
      "stateMutability": "nonpayable",
      "type": "function"
    },
    {
      "inputs": [
        {
          "internalType": "address",
          "name": "to",
          "type": "address"
        },
        {
          "internalType": "string[]",
          "name": "_cid",
          "type": "string[]"
        },
        {
          "internalType": "bytes32[]",
          "name": "tokenId",
          "type": "bytes32[]"
        }
      ],
      "name": "createBatchPosts",
      "outputs": [],
      "stateMutability": "nonpayable",
      "type": "function"
    },
    {
      "inputs": [
        {
          "internalType": "address",
          "name": "receiver",
          "type": "address"
        },
        {
          "internalType": "string",
          "name": "_cid",
          "type": "string"
        },
        {
          "internalType": "bytes32",
          "name": "tokenId",
          "type": "bytes32"
        }
      ],
      "name": "createPost",
      "outputs": [],
      "stateMutability": "payable",
      "type": "function"
    },
    {
      "inputs": [],
      "name": "feeSetter",
      "outputs": [
        {
          "internalType": "address",
          "name": "",
          "type": "address"
        }
      ],
      "stateMutability": "view",
      "type": "function"
    },
    {
      "inputs": [],
      "name": "getContractBalance",
      "outputs": [
        {
          "internalType": "uint256",
          "name": "",
          "type": "uint256"
        }
      ],
      "stateMutability": "view",
      "type": "function"
    },
    {
      "inputs": [
        {
          "internalType": "bytes32",
          "name": "dataKey",
          "type": "bytes32"
        }
      ],
      "name": "getData",
      "outputs": [
        {
          "internalType": "bytes",
          "name": "dataValue",
          "type": "bytes"
        }
      ],
      "stateMutability": "view",
      "type": "function"
    },
    {
      "inputs": [
        {
          "internalType": "bytes32[]",
          "name": "dataKeys",
          "type": "bytes32[]"
        }
      ],
      "name": "getDataBatch",
      "outputs": [
        {
          "internalType": "bytes[]",
          "name": "dataValues",
          "type": "bytes[]"
        }
      ],
      "stateMutability": "view",
      "type": "function"
    },
    {
      "inputs": [
        {
          "internalType": "bytes32",
          "name": "tokenId",
          "type": "bytes32"
        }
      ],
      "name": "getOperatorsOf",
      "outputs": [
        {
          "internalType": "address[]",
          "name": "",
          "type": "address[]"
        }
      ],
      "stateMutability": "view",
      "type": "function"
    },
    {
      "inputs": [
        {
          "internalType": "uint256",
          "name": "id",
          "type": "uint256"
        }
      ],
      "name": "getPostAuthor",
      "outputs": [
        {
          "internalType": "address",
          "name": "",
          "type": "address"
        }
      ],
      "stateMutability": "view",
      "type": "function"
    },
    {
      "inputs": [
        {
          "internalType": "uint256",
          "name": "id",
          "type": "uint256"
        }
      ],
      "name": "getPostCid",
      "outputs": [
        {
          "internalType": "string",
          "name": "",
          "type": "string"
        }
      ],
      "stateMutability": "view",
      "type": "function"
    },
    {
      "inputs": [
        {
          "internalType": "uint256",
          "name": "id",
          "type": "uint256"
        }
      ],
      "name": "getPostOwner",
      "outputs": [
        {
          "internalType": "address",
          "name": "",
          "type": "address"
        }
      ],
      "stateMutability": "view",
      "type": "function"
    },
    {
      "inputs": [
        {
          "internalType": "address",
          "name": "operator",
          "type": "address"
        },
        {
          "internalType": "bytes32",
          "name": "tokenId",
          "type": "bytes32"
        }
      ],
      "name": "isOperatorFor",
      "outputs": [
        {
          "internalType": "bool",
          "name": "",
          "type": "bool"
        }
      ],
      "stateMutability": "view",
      "type": "function"
    },
    {
      "inputs": [],
      "name": "mintingFee",
      "outputs": [
        {
          "internalType": "uint256",
          "name": "",
          "type": "uint256"
        }
      ],
      "stateMutability": "view",
      "type": "function"
    },
    {
      "inputs": [],
      "name": "owner",
      "outputs": [
        {
          "internalType": "address",
          "name": "",
          "type": "address"
        }
      ],
      "stateMutability": "view",
      "type": "function"
    },
    {
      "inputs": [
        {
          "internalType": "uint256",
          "name": "",
          "type": "uint256"
        }
      ],
      "name": "postByTokenId",
      "outputs": [
        {
          "internalType": "string",
          "name": "cid",
          "type": "string"
        },
        {
          "internalType": "address",
          "name": "author",
          "type": "address"
        },
        {
          "internalType": "uint256",
          "name": "id",
          "type": "uint256"
        },
        {
          "internalType": "bytes32",
          "name": "tokenId",
          "type": "bytes32"
        }
      ],
      "stateMutability": "view",
      "type": "function"
    },
    {
      "inputs": [],
      "name": "renounceOwnership",
      "outputs": [],
      "stateMutability": "nonpayable",
      "type": "function"
    },
    {
      "inputs": [
        {
          "internalType": "address",
          "name": "operator",
          "type": "address"
        },
        {
          "internalType": "bytes32",
          "name": "tokenId",
          "type": "bytes32"
        },
        {
          "internalType": "bytes",
          "name": "operatorNotificationData",
          "type": "bytes"
        }
      ],
      "name": "revokeOperator",
      "outputs": [],
      "stateMutability": "nonpayable",
      "type": "function"
    },
    {
      "inputs": [
        {
          "internalType": "bytes32",
          "name": "dataKey",
          "type": "bytes32"
        },
        {
          "internalType": "bytes",
          "name": "dataValue",
          "type": "bytes"
        }
      ],
      "name": "setData",
      "outputs": [],
      "stateMutability": "payable",
      "type": "function"
    },
    {
      "inputs": [
        {
          "internalType": "bytes32[]",
          "name": "dataKeys",
          "type": "bytes32[]"
        },
        {
          "internalType": "bytes[]",
          "name": "dataValues",
          "type": "bytes[]"
        }
      ],
      "name": "setDataBatch",
      "outputs": [],
      "stateMutability": "payable",
      "type": "function"
    },
    {
      "inputs": [
        {
          "internalType": "address",
          "name": "_feeSetter",
          "type": "address"
        }
      ],
      "name": "setFeeSetter",
      "outputs": [],
      "stateMutability": "nonpayable",
      "type": "function"
    },
    {
      "inputs": [
        {
          "internalType": "bytes4",
          "name": "interfaceId",
          "type": "bytes4"
        }
      ],
      "name": "supportsInterface",
      "outputs": [
        {
          "internalType": "bool",
          "name": "",
          "type": "bool"
        }
      ],
      "stateMutability": "view",
      "type": "function"
    },
    {
      "inputs": [
        {
          "internalType": "address",
          "name": "tokenOwner",
          "type": "address"
        }
      ],
      "name": "tokenIdsOf",
      "outputs": [
        {
          "internalType": "bytes32[]",
          "name": "",
          "type": "bytes32[]"
        }
      ],
      "stateMutability": "view",
      "type": "function"
    },
    {
      "inputs": [
        {
          "internalType": "bytes32",
          "name": "tokenId",
          "type": "bytes32"
        }
      ],
      "name": "tokenOwnerOf",
      "outputs": [
        {
          "internalType": "address",
          "name": "",
          "type": "address"
        }
      ],
      "stateMutability": "view",
      "type": "function"
    },
    {
      "inputs": [],
      "name": "totalSupply",
      "outputs": [
        {
          "internalType": "uint256",
          "name": "",
          "type": "uint256"
        }
      ],
      "stateMutability": "view",
      "type": "function"
    },
    {
      "inputs": [
        {
          "internalType": "address",
          "name": "from",
          "type": "address"
        },
        {
          "internalType": "address",
          "name": "to",
          "type": "address"
        },
        {
          "internalType": "bytes32",
          "name": "tokenId",
          "type": "bytes32"
        },
        {
          "internalType": "bool",
          "name": "allowNonLSP1Recipient",
          "type": "bool"
        },
        {
          "internalType": "bytes",
          "name": "data",
          "type": "bytes"
        }
      ],
      "name": "transfer",
      "outputs": [],
      "stateMutability": "nonpayable",
      "type": "function"
    },
    {
      "inputs": [
        {
          "internalType": "address[]",
          "name": "from",
          "type": "address[]"
        },
        {
          "internalType": "address[]",
          "name": "to",
          "type": "address[]"
        },
        {
          "internalType": "bytes32[]",
          "name": "tokenId",
          "type": "bytes32[]"
        },
        {
          "internalType": "bool[]",
          "name": "allowNonLSP1Recipient",
          "type": "bool[]"
        },
        {
          "internalType": "bytes[]",
          "name": "data",
          "type": "bytes[]"
        }
      ],
      "name": "transferBatch",
      "outputs": [],
      "stateMutability": "nonpayable",
      "type": "function"
    },
    {
      "inputs": [
        {
          "internalType": "address",
          "name": "newOwner",
          "type": "address"
        }
      ],
      "name": "transferOwnership",
      "outputs": [],
      "stateMutability": "nonpayable",
      "type": "function"
    },
    {
      "inputs": [],
      "name": "withdrawFees",
      "outputs": [],
      "stateMutability": "nonpayable",
      "type": "function"
    },
    {
      "stateMutability": "payable",
      "type": "receive"
    }
  ],
  "bytecode": "0x60806040523480156200001157600080fd5b5060405162005da038038062005da0833981810160405281019062000037919062000570565b82828282828280600073ffffffffffffffffffffffffffffffffffffffff168173ffffffffffffffffffffffffffffffffffffffff1603620000b0576040517f08c379a0000000000000000000000000000000000000000000000000000000008152600401620000a79062000691565b60405180910390fd5b620000c181620001e660201b60201c565b506200012c7feafec4d89fa9619884b60000a4d96624a38f7ac2d8d9a604ecf07c12c77e480c60001b6040518060400160405280600481526020017fa4d9662400000000000000000000000000000000000000000000000000000000815250620002ee60201b60201c565b620001617fdeba1e292f8ba88238e10ab3c7f88bd4be4fac56cad5194b6ecceaf653468af160001b84620002ee60201b60201c565b620001967f2f0a68ab07768e01943a599e73362a0e17a63a72e94dd2e384d2c1d4db93275660001b83620002ee60201b60201c565b50505050505080600760016101000a81548173ffffffffffffffffffffffffffffffffffffffff021916908373ffffffffffffffffffffffffffffffffffffffff16021790555050505062000a5b565b620001f66200034f60201b60201c565b73ffffffffffffffffffffffffffffffffffffffff168173ffffffffffffffffffffffffffffffffffffffff1614620002eb5760008060009054906101000a900473ffffffffffffffffffffffffffffffffffffffff169050816000806101000a81548173ffffffffffffffffffffffffffffffffffffffff021916908373ffffffffffffffffffffffffffffffffffffffff1602179055508173ffffffffffffffffffffffffffffffffffffffff168173ffffffffffffffffffffffffffffffffffffffff167f8be0079c531659141344cd1fd0a4f28419497f9722a3daafe3b4186f6b6457e060405160405180910390a3505b50565b80600160008481526020019081526020016000209081620003109190620008fe565b50817fece574603820d07bc9b91f2a932baadf4628aabcb8afba49776529c14a6104b28260405162000343919062000a37565b60405180910390a25050565b60008060009054906101000a900473ffffffffffffffffffffffffffffffffffffffff16905090565b6000604051905090565b600080fd5b600080fd5b600080fd5b600080fd5b6000601f19601f8301169050919050565b7f4e487b7100000000000000000000000000000000000000000000000000000000600052604160045260246000fd5b620003e18262000396565b810181811067ffffffffffffffff82111715620004035762000402620003a7565b5b80604052505050565b60006200041862000378565b9050620004268282620003d6565b919050565b600067ffffffffffffffff821115620004495762000448620003a7565b5b620004548262000396565b9050602081019050919050565b60005b838110156200048157808201518184015260208101905062000464565b60008484015250505050565b6000620004a46200049e846200042b565b6200040c565b905082815260208101848484011115620004c357620004c262000391565b5b620004d084828562000461565b509392505050565b600082601f830112620004f057620004ef6200038c565b5b8151620005028482602086016200048d565b91505092915050565b600073ffffffffffffffffffffffffffffffffffffffff82169050919050565b600062000538826200050b565b9050919050565b6200054a816200052b565b81146200055657600080fd5b50565b6000815190506200056a816200053f565b92915050565b6000806000606084860312156200058c576200058b62000382565b5b600084015167ffffffffffffffff811115620005ad57620005ac62000387565b5b620005bb86828701620004d8565b935050602084015167ffffffffffffffff811115620005df57620005de62000387565b5b620005ed86828701620004d8565b9250506040620006008682870162000559565b9150509250925092565b600082825260208201905092915050565b7f4f776e61626c653a206e6577206f776e657220697320746865207a65726f206160008201527f6464726573730000000000000000000000000000000000000000000000000000602082015250565b6000620006796026836200060a565b915062000686826200061b565b604082019050919050565b60006020820190508181036000830152620006ac816200066a565b9050919050565b600081519050919050565b7f4e487b7100000000000000000000000000000000000000000000000000000000600052602260045260246000fd5b600060028204905060018216806200070657607f821691505b6020821081036200071c576200071b620006be565b5b50919050565b60008190508160005260206000209050919050565b60006020601f8301049050919050565b600082821b905092915050565b600060088302620007867fffffffffffffffffffffffffffffffffffffffffffffffffffffffffffffffff8262000747565b62000792868362000747565b95508019841693508086168417925050509392505050565b6000819050919050565b6000819050919050565b6000620007df620007d9620007d384620007aa565b620007b4565b620007aa565b9050919050565b6000819050919050565b620007fb83620007be565b620008136200080a82620007e6565b84845462000754565b825550505050565b600090565b6200082a6200081b565b62000837818484620007f0565b505050565b5b818110156200085f576200085360008262000820565b6001810190506200083d565b5050565b601f821115620008ae57620008788162000722565b620008838462000737565b8101602085101562000893578190505b620008ab620008a28562000737565b8301826200083c565b50505b505050565b600082821c905092915050565b6000620008d360001984600802620008b3565b1980831691505092915050565b6000620008ee8383620008c0565b9150826002028217905092915050565b6200090982620006b3565b67ffffffffffffffff811115620009255762000924620003a7565b5b620009318254620006ed565b6200093e82828562000863565b600060209050601f83116001811462000976576000841562000961578287015190505b6200096d8582620008e0565b865550620009dd565b601f198416620009868662000722565b60005b82811015620009b05784890151825560018201915060208501945060208101905062000989565b86831015620009d05784890151620009cc601f891682620008c0565b8355505b6001600288020188555050505b505050505050565b600082825260208201905092915050565b600062000a0382620006b3565b62000a0f8185620009e5565b935062000a2181856020860162000461565b62000a2c8162000396565b840191505092915050565b6000602082019050818103600083015262000a538184620009f6565b905092915050565b6153358062000a6b6000396000f3fe6080604052600436106101d15760003560e01c8063715018a6116100f75780639790242111610095578063b92223c311610064578063b92223c314610715578063dedff9c614610731578063f1b97e041461076e578063f2fde38b14610797576101d8565b80639790242114610656578063a3b261f214610672578063a56581df146106af578063b19805af146106ec576101d8565b806386a10ddd116100d157806386a10ddd146105ae57806387cf3ef4146105d75780638da5cb5b1461060257806395b9945b1461062d576101d8565b8063715018a6146105525780637e87632c146105695780637f23690c14610592576101d8565b8063476343ee1161016f5780635a64ad951161013e5780635a64ad95146104965780636a1db1bf146104c15780636f9fb98a146104ea57806370a0823114610515576101d8565b8063476343ee146103dc57806349a6078d146103f3578063511b69521461043057806354f6127f14610459576101d8565b806318160ddd116101ab57806318160ddd146102fa578063217b2270146103255780632a3654a41461036257806345c146711461039f576101d8565b806301ffc9a714610240578063085f441f1461027d57806316ebbe04146102ba576101d8565b366101d857005b60003660606004600036905010156102295782826040517fe5099ee3000000000000000000000000000000000000000000000000000000008152600401610220929190613176565b60405180910390fd5b61023383836107c0565b9050915050805190602001f35b34801561024c57600080fd5b5061026760048036038101906102629190613206565b61093d565b604051610274919061324e565b60405180910390f35b34801561028957600080fd5b506102a4600480360381019061029f919061329f565b6109ae565b6040516102b1919061330d565b60405180910390f35b3480156102c657600080fd5b506102e160048036038101906102dc919061329f565b6109d6565b6040516102f194939291906133cf565b60405180910390f35b34801561030657600080fd5b5061030f610aae565b60405161031c919061341b565b60405180910390f35b34801561033157600080fd5b5061034c60048036038101906103479190613462565b610ab8565b604051610359919061330d565b60405180910390f35b34801561036e57600080fd5b50610389600480360381019061038491906134bb565b610b6b565b604051610396919061324e565b60405180910390f35b3480156103ab57600080fd5b506103c660048036038101906103c1919061329f565b610b88565b6040516103d3919061330d565b60405180910390f35b3480156103e857600080fd5b506103f1610bc8565b005b3480156103ff57600080fd5b5061041a60048036038101906104159190613462565b610d2f565b60405161042791906135b9565b60405180910390f35b34801561043c57600080fd5b506104576004803603810190610452919061372d565b610d5c565b005b34801561046557600080fd5b50610480600480360381019061047b9190613462565b610dc3565b60405161048d9190613808565b60405180910390f35b3480156104a257600080fd5b506104ab610dd5565b6040516104b8919061341b565b60405180910390f35b3480156104cd57600080fd5b506104e860048036038101906104e3919061329f565b610ddb565b005b3480156104f657600080fd5b506104ff610e75565b60405161050c919061341b565b60405180910390f35b34801561052157600080fd5b5061053c6004803603810190610537919061382a565b610e7d565b604051610549919061341b565b60405180910390f35b34801561055e57600080fd5b50610567610ecd565b005b34801561057557600080fd5b50610590600480360381019061058b9190613b86565b610ee1565b005b6105ac60048036038101906105a79190613c8d565b610ff5565b005b3480156105ba57600080fd5b506105d560048036038101906105d09190613ce9565b611045565b005b3480156105e357600080fd5b506105ec61129d565b6040516105f9919061330d565b60405180910390f35b34801561060e57600080fd5b506106176112c3565b604051610624919061330d565b60405180910390f35b34801561063957600080fd5b50610654600480360381019061064f9190613eda565b6112ec565b005b610670600480360381019061066b9190613f65565b61134d565b005b34801561067e57600080fd5b506106996004803603810190610694919061382a565b61145f565b6040516106a6919061409b565b60405180910390f35b3480156106bb57600080fd5b506106d660048036038101906106d1919061329f565b6114af565b6040516106e391906140bd565b60405180910390f35b3480156106f857600080fd5b50610713600480360381019061070e919061382a565b611557565b005b61072f600480360381019061072a91906140df565b61162b565b005b34801561073d57600080fd5b506107586004803603810190610753919061414e565b611840565b60405161076591906142a3565b60405180910390f35b34801561077a57600080fd5b5061079560048036038101906107909190613ce9565b6118f1565b005b3480156107a357600080fd5b506107be60048036038101906107b9919061382a565b611a82565b005b606060006107f16000357fffffffff0000000000000000000000000000000000000000000000000000000016611b05565b9050600073ffffffffffffffffffffffffffffffffffffffff168173ffffffffffffffffffffffffffffffffffffffff1603610888576000357fffffffff00000000000000000000000000000000000000000000000000000000166040517fbb370b2b00000000000000000000000000000000000000000000000000000000815260040161087f91906142d4565b60405180910390fd5b6000808273ffffffffffffffffffffffffffffffffffffffff1634878733346040516020016108ba9493929190614388565b6040516020818303038152906040526040516108d691906143f4565b60006040518083038185875af1925050503d8060008114610913576040519150601f19603f3d011682016040523d82523d6000602084013e610918565b606091505b5091509150811561092e57809350505050610937565b80518060208301fd5b92915050565b6000631ae9ba1f60e01b7bffffffffffffffffffffffffffffffffffffffffffffffffffffffff1916827bffffffffffffffffffffffffffffffffffffffffffffffffffffffff19161480610997575061099682611bb9565b5b806109a757506109a682611c1a565b5b9050919050565b60006109cf600e600084815260200190815260200160002060030154610ab8565b9050919050565b600e6020528060005260406000206000915090508060000180546109f99061443a565b80601f0160208091040260200160405190810160405280929190818152602001828054610a259061443a565b8015610a725780601f10610a4757610100808354040283529160200191610a72565b820191906000526020600020905b815481529060010190602001808311610a5557829003601f168201915b5050505050908060010160009054906101000a900473ffffffffffffffffffffffffffffffffffffffff16908060020154908060030154905084565b6000600254905090565b6000806003600084815260200190815260200160002060009054906101000a900473ffffffffffffffffffffffffffffffffffffffff169050600073ffffffffffffffffffffffffffffffffffffffff168173ffffffffffffffffffffffffffffffffffffffff1603610b6257826040517fae8f9a36000000000000000000000000000000000000000000000000000000008152600401610b59919061446b565b60405180910390fd5b80915050919050565b6000610b7682611c80565b610b808383611ccd565b905092915050565b6000600e600083815260200190815260200160002060010160009054906101000a900473ffffffffffffffffffffffffffffffffffffffff169050919050565b600760019054906101000a900473ffffffffffffffffffffffffffffffffffffffff1673ffffffffffffffffffffffffffffffffffffffff163373ffffffffffffffffffffffffffffffffffffffff1614610c58576040517f08c379a0000000000000000000000000000000000000000000000000000000008152600401610c4f906144d2565b60405180910390fd5b60004790506000600760019054906101000a900473ffffffffffffffffffffffffffffffffffffffff1673ffffffffffffffffffffffffffffffffffffffff1682604051610ca590614518565b60006040518083038185875af1925050503d8060008114610ce2576040519150601f19603f3d011682016040523d82523d6000602084013e610ce7565b606091505b5050905080610d2b576040517f08c379a0000000000000000000000000000000000000000000000000000000008152600401610d2290614579565b60405180910390fd5b5050565b6060610d3a82611c80565b610d5560056000848152602001908152602001600020611d3f565b9050919050565b6000339050610d6b8185611ccd565b610dae5783816040517f1294d2a9000000000000000000000000000000000000000000000000000000008152600401610da5929190614599565b60405180910390fd5b610dbb8686868686611d60565b505050505050565b6060610dce8261206f565b9050919050565b60085481565b600760019054906101000a900473ffffffffffffffffffffffffffffffffffffffff1673ffffffffffffffffffffffffffffffffffffffff163373ffffffffffffffffffffffffffffffffffffffff1614610e6b576040517f08c379a0000000000000000000000000000000000000000000000000000000008152600401610e629061460e565b60405180910390fd5b8060088190555050565b600047905090565b6000610ec6600460008473ffffffffffffffffffffffffffffffffffffffff1673ffffffffffffffffffffffffffffffffffffffff168152602001908152602001600020612114565b9050919050565b610ed5612129565b610edf60006121a0565b565b600085519050845181141580610ef8575083518114155b80610f04575082518114155b80610f10575081518114155b15610f47576040517f93a8311900000000000000000000000000000000000000000000000000000000815260040160405180910390fd5b60005b81811015610fec57610fe1878281518110610f6857610f6761462e565b5b6020026020010151878381518110610f8357610f8261462e565b5b6020026020010151878481518110610f9e57610f9d61462e565b5b6020026020010151878581518110610fb957610fb861462e565b5b6020026020010151878681518110610fd457610fd361462e565b5b6020026020010151610d5c565b806001019050610f4a565b50505050505050565b610ffd612129565b60003414611037576040517ff36ba73700000000000000000000000000000000000000000000000000000000815260040160405180910390fd5b611041828261229f565b5050565b600061105083610ab8565b90503373ffffffffffffffffffffffffffffffffffffffff168173ffffffffffffffffffffffffffffffffffffffff16146110c6578083336040517f5b271ea20000000000000000000000000000000000000000000000000000000081526004016110bd9392919061465d565b60405180910390fd5b600073ffffffffffffffffffffffffffffffffffffffff168473ffffffffffffffffffffffffffffffffffffffff160361112c576040517f9577b8b300000000000000000000000000000000000000000000000000000000815260040160405180910390fd5b8373ffffffffffffffffffffffffffffffffffffffff168173ffffffffffffffffffffffffffffffffffffffff1603611191576040517f89fdad6200000000000000000000000000000000000000000000000000000000815260040160405180910390fd5b60006111b885600560008781526020019081526020016000206123d390919063ffffffff16565b9050806111fe5784846040517fa7626b680000000000000000000000000000000000000000000000000000000081526004016111f5929190614694565b60405180910390fd5b838273ffffffffffffffffffffffffffffffffffffffff168673ffffffffffffffffffffffffffffffffffffffff167e52e433f2d4225671bc164dd1cdc9a76044356091f27ad234798bd0cbf083498660405161125b9190613808565b60405180910390a4600033858560405160200161127a939291906146bd565b60405160208183030381529060405290506112958682612403565b505050505050565b600760019054906101000a900473ffffffffffffffffffffffffffffffffffffffff1681565b60008060009054906101000a900473ffffffffffffffffffffffffffffffffffffffff16905090565b60008151905060005b8181146113465761133b858583815181106113135761131261462e565b5b602002602001015185848151811061132e5761132d61462e565b5b602002602001015161162b565b8060010190506112f5565b5050505050565b611355612129565b6000341461138f576040517ff36ba73700000000000000000000000000000000000000000000000000000000815260040160405180910390fd5b80518251146113ca576040517f3bcc897900000000000000000000000000000000000000000000000000000000815260040160405180910390fd5b6000825103611405576040517f97da5f9500000000000000000000000000000000000000000000000000000000815260040160405180910390fd5b60005b825181101561145a5761144f8382815181106114275761142661462e565b5b60200260200101518383815181106114425761144161462e565b5b602002602001015161229f565b806001019050611408565b505050565b60606114a8600460008473ffffffffffffffffffffffffffffffffffffffff1673ffffffffffffffffffffffffffffffffffffffff168152602001908152602001600020612522565b9050919050565b6060600e600083815260200190815260200160002060000180546114d29061443a565b80601f01602080910402602001604051908101604052809291908181526020018280546114fe9061443a565b801561154b5780601f106115205761010080835404028352916020019161154b565b820191906000526020600020905b81548152906001019060200180831161152e57829003601f168201915b50505050509050919050565b600760019054906101000a900473ffffffffffffffffffffffffffffffffffffffff1673ffffffffffffffffffffffffffffffffffffffff163373ffffffffffffffffffffffffffffffffffffffff16146115e7576040517f08c379a00000000000000000000000000000000000000000000000000000000081526004016115de9061460e565b60405180910390fd5b80600760016101000a81548173ffffffffffffffffffffffffffffffffffffffff021916908373ffffffffffffffffffffffffffffffffffffffff16021790555050565b600760009054906101000a900460ff161561167b576040517f08c379a000000000000000000000000000000000000000000000000000000000815260040161167290614747565b60405180910390fd5b6001600760006101000a81548160ff0219169083151502179055506008543410156116db576040517f08c379a00000000000000000000000000000000000000000000000000000000081526004016116d2906147b3565b60405180910390fd5b81600960000190816116ed919061497f565b5033600960010160006101000a81548173ffffffffffffffffffffffffffffffffffffffff021916908373ffffffffffffffffffffffffffffffffffffffff160217905550600d6000815461174190614a80565b919050819055600960020181905550806009600301819055506009600e6000600d548152602001908152602001600020600082018160000190816117859190614ade565b506001820160009054906101000a900473ffffffffffffffffffffffffffffffffffffffff168160010160006101000a81548173ffffffffffffffffffffffffffffffffffffffff021916908373ffffffffffffffffffffffffffffffffffffffff16021790555060028201548160020155600382015481600301559050506118208382600160405180602001604052806000815250612543565b6000600760006101000a81548160ff021916908315150217905550505050565b6060815167ffffffffffffffff81111561185d5761185c613611565b5b60405190808252806020026020018201604052801561189057816020015b606081526020019060019003908161187b5790505b50905060005b82518110156118eb576118c28382815181106118b5576118b461462e565b5b602002602001015161206f565b8282815181106118d5576118d461462e565b5b6020026020010181905250806001019050611896565b50919050565b60006118fc83610ab8565b90503373ffffffffffffffffffffffffffffffffffffffff168173ffffffffffffffffffffffffffffffffffffffff1614611972578083336040517f5b271ea20000000000000000000000000000000000000000000000000000000081526004016119699392919061465d565b60405180910390fd5b600073ffffffffffffffffffffffffffffffffffffffff168473ffffffffffffffffffffffffffffffffffffffff16036119d8576040517f9577b8b300000000000000000000000000000000000000000000000000000000815260040160405180910390fd5b8373ffffffffffffffffffffffffffffffffffffffff168173ffffffffffffffffffffffffffffffffffffffff1603611a3d576040517f89fdad6200000000000000000000000000000000000000000000000000000000815260040160405180910390fd5b611a498482858561276b565b6000338484604051602001611a60939291906146bd565b6040516020818303038152906040529050611a7b8582612403565b5050505050565b611a8a612129565b600073ffffffffffffffffffffffffffffffffffffffff168173ffffffffffffffffffffffffffffffffffffffff1603611af9576040517f08c379a0000000000000000000000000000000000000000000000000000000008152600401611af090614c38565b60405180910390fd5b611b02816121a0565b50565b600080611b3e69cee78b4094da8601109660b01b847bffffffffffffffffffffffffffffffffffffffffffffffffffffffff1916612845565b90506000611b4b8261206f565b90506014815114158015611b6157506000815114155b15611ba357806040517f42bfe79f000000000000000000000000000000000000000000000000000000008152600401611b9a9190613808565b60405180910390fd5b80611bad90614ca9565b60601c92505050919050565b600063a918fa6b60e01b7bffffffffffffffffffffffffffffffffffffffffffffffffffffffff1916827bffffffffffffffffffffffffffffffffffffffffffffffffffffffff19161480611c135750611c1282612885565b5b9050919050565b600080611c2d6301ffc9a760e01b611b05565b9050600073ffffffffffffffffffffffffffffffffffffffff168173ffffffffffffffffffffffffffffffffffffffff1603611c6d576000915050611c7b565b611c7781846128e6565b9150505b919050565b611c8981612985565b611cca57806040517fae8f9a36000000000000000000000000000000000000000000000000000000008152600401611cc1919061446b565b60405180910390fd5b50565b600080611cd983610ab8565b90508073ffffffffffffffffffffffffffffffffffffffff168473ffffffffffffffffffffffffffffffffffffffff161480611d365750611d3584600560008681526020019081526020016000206129f190919063ffffffff16565b5b91505092915050565b60606000611d4f83600001612a21565b905060608190508092505050919050565b8373ffffffffffffffffffffffffffffffffffffffff168573ffffffffffffffffffffffffffffffffffffffff1603611dc5576040517f5d67d6c100000000000000000000000000000000000000000000000000000000815260040160405180910390fd5b6000611dd084610ab8565b90508573ffffffffffffffffffffffffffffffffffffffff168173ffffffffffffffffffffffffffffffffffffffff1614611e46578084876040517f5b271ea2000000000000000000000000000000000000000000000000000000008152600401611e3d9392919061465d565b60405180910390fd5b600073ffffffffffffffffffffffffffffffffffffffff168573ffffffffffffffffffffffffffffffffffffffff1603611eac576040517f24ecef4d00000000000000000000000000000000000000000000000000000000815260040160405180910390fd5b6000339050611ebc878787612a7d565b611ec68786612a82565b611f1785600460008a73ffffffffffffffffffffffffffffffffffffffff1673ffffffffffffffffffffffffffffffffffffffff168152602001908152602001600020612af790919063ffffffff16565b50611f6985600460008973ffffffffffffffffffffffffffffffffffffffff1673ffffffffffffffffffffffffffffffffffffffff168152602001908152602001600020612b0e90919063ffffffff16565b50856003600087815260200190815260200160002060006101000a81548173ffffffffffffffffffffffffffffffffffffffff021916908373ffffffffffffffffffffffffffffffffffffffff160217905550848673ffffffffffffffffffffffffffffffffffffffff168873ffffffffffffffffffffffffffffffffffffffff167fb333c813a7426a7a11e2b190cad52c44119421594b47f6f32ace6d8c7207b2bf84888860405161201e93929190614d10565b60405180910390a460008787878660405160200161203f9493929190614d4e565b604051602081830303815290604052905061205a8882612b25565b612065878683612be7565b5050505050505050565b606060016000838152602001908152602001600020805461208f9061443a565b80601f01602080910402602001604051908101604052809291908181526020018280546120bb9061443a565b80156121085780601f106120dd57610100808354040283529160200191612108565b820191906000526020600020905b8154815290600101906020018083116120eb57829003601f168201915b50505050509050919050565b600061212282600001612d4e565b9050919050565b3373ffffffffffffffffffffffffffffffffffffffff166121486112c3565b73ffffffffffffffffffffffffffffffffffffffff161461219e576040517f08c379a000000000000000000000000000000000000000000000000000000000815260040161219590614de6565b60405180910390fd5b565b6121a86112c3565b73ffffffffffffffffffffffffffffffffffffffff168173ffffffffffffffffffffffffffffffffffffffff161461229c5760008060009054906101000a900473ffffffffffffffffffffffffffffffffffffffff169050816000806101000a81548173ffffffffffffffffffffffffffffffffffffffff021916908373ffffffffffffffffffffffffffffffffffffffff1602179055508173ffffffffffffffffffffffffffffffffffffffff168173ffffffffffffffffffffffffffffffffffffffff167f8be0079c531659141344cd1fd0a4f28419497f9722a3daafe3b4186f6b6457e060405160405180910390a3505b50565b7fdeba1e292f8ba88238e10ab3c7f88bd4be4fac56cad5194b6ecceaf653468af160001b82036122fb576040517f85c169bd00000000000000000000000000000000000000000000000000000000815260040160405180910390fd5b7f2f0a68ab07768e01943a599e73362a0e17a63a72e94dd2e384d2c1d4db93275660001b8203612357576040517f76755b3800000000000000000000000000000000000000000000000000000000815260040160405180910390fd5b806001600084815260200190815260200160002090816123779190614e61565b50817fece574603820d07bc9b91f2a932baadf4628aabcb8afba49776529c14a6104b2610100835111156123b8576123b3836000610100612d5f565b6123ba565b825b6040516123c79190613808565b60405180910390a25050565b60006123fb836000018373ffffffffffffffffffffffffffffffffffffffff1660001b612e7d565b905092915050565b61241482636bb56a1460e01b6128e6565b1561251e578173ffffffffffffffffffffffffffffffffffffffff16636bb56a1460e01b7f8a1c15a8799f71b547e08e2bcb2e85257e81b0a07eee2ce6712549eef1f0097060001b8360405160240161246e929190614f33565b604051602081830303815290604052907bffffffffffffffffffffffffffffffffffffffffffffffffffffffff19166020820180517bffffffffffffffffffffffffffffffffffffffffffffffffffffffff83818316178352505050506040516124d891906143f4565b6000604051808303816000865af19150503d8060008114612515576040519150601f19603f3d011682016040523d82523d6000602084013e61251a565b606091505b5050505b5050565b6060600061253283600001612a21565b905060608190508092505050919050565b600073ffffffffffffffffffffffffffffffffffffffff168473ffffffffffffffffffffffffffffffffffffffff16036125a9576040517f24ecef4d00000000000000000000000000000000000000000000000000000000815260040160405180910390fd5b6125b283612985565b156125f457826040517f34c7b5110000000000000000000000000000000000000000000000000000000081526004016125eb919061446b565b60405180910390fd5b600033905061260560008686612a7d565b6001600260008282546126189190614f63565b9250508190555061267084600460008873ffffffffffffffffffffffffffffffffffffffff1673ffffffffffffffffffffffffffffffffffffffff168152602001908152602001600020612b0e90919063ffffffff16565b50846003600086815260200190815260200160002060006101000a81548173ffffffffffffffffffffffffffffffffffffffff021916908373ffffffffffffffffffffffffffffffffffffffff160217905550838573ffffffffffffffffffffffffffffffffffffffff16600073ffffffffffffffffffffffffffffffffffffffff167fb333c813a7426a7a11e2b190cad52c44119421594b47f6f32ace6d8c7207b2bf84878760405161272693929190614d10565b60405180910390a46000808686856040516020016127479493929190614d4e565b6040516020818303038152906040529050612763868583612be7565b505050505050565b60006127928560056000868152602001908152602001600020612eed90919063ffffffff16565b9050806127d85784836040517f4aa31a8c0000000000000000000000000000000000000000000000000000000081526004016127cf929190614694565b60405180910390fd5b828473ffffffffffffffffffffffffffffffffffffffff168673ffffffffffffffffffffffffffffffffffffffff167f501bc920d7f604417e315bcf29247652b2327fa1076b27b7f132bd8927cb15ea856040516128369190613808565b60405180910390a45050505050565b60008083600060f01b8460405160200161286193929190615052565b60405160208183030381529060405290508061287c906150a4565b91505092915050565b600063629aa69460e01b7bffffffffffffffffffffffffffffffffffffffffffffffffffffffff1916827bffffffffffffffffffffffffffffffffffffffffffffffffffffffff191614806128df57506128de82612f1d565b5b9050919050565b600080826040516024016128fa91906142d4565b6040516020818303038152906040526301ffc9a760e01b6020820180517bffffffffffffffffffffffffffffffffffffffffffffffffffffffff838183161783525050505090506000806000602060008551602087018a617530fa92503d9150600051905082801561296d575060208210155b80156129795750600081115b94505050505092915050565b60008073ffffffffffffffffffffffffffffffffffffffff166003600084815260200190815260200160002060009054906101000a900473ffffffffffffffffffffffffffffffffffffffff1673ffffffffffffffffffffffffffffffffffffffff1614159050919050565b6000612a19836000018373ffffffffffffffffffffffffffffffffffffffff1660001b612f87565b905092915050565b606081600001805480602002602001604051908101604052809291908181526020018280548015612a7157602002820191906000526020600020905b815481526020019060010190808311612a5d575b50505050509050919050565b505050565b60006005600083815260200190815260200160002090506000612aa482612faa565b905060005b81811015612af0576000612ac7600085612fbf90919063ffffffff16565b9050612ae48187876040518060200160405280600081525061276b565b81600101915050612aa9565b5050505050565b6000612b068360000183612fd9565b905092915050565b6000612b1d8360000183612e7d565b905092915050565b612b3682636bb56a1460e01b6128e6565b15612be3578173ffffffffffffffffffffffffffffffffffffffff16636bb56a147fb23eae7e6d1564b295b4c3e3be402d9a2f0776c57bdf365903496f6fa481ab0060001b836040518363ffffffff1660e01b8152600401612b99929190614f33565b6000604051808303816000875af1158015612bb8573d6000803e3d6000fd5b505050506040513d6000823e3d601f19601f82011682018060405250810190612be1919061517b565b505b5050565b612bf883636bb56a1460e01b6128e6565b15612ca9578273ffffffffffffffffffffffffffffffffffffffff16636bb56a147f0b084a55ebf70fd3c06fd755269dac2212c4d3f0f4d09079780bfa50c1b2984d60001b836040518363ffffffff1660e01b8152600401612c5b929190614f33565b6000604051808303816000875af1158015612c7a573d6000803e3d6000fd5b505050506040513d6000823e3d601f19601f82011682018060405250810190612ca3919061517b565b50612d49565b81612d485760008373ffffffffffffffffffffffffffffffffffffffff163b1115612d0b57826040517f4349776d000000000000000000000000000000000000000000000000000000008152600401612d02919061330d565b60405180910390fd5b826040517f03173137000000000000000000000000000000000000000000000000000000008152600401612d3f919061330d565b60405180910390fd5b5b505050565b600081600001805490509050919050565b606081601f83612d6f9190614f63565b1015612db0576040517f08c379a0000000000000000000000000000000000000000000000000000000008152600401612da790615210565b60405180910390fd5b8183612dbc9190614f63565b84511015612dff576040517f08c379a0000000000000000000000000000000000000000000000000000000008152600401612df69061527c565b60405180910390fd5b6060821560008114612e205760405191506000825260208201604052612e71565b6040519150601f8416801560200281840101858101878315602002848b0101015b81831015612e5e5780518352602083019250602081019050612e41565b50868552601f19601f8301166040525050505b50809150509392505050565b6000612e898383612f87565b612ee2578260000182908060018154018082558091505060019003906000526020600020016000909190919091505582600001805490508360010160008481526020019081526020016000208190555060019050612ee7565b600090505b92915050565b6000612f15836000018373ffffffffffffffffffffffffffffffffffffffff1660001b612fd9565b905092915050565b60007f01ffc9a7000000000000000000000000000000000000000000000000000000007bffffffffffffffffffffffffffffffffffffffffffffffffffffffff1916827bffffffffffffffffffffffffffffffffffffffffffffffffffffffff1916149050919050565b600080836001016000848152602001908152602001600020541415905092915050565b6000612fb882600001612d4e565b9050919050565b6000612fce83600001836130ed565b60001c905092915050565b600080836001016000848152602001908152602001600020549050600081146130e157600060018261300b919061529c565b9050600060018660000180549050613023919061529c565b90508082146130925760008660000182815481106130445761304361462e565b5b90600052602060002001549050808760000184815481106130685761306761462e565b5b90600052602060002001819055508387600101600083815260200190815260200160002081905550505b856000018054806130a6576130a56152d0565b5b6001900381819060005260206000200160009055905585600101600086815260200190815260200160002060009055600193505050506130e7565b60009150505b92915050565b60008260000182815481106131055761310461462e565b5b9060005260206000200154905092915050565b600082825260208201905092915050565b82818337600083830152505050565b6000601f19601f8301169050919050565b60006131558385613118565b9350613162838584613129565b61316b83613138565b840190509392505050565b60006020820190508181036000830152613191818486613149565b90509392505050565b6000604051905090565b600080fd5b600080fd5b60007fffffffff0000000000000000000000000000000000000000000000000000000082169050919050565b6131e3816131ae565b81146131ee57600080fd5b50565b600081359050613200816131da565b92915050565b60006020828403121561321c5761321b6131a4565b5b600061322a848285016131f1565b91505092915050565b60008115159050919050565b61324881613233565b82525050565b6000602082019050613263600083018461323f565b92915050565b6000819050919050565b61327c81613269565b811461328757600080fd5b50565b60008135905061329981613273565b92915050565b6000602082840312156132b5576132b46131a4565b5b60006132c38482850161328a565b91505092915050565b600073ffffffffffffffffffffffffffffffffffffffff82169050919050565b60006132f7826132cc565b9050919050565b613307816132ec565b82525050565b600060208201905061332260008301846132fe565b92915050565b600081519050919050565b600082825260208201905092915050565b60005b83811015613362578082015181840152602081019050613347565b60008484015250505050565b600061337982613328565b6133838185613333565b9350613393818560208601613344565b61339c81613138565b840191505092915050565b6133b081613269565b82525050565b6000819050919050565b6133c9816133b6565b82525050565b600060808201905081810360008301526133e9818761336e565b90506133f860208301866132fe565b61340560408301856133a7565b61341260608301846133c0565b95945050505050565b600060208201905061343060008301846133a7565b92915050565b61343f816133b6565b811461344a57600080fd5b50565b60008135905061345c81613436565b92915050565b600060208284031215613478576134776131a4565b5b60006134868482850161344d565b91505092915050565b613498816132ec565b81146134a357600080fd5b50565b6000813590506134b58161348f565b92915050565b600080604083850312156134d2576134d16131a4565b5b60006134e0858286016134a6565b92505060206134f18582860161344d565b9150509250929050565b600081519050919050565b600082825260208201905092915050565b6000819050602082019050919050565b613530816132ec565b82525050565b60006135428383613527565b60208301905092915050565b6000602082019050919050565b6000613566826134fb565b6135708185613506565b935061357b83613517565b8060005b838110156135ac5781516135938882613536565b975061359e8361354e565b92505060018101905061357f565b5085935050505092915050565b600060208201905081810360008301526135d3818461355b565b905092915050565b6135e481613233565b81146135ef57600080fd5b50565b600081359050613601816135db565b92915050565b600080fd5b600080fd5b7f4e487b7100000000000000000000000000000000000000000000000000000000600052604160045260246000fd5b61364982613138565b810181811067ffffffffffffffff8211171561366857613667613611565b5b80604052505050565b600061367b61319a565b90506136878282613640565b919050565b600067ffffffffffffffff8211156136a7576136a6613611565b5b6136b082613138565b9050602081019050919050565b60006136d06136cb8461368c565b613671565b9050828152602081018484840111156136ec576136eb61360c565b5b6136f7848285613129565b509392505050565b600082601f83011261371457613713613607565b5b81356137248482602086016136bd565b91505092915050565b600080600080600060a08688031215613749576137486131a4565b5b6000613757888289016134a6565b9550506020613768888289016134a6565b94505060406137798882890161344d565b935050606061378a888289016135f2565b925050608086013567ffffffffffffffff8111156137ab576137aa6131a9565b5b6137b7888289016136ff565b9150509295509295909350565b600081519050919050565b60006137da826137c4565b6137e48185613118565b93506137f4818560208601613344565b6137fd81613138565b840191505092915050565b6000602082019050818103600083015261382281846137cf565b905092915050565b6000602082840312156138405761383f6131a4565b5b600061384e848285016134a6565b91505092915050565b600067ffffffffffffffff82111561387257613871613611565b5b602082029050602081019050919050565b600080fd5b600061389b61389684613857565b613671565b905080838252602082019050602084028301858111156138be576138bd613883565b5b835b818110156138e757806138d388826134a6565b8452602084019350506020810190506138c0565b5050509392505050565b600082601f83011261390657613905613607565b5b8135613916848260208601613888565b91505092915050565b600067ffffffffffffffff82111561393a57613939613611565b5b602082029050602081019050919050565b600061395e6139598461391f565b613671565b9050808382526020820190506020840283018581111561398157613980613883565b5b835b818110156139aa5780613996888261344d565b845260208401935050602081019050613983565b5050509392505050565b600082601f8301126139c9576139c8613607565b5b81356139d984826020860161394b565b91505092915050565b600067ffffffffffffffff8211156139fd576139fc613611565b5b602082029050602081019050919050565b6000613a21613a1c846139e2565b613671565b90508083825260208201905060208402830185811115613a4457613a43613883565b5b835b81811015613a6d5780613a5988826135f2565b845260208401935050602081019050613a46565b5050509392505050565b600082601f830112613a8c57613a8b613607565b5b8135613a9c848260208601613a0e565b91505092915050565b600067ffffffffffffffff821115613ac057613abf613611565b5b602082029050602081019050919050565b6000613ae4613adf84613aa5565b613671565b90508083825260208201905060208402830185811115613b0757613b06613883565b5b835b81811015613b4e57803567ffffffffffffffff811115613b2c57613b2b613607565b5b808601613b3989826136ff565b85526020850194505050602081019050613b09565b5050509392505050565b600082601f830112613b6d57613b6c613607565b5b8135613b7d848260208601613ad1565b91505092915050565b600080600080600060a08688031215613ba257613ba16131a4565b5b600086013567ffffffffffffffff811115613bc057613bbf6131a9565b5b613bcc888289016138f1565b955050602086013567ffffffffffffffff811115613bed57613bec6131a9565b5b613bf9888289016138f1565b945050604086013567ffffffffffffffff811115613c1a57613c196131a9565b5b613c26888289016139b4565b935050606086013567ffffffffffffffff811115613c4757613c466131a9565b5b613c5388828901613a77565b925050608086013567ffffffffffffffff811115613c7457613c736131a9565b5b613c8088828901613b58565b9150509295509295909350565b60008060408385031215613ca457613ca36131a4565b5b6000613cb28582860161344d565b925050602083013567ffffffffffffffff811115613cd357613cd26131a9565b5b613cdf858286016136ff565b9150509250929050565b600080600060608486031215613d0257613d016131a4565b5b6000613d10868287016134a6565b9350506020613d218682870161344d565b925050604084013567ffffffffffffffff811115613d4257613d416131a9565b5b613d4e868287016136ff565b9150509250925092565b600067ffffffffffffffff821115613d7357613d72613611565b5b602082029050602081019050919050565b600067ffffffffffffffff821115613d9f57613d9e613611565b5b613da882613138565b9050602081019050919050565b6000613dc8613dc384613d84565b613671565b905082815260208101848484011115613de457613de361360c565b5b613def848285613129565b509392505050565b600082601f830112613e0c57613e0b613607565b5b8135613e1c848260208601613db5565b91505092915050565b6000613e38613e3384613d58565b613671565b90508083825260208201905060208402830185811115613e5b57613e5a613883565b5b835b81811015613ea257803567ffffffffffffffff811115613e8057613e7f613607565b5b808601613e8d8982613df7565b85526020850194505050602081019050613e5d565b5050509392505050565b600082601f830112613ec157613ec0613607565b5b8135613ed1848260208601613e25565b91505092915050565b600080600060608486031215613ef357613ef26131a4565b5b6000613f01868287016134a6565b935050602084013567ffffffffffffffff811115613f2257613f216131a9565b5b613f2e86828701613eac565b925050604084013567ffffffffffffffff811115613f4f57613f4e6131a9565b5b613f5b868287016139b4565b9150509250925092565b60008060408385031215613f7c57613f7b6131a4565b5b600083013567ffffffffffffffff811115613f9a57613f996131a9565b5b613fa6858286016139b4565b925050602083013567ffffffffffffffff811115613fc757613fc66131a9565b5b613fd385828601613b58565b9150509250929050565b600081519050919050565b600082825260208201905092915050565b6000819050602082019050919050565b614012816133b6565b82525050565b60006140248383614009565b60208301905092915050565b6000602082019050919050565b600061404882613fdd565b6140528185613fe8565b935061405d83613ff9565b8060005b8381101561408e5781516140758882614018565b975061408083614030565b925050600181019050614061565b5085935050505092915050565b600060208201905081810360008301526140b5818461403d565b905092915050565b600060208201905081810360008301526140d7818461336e565b905092915050565b6000806000606084860312156140f8576140f76131a4565b5b6000614106868287016134a6565b935050602084013567ffffffffffffffff811115614127576141266131a9565b5b61413386828701613df7565b92505060406141448682870161344d565b9150509250925092565b600060208284031215614164576141636131a4565b5b600082013567ffffffffffffffff811115614182576141816131a9565b5b61418e848285016139b4565b91505092915050565b600081519050919050565b600082825260208201905092915050565b6000819050602082019050919050565b600082825260208201905092915050565b60006141df826137c4565b6141e981856141c3565b93506141f9818560208601613344565b61420281613138565b840191505092915050565b600061421983836141d4565b905092915050565b6000602082019050919050565b600061423982614197565b61424381856141a2565b935083602082028501614255856141b3565b8060005b858110156142915784840389528151614272858261420d565b945061427d83614221565b925060208a01995050600181019050614259565b50829750879550505050505092915050565b600060208201905081810360008301526142bd818461422e565b905092915050565b6142ce816131ae565b82525050565b60006020820190506142e960008301846142c5565b92915050565b600081905092915050565b600061430683856142ef565b9350614313838584613129565b82840190509392505050565b60008160601b9050919050565b60006143378261431f565b9050919050565b60006143498261432c565b9050919050565b61436161435c826132ec565b61433e565b82525050565b6000819050919050565b61438261437d82613269565b614367565b82525050565b60006143958286886142fa565b91506143a18285614350565b6014820191506143b18284614371565b60208201915081905095945050505050565b60006143ce826137c4565b6143d881856142ef565b93506143e8818560208601613344565b80840191505092915050565b600061440082846143c3565b915081905092915050565b7f4e487b7100000000000000000000000000000000000000000000000000000000600052602260045260246000fd5b6000600282049050600182168061445257607f821691505b6020821081036144655761446461440b565b5b50919050565b600060208201905061448060008301846133c0565b92915050565b7f4f6e6c792061646d696e2063616e207769746864726177206665657300000000600082015250565b60006144bc601c83613333565b91506144c782614486565b602082019050919050565b600060208201905081810360008301526144eb816144af565b9050919050565b50565b60006145026000836142ef565b915061450d826144f2565b600082019050919050565b6000614523826144f5565b9150819050919050565b7f4661696c656420746f2073656e64206665657300000000000000000000000000600082015250565b6000614563601383613333565b915061456e8261452d565b602082019050919050565b6000602082019050818103600083015261459281614556565b9050919050565b60006040820190506145ae60008301856133c0565b6145bb60208301846132fe565b9392505050565b7f464f5242494444454e0000000000000000000000000000000000000000000000600082015250565b60006145f8600983613333565b9150614603826145c2565b602082019050919050565b60006020820190508181036000830152614627816145eb565b9050919050565b7f4e487b7100000000000000000000000000000000000000000000000000000000600052603260045260246000fd5b600060608201905061467260008301866132fe565b61467f60208301856133c0565b61468c60408301846132fe565b949350505050565b60006040820190506146a960008301856132fe565b6146b660208301846133c0565b9392505050565b60006060820190506146d260008301866132fe565b6146df60208301856133c0565b81810360408301526146f181846137cf565b9050949350505050565b7f4e6f2072652d656e7472616e6379000000000000000000000000000000000000600082015250565b6000614731600e83613333565b915061473c826146fb565b602082019050919050565b6000602082019050818103600083015261476081614724565b9050919050565b7f496e73756666696369656e742066656500000000000000000000000000000000600082015250565b600061479d601083613333565b91506147a882614767565b602082019050919050565b600060208201905081810360008301526147cc81614790565b9050919050565b60008190508160005260206000209050919050565b60006020601f8301049050919050565b600082821b905092915050565b6000600883026148357fffffffffffffffffffffffffffffffffffffffffffffffffffffffffffffffff826147f8565b61483f86836147f8565b95508019841693508086168417925050509392505050565b6000819050919050565b600061487c61487761487284613269565b614857565b613269565b9050919050565b6000819050919050565b61489683614861565b6148aa6148a282614883565b848454614805565b825550505050565b600090565b6148bf6148b2565b6148ca81848461488d565b505050565b5b818110156148ee576148e36000826148b7565b6001810190506148d0565b5050565b601f82111561493357614904816147d3565b61490d846147e8565b8101602085101561491c578190505b614930614928856147e8565b8301826148cf565b50505b505050565b600082821c905092915050565b600061495660001984600802614938565b1980831691505092915050565b600061496f8383614945565b9150826002028217905092915050565b61498882613328565b67ffffffffffffffff8111156149a1576149a0613611565b5b6149ab825461443a565b6149b68282856148f2565b600060209050601f8311600181146149e957600084156149d7578287015190505b6149e18582614963565b865550614a49565b601f1984166149f7866147d3565b60005b82811015614a1f578489015182556001820191506020850194506020810190506149fa565b86831015614a3c5784890151614a38601f891682614945565b8355505b6001600288020188555050505b505050505050565b7f4e487b7100000000000000000000000000000000000000000000000000000000600052601160045260246000fd5b6000614a8b82613269565b91507fffffffffffffffffffffffffffffffffffffffffffffffffffffffffffffffff8203614abd57614abc614a51565b5b600182019050919050565b600081549050614ad78161443a565b9050919050565b818103614aec575050614bc4565b614af582614ac8565b67ffffffffffffffff811115614b0e57614b0d613611565b5b614b18825461443a565b614b238282856148f2565b6000601f831160018114614b525760008415614b40578287015490505b614b4a8582614963565b865550614bbd565b601f198416614b60876147d3565b9650614b6b866147d3565b60005b82811015614b9357848901548255600182019150600185019450602081019050614b6e565b86831015614bb05784890154614bac601f891682614945565b8355505b6001600288020188555050505b5050505050505b565b7f4f776e61626c653a206e6577206f776e657220697320746865207a65726f206160008201527f6464726573730000000000000000000000000000000000000000000000000000602082015250565b6000614c22602683613333565b9150614c2d82614bc6565b604082019050919050565b60006020820190508181036000830152614c5181614c15565b9050919050565b6000819050602082019050919050565b60007fffffffffffffffffffffffffffffffffffffffff00000000000000000000000082169050919050565b6000614ca08251614c68565b80915050919050565b6000614cb4826137c4565b82614cbe84614c58565b9050614cc981614c94565b92506014821015614d0957614d047fffffffffffffffffffffffffffffffffffffffff000000000000000000000000836014036008026147f8565b831692505b5050919050565b6000606082019050614d2560008301866132fe565b614d32602083018561323f565b8181036040830152614d4481846137cf565b9050949350505050565b6000608082019050614d6360008301876132fe565b614d7060208301866132fe565b614d7d60408301856133c0565b8181036060830152614d8f81846137cf565b905095945050505050565b7f4f776e61626c653a2063616c6c6572206973206e6f7420746865206f776e6572600082015250565b6000614dd0602083613333565b9150614ddb82614d9a565b602082019050919050565b60006020820190508181036000830152614dff81614dc3565b9050919050565b60008190508160005260206000209050919050565b601f821115614e5c57614e2d81614e06565b614e36846147e8565b81016020851015614e45578190505b614e59614e51856147e8565b8301826148cf565b50505b505050565b614e6a826137c4565b67ffffffffffffffff811115614e8357614e82613611565b5b614e8d825461443a565b614e98828285614e1b565b600060209050601f831160018114614ecb5760008415614eb9578287015190505b614ec38582614963565b865550614f2b565b601f198416614ed986614e06565b60005b82811015614f0157848901518255600182019150602085019450602081019050614edc565b86831015614f1e5784890151614f1a601f891682614945565b8355505b6001600288020188555050505b505050505050565b6000604082019050614f4860008301856133c0565b8181036020830152614f5a81846137cf565b90509392505050565b6000614f6e82613269565b9150614f7983613269565b9250828201905080821115614f9157614f90614a51565b5b92915050565b60007fffffffffffffffffffff0000000000000000000000000000000000000000000082169050919050565b6000819050919050565b614fde614fd982614f97565b614fc3565b82525050565b60007fffff00000000000000000000000000000000000000000000000000000000000082169050919050565b6000819050919050565b61502b61502682614fe4565b615010565b82525050565b6000819050919050565b61504c61504782614c68565b615031565b82525050565b600061505e8286614fcd565b600a8201915061506e828561501a565b60028201915061507e828461503b565b601482019150819050949350505050565b600061509b82516133b6565b80915050919050565b60006150af826137c4565b826150b984614c58565b90506150c48161508f565b92506020821015615104576150ff7fffffffffffffffffffffffffffffffffffffffffffffffffffffffffffffffff836020036008026147f8565b831692505b5050919050565b600061511e6151198461368c565b613671565b90508281526020810184848401111561513a5761513961360c565b5b615145848285613344565b509392505050565b600082601f83011261516257615161613607565b5b815161517284826020860161510b565b91505092915050565b600060208284031215615191576151906131a4565b5b600082015167ffffffffffffffff8111156151af576151ae6131a9565b5b6151bb8482850161514d565b91505092915050565b7f736c6963655f6f766572666c6f77000000000000000000000000000000000000600082015250565b60006151fa600e83613333565b9150615205826151c4565b602082019050919050565b60006020820190508181036000830152615229816151ed565b9050919050565b7f736c6963655f6f75744f66426f756e6473000000000000000000000000000000600082015250565b6000615266601183613333565b915061527182615230565b602082019050919050565b6000602082019050818103600083015261529581615259565b9050919050565b60006152a782613269565b91506152b283613269565b92508282039050818111156152ca576152c9614a51565b5b92915050565b7f4e487b7100000000000000000000000000000000000000000000000000000000600052603160045260246000fdfea26469706673582212200284f6d6111606ee72bc78734808163bc8835d2354efe48a1fc0311068294a9164736f6c63430008140033",
  "linkReferences": {},
  "deployedLinkReferences": {}
}