{
  "_format": "hh-sol-artifact-1",
  "contractName": "PinSaveL8",
  "sourceName": "contracts/LSP8.sol",
  "abi": [
    {
      "inputs": [
        {
          "internalType": "string",
          "name": "name_",
          "type": "string"
        },
        {
          "internalType": "string",
          "name": "symbol_",
          "type": "string"
        },
        {
          "internalType": "address",
          "name": "newOwner_",
          "type": "address"
        }
      ],
      "stateMutability": "nonpayable",
      "type": "constructor"
    },
    {
      "inputs": [],
      "name": "LSP4TokenNameNotEditable",
      "type": "error"
    },
    {
      "inputs": [],
      "name": "LSP4TokenSymbolNotEditable",
      "type": "error"
    },
    {
      "inputs": [],
      "name": "LSP8CannotSendToAddressZero",
      "type": "error"
    },
    {
      "inputs": [],
      "name": "LSP8CannotUseAddressZeroAsOperator",
      "type": "error"
    },
    {
      "inputs": [],
      "name": "LSP8InvalidTransferBatch",
      "type": "error"
    },
    {
      "inputs": [
        {
          "internalType": "bytes32",
          "name": "tokenId",
          "type": "bytes32"
        }
      ],
      "name": "LSP8NonExistentTokenId",
      "type": "error"
    },
    {
      "inputs": [
        {
          "internalType": "bytes32",
          "name": "tokenId",
          "type": "bytes32"
        },
        {
          "internalType": "address",
          "name": "caller",
          "type": "address"
        }
      ],
      "name": "LSP8NotTokenOperator",
      "type": "error"
    },
    {
      "inputs": [
        {
          "internalType": "address",
          "name": "tokenOwner",
          "type": "address"
        },
        {
          "internalType": "bytes32",
          "name": "tokenId",
          "type": "bytes32"
        },
        {
          "internalType": "address",
          "name": "caller",
          "type": "address"
        }
      ],
      "name": "LSP8NotTokenOwner",
      "type": "error"
    },
    {
      "inputs": [
        {
          "internalType": "address",
          "name": "tokenReceiver",
          "type": "address"
        }
      ],
      "name": "LSP8NotifyTokenReceiverContractMissingLSP1Interface",
      "type": "error"
    },
    {
      "inputs": [
        {
          "internalType": "address",
          "name": "tokenReceiver",
          "type": "address"
        }
      ],
      "name": "LSP8NotifyTokenReceiverIsEOA",
      "type": "error"
    },
    {
      "inputs": [
        {
          "internalType": "bytes32",
          "name": "tokenId",
          "type": "bytes32"
        }
      ],
      "name": "LSP8TokenIdAlreadyMinted",
      "type": "error"
    },
    {
      "anonymous": false,
      "inputs": [
        {
          "indexed": true,
          "internalType": "address",
          "name": "operator",
          "type": "address"
        },
        {
          "indexed": true,
          "internalType": "address",
          "name": "tokenOwner",
          "type": "address"
        },
        {
          "indexed": true,
          "internalType": "bytes32",
          "name": "tokenId",
          "type": "bytes32"
        }
      ],
      "name": "AuthorizedOperator",
      "type": "event"
    },
    {
      "anonymous": false,
      "inputs": [
        {
          "indexed": true,
          "internalType": "bytes32",
          "name": "dataKey",
          "type": "bytes32"
        }
      ],
      "name": "DataChanged",
      "type": "event"
    },
    {
      "anonymous": false,
      "inputs": [
        {
          "indexed": true,
          "internalType": "address",
          "name": "previousOwner",
          "type": "address"
        },
        {
          "indexed": true,
          "internalType": "address",
          "name": "newOwner",
          "type": "address"
        }
      ],
      "name": "OwnershipTransferred",
      "type": "event"
    },
    {
      "anonymous": false,
      "inputs": [
        {
          "indexed": true,
          "internalType": "address",
          "name": "operator",
          "type": "address"
        },
        {
          "indexed": true,
          "internalType": "address",
          "name": "tokenOwner",
          "type": "address"
        },
        {
          "indexed": true,
          "internalType": "bytes32",
          "name": "tokenId",
          "type": "bytes32"
        }
      ],
      "name": "RevokedOperator",
      "type": "event"
    },
    {
      "anonymous": false,
      "inputs": [
        {
          "indexed": false,
          "internalType": "address",
          "name": "operator",
          "type": "address"
        },
        {
          "indexed": true,
          "internalType": "address",
          "name": "from",
          "type": "address"
        },
        {
          "indexed": true,
          "internalType": "address",
          "name": "to",
          "type": "address"
        },
        {
          "indexed": true,
          "internalType": "bytes32",
          "name": "tokenId",
          "type": "bytes32"
        },
        {
          "indexed": false,
          "internalType": "bool",
          "name": "force",
          "type": "bool"
        },
        {
          "indexed": false,
          "internalType": "bytes",
          "name": "data",
          "type": "bytes"
        }
      ],
      "name": "Transfer",
      "type": "event"
    },
    {
      "inputs": [
        {
          "internalType": "address",
          "name": "operator",
          "type": "address"
        },
        {
          "internalType": "bytes32",
          "name": "tokenId",
          "type": "bytes32"
        }
      ],
      "name": "authorizeOperator",
      "outputs": [],
      "stateMutability": "nonpayable",
      "type": "function"
    },
    {
      "inputs": [
        {
          "internalType": "address",
          "name": "tokenOwner",
          "type": "address"
        }
      ],
      "name": "balanceOf",
      "outputs": [
        {
          "internalType": "uint256",
          "name": "",
          "type": "uint256"
        }
      ],
      "stateMutability": "view",
      "type": "function"
    },
    {
      "inputs": [
        {
          "internalType": "address",
          "name": "receiver",
          "type": "address"
        },
        {
          "internalType": "string",
          "name": "_cid",
          "type": "string"
        },
        {
          "internalType": "bytes32",
          "name": "tokenId",
          "type": "bytes32"
        }
      ],
      "name": "createPost",
      "outputs": [],
      "stateMutability": "nonpayable",
      "type": "function"
    },
    {
      "inputs": [
        {
          "internalType": "uint256",
          "name": "id",
          "type": "uint256"
        }
      ],
      "name": "getCreator",
      "outputs": [
        {
          "internalType": "address",
          "name": "",
          "type": "address"
        }
      ],
      "stateMutability": "view",
      "type": "function"
    },
    {
      "inputs": [
        {
          "internalType": "bytes32[]",
          "name": "dataKeys",
          "type": "bytes32[]"
        }
      ],
      "name": "getData",
      "outputs": [
        {
          "internalType": "bytes[]",
          "name": "dataValues",
          "type": "bytes[]"
        }
      ],
      "stateMutability": "view",
      "type": "function"
    },
    {
      "inputs": [
        {
          "internalType": "bytes32",
          "name": "dataKey",
          "type": "bytes32"
        }
      ],
      "name": "getData",
      "outputs": [
        {
          "internalType": "bytes",
          "name": "dataValue",
          "type": "bytes"
        }
      ],
      "stateMutability": "view",
      "type": "function"
    },
    {
      "inputs": [
        {
          "internalType": "bytes32",
          "name": "tokenId",
          "type": "bytes32"
        }
      ],
      "name": "getOperatorsOf",
      "outputs": [
        {
          "internalType": "address[]",
          "name": "",
          "type": "address[]"
        }
      ],
      "stateMutability": "view",
      "type": "function"
    },
    {
      "inputs": [
        {
          "internalType": "uint256",
          "name": "id",
          "type": "uint256"
        }
      ],
      "name": "getPost",
      "outputs": [
        {
          "internalType": "string",
          "name": "",
          "type": "string"
        }
      ],
      "stateMutability": "view",
      "type": "function"
    },
    {
      "inputs": [
        {
          "internalType": "uint256",
          "name": "id",
          "type": "uint256"
        }
      ],
      "name": "getPostOwner",
      "outputs": [
        {
          "internalType": "address",
          "name": "",
          "type": "address"
        }
      ],
      "stateMutability": "view",
      "type": "function"
    },
    {
      "inputs": [
        {
          "internalType": "address",
          "name": "operator",
          "type": "address"
        },
        {
          "internalType": "bytes32",
          "name": "tokenId",
          "type": "bytes32"
        }
      ],
      "name": "isOperatorFor",
      "outputs": [
        {
          "internalType": "bool",
          "name": "",
          "type": "bool"
        }
      ],
      "stateMutability": "view",
      "type": "function"
    },
    {
      "inputs": [],
      "name": "owner",
      "outputs": [
        {
          "internalType": "address",
          "name": "",
          "type": "address"
        }
      ],
      "stateMutability": "view",
      "type": "function"
    },
    {
      "inputs": [
        {
          "internalType": "uint256",
          "name": "",
          "type": "uint256"
        }
      ],
      "name": "postByTokenId",
      "outputs": [
        {
          "internalType": "string",
          "name": "cid",
          "type": "string"
        },
        {
          "internalType": "address",
          "name": "author",
          "type": "address"
        },
        {
          "internalType": "uint256",
          "name": "id",
          "type": "uint256"
        },
        {
          "internalType": "bytes32",
          "name": "tokenId",
          "type": "bytes32"
        }
      ],
      "stateMutability": "view",
      "type": "function"
    },
    {
      "inputs": [
        {
          "internalType": "uint256",
          "name": "",
          "type": "uint256"
        }
      ],
      "name": "postsIds",
      "outputs": [
        {
          "internalType": "uint256",
          "name": "",
          "type": "uint256"
        }
      ],
      "stateMutability": "view",
      "type": "function"
    },
    {
      "inputs": [],
      "name": "renounceOwnership",
      "outputs": [],
      "stateMutability": "nonpayable",
      "type": "function"
    },
    {
      "inputs": [
        {
          "internalType": "address",
          "name": "operator",
          "type": "address"
        },
        {
          "internalType": "bytes32",
          "name": "tokenId",
          "type": "bytes32"
        }
      ],
      "name": "revokeOperator",
      "outputs": [],
      "stateMutability": "nonpayable",
      "type": "function"
    },
    {
      "inputs": [
        {
          "internalType": "bytes32[]",
          "name": "dataKeys",
          "type": "bytes32[]"
        },
        {
          "internalType": "bytes[]",
          "name": "dataValues",
          "type": "bytes[]"
        }
      ],
      "name": "setData",
      "outputs": [],
      "stateMutability": "nonpayable",
      "type": "function"
    },
    {
      "inputs": [
        {
          "internalType": "bytes32",
          "name": "dataKey",
          "type": "bytes32"
        },
        {
          "internalType": "bytes",
          "name": "dataValue",
          "type": "bytes"
        }
      ],
      "name": "setData",
      "outputs": [],
      "stateMutability": "nonpayable",
      "type": "function"
    },
    {
      "inputs": [
        {
          "internalType": "bytes4",
          "name": "interfaceId",
          "type": "bytes4"
        }
      ],
      "name": "supportsInterface",
      "outputs": [
        {
          "internalType": "bool",
          "name": "",
          "type": "bool"
        }
      ],
      "stateMutability": "view",
      "type": "function"
    },
    {
      "inputs": [
        {
          "internalType": "address",
          "name": "tokenOwner",
          "type": "address"
        }
      ],
      "name": "tokenIdsOf",
      "outputs": [
        {
          "internalType": "bytes32[]",
          "name": "",
          "type": "bytes32[]"
        }
      ],
      "stateMutability": "view",
      "type": "function"
    },
    {
      "inputs": [
        {
          "internalType": "bytes32",
          "name": "tokenId",
          "type": "bytes32"
        }
      ],
      "name": "tokenOwnerOf",
      "outputs": [
        {
          "internalType": "address",
          "name": "",
          "type": "address"
        }
      ],
      "stateMutability": "view",
      "type": "function"
    },
    {
      "inputs": [],
      "name": "totalSupply",
      "outputs": [
        {
          "internalType": "uint256",
          "name": "",
          "type": "uint256"
        }
      ],
      "stateMutability": "view",
      "type": "function"
    },
    {
      "inputs": [
        {
          "internalType": "address",
          "name": "from",
          "type": "address"
        },
        {
          "internalType": "address",
          "name": "to",
          "type": "address"
        },
        {
          "internalType": "bytes32",
          "name": "tokenId",
          "type": "bytes32"
        },
        {
          "internalType": "bool",
          "name": "force",
          "type": "bool"
        },
        {
          "internalType": "bytes",
          "name": "data",
          "type": "bytes"
        }
      ],
      "name": "transfer",
      "outputs": [],
      "stateMutability": "nonpayable",
      "type": "function"
    },
    {
      "inputs": [
        {
          "internalType": "address[]",
          "name": "from",
          "type": "address[]"
        },
        {
          "internalType": "address[]",
          "name": "to",
          "type": "address[]"
        },
        {
          "internalType": "bytes32[]",
          "name": "tokenId",
          "type": "bytes32[]"
        },
        {
          "internalType": "bool",
          "name": "force",
          "type": "bool"
        },
        {
          "internalType": "bytes[]",
          "name": "data",
          "type": "bytes[]"
        }
      ],
      "name": "transferBatch",
      "outputs": [],
      "stateMutability": "nonpayable",
      "type": "function"
    },
    {
      "inputs": [
        {
          "internalType": "address",
          "name": "newOwner",
          "type": "address"
        }
      ],
      "name": "transferOwnership",
      "outputs": [],
      "stateMutability": "nonpayable",
      "type": "function"
    }
  ],
  "bytecode": "0x60806040523480156200001157600080fd5b50604051620045f8380380620045f88339818101604052810190620000379190620004ce565b8282828282828062000054816200014760201b620010f21760201c565b50620000c47feafec4d89fa9619884b60000a4d96624a38f7ac2d8d9a604ecf07c12c77e480c60001b6040518060400160405280600481526020017fa4d96624000000000000000000000000000000000000000000000000000000008152506200024f60201b620011f11760201c565b620000fe7fdeba1e292f8ba88238e10ab3c7f88bd4be4fac56cad5194b6ecceaf653468af160001b846200024f60201b620011f11760201c565b620001387f2f0a68ab07768e01943a599e73362a0e17a63a72e94dd2e384d2c1d4db93275660001b836200024f60201b620011f11760201c565b5050505050505050506200089a565b62000157620002a360201b60201c565b73ffffffffffffffffffffffffffffffffffffffff168173ffffffffffffffffffffffffffffffffffffffff16146200024c5760008060009054906101000a900473ffffffffffffffffffffffffffffffffffffffff169050816000806101000a81548173ffffffffffffffffffffffffffffffffffffffff021916908373ffffffffffffffffffffffffffffffffffffffff1602179055508173ffffffffffffffffffffffffffffffffffffffff168173ffffffffffffffffffffffffffffffffffffffff167f8be0079c531659141344cd1fd0a4f28419497f9722a3daafe3b4186f6b6457e060405160405180910390a3505b50565b80600160008481526020019081526020016000209081620002719190620007b3565b50817fcdf4e344c0d23d4cdd0474039d176c55b19d531070dbe17856bfb993a5b5720b60405160405180910390a25050565b60008060009054906101000a900473ffffffffffffffffffffffffffffffffffffffff16905090565b6000604051905090565b600080fd5b600080fd5b600080fd5b600080fd5b6000601f19601f8301169050919050565b7f4e487b7100000000000000000000000000000000000000000000000000000000600052604160045260246000fd5b6200033582620002ea565b810181811067ffffffffffffffff82111715620003575762000356620002fb565b5b80604052505050565b60006200036c620002cc565b90506200037a82826200032a565b919050565b600067ffffffffffffffff8211156200039d576200039c620002fb565b5b620003a882620002ea565b9050602081019050919050565b60005b83811015620003d5578082015181840152602081019050620003b8565b83811115620003e5576000848401525b50505050565b600062000402620003fc846200037f565b62000360565b905082815260208101848484011115620004215762000420620002e5565b5b6200042e848285620003b5565b509392505050565b600082601f8301126200044e576200044d620002e0565b5b815162000460848260208601620003eb565b91505092915050565b600073ffffffffffffffffffffffffffffffffffffffff82169050919050565b6000620004968262000469565b9050919050565b620004a88162000489565b8114620004b457600080fd5b50565b600081519050620004c8816200049d565b92915050565b600080600060608486031215620004ea57620004e9620002d6565b5b600084015167ffffffffffffffff8111156200050b576200050a620002db565b5b620005198682870162000436565b935050602084015167ffffffffffffffff8111156200053d576200053c620002db565b5b6200054b8682870162000436565b92505060406200055e86828701620004b7565b9150509250925092565b600081519050919050565b7f4e487b7100000000000000000000000000000000000000000000000000000000600052602260045260246000fd5b60006002820490506001821680620005bb57607f821691505b602082108103620005d157620005d062000573565b5b50919050565b60008190508160005260206000209050919050565b60006020601f8301049050919050565b600082821b905092915050565b6000600883026200063b7fffffffffffffffffffffffffffffffffffffffffffffffffffffffffffffffff82620005fc565b620006478683620005fc565b95508019841693508086168417925050509392505050565b6000819050919050565b6000819050919050565b6000620006946200068e62000688846200065f565b62000669565b6200065f565b9050919050565b6000819050919050565b620006b08362000673565b620006c8620006bf826200069b565b84845462000609565b825550505050565b600090565b620006df620006d0565b620006ec818484620006a5565b505050565b5b81811015620007145762000708600082620006d5565b600181019050620006f2565b5050565b601f82111562000763576200072d81620005d7565b6200073884620005ec565b8101602085101562000748578190505b620007606200075785620005ec565b830182620006f1565b50505b505050565b600082821c905092915050565b6000620007886000198460080262000768565b1980831691505092915050565b6000620007a3838362000775565b9150826002028217905092915050565b620007be8262000568565b67ffffffffffffffff811115620007da57620007d9620002fb565b5b620007e68254620005a2565b620007f382828562000718565b600060209050601f8311600181146200082b576000841562000816578287015190505b62000822858262000795565b86555062000892565b601f1984166200083b86620005d7565b60005b8281101562000865578489015182556001820191506020850194506020810190506200083e565b8683101562000885578489015162000881601f89168262000775565b8355505b6001600288020188555050505b505050505050565b613d4e80620008aa6000396000f3fe608060405234801561001057600080fd5b50600436106101585760003560e01c806354f6127f116100c3578063a3b261f21161007c578063a3b261f214610412578063abe48cc914610442578063b92223c314610472578063cf5182ba1461048e578063d48e638a146104aa578063f2fde38b146104da57610158565b806354f6127f14610352578063559088681461038257806370a082311461039e578063715018a6146103ce5780637f23690c146103d85780638da5cb5b146103f457610158565b8063217b227011610115578063217b2270146102465780632a3654a41461027657806340731c24146102a657806349a6078d146102d65780634e3e6e9c14610306578063511b69521461033657610158565b806301ffc9a71461015d578063085f441f1461018d5780630b0c6d82146101bd57806314a6e293146101d957806316ebbe04146101f557806318160ddd14610228575b600080fd5b610177600480360381019061017291906123cd565b6104f6565b6040516101849190612415565b60405180910390f35b6101a760048036038101906101a29190612466565b610557565b6040516101b491906124d4565b60405180910390f35b6101d760048036038101906101d29190612551565b61057f565b005b6101f360048036038101906101ee9190612880565b6106be565b005b61020f600480360381019061020a9190612466565b610769565b60405161021f949392919061299e565b60405180910390f35b610230610841565b60405161023d91906129ea565b60405180910390f35b610260600480360381019061025b9190612a05565b61084b565b60405161026d91906124d4565b60405180910390f35b610290600480360381019061028b9190612551565b6108fe565b60405161029d9190612415565b60405180910390f35b6102c060048036038101906102bb9190612466565b61091b565b6040516102cd9190612a32565b60405180910390f35b6102f060048036038101906102eb9190612a05565b6109c3565b6040516102fd9190612b12565b60405180910390f35b610320600480360381019061031b9190612b34565b6109f0565b60405161032d9190612c94565b60405180910390f35b610350600480360381019061034b9190612ce2565b610aa6565b005b61036c60048036038101906103679190612a05565b610b14565b6040516103799190612dc3565b60405180910390f35b61039c60048036038101906103979190612ea8565b610b26565b005b6103b860048036038101906103b39190612f93565b610c19565b6040516103c591906129ea565b60405180910390f35b6103d6610c69565b005b6103f260048036038101906103ed9190612fc0565b610c7d565b005b6103fc610c93565b60405161040991906124d4565b60405180910390f35b61042c60048036038101906104279190612f93565b610cbc565b60405161043991906130da565b60405180910390f35b61045c60048036038101906104579190612466565b610d0c565b60405161046991906129ea565b60405180910390f35b61048c6004803603810190610487919061319d565b610d30565b005b6104a860048036038101906104a39190612551565b610e7a565b005b6104c460048036038101906104bf9190612466565b61102f565b6040516104d191906124d4565b60405180910390f35b6104f460048036038101906104ef9190612f93565b61106f565b005b6000634939914560e01b7bffffffffffffffffffffffffffffffffffffffffffffffffffffffff1916827bffffffffffffffffffffffffffffffffffffffffffffffffffffffff19161480610550575061054f82611243565b5b9050919050565b6000610578600c60008481526020019081526020016000206003015461084b565b9050919050565b600061058a8261084b565b905060006105966112a4565b90508073ffffffffffffffffffffffffffffffffffffffff168273ffffffffffffffffffffffffffffffffffffffff161461060c578183826040517f5b271ea20000000000000000000000000000000000000000000000000000000081526004016106039392919061320c565b60405180910390fd5b600073ffffffffffffffffffffffffffffffffffffffff168473ffffffffffffffffffffffffffffffffffffffff1603610672576040517f9577b8b300000000000000000000000000000000000000000000000000000000815260040160405180910390fd5b8373ffffffffffffffffffffffffffffffffffffffff168273ffffffffffffffffffffffffffffffffffffffff16036106ac5750506106ba565b6106b78483856112ac565b50505b5050565b6106c6611332565b805182511461070a576040517f08c379a0000000000000000000000000000000000000000000000000000000008152600401610701906132b5565b60405180910390fd5b60005b82518110156107645761075483828151811061072c5761072b6132d5565b5b6020026020010151838381518110610747576107466132d5565b5b60200260200101516113a9565b61075d8161146f565b905061070d565b505050565b600c60205280600052604060002060009150905080600001805461078c90613333565b80601f01602080910402602001604051908101604052809291908181526020018280546107b890613333565b80156108055780601f106107da57610100808354040283529160200191610805565b820191906000526020600020905b8154815290600101906020018083116107e857829003601f168201915b5050505050908060010160009054906101000a900473ffffffffffffffffffffffffffffffffffffffff16908060020154908060030154905084565b6000600254905090565b6000806003600084815260200190815260200160002060009054906101000a900473ffffffffffffffffffffffffffffffffffffffff169050600073ffffffffffffffffffffffffffffffffffffffff168173ffffffffffffffffffffffffffffffffffffffff16036108f557826040517fae8f9a360000000000000000000000000000000000000000000000000000000081526004016108ec9190613364565b60405180910390fd5b80915050919050565b60006109098261147c565b61091383836114c9565b905092915050565b6060600c6000838152602001908152602001600020600001805461093e90613333565b80601f016020809104026020016040519081016040528092919081815260200182805461096a90613333565b80156109b75780601f1061098c576101008083540402835291602001916109b7565b820191906000526020600020905b81548152906001019060200180831161099a57829003601f168201915b50505050509050919050565b60606109ce8261147c565b6109e96005600084815260200190815260200160002061153b565b9050919050565b6060815167ffffffffffffffff811115610a0d57610a0c6125a7565b5b604051908082528060200260200182016040528015610a4057816020015b6060815260200190600190039081610a2b5790505b50905060005b8251811015610aa057610a72838281518110610a6557610a646132d5565b5b602002602001015161155c565b828281518110610a8557610a846132d5565b5b6020026020010181905250610a998161146f565b9050610a46565b50919050565b6000610ab06112a4565b9050610abc81856114c9565b610aff5783816040517f1294d2a9000000000000000000000000000000000000000000000000000000008152600401610af692919061337f565b60405180910390fd5b610b0c8686868686611601565b505050505050565b6060610b1f8261155c565b9050919050565b83518551141580610b3957508251855114155b80610b4657508051855114155b15610b7d576040517f93a8311900000000000000000000000000000000000000000000000000000000815260040160405180910390fd5b60005b8551811015610c1157610bfe868281518110610b9f57610b9e6132d5565b5b6020026020010151868381518110610bba57610bb96132d5565b5b6020026020010151868481518110610bd557610bd46132d5565b5b602002602001015186868681518110610bf157610bf06132d5565b5b6020026020010151610aa6565b8080610c09906133d7565b915050610b80565b505050505050565b6000610c62600460008473ffffffffffffffffffffffffffffffffffffffff1673ffffffffffffffffffffffffffffffffffffffff16815260200190815260200160002061188b565b9050919050565b610c71611332565b610c7b60006110f2565b565b610c85611332565b610c8f82826113a9565b5050565b60008060009054906101000a900473ffffffffffffffffffffffffffffffffffffffff16905090565b6060610d05600460008473ffffffffffffffffffffffffffffffffffffffff1673ffffffffffffffffffffffffffffffffffffffff1681526020019081526020016000206118a0565b9050919050565b600b8181548110610d1c57600080fd5b906000526020600020016000915090505481565b8160066000019081610d4291906135cb565b5033600660010160006101000a81548173ffffffffffffffffffffffffffffffffffffffff021916908373ffffffffffffffffffffffffffffffffffffffff160217905550600a60008154610d96906133d7565b919050819055600660020181905550806006600301819055506006600c6000600a54815260200190815260200160002060008201816000019081610dda91906136b3565b506001820160009054906101000a900473ffffffffffffffffffffffffffffffffffffffff168160010160006101000a81548173ffffffffffffffffffffffffffffffffffffffff021916908373ffffffffffffffffffffffffffffffffffffffff1602179055506002820154816002015560038201548160030155905050610e7583826001604051806020016040528060008152506118b5565b505050565b6000610e858261084b565b90506000610e916112a4565b90508073ffffffffffffffffffffffffffffffffffffffff168273ffffffffffffffffffffffffffffffffffffffff1614610f07578183826040517f5b271ea2000000000000000000000000000000000000000000000000000000008152600401610efe9392919061320c565b60405180910390fd5b600073ffffffffffffffffffffffffffffffffffffffff168473ffffffffffffffffffffffffffffffffffffffff1603610f6d576040517f9577b8b300000000000000000000000000000000000000000000000000000000815260040160405180910390fd5b8373ffffffffffffffffffffffffffffffffffffffff168273ffffffffffffffffffffffffffffffffffffffff1603610fa757505061102b565b610fcc8460056000868152602001908152602001600020611aa290919063ffffffff16565b50828273ffffffffffffffffffffffffffffffffffffffff168573ffffffffffffffffffffffffffffffffffffffff167f34b797fc5a526f7bf1d2b5de25f6564fd85ae364e3ee939aee7c1ac27871a98860405160405180910390a450505b5050565b6000600c600083815260200190815260200160002060010160009054906101000a900473ffffffffffffffffffffffffffffffffffffffff169050919050565b611077611332565b600073ffffffffffffffffffffffffffffffffffffffff168173ffffffffffffffffffffffffffffffffffffffff16036110e6576040517f08c379a00000000000000000000000000000000000000000000000000000000081526004016110dd9061380d565b60405180910390fd5b6110ef816110f2565b50565b6110fa610c93565b73ffffffffffffffffffffffffffffffffffffffff168173ffffffffffffffffffffffffffffffffffffffff16146111ee5760008060009054906101000a900473ffffffffffffffffffffffffffffffffffffffff169050816000806101000a81548173ffffffffffffffffffffffffffffffffffffffff021916908373ffffffffffffffffffffffffffffffffffffffff1602179055508173ffffffffffffffffffffffffffffffffffffffff168173ffffffffffffffffffffffffffffffffffffffff167f8be0079c531659141344cd1fd0a4f28419497f9722a3daafe3b4186f6b6457e060405160405180910390a3505b50565b806001600084815260200190815260200160002090816112119190613888565b50817fcdf4e344c0d23d4cdd0474039d176c55b19d531070dbe17856bfb993a5b5720b60405160405180910390a25050565b600063714df77c60e01b7bffffffffffffffffffffffffffffffffffffffffffffffffffffffff1916827bffffffffffffffffffffffffffffffffffffffffffffffffffffffff1916148061129d575061129c82611ad2565b5b9050919050565b600033905090565b6112d18360056000848152602001908152602001600020611b3c90919063ffffffff16565b50808273ffffffffffffffffffffffffffffffffffffffff168473ffffffffffffffffffffffffffffffffffffffff167f17d5389f6ab6adb2647dfa0aa365c323d37adacc30b33a65310b6158ce1373d560405160405180910390a4505050565b3373ffffffffffffffffffffffffffffffffffffffff16611351610c93565b73ffffffffffffffffffffffffffffffffffffffff16146113a7576040517f08c379a000000000000000000000000000000000000000000000000000000000815260040161139e906139a6565b60405180910390fd5b565b7fdeba1e292f8ba88238e10ab3c7f88bd4be4fac56cad5194b6ecceaf653468af160001b8203611405576040517f85c169bd00000000000000000000000000000000000000000000000000000000815260040160405180910390fd5b7f2f0a68ab07768e01943a599e73362a0e17a63a72e94dd2e384d2c1d4db93275660001b8203611461576040517f76755b3800000000000000000000000000000000000000000000000000000000815260040160405180910390fd5b61146b82826111f1565b5050565b6000600182019050919050565b61148581611b6c565b6114c657806040517fae8f9a360000000000000000000000000000000000000000000000000000000081526004016114bd9190613364565b60405180910390fd5b50565b6000806114d58361084b565b90508073ffffffffffffffffffffffffffffffffffffffff168473ffffffffffffffffffffffffffffffffffffffff16148061153257506115318460056000868152602001908152602001600020611bd890919063ffffffff16565b5b91505092915050565b6060600061154b83600001611c08565b905060608190508092505050919050565b606060016000838152602001908152602001600020805461157c90613333565b80601f01602080910402602001604051908101604052809291908181526020018280546115a890613333565b80156115f55780601f106115ca576101008083540402835291602001916115f5565b820191906000526020600020905b8154815290600101906020018083116115d857829003601f168201915b50505050509050919050565b600061160c8461084b565b90508573ffffffffffffffffffffffffffffffffffffffff168173ffffffffffffffffffffffffffffffffffffffff1614611682578084876040517f5b271ea20000000000000000000000000000000000000000000000000000000081526004016116799392919061320c565b60405180910390fd5b600073ffffffffffffffffffffffffffffffffffffffff168573ffffffffffffffffffffffffffffffffffffffff16036116e8576040517f24ecef4d00000000000000000000000000000000000000000000000000000000815260040160405180910390fd5b60006116f26112a4565b90506116ff878787611c64565b6117098786611d07565b61175a85600460008a73ffffffffffffffffffffffffffffffffffffffff1673ffffffffffffffffffffffffffffffffffffffff168152602001908152602001600020611d7490919063ffffffff16565b506117ac85600460008973ffffffffffffffffffffffffffffffffffffffff1673ffffffffffffffffffffffffffffffffffffffff168152602001908152602001600020611d8b90919063ffffffff16565b50856003600087815260200190815260200160002060006101000a81548173ffffffffffffffffffffffffffffffffffffffff021916908373ffffffffffffffffffffffffffffffffffffffff160217905550848673ffffffffffffffffffffffffffffffffffffffff168873ffffffffffffffffffffffffffffffffffffffff167fb333c813a7426a7a11e2b190cad52c44119421594b47f6f32ace6d8c7207b2bf848888604051611861939291906139c6565b60405180910390a461187587878786611da2565b6118828787878787611e91565b50505050505050565b600061189982600001612024565b9050919050565b60606118ae82600001611c08565b9050919050565b600073ffffffffffffffffffffffffffffffffffffffff168473ffffffffffffffffffffffffffffffffffffffff160361191b576040517f24ecef4d00000000000000000000000000000000000000000000000000000000815260040160405180910390fd5b61192483611b6c565b1561196657826040517f34c7b51100000000000000000000000000000000000000000000000000000000815260040161195d9190613364565b60405180910390fd5b60006119706112a4565b905061197e60008686611c64565b6119cf84600460008873ffffffffffffffffffffffffffffffffffffffff1673ffffffffffffffffffffffffffffffffffffffff168152602001908152602001600020611d8b90919063ffffffff16565b50846003600086815260200190815260200160002060006101000a81548173ffffffffffffffffffffffffffffffffffffffff021916908373ffffffffffffffffffffffffffffffffffffffff160217905550838573ffffffffffffffffffffffffffffffffffffffff16600073ffffffffffffffffffffffffffffffffffffffff167fb333c813a7426a7a11e2b190cad52c44119421594b47f6f32ace6d8c7207b2bf848787604051611a85939291906139c6565b60405180910390a4611a9b600086868686611e91565b5050505050565b6000611aca836000018373ffffffffffffffffffffffffffffffffffffffff1660001b612035565b905092915050565b60007f01ffc9a7000000000000000000000000000000000000000000000000000000007bffffffffffffffffffffffffffffffffffffffffffffffffffffffff1916827bffffffffffffffffffffffffffffffffffffffffffffffffffffffff1916149050919050565b6000611b64836000018373ffffffffffffffffffffffffffffffffffffffff1660001b6120a5565b905092915050565b60008073ffffffffffffffffffffffffffffffffffffffff166003600084815260200190815260200160002060009054906101000a900473ffffffffffffffffffffffffffffffffffffffff1673ffffffffffffffffffffffffffffffffffffffff1614159050919050565b6000611c00836000018373ffffffffffffffffffffffffffffffffffffffff1660001b6121b9565b905092915050565b606081600001805480602002602001604051908101604052809291908181526020018280548015611c5857602002820191906000526020600020905b815481526020019060010190808311611c44575b50505050509050919050565b600073ffffffffffffffffffffffffffffffffffffffff168373ffffffffffffffffffffffffffffffffffffffff1603611cb357600160026000828254611cab9190613a04565b925050819055505b600073ffffffffffffffffffffffffffffffffffffffff168273ffffffffffffffffffffffffffffffffffffffff1603611d0257600160026000828254611cfa9190613a5a565b925050819055505b505050565b60006005600083815260200190815260200160002090506000611d29826121dc565b905060005b81811015611d6d576000611d4c6000856121f190919063ffffffff16565b9050611d598187876112ac565b508080611d65906133d7565b915050611d2e565b5050505050565b6000611d8383600001836120a5565b905092915050565b6000611d9a8360000183612035565b905092915050565b611db384636bb56a1460e01b61220b565b15611e8b57600084848484604051602001611dd19493929190613b33565b60405160208183030381529060405290508473ffffffffffffffffffffffffffffffffffffffff16636bb56a147f3724c94f0815e936299cca424da4140752198e0beb7931a6e0925d11bc97544c60001b836040518363ffffffff1660e01b8152600401611e40929190613b7d565b6000604051808303816000875af1158015611e5f573d6000803e3d6000fd5b505050506040513d6000823e3d601f19601f82011682018060405250810190611e889190613c1d565b50505b50505050565b611ea284636bb56a1460e01b61220b565b15611f7e57600085858584604051602001611ec09493929190613b33565b60405160208183030381529060405290508473ffffffffffffffffffffffffffffffffffffffff16636bb56a147fc7a120a42b6057a0cbed111fbbfbd52fcd96748c04394f77fc2c3adbe0391e0160001b836040518363ffffffff1660e01b8152600401611f2f929190613b7d565b6000604051808303816000875af1158015611f4e573d6000803e3d6000fd5b505050506040513d6000823e3d601f19601f82011682018060405250810190611f779190613c1d565b505061201d565b8161201c5760008473ffffffffffffffffffffffffffffffffffffffff163b14611fdf57836040517f4349776d000000000000000000000000000000000000000000000000000000008152600401611fd691906124d4565b60405180910390fd5b836040517f0317313700000000000000000000000000000000000000000000000000000000815260040161201391906124d4565b60405180910390fd5b5b5050505050565b600081600001805490509050919050565b600061204183836121b9565b61209a57826000018290806001815401808255809150506001900390600052602060002001600090919091909150558260000180549050836001016000848152602001908152602001600020819055506001905061209f565b600090505b92915050565b600080836001016000848152602001908152602001600020549050600081146121ad5760006001826120d79190613a5a565b90506000600186600001805490506120ef9190613a5a565b905081811461215e5760008660000182815481106121105761210f6132d5565b5b9060005260206000200154905080876000018481548110612134576121336132d5565b5b90600052602060002001819055508387600101600083815260200190815260200160002081905550505b8560000180548061217257612171613c66565b5b6001900381819060005260206000200160009055905585600101600086815260200190815260200160002060009055600193505050506121b3565b60009150505b92915050565b600080836001016000848152602001908152602001600020541415905092915050565b60006121ea82600001612024565b9050919050565b60006122008360000183612336565b60001c905092915050565b6000806301ffc9a760e01b836040516024016122279190613ca4565b604051602081830303815290604052907bffffffffffffffffffffffffffffffffffffffffffffffffffffffff19166020820180517bffffffffffffffffffffffffffffffffffffffffffffffffffffffff838183161783525050505090506000808573ffffffffffffffffffffffffffffffffffffffff16617530846040516122b19190613cbf565b6000604051808303818686fa925050503d80600081146122ed576040519150601f19603f3d011682016040523d82523d6000602084013e6122f2565b606091505b509150915060208151101561230d5760009350505050612330565b81801561232a5750808060200190518101906123299190613ceb565b5b93505050505b92915050565b600082600001828154811061234e5761234d6132d5565b5b9060005260206000200154905092915050565b6000604051905090565b600080fd5b600080fd5b60007fffffffff0000000000000000000000000000000000000000000000000000000082169050919050565b6123aa81612375565b81146123b557600080fd5b50565b6000813590506123c7816123a1565b92915050565b6000602082840312156123e3576123e261236b565b5b60006123f1848285016123b8565b91505092915050565b60008115159050919050565b61240f816123fa565b82525050565b600060208201905061242a6000830184612406565b92915050565b6000819050919050565b61244381612430565b811461244e57600080fd5b50565b6000813590506124608161243a565b92915050565b60006020828403121561247c5761247b61236b565b5b600061248a84828501612451565b91505092915050565b600073ffffffffffffffffffffffffffffffffffffffff82169050919050565b60006124be82612493565b9050919050565b6124ce816124b3565b82525050565b60006020820190506124e960008301846124c5565b92915050565b6124f8816124b3565b811461250357600080fd5b50565b600081359050612515816124ef565b92915050565b6000819050919050565b61252e8161251b565b811461253957600080fd5b50565b60008135905061254b81612525565b92915050565b600080604083850312156125685761256761236b565b5b600061257685828601612506565b92505060206125878582860161253c565b9150509250929050565b600080fd5b6000601f19601f8301169050919050565b7f4e487b7100000000000000000000000000000000000000000000000000000000600052604160045260246000fd5b6125df82612596565b810181811067ffffffffffffffff821117156125fe576125fd6125a7565b5b80604052505050565b6000612611612361565b905061261d82826125d6565b919050565b600067ffffffffffffffff82111561263d5761263c6125a7565b5b602082029050602081019050919050565b600080fd5b600061266661266184612622565b612607565b905080838252602082019050602084028301858111156126895761268861264e565b5b835b818110156126b2578061269e888261253c565b84526020840193505060208101905061268b565b5050509392505050565b600082601f8301126126d1576126d0612591565b5b81356126e1848260208601612653565b91505092915050565b600067ffffffffffffffff821115612705576127046125a7565b5b602082029050602081019050919050565b600080fd5b600067ffffffffffffffff821115612736576127356125a7565b5b61273f82612596565b9050602081019050919050565b82818337600083830152505050565b600061276e6127698461271b565b612607565b90508281526020810184848401111561278a57612789612716565b5b61279584828561274c565b509392505050565b600082601f8301126127b2576127b1612591565b5b81356127c284826020860161275b565b91505092915050565b60006127de6127d9846126ea565b612607565b905080838252602082019050602084028301858111156128015761280061264e565b5b835b8181101561284857803567ffffffffffffffff81111561282657612825612591565b5b808601612833898261279d565b85526020850194505050602081019050612803565b5050509392505050565b600082601f83011261286757612866612591565b5b81356128778482602086016127cb565b91505092915050565b600080604083850312156128975761289661236b565b5b600083013567ffffffffffffffff8111156128b5576128b4612370565b5b6128c1858286016126bc565b925050602083013567ffffffffffffffff8111156128e2576128e1612370565b5b6128ee85828601612852565b9150509250929050565b600081519050919050565b600082825260208201905092915050565b60005b83811015612932578082015181840152602081019050612917565b83811115612941576000848401525b50505050565b6000612952826128f8565b61295c8185612903565b935061296c818560208601612914565b61297581612596565b840191505092915050565b61298981612430565b82525050565b6129988161251b565b82525050565b600060808201905081810360008301526129b88187612947565b90506129c760208301866124c5565b6129d46040830185612980565b6129e1606083018461298f565b95945050505050565b60006020820190506129ff6000830184612980565b92915050565b600060208284031215612a1b57612a1a61236b565b5b6000612a298482850161253c565b91505092915050565b60006020820190508181036000830152612a4c8184612947565b905092915050565b600081519050919050565b600082825260208201905092915050565b6000819050602082019050919050565b612a89816124b3565b82525050565b6000612a9b8383612a80565b60208301905092915050565b6000602082019050919050565b6000612abf82612a54565b612ac98185612a5f565b9350612ad483612a70565b8060005b83811015612b05578151612aec8882612a8f565b9750612af783612aa7565b925050600181019050612ad8565b5085935050505092915050565b60006020820190508181036000830152612b2c8184612ab4565b905092915050565b600060208284031215612b4a57612b4961236b565b5b600082013567ffffffffffffffff811115612b6857612b67612370565b5b612b74848285016126bc565b91505092915050565b600081519050919050565b600082825260208201905092915050565b6000819050602082019050919050565b600081519050919050565b600082825260208201905092915050565b6000612bd082612ba9565b612bda8185612bb4565b9350612bea818560208601612914565b612bf381612596565b840191505092915050565b6000612c0a8383612bc5565b905092915050565b6000602082019050919050565b6000612c2a82612b7d565b612c348185612b88565b935083602082028501612c4685612b99565b8060005b85811015612c825784840389528151612c638582612bfe565b9450612c6e83612c12565b925060208a01995050600181019050612c4a565b50829750879550505050505092915050565b60006020820190508181036000830152612cae8184612c1f565b905092915050565b612cbf816123fa565b8114612cca57600080fd5b50565b600081359050612cdc81612cb6565b92915050565b600080600080600060a08688031215612cfe57612cfd61236b565b5b6000612d0c88828901612506565b9550506020612d1d88828901612506565b9450506040612d2e8882890161253c565b9350506060612d3f88828901612ccd565b925050608086013567ffffffffffffffff811115612d6057612d5f612370565b5b612d6c8882890161279d565b9150509295509295909350565b600082825260208201905092915050565b6000612d9582612ba9565b612d9f8185612d79565b9350612daf818560208601612914565b612db881612596565b840191505092915050565b60006020820190508181036000830152612ddd8184612d8a565b905092915050565b600067ffffffffffffffff821115612e0057612dff6125a7565b5b602082029050602081019050919050565b6000612e24612e1f84612de5565b612607565b90508083825260208201905060208402830185811115612e4757612e4661264e565b5b835b81811015612e705780612e5c8882612506565b845260208401935050602081019050612e49565b5050509392505050565b600082601f830112612e8f57612e8e612591565b5b8135612e9f848260208601612e11565b91505092915050565b600080600080600060a08688031215612ec457612ec361236b565b5b600086013567ffffffffffffffff811115612ee257612ee1612370565b5b612eee88828901612e7a565b955050602086013567ffffffffffffffff811115612f0f57612f0e612370565b5b612f1b88828901612e7a565b945050604086013567ffffffffffffffff811115612f3c57612f3b612370565b5b612f48888289016126bc565b9350506060612f5988828901612ccd565b925050608086013567ffffffffffffffff811115612f7a57612f79612370565b5b612f8688828901612852565b9150509295509295909350565b600060208284031215612fa957612fa861236b565b5b6000612fb784828501612506565b91505092915050565b60008060408385031215612fd757612fd661236b565b5b6000612fe58582860161253c565b925050602083013567ffffffffffffffff81111561300657613005612370565b5b6130128582860161279d565b9150509250929050565b600081519050919050565b600082825260208201905092915050565b6000819050602082019050919050565b6130518161251b565b82525050565b60006130638383613048565b60208301905092915050565b6000602082019050919050565b60006130878261301c565b6130918185613027565b935061309c83613038565b8060005b838110156130cd5781516130b48882613057565b97506130bf8361306f565b9250506001810190506130a0565b5085935050505092915050565b600060208201905081810360008301526130f4818461307c565b905092915050565b600067ffffffffffffffff821115613117576131166125a7565b5b61312082612596565b9050602081019050919050565b600061314061313b846130fc565b612607565b90508281526020810184848401111561315c5761315b612716565b5b61316784828561274c565b509392505050565b600082601f83011261318457613183612591565b5b813561319484826020860161312d565b91505092915050565b6000806000606084860312156131b6576131b561236b565b5b60006131c486828701612506565b935050602084013567ffffffffffffffff8111156131e5576131e4612370565b5b6131f18682870161316f565b92505060406132028682870161253c565b9150509250925092565b600060608201905061322160008301866124c5565b61322e602083018561298f565b61323b60408301846124c5565b949350505050565b7f4b657973206c656e677468206e6f7420657175616c20746f2076616c7565732060008201527f6c656e6774680000000000000000000000000000000000000000000000000000602082015250565b600061329f602683612903565b91506132aa82613243565b604082019050919050565b600060208201905081810360008301526132ce81613292565b9050919050565b7f4e487b7100000000000000000000000000000000000000000000000000000000600052603260045260246000fd5b7f4e487b7100000000000000000000000000000000000000000000000000000000600052602260045260246000fd5b6000600282049050600182168061334b57607f821691505b60208210810361335e5761335d613304565b5b50919050565b6000602082019050613379600083018461298f565b92915050565b6000604082019050613394600083018561298f565b6133a160208301846124c5565b9392505050565b7f4e487b7100000000000000000000000000000000000000000000000000000000600052601160045260246000fd5b60006133e282612430565b91507fffffffffffffffffffffffffffffffffffffffffffffffffffffffffffffffff8203613414576134136133a8565b5b600182019050919050565b60008190508160005260206000209050919050565b60006020601f8301049050919050565b600082821b905092915050565b6000600883026134817fffffffffffffffffffffffffffffffffffffffffffffffffffffffffffffffff82613444565b61348b8683613444565b95508019841693508086168417925050509392505050565b6000819050919050565b60006134c86134c36134be84612430565b6134a3565b612430565b9050919050565b6000819050919050565b6134e2836134ad565b6134f66134ee826134cf565b848454613451565b825550505050565b600090565b61350b6134fe565b6135168184846134d9565b505050565b5b8181101561353a5761352f600082613503565b60018101905061351c565b5050565b601f82111561357f576135508161341f565b61355984613434565b81016020851015613568578190505b61357c61357485613434565b83018261351b565b50505b505050565b600082821c905092915050565b60006135a260001984600802613584565b1980831691505092915050565b60006135bb8383613591565b9150826002028217905092915050565b6135d4826128f8565b67ffffffffffffffff8111156135ed576135ec6125a7565b5b6135f78254613333565b61360282828561353e565b600060209050601f8311600181146136355760008415613623578287015190505b61362d85826135af565b865550613695565b601f1984166136438661341f565b60005b8281101561366b57848901518255600182019150602085019450602081019050613646565b868310156136885784890151613684601f891682613591565b8355505b6001600288020188555050505b505050505050565b6000815490506136ac81613333565b9050919050565b8181036136c1575050613799565b6136ca8261369d565b67ffffffffffffffff8111156136e3576136e26125a7565b5b6136ed8254613333565b6136f882828561353e565b6000601f8311600181146137275760008415613715578287015490505b61371f85826135af565b865550613792565b601f1984166137358761341f565b96506137408661341f565b60005b8281101561376857848901548255600182019150600185019450602081019050613743565b868310156137855784890154613781601f891682613591565b8355505b6001600288020188555050505b5050505050505b565b7f4f776e61626c653a206e6577206f776e657220697320746865207a65726f206160008201527f6464726573730000000000000000000000000000000000000000000000000000602082015250565b60006137f7602683612903565b91506138028261379b565b604082019050919050565b60006020820190508181036000830152613826816137ea565b9050919050565b60008190508160005260206000209050919050565b601f821115613883576138548161382d565b61385d84613434565b8101602085101561386c578190505b61388061387885613434565b83018261351b565b50505b505050565b61389182612ba9565b67ffffffffffffffff8111156138aa576138a96125a7565b5b6138b48254613333565b6138bf828285613842565b600060209050601f8311600181146138f257600084156138e0578287015190505b6138ea85826135af565b865550613952565b601f1984166139008661382d565b60005b8281101561392857848901518255600182019150602085019450602081019050613903565b868310156139455784890151613941601f891682613591565b8355505b6001600288020188555050505b505050505050565b7f4f776e61626c653a2063616c6c6572206973206e6f7420746865206f776e6572600082015250565b6000613990602083612903565b915061399b8261395a565b602082019050919050565b600060208201905081810360008301526139bf81613983565b9050919050565b60006060820190506139db60008301866124c5565b6139e86020830185612406565b81810360408301526139fa8184612d8a565b9050949350505050565b6000613a0f82612430565b9150613a1a83612430565b9250827fffffffffffffffffffffffffffffffffffffffffffffffffffffffffffffffff03821115613a4f57613a4e6133a8565b5b828201905092915050565b6000613a6582612430565b9150613a7083612430565b925082821015613a8357613a826133a8565b5b828203905092915050565b60008160601b9050919050565b6000613aa682613a8e565b9050919050565b6000613ab882613a9b565b9050919050565b613ad0613acb826124b3565b613aad565b82525050565b6000819050919050565b613af1613aec8261251b565b613ad6565b82525050565b600081905092915050565b6000613b0d82612ba9565b613b178185613af7565b9350613b27818560208601612914565b80840191505092915050565b6000613b3f8287613abf565b601482019150613b4f8286613abf565b601482019150613b5f8285613ae0565b602082019150613b6f8284613b02565b915081905095945050505050565b6000604082019050613b92600083018561298f565b8181036020830152613ba48184612d8a565b90509392505050565b6000613bc0613bbb8461271b565b612607565b905082815260208101848484011115613bdc57613bdb612716565b5b613be7848285612914565b509392505050565b600082601f830112613c0457613c03612591565b5b8151613c14848260208601613bad565b91505092915050565b600060208284031215613c3357613c3261236b565b5b600082015167ffffffffffffffff811115613c5157613c50612370565b5b613c5d84828501613bef565b91505092915050565b7f4e487b7100000000000000000000000000000000000000000000000000000000600052603160045260246000fd5b613c9e81612375565b82525050565b6000602082019050613cb96000830184613c95565b92915050565b6000613ccb8284613b02565b915081905092915050565b600081519050613ce581612cb6565b92915050565b600060208284031215613d0157613d0061236b565b5b6000613d0f84828501613cd6565b9150509291505056fea26469706673582212204ff17d9fd2be7f6481b38dccbac65e37ac7551ae9043f199d0a8fc9c0537610364736f6c634300080f0033",
  "linkReferences": {},
  "deployedLinkReferences": {}
}