{
  "_format": "hh-sol-artifact-1",
  "contractName": "PinSaveL8",
  "sourceName": "contracts/LSP8.sol",
  "abi": [
    {
      "inputs": [
        {
          "internalType": "string",
          "name": "name_",
          "type": "string"
        },
        {
          "internalType": "string",
          "name": "symbol_",
          "type": "string"
        },
        {
          "internalType": "address",
          "name": "newOwner_",
          "type": "address"
        }
      ],
      "stateMutability": "nonpayable",
      "type": "constructor"
    },
    {
      "inputs": [],
      "name": "LSP4TokenNameNotEditable",
      "type": "error"
    },
    {
      "inputs": [],
      "name": "LSP4TokenSymbolNotEditable",
      "type": "error"
    },
    {
      "inputs": [],
      "name": "LSP8CannotSendToAddressZero",
      "type": "error"
    },
    {
      "inputs": [],
      "name": "LSP8CannotUseAddressZeroAsOperator",
      "type": "error"
    },
    {
      "inputs": [],
      "name": "LSP8InvalidTransferBatch",
      "type": "error"
    },
    {
      "inputs": [
        {
          "internalType": "bytes32",
          "name": "tokenId",
          "type": "bytes32"
        }
      ],
      "name": "LSP8NonExistentTokenId",
      "type": "error"
    },
    {
      "inputs": [
        {
          "internalType": "bytes32",
          "name": "tokenId",
          "type": "bytes32"
        },
        {
          "internalType": "address",
          "name": "caller",
          "type": "address"
        }
      ],
      "name": "LSP8NotTokenOperator",
      "type": "error"
    },
    {
      "inputs": [
        {
          "internalType": "address",
          "name": "tokenOwner",
          "type": "address"
        },
        {
          "internalType": "bytes32",
          "name": "tokenId",
          "type": "bytes32"
        },
        {
          "internalType": "address",
          "name": "caller",
          "type": "address"
        }
      ],
      "name": "LSP8NotTokenOwner",
      "type": "error"
    },
    {
      "inputs": [
        {
          "internalType": "address",
          "name": "tokenReceiver",
          "type": "address"
        }
      ],
      "name": "LSP8NotifyTokenReceiverContractMissingLSP1Interface",
      "type": "error"
    },
    {
      "inputs": [
        {
          "internalType": "address",
          "name": "tokenReceiver",
          "type": "address"
        }
      ],
      "name": "LSP8NotifyTokenReceiverIsEOA",
      "type": "error"
    },
    {
      "inputs": [
        {
          "internalType": "bytes32",
          "name": "tokenId",
          "type": "bytes32"
        }
      ],
      "name": "LSP8TokenIdAlreadyMinted",
      "type": "error"
    },
    {
      "anonymous": false,
      "inputs": [
        {
          "indexed": true,
          "internalType": "address",
          "name": "operator",
          "type": "address"
        },
        {
          "indexed": true,
          "internalType": "address",
          "name": "tokenOwner",
          "type": "address"
        },
        {
          "indexed": true,
          "internalType": "bytes32",
          "name": "tokenId",
          "type": "bytes32"
        }
      ],
      "name": "AuthorizedOperator",
      "type": "event"
    },
    {
      "anonymous": false,
      "inputs": [
        {
          "indexed": true,
          "internalType": "bytes32",
          "name": "dataKey",
          "type": "bytes32"
        }
      ],
      "name": "DataChanged",
      "type": "event"
    },
    {
      "anonymous": false,
      "inputs": [
        {
          "indexed": true,
          "internalType": "address",
          "name": "previousOwner",
          "type": "address"
        },
        {
          "indexed": true,
          "internalType": "address",
          "name": "newOwner",
          "type": "address"
        }
      ],
      "name": "OwnershipTransferred",
      "type": "event"
    },
    {
      "anonymous": false,
      "inputs": [
        {
          "indexed": true,
          "internalType": "address",
          "name": "operator",
          "type": "address"
        },
        {
          "indexed": true,
          "internalType": "address",
          "name": "tokenOwner",
          "type": "address"
        },
        {
          "indexed": true,
          "internalType": "bytes32",
          "name": "tokenId",
          "type": "bytes32"
        }
      ],
      "name": "RevokedOperator",
      "type": "event"
    },
    {
      "anonymous": false,
      "inputs": [
        {
          "indexed": false,
          "internalType": "address",
          "name": "operator",
          "type": "address"
        },
        {
          "indexed": true,
          "internalType": "address",
          "name": "from",
          "type": "address"
        },
        {
          "indexed": true,
          "internalType": "address",
          "name": "to",
          "type": "address"
        },
        {
          "indexed": true,
          "internalType": "bytes32",
          "name": "tokenId",
          "type": "bytes32"
        },
        {
          "indexed": false,
          "internalType": "bool",
          "name": "force",
          "type": "bool"
        },
        {
          "indexed": false,
          "internalType": "bytes",
          "name": "data",
          "type": "bytes"
        }
      ],
      "name": "Transfer",
      "type": "event"
    },
    {
      "inputs": [
        {
          "internalType": "address",
          "name": "operator",
          "type": "address"
        },
        {
          "internalType": "bytes32",
          "name": "tokenId",
          "type": "bytes32"
        }
      ],
      "name": "authorizeOperator",
      "outputs": [],
      "stateMutability": "nonpayable",
      "type": "function"
    },
    {
      "inputs": [
        {
          "internalType": "address",
          "name": "tokenOwner",
          "type": "address"
        }
      ],
      "name": "balanceOf",
      "outputs": [
        {
          "internalType": "uint256",
          "name": "",
          "type": "uint256"
        }
      ],
      "stateMutability": "view",
      "type": "function"
    },
    {
      "inputs": [
        {
          "internalType": "string",
          "name": "_cid",
          "type": "string"
        },
        {
          "internalType": "bytes32",
          "name": "tokenId",
          "type": "bytes32"
        }
      ],
      "name": "createPost",
      "outputs": [],
      "stateMutability": "nonpayable",
      "type": "function"
    },
    {
      "inputs": [
        {
          "internalType": "uint256",
          "name": "id",
          "type": "uint256"
        }
      ],
      "name": "getCreator",
      "outputs": [
        {
          "internalType": "address",
          "name": "",
          "type": "address"
        }
      ],
      "stateMutability": "view",
      "type": "function"
    },
    {
      "inputs": [
        {
          "internalType": "bytes32[]",
          "name": "dataKeys",
          "type": "bytes32[]"
        }
      ],
      "name": "getData",
      "outputs": [
        {
          "internalType": "bytes[]",
          "name": "dataValues",
          "type": "bytes[]"
        }
      ],
      "stateMutability": "view",
      "type": "function"
    },
    {
      "inputs": [
        {
          "internalType": "bytes32",
          "name": "dataKey",
          "type": "bytes32"
        }
      ],
      "name": "getData",
      "outputs": [
        {
          "internalType": "bytes",
          "name": "dataValue",
          "type": "bytes"
        }
      ],
      "stateMutability": "view",
      "type": "function"
    },
    {
      "inputs": [
        {
          "internalType": "bytes32",
          "name": "tokenId",
          "type": "bytes32"
        }
      ],
      "name": "getOperatorsOf",
      "outputs": [
        {
          "internalType": "address[]",
          "name": "",
          "type": "address[]"
        }
      ],
      "stateMutability": "view",
      "type": "function"
    },
    {
      "inputs": [
        {
          "internalType": "uint256",
          "name": "id",
          "type": "uint256"
        }
      ],
      "name": "getPost",
      "outputs": [
        {
          "internalType": "string",
          "name": "",
          "type": "string"
        }
      ],
      "stateMutability": "view",
      "type": "function"
    },
    {
      "inputs": [
        {
          "internalType": "address",
          "name": "operator",
          "type": "address"
        },
        {
          "internalType": "bytes32",
          "name": "tokenId",
          "type": "bytes32"
        }
      ],
      "name": "isOperatorFor",
      "outputs": [
        {
          "internalType": "bool",
          "name": "",
          "type": "bool"
        }
      ],
      "stateMutability": "view",
      "type": "function"
    },
    {
      "inputs": [],
      "name": "owner",
      "outputs": [
        {
          "internalType": "address",
          "name": "",
          "type": "address"
        }
      ],
      "stateMutability": "view",
      "type": "function"
    },
    {
      "inputs": [
        {
          "internalType": "uint256",
          "name": "",
          "type": "uint256"
        }
      ],
      "name": "postByTokenId",
      "outputs": [
        {
          "internalType": "string",
          "name": "cid",
          "type": "string"
        },
        {
          "internalType": "address",
          "name": "author",
          "type": "address"
        },
        {
          "internalType": "uint256",
          "name": "id",
          "type": "uint256"
        }
      ],
      "stateMutability": "view",
      "type": "function"
    },
    {
      "inputs": [
        {
          "internalType": "uint256",
          "name": "",
          "type": "uint256"
        }
      ],
      "name": "postsIds",
      "outputs": [
        {
          "internalType": "uint256",
          "name": "",
          "type": "uint256"
        }
      ],
      "stateMutability": "view",
      "type": "function"
    },
    {
      "inputs": [],
      "name": "renounceOwnership",
      "outputs": [],
      "stateMutability": "nonpayable",
      "type": "function"
    },
    {
      "inputs": [
        {
          "internalType": "address",
          "name": "operator",
          "type": "address"
        },
        {
          "internalType": "bytes32",
          "name": "tokenId",
          "type": "bytes32"
        }
      ],
      "name": "revokeOperator",
      "outputs": [],
      "stateMutability": "nonpayable",
      "type": "function"
    },
    {
      "inputs": [
        {
          "internalType": "bytes32[]",
          "name": "dataKeys",
          "type": "bytes32[]"
        },
        {
          "internalType": "bytes[]",
          "name": "dataValues",
          "type": "bytes[]"
        }
      ],
      "name": "setData",
      "outputs": [],
      "stateMutability": "nonpayable",
      "type": "function"
    },
    {
      "inputs": [
        {
          "internalType": "bytes32",
          "name": "dataKey",
          "type": "bytes32"
        },
        {
          "internalType": "bytes",
          "name": "dataValue",
          "type": "bytes"
        }
      ],
      "name": "setData",
      "outputs": [],
      "stateMutability": "nonpayable",
      "type": "function"
    },
    {
      "inputs": [
        {
          "internalType": "bytes4",
          "name": "interfaceId",
          "type": "bytes4"
        }
      ],
      "name": "supportsInterface",
      "outputs": [
        {
          "internalType": "bool",
          "name": "",
          "type": "bool"
        }
      ],
      "stateMutability": "view",
      "type": "function"
    },
    {
      "inputs": [
        {
          "internalType": "address",
          "name": "tokenOwner",
          "type": "address"
        }
      ],
      "name": "tokenIdsOf",
      "outputs": [
        {
          "internalType": "bytes32[]",
          "name": "",
          "type": "bytes32[]"
        }
      ],
      "stateMutability": "view",
      "type": "function"
    },
    {
      "inputs": [
        {
          "internalType": "bytes32",
          "name": "tokenId",
          "type": "bytes32"
        }
      ],
      "name": "tokenOwnerOf",
      "outputs": [
        {
          "internalType": "address",
          "name": "",
          "type": "address"
        }
      ],
      "stateMutability": "view",
      "type": "function"
    },
    {
      "inputs": [],
      "name": "totalSupply",
      "outputs": [
        {
          "internalType": "uint256",
          "name": "",
          "type": "uint256"
        }
      ],
      "stateMutability": "view",
      "type": "function"
    },
    {
      "inputs": [
        {
          "internalType": "address",
          "name": "from",
          "type": "address"
        },
        {
          "internalType": "address",
          "name": "to",
          "type": "address"
        },
        {
          "internalType": "bytes32",
          "name": "tokenId",
          "type": "bytes32"
        },
        {
          "internalType": "bool",
          "name": "force",
          "type": "bool"
        },
        {
          "internalType": "bytes",
          "name": "data",
          "type": "bytes"
        }
      ],
      "name": "transfer",
      "outputs": [],
      "stateMutability": "nonpayable",
      "type": "function"
    },
    {
      "inputs": [
        {
          "internalType": "address[]",
          "name": "from",
          "type": "address[]"
        },
        {
          "internalType": "address[]",
          "name": "to",
          "type": "address[]"
        },
        {
          "internalType": "bytes32[]",
          "name": "tokenId",
          "type": "bytes32[]"
        },
        {
          "internalType": "bool",
          "name": "force",
          "type": "bool"
        },
        {
          "internalType": "bytes[]",
          "name": "data",
          "type": "bytes[]"
        }
      ],
      "name": "transferBatch",
      "outputs": [],
      "stateMutability": "nonpayable",
      "type": "function"
    },
    {
      "inputs": [
        {
          "internalType": "address",
          "name": "newOwner",
          "type": "address"
        }
      ],
      "name": "transferOwnership",
      "outputs": [],
      "stateMutability": "nonpayable",
      "type": "function"
    }
  ],
  "bytecode": "0x60806040523480156200001157600080fd5b5060405162004558380380620045588339818101604052810190620000379190620004ce565b8282828282828062000054816200014760201b620010731760201c565b50620000c47feafec4d89fa9619884b60000a4d96624a38f7ac2d8d9a604ecf07c12c77e480c60001b6040518060400160405280600481526020017fa4d96624000000000000000000000000000000000000000000000000000000008152506200024f60201b620011721760201c565b620000fe7fdeba1e292f8ba88238e10ab3c7f88bd4be4fac56cad5194b6ecceaf653468af160001b846200024f60201b620011721760201c565b620001387f2f0a68ab07768e01943a599e73362a0e17a63a72e94dd2e384d2c1d4db93275660001b836200024f60201b620011721760201c565b5050505050505050506200089a565b62000157620002a360201b60201c565b73ffffffffffffffffffffffffffffffffffffffff168173ffffffffffffffffffffffffffffffffffffffff16146200024c5760008060009054906101000a900473ffffffffffffffffffffffffffffffffffffffff169050816000806101000a81548173ffffffffffffffffffffffffffffffffffffffff021916908373ffffffffffffffffffffffffffffffffffffffff1602179055508173ffffffffffffffffffffffffffffffffffffffff168173ffffffffffffffffffffffffffffffffffffffff167f8be0079c531659141344cd1fd0a4f28419497f9722a3daafe3b4186f6b6457e060405160405180910390a3505b50565b80600160008481526020019081526020016000209081620002719190620007b3565b50817fcdf4e344c0d23d4cdd0474039d176c55b19d531070dbe17856bfb993a5b5720b60405160405180910390a25050565b60008060009054906101000a900473ffffffffffffffffffffffffffffffffffffffff16905090565b6000604051905090565b600080fd5b600080fd5b600080fd5b600080fd5b6000601f19601f8301169050919050565b7f4e487b7100000000000000000000000000000000000000000000000000000000600052604160045260246000fd5b6200033582620002ea565b810181811067ffffffffffffffff82111715620003575762000356620002fb565b5b80604052505050565b60006200036c620002cc565b90506200037a82826200032a565b919050565b600067ffffffffffffffff8211156200039d576200039c620002fb565b5b620003a882620002ea565b9050602081019050919050565b60005b83811015620003d5578082015181840152602081019050620003b8565b83811115620003e5576000848401525b50505050565b600062000402620003fc846200037f565b62000360565b905082815260208101848484011115620004215762000420620002e5565b5b6200042e848285620003b5565b509392505050565b600082601f8301126200044e576200044d620002e0565b5b815162000460848260208601620003eb565b91505092915050565b600073ffffffffffffffffffffffffffffffffffffffff82169050919050565b6000620004968262000469565b9050919050565b620004a88162000489565b8114620004b457600080fd5b50565b600081519050620004c8816200049d565b92915050565b600080600060608486031215620004ea57620004e9620002d6565b5b600084015167ffffffffffffffff8111156200050b576200050a620002db565b5b620005198682870162000436565b935050602084015167ffffffffffffffff8111156200053d576200053c620002db565b5b6200054b8682870162000436565b92505060406200055e86828701620004b7565b9150509250925092565b600081519050919050565b7f4e487b7100000000000000000000000000000000000000000000000000000000600052602260045260246000fd5b60006002820490506001821680620005bb57607f821691505b602082108103620005d157620005d062000573565b5b50919050565b60008190508160005260206000209050919050565b60006020601f8301049050919050565b600082821b905092915050565b6000600883026200063b7fffffffffffffffffffffffffffffffffffffffffffffffffffffffffffffffff82620005fc565b620006478683620005fc565b95508019841693508086168417925050509392505050565b6000819050919050565b6000819050919050565b6000620006946200068e62000688846200065f565b62000669565b6200065f565b9050919050565b6000819050919050565b620006b08362000673565b620006c8620006bf826200069b565b84845462000609565b825550505050565b600090565b620006df620006d0565b620006ec818484620006a5565b505050565b5b81811015620007145762000708600082620006d5565b600181019050620006f2565b5050565b601f82111562000763576200072d81620005d7565b6200073884620005ec565b8101602085101562000748578190505b620007606200075785620005ec565b830182620006f1565b50505b505050565b600082821c905092915050565b6000620007886000198460080262000768565b1980831691505092915050565b6000620007a3838362000775565b9150826002028217905092915050565b620007be8262000568565b67ffffffffffffffff811115620007da57620007d9620002fb565b5b620007e68254620005a2565b620007f382828562000718565b600060209050601f8311600181146200082b576000841562000816578287015190505b62000822858262000795565b86555062000892565b601f1984166200083b86620005d7565b60005b8281101562000865578489015182556001820191506020850194506020810190506200083e565b8683101562000885578489015162000881601f89168262000775565b8355505b6001600288020188555050505b505050505050565b613cae80620008aa6000396000f3fe608060405234801561001057600080fd5b506004361061014d5760003560e01c806354f6127f116100c35780638da5cb5b1161007c5780638da5cb5b146103d4578063a3b261f2146103f2578063abe48cc914610422578063cf5182ba14610452578063d48e638a1461046e578063f2fde38b1461049e5761014d565b806354f6127f1461031657806355908868146103465780636b3f13ce1461036257806370a082311461037e578063715018a6146103ae5780637f23690c146103b85761014d565b8063217b227011610115578063217b22701461020a5780632a3654a41461023a57806340731c241461026a57806349a6078d1461029a5780634e3e6e9c146102ca578063511b6952146102fa5761014d565b806301ffc9a7146101525780630b0c6d821461018257806314a6e2931461019e57806316ebbe04146101ba57806318160ddd146101ec575b600080fd5b61016c6004803603810190610167919061234e565b6104ba565b6040516101799190612396565b60405180910390f35b61019c60048036038101906101979190612445565b61051b565b005b6101b860048036038101906101b39190612774565b61065a565b005b6101d460048036038101906101cf9190612822565b610705565b6040516101e3939291906128f5565b60405180910390f35b6101f46107d7565b6040516102019190612933565b60405180910390f35b610224600480360381019061021f919061294e565b6107e1565b604051610231919061297b565b60405180910390f35b610254600480360381019061024f9190612445565b610894565b6040516102619190612396565b60405180910390f35b610284600480360381019061027f9190612822565b6108b1565b6040516102919190612996565b60405180910390f35b6102b460048036038101906102af919061294e565b610959565b6040516102c19190612a76565b60405180910390f35b6102e460048036038101906102df9190612a98565b610986565b6040516102f19190612bf8565b60405180910390f35b610314600480360381019061030f9190612c46565b610a3c565b005b610330600480360381019061032b919061294e565b610aaa565b60405161033d9190612d27565b60405180910390f35b610360600480360381019061035b9190612e0c565b610abc565b005b61037c60048036038101906103779190612f98565b610baf565b005b61039860048036038101906103939190612ff4565b610ce4565b6040516103a59190612933565b60405180910390f35b6103b6610d34565b005b6103d260048036038101906103cd9190613021565b610d48565b005b6103dc610d5e565b6040516103e9919061297b565b60405180910390f35b61040c60048036038101906104079190612ff4565b610d87565b604051610419919061313b565b60405180910390f35b61043c60048036038101906104379190612822565b610dd7565b6040516104499190612933565b60405180910390f35b61046c60048036038101906104679190612445565b610dfb565b005b61048860048036038101906104839190612822565b610fb0565b604051610495919061297b565b60405180910390f35b6104b860048036038101906104b39190612ff4565b610ff0565b005b6000634939914560e01b7bffffffffffffffffffffffffffffffffffffffffffffffffffffffff1916827bffffffffffffffffffffffffffffffffffffffffffffffffffffffff191614806105145750610513826111c4565b5b9050919050565b6000610526826107e1565b90506000610532611225565b90508073ffffffffffffffffffffffffffffffffffffffff168273ffffffffffffffffffffffffffffffffffffffff16146105a8578183826040517f5b271ea200000000000000000000000000000000000000000000000000000000815260040161059f9392919061316c565b60405180910390fd5b600073ffffffffffffffffffffffffffffffffffffffff168473ffffffffffffffffffffffffffffffffffffffff160361060e576040517f9577b8b300000000000000000000000000000000000000000000000000000000815260040160405180910390fd5b8373ffffffffffffffffffffffffffffffffffffffff168273ffffffffffffffffffffffffffffffffffffffff1603610648575050610656565b61065384838561122d565b50505b5050565b6106626112b3565b80518251146106a6576040517f08c379a000000000000000000000000000000000000000000000000000000000815260040161069d90613215565b60405180910390fd5b60005b8251811015610700576106f08382815181106106c8576106c7613235565b5b60200260200101518383815181106106e3576106e2613235565b5b602002602001015161132a565b6106f9816113f0565b90506106a9565b505050565b600b60205280600052604060002060009150905080600001805461072890613293565b80601f016020809104026020016040519081016040528092919081815260200182805461075490613293565b80156107a15780601f10610776576101008083540402835291602001916107a1565b820191906000526020600020905b81548152906001019060200180831161078457829003601f168201915b5050505050908060010160009054906101000a900473ffffffffffffffffffffffffffffffffffffffff16908060020154905083565b6000600254905090565b6000806003600084815260200190815260200160002060009054906101000a900473ffffffffffffffffffffffffffffffffffffffff169050600073ffffffffffffffffffffffffffffffffffffffff168173ffffffffffffffffffffffffffffffffffffffff160361088b57826040517fae8f9a3600000000000000000000000000000000000000000000000000000000815260040161088291906132c4565b60405180910390fd5b80915050919050565b600061089f826113fd565b6108a9838361144a565b905092915050565b6060600b600083815260200190815260200160002060000180546108d490613293565b80601f016020809104026020016040519081016040528092919081815260200182805461090090613293565b801561094d5780601f106109225761010080835404028352916020019161094d565b820191906000526020600020905b81548152906001019060200180831161093057829003601f168201915b50505050509050919050565b6060610964826113fd565b61097f600560008481526020019081526020016000206114bc565b9050919050565b6060815167ffffffffffffffff8111156109a3576109a261249b565b5b6040519080825280602002602001820160405280156109d657816020015b60608152602001906001900390816109c15790505b50905060005b8251811015610a3657610a088382815181106109fb576109fa613235565b5b60200260200101516114dd565b828281518110610a1b57610a1a613235565b5b6020026020010181905250610a2f816113f0565b90506109dc565b50919050565b6000610a46611225565b9050610a52818561144a565b610a955783816040517f1294d2a9000000000000000000000000000000000000000000000000000000008152600401610a8c9291906132df565b60405180910390fd5b610aa28686868686611582565b505050505050565b6060610ab5826114dd565b9050919050565b83518551141580610acf57508251855114155b80610adc57508051855114155b15610b13576040517f93a8311900000000000000000000000000000000000000000000000000000000815260040160405180910390fd5b60005b8551811015610ba757610b94868281518110610b3557610b34613235565b5b6020026020010151868381518110610b5057610b4f613235565b5b6020026020010151868481518110610b6b57610b6a613235565b5b602002602001015186868681518110610b8757610b86613235565b5b6020026020010151610a3c565b8080610b9f90613337565b915050610b16565b505050505050565b8160066000019081610bc1919061352b565b5033600660010160006101000a81548173ffffffffffffffffffffffffffffffffffffffff021916908373ffffffffffffffffffffffffffffffffffffffff160217905550600960008154610c1590613337565b9190508190556006600201819055506006600b6000600954815260200190815260200160002060008201816000019081610c4f9190613613565b506001820160009054906101000a900473ffffffffffffffffffffffffffffffffffffffff168160010160006101000a81548173ffffffffffffffffffffffffffffffffffffffff021916908373ffffffffffffffffffffffffffffffffffffffff16021790555060028201548160020155905050610ce0338260016040518060200160405280600081525061180c565b5050565b6000610d2d600460008473ffffffffffffffffffffffffffffffffffffffff1673ffffffffffffffffffffffffffffffffffffffff1681526020019081526020016000206119f9565b9050919050565b610d3c6112b3565b610d466000611073565b565b610d506112b3565b610d5a828261132a565b5050565b60008060009054906101000a900473ffffffffffffffffffffffffffffffffffffffff16905090565b6060610dd0600460008473ffffffffffffffffffffffffffffffffffffffff1673ffffffffffffffffffffffffffffffffffffffff168152602001908152602001600020611a0e565b9050919050565b600a8181548110610de757600080fd5b906000526020600020016000915090505481565b6000610e06826107e1565b90506000610e12611225565b90508073ffffffffffffffffffffffffffffffffffffffff168273ffffffffffffffffffffffffffffffffffffffff1614610e88578183826040517f5b271ea2000000000000000000000000000000000000000000000000000000008152600401610e7f9392919061316c565b60405180910390fd5b600073ffffffffffffffffffffffffffffffffffffffff168473ffffffffffffffffffffffffffffffffffffffff1603610eee576040517f9577b8b300000000000000000000000000000000000000000000000000000000815260040160405180910390fd5b8373ffffffffffffffffffffffffffffffffffffffff168273ffffffffffffffffffffffffffffffffffffffff1603610f28575050610fac565b610f4d8460056000868152602001908152602001600020611a2390919063ffffffff16565b50828273ffffffffffffffffffffffffffffffffffffffff168573ffffffffffffffffffffffffffffffffffffffff167f34b797fc5a526f7bf1d2b5de25f6564fd85ae364e3ee939aee7c1ac27871a98860405160405180910390a450505b5050565b6000600b600083815260200190815260200160002060010160009054906101000a900473ffffffffffffffffffffffffffffffffffffffff169050919050565b610ff86112b3565b600073ffffffffffffffffffffffffffffffffffffffff168173ffffffffffffffffffffffffffffffffffffffff1603611067576040517f08c379a000000000000000000000000000000000000000000000000000000000815260040161105e9061376d565b60405180910390fd5b61107081611073565b50565b61107b610d5e565b73ffffffffffffffffffffffffffffffffffffffff168173ffffffffffffffffffffffffffffffffffffffff161461116f5760008060009054906101000a900473ffffffffffffffffffffffffffffffffffffffff169050816000806101000a81548173ffffffffffffffffffffffffffffffffffffffff021916908373ffffffffffffffffffffffffffffffffffffffff1602179055508173ffffffffffffffffffffffffffffffffffffffff168173ffffffffffffffffffffffffffffffffffffffff167f8be0079c531659141344cd1fd0a4f28419497f9722a3daafe3b4186f6b6457e060405160405180910390a3505b50565b8060016000848152602001908152602001600020908161119291906137e8565b50817fcdf4e344c0d23d4cdd0474039d176c55b19d531070dbe17856bfb993a5b5720b60405160405180910390a25050565b600063714df77c60e01b7bffffffffffffffffffffffffffffffffffffffffffffffffffffffff1916827bffffffffffffffffffffffffffffffffffffffffffffffffffffffff1916148061121e575061121d82611a53565b5b9050919050565b600033905090565b6112528360056000848152602001908152602001600020611abd90919063ffffffff16565b50808273ffffffffffffffffffffffffffffffffffffffff168473ffffffffffffffffffffffffffffffffffffffff167f17d5389f6ab6adb2647dfa0aa365c323d37adacc30b33a65310b6158ce1373d560405160405180910390a4505050565b3373ffffffffffffffffffffffffffffffffffffffff166112d2610d5e565b73ffffffffffffffffffffffffffffffffffffffff1614611328576040517f08c379a000000000000000000000000000000000000000000000000000000000815260040161131f90613906565b60405180910390fd5b565b7fdeba1e292f8ba88238e10ab3c7f88bd4be4fac56cad5194b6ecceaf653468af160001b8203611386576040517f85c169bd00000000000000000000000000000000000000000000000000000000815260040160405180910390fd5b7f2f0a68ab07768e01943a599e73362a0e17a63a72e94dd2e384d2c1d4db93275660001b82036113e2576040517f76755b3800000000000000000000000000000000000000000000000000000000815260040160405180910390fd5b6113ec8282611172565b5050565b6000600182019050919050565b61140681611aed565b61144757806040517fae8f9a3600000000000000000000000000000000000000000000000000000000815260040161143e91906132c4565b60405180910390fd5b50565b600080611456836107e1565b90508073ffffffffffffffffffffffffffffffffffffffff168473ffffffffffffffffffffffffffffffffffffffff1614806114b357506114b28460056000868152602001908152602001600020611b5990919063ffffffff16565b5b91505092915050565b606060006114cc83600001611b89565b905060608190508092505050919050565b60606001600083815260200190815260200160002080546114fd90613293565b80601f016020809104026020016040519081016040528092919081815260200182805461152990613293565b80156115765780601f1061154b57610100808354040283529160200191611576565b820191906000526020600020905b81548152906001019060200180831161155957829003601f168201915b50505050509050919050565b600061158d846107e1565b90508573ffffffffffffffffffffffffffffffffffffffff168173ffffffffffffffffffffffffffffffffffffffff1614611603578084876040517f5b271ea20000000000000000000000000000000000000000000000000000000081526004016115fa9392919061316c565b60405180910390fd5b600073ffffffffffffffffffffffffffffffffffffffff168573ffffffffffffffffffffffffffffffffffffffff1603611669576040517f24ecef4d00000000000000000000000000000000000000000000000000000000815260040160405180910390fd5b6000611673611225565b9050611680878787611be5565b61168a8786611c88565b6116db85600460008a73ffffffffffffffffffffffffffffffffffffffff1673ffffffffffffffffffffffffffffffffffffffff168152602001908152602001600020611cf590919063ffffffff16565b5061172d85600460008973ffffffffffffffffffffffffffffffffffffffff1673ffffffffffffffffffffffffffffffffffffffff168152602001908152602001600020611d0c90919063ffffffff16565b50856003600087815260200190815260200160002060006101000a81548173ffffffffffffffffffffffffffffffffffffffff021916908373ffffffffffffffffffffffffffffffffffffffff160217905550848673ffffffffffffffffffffffffffffffffffffffff168873ffffffffffffffffffffffffffffffffffffffff167fb333c813a7426a7a11e2b190cad52c44119421594b47f6f32ace6d8c7207b2bf8488886040516117e293929190613926565b60405180910390a46117f687878786611d23565b6118038787878787611e12565b50505050505050565b600073ffffffffffffffffffffffffffffffffffffffff168473ffffffffffffffffffffffffffffffffffffffff1603611872576040517f24ecef4d00000000000000000000000000000000000000000000000000000000815260040160405180910390fd5b61187b83611aed565b156118bd57826040517f34c7b5110000000000000000000000000000000000000000000000000000000081526004016118b491906132c4565b60405180910390fd5b60006118c7611225565b90506118d560008686611be5565b61192684600460008873ffffffffffffffffffffffffffffffffffffffff1673ffffffffffffffffffffffffffffffffffffffff168152602001908152602001600020611d0c90919063ffffffff16565b50846003600086815260200190815260200160002060006101000a81548173ffffffffffffffffffffffffffffffffffffffff021916908373ffffffffffffffffffffffffffffffffffffffff160217905550838573ffffffffffffffffffffffffffffffffffffffff16600073ffffffffffffffffffffffffffffffffffffffff167fb333c813a7426a7a11e2b190cad52c44119421594b47f6f32ace6d8c7207b2bf8487876040516119dc93929190613926565b60405180910390a46119f2600086868686611e12565b5050505050565b6000611a0782600001611fa5565b9050919050565b6060611a1c82600001611b89565b9050919050565b6000611a4b836000018373ffffffffffffffffffffffffffffffffffffffff1660001b611fb6565b905092915050565b60007f01ffc9a7000000000000000000000000000000000000000000000000000000007bffffffffffffffffffffffffffffffffffffffffffffffffffffffff1916827bffffffffffffffffffffffffffffffffffffffffffffffffffffffff1916149050919050565b6000611ae5836000018373ffffffffffffffffffffffffffffffffffffffff1660001b612026565b905092915050565b60008073ffffffffffffffffffffffffffffffffffffffff166003600084815260200190815260200160002060009054906101000a900473ffffffffffffffffffffffffffffffffffffffff1673ffffffffffffffffffffffffffffffffffffffff1614159050919050565b6000611b81836000018373ffffffffffffffffffffffffffffffffffffffff1660001b61213a565b905092915050565b606081600001805480602002602001604051908101604052809291908181526020018280548015611bd957602002820191906000526020600020905b815481526020019060010190808311611bc5575b50505050509050919050565b600073ffffffffffffffffffffffffffffffffffffffff168373ffffffffffffffffffffffffffffffffffffffff1603611c3457600160026000828254611c2c9190613964565b925050819055505b600073ffffffffffffffffffffffffffffffffffffffff168273ffffffffffffffffffffffffffffffffffffffff1603611c8357600160026000828254611c7b91906139ba565b925050819055505b505050565b60006005600083815260200190815260200160002090506000611caa8261215d565b905060005b81811015611cee576000611ccd60008561217290919063ffffffff16565b9050611cda81878761122d565b508080611ce690613337565b915050611caf565b5050505050565b6000611d048360000183612026565b905092915050565b6000611d1b8360000183611fb6565b905092915050565b611d3484636bb56a1460e01b61218c565b15611e0c57600084848484604051602001611d529493929190613a93565b60405160208183030381529060405290508473ffffffffffffffffffffffffffffffffffffffff16636bb56a147f3724c94f0815e936299cca424da4140752198e0beb7931a6e0925d11bc97544c60001b836040518363ffffffff1660e01b8152600401611dc1929190613add565b6000604051808303816000875af1158015611de0573d6000803e3d6000fd5b505050506040513d6000823e3d601f19601f82011682018060405250810190611e099190613b7d565b50505b50505050565b611e2384636bb56a1460e01b61218c565b15611eff57600085858584604051602001611e419493929190613a93565b60405160208183030381529060405290508473ffffffffffffffffffffffffffffffffffffffff16636bb56a147fc7a120a42b6057a0cbed111fbbfbd52fcd96748c04394f77fc2c3adbe0391e0160001b836040518363ffffffff1660e01b8152600401611eb0929190613add565b6000604051808303816000875af1158015611ecf573d6000803e3d6000fd5b505050506040513d6000823e3d601f19601f82011682018060405250810190611ef89190613b7d565b5050611f9e565b81611f9d5760008473ffffffffffffffffffffffffffffffffffffffff163b14611f6057836040517f4349776d000000000000000000000000000000000000000000000000000000008152600401611f57919061297b565b60405180910390fd5b836040517f03173137000000000000000000000000000000000000000000000000000000008152600401611f94919061297b565b60405180910390fd5b5b5050505050565b600081600001805490509050919050565b6000611fc2838361213a565b61201b578260000182908060018154018082558091505060019003906000526020600020016000909190919091505582600001805490508360010160008481526020019081526020016000208190555060019050612020565b600090505b92915050565b6000808360010160008481526020019081526020016000205490506000811461212e57600060018261205891906139ba565b905060006001866000018054905061207091906139ba565b90508181146120df57600086600001828154811061209157612090613235565b5b90600052602060002001549050808760000184815481106120b5576120b4613235565b5b90600052602060002001819055508387600101600083815260200190815260200160002081905550505b856000018054806120f3576120f2613bc6565b5b600190038181906000526020600020016000905590558560010160008681526020019081526020016000206000905560019350505050612134565b60009150505b92915050565b600080836001016000848152602001908152602001600020541415905092915050565b600061216b82600001611fa5565b9050919050565b600061218183600001836122b7565b60001c905092915050565b6000806301ffc9a760e01b836040516024016121a89190613c04565b604051602081830303815290604052907bffffffffffffffffffffffffffffffffffffffffffffffffffffffff19166020820180517bffffffffffffffffffffffffffffffffffffffffffffffffffffffff838183161783525050505090506000808573ffffffffffffffffffffffffffffffffffffffff16617530846040516122329190613c1f565b6000604051808303818686fa925050503d806000811461226e576040519150601f19603f3d011682016040523d82523d6000602084013e612273565b606091505b509150915060208151101561228e57600093505050506122b1565b8180156122ab5750808060200190518101906122aa9190613c4b565b5b93505050505b92915050565b60008260000182815481106122cf576122ce613235565b5b9060005260206000200154905092915050565b6000604051905090565b600080fd5b600080fd5b60007fffffffff0000000000000000000000000000000000000000000000000000000082169050919050565b61232b816122f6565b811461233657600080fd5b50565b60008135905061234881612322565b92915050565b600060208284031215612364576123636122ec565b5b600061237284828501612339565b91505092915050565b60008115159050919050565b6123908161237b565b82525050565b60006020820190506123ab6000830184612387565b92915050565b600073ffffffffffffffffffffffffffffffffffffffff82169050919050565b60006123dc826123b1565b9050919050565b6123ec816123d1565b81146123f757600080fd5b50565b600081359050612409816123e3565b92915050565b6000819050919050565b6124228161240f565b811461242d57600080fd5b50565b60008135905061243f81612419565b92915050565b6000806040838503121561245c5761245b6122ec565b5b600061246a858286016123fa565b925050602061247b85828601612430565b9150509250929050565b600080fd5b6000601f19601f8301169050919050565b7f4e487b7100000000000000000000000000000000000000000000000000000000600052604160045260246000fd5b6124d38261248a565b810181811067ffffffffffffffff821117156124f2576124f161249b565b5b80604052505050565b60006125056122e2565b905061251182826124ca565b919050565b600067ffffffffffffffff8211156125315761253061249b565b5b602082029050602081019050919050565b600080fd5b600061255a61255584612516565b6124fb565b9050808382526020820190506020840283018581111561257d5761257c612542565b5b835b818110156125a657806125928882612430565b84526020840193505060208101905061257f565b5050509392505050565b600082601f8301126125c5576125c4612485565b5b81356125d5848260208601612547565b91505092915050565b600067ffffffffffffffff8211156125f9576125f861249b565b5b602082029050602081019050919050565b600080fd5b600067ffffffffffffffff82111561262a5761262961249b565b5b6126338261248a565b9050602081019050919050565b82818337600083830152505050565b600061266261265d8461260f565b6124fb565b90508281526020810184848401111561267e5761267d61260a565b5b612689848285612640565b509392505050565b600082601f8301126126a6576126a5612485565b5b81356126b684826020860161264f565b91505092915050565b60006126d26126cd846125de565b6124fb565b905080838252602082019050602084028301858111156126f5576126f4612542565b5b835b8181101561273c57803567ffffffffffffffff81111561271a57612719612485565b5b8086016127278982612691565b855260208501945050506020810190506126f7565b5050509392505050565b600082601f83011261275b5761275a612485565b5b813561276b8482602086016126bf565b91505092915050565b6000806040838503121561278b5761278a6122ec565b5b600083013567ffffffffffffffff8111156127a9576127a86122f1565b5b6127b5858286016125b0565b925050602083013567ffffffffffffffff8111156127d6576127d56122f1565b5b6127e285828601612746565b9150509250929050565b6000819050919050565b6127ff816127ec565b811461280a57600080fd5b50565b60008135905061281c816127f6565b92915050565b600060208284031215612838576128376122ec565b5b60006128468482850161280d565b91505092915050565b600081519050919050565b600082825260208201905092915050565b60005b8381101561288957808201518184015260208101905061286e565b83811115612898576000848401525b50505050565b60006128a98261284f565b6128b3818561285a565b93506128c381856020860161286b565b6128cc8161248a565b840191505092915050565b6128e0816123d1565b82525050565b6128ef816127ec565b82525050565b6000606082019050818103600083015261290f818661289e565b905061291e60208301856128d7565b61292b60408301846128e6565b949350505050565b600060208201905061294860008301846128e6565b92915050565b600060208284031215612964576129636122ec565b5b600061297284828501612430565b91505092915050565b600060208201905061299060008301846128d7565b92915050565b600060208201905081810360008301526129b0818461289e565b905092915050565b600081519050919050565b600082825260208201905092915050565b6000819050602082019050919050565b6129ed816123d1565b82525050565b60006129ff83836129e4565b60208301905092915050565b6000602082019050919050565b6000612a23826129b8565b612a2d81856129c3565b9350612a38836129d4565b8060005b83811015612a69578151612a5088826129f3565b9750612a5b83612a0b565b925050600181019050612a3c565b5085935050505092915050565b60006020820190508181036000830152612a908184612a18565b905092915050565b600060208284031215612aae57612aad6122ec565b5b600082013567ffffffffffffffff811115612acc57612acb6122f1565b5b612ad8848285016125b0565b91505092915050565b600081519050919050565b600082825260208201905092915050565b6000819050602082019050919050565b600081519050919050565b600082825260208201905092915050565b6000612b3482612b0d565b612b3e8185612b18565b9350612b4e81856020860161286b565b612b578161248a565b840191505092915050565b6000612b6e8383612b29565b905092915050565b6000602082019050919050565b6000612b8e82612ae1565b612b988185612aec565b935083602082028501612baa85612afd565b8060005b85811015612be65784840389528151612bc78582612b62565b9450612bd283612b76565b925060208a01995050600181019050612bae565b50829750879550505050505092915050565b60006020820190508181036000830152612c128184612b83565b905092915050565b612c238161237b565b8114612c2e57600080fd5b50565b600081359050612c4081612c1a565b92915050565b600080600080600060a08688031215612c6257612c616122ec565b5b6000612c70888289016123fa565b9550506020612c81888289016123fa565b9450506040612c9288828901612430565b9350506060612ca388828901612c31565b925050608086013567ffffffffffffffff811115612cc457612cc36122f1565b5b612cd088828901612691565b9150509295509295909350565b600082825260208201905092915050565b6000612cf982612b0d565b612d038185612cdd565b9350612d1381856020860161286b565b612d1c8161248a565b840191505092915050565b60006020820190508181036000830152612d418184612cee565b905092915050565b600067ffffffffffffffff821115612d6457612d6361249b565b5b602082029050602081019050919050565b6000612d88612d8384612d49565b6124fb565b90508083825260208201905060208402830185811115612dab57612daa612542565b5b835b81811015612dd45780612dc088826123fa565b845260208401935050602081019050612dad565b5050509392505050565b600082601f830112612df357612df2612485565b5b8135612e03848260208601612d75565b91505092915050565b600080600080600060a08688031215612e2857612e276122ec565b5b600086013567ffffffffffffffff811115612e4657612e456122f1565b5b612e5288828901612dde565b955050602086013567ffffffffffffffff811115612e7357612e726122f1565b5b612e7f88828901612dde565b945050604086013567ffffffffffffffff811115612ea057612e9f6122f1565b5b612eac888289016125b0565b9350506060612ebd88828901612c31565b925050608086013567ffffffffffffffff811115612ede57612edd6122f1565b5b612eea88828901612746565b9150509295509295909350565b600067ffffffffffffffff821115612f1257612f1161249b565b5b612f1b8261248a565b9050602081019050919050565b6000612f3b612f3684612ef7565b6124fb565b905082815260208101848484011115612f5757612f5661260a565b5b612f62848285612640565b509392505050565b600082601f830112612f7f57612f7e612485565b5b8135612f8f848260208601612f28565b91505092915050565b60008060408385031215612faf57612fae6122ec565b5b600083013567ffffffffffffffff811115612fcd57612fcc6122f1565b5b612fd985828601612f6a565b9250506020612fea85828601612430565b9150509250929050565b60006020828403121561300a576130096122ec565b5b6000613018848285016123fa565b91505092915050565b60008060408385031215613038576130376122ec565b5b600061304685828601612430565b925050602083013567ffffffffffffffff811115613067576130666122f1565b5b61307385828601612691565b9150509250929050565b600081519050919050565b600082825260208201905092915050565b6000819050602082019050919050565b6130b28161240f565b82525050565b60006130c483836130a9565b60208301905092915050565b6000602082019050919050565b60006130e88261307d565b6130f28185613088565b93506130fd83613099565b8060005b8381101561312e57815161311588826130b8565b9750613120836130d0565b925050600181019050613101565b5085935050505092915050565b6000602082019050818103600083015261315581846130dd565b905092915050565b6131668161240f565b82525050565b600060608201905061318160008301866128d7565b61318e602083018561315d565b61319b60408301846128d7565b949350505050565b7f4b657973206c656e677468206e6f7420657175616c20746f2076616c7565732060008201527f6c656e6774680000000000000000000000000000000000000000000000000000602082015250565b60006131ff60268361285a565b915061320a826131a3565b604082019050919050565b6000602082019050818103600083015261322e816131f2565b9050919050565b7f4e487b7100000000000000000000000000000000000000000000000000000000600052603260045260246000fd5b7f4e487b7100000000000000000000000000000000000000000000000000000000600052602260045260246000fd5b600060028204905060018216806132ab57607f821691505b6020821081036132be576132bd613264565b5b50919050565b60006020820190506132d9600083018461315d565b92915050565b60006040820190506132f4600083018561315d565b61330160208301846128d7565b9392505050565b7f4e487b7100000000000000000000000000000000000000000000000000000000600052601160045260246000fd5b6000613342826127ec565b91507fffffffffffffffffffffffffffffffffffffffffffffffffffffffffffffffff820361337457613373613308565b5b600182019050919050565b60008190508160005260206000209050919050565b60006020601f8301049050919050565b600082821b905092915050565b6000600883026133e17fffffffffffffffffffffffffffffffffffffffffffffffffffffffffffffffff826133a4565b6133eb86836133a4565b95508019841693508086168417925050509392505050565b6000819050919050565b600061342861342361341e846127ec565b613403565b6127ec565b9050919050565b6000819050919050565b6134428361340d565b61345661344e8261342f565b8484546133b1565b825550505050565b600090565b61346b61345e565b613476818484613439565b505050565b5b8181101561349a5761348f600082613463565b60018101905061347c565b5050565b601f8211156134df576134b08161337f565b6134b984613394565b810160208510156134c8578190505b6134dc6134d485613394565b83018261347b565b50505b505050565b600082821c905092915050565b6000613502600019846008026134e4565b1980831691505092915050565b600061351b83836134f1565b9150826002028217905092915050565b6135348261284f565b67ffffffffffffffff81111561354d5761354c61249b565b5b6135578254613293565b61356282828561349e565b600060209050601f8311600181146135955760008415613583578287015190505b61358d858261350f565b8655506135f5565b601f1984166135a38661337f565b60005b828110156135cb578489015182556001820191506020850194506020810190506135a6565b868310156135e857848901516135e4601f8916826134f1565b8355505b6001600288020188555050505b505050505050565b60008154905061360c81613293565b9050919050565b8181036136215750506136f9565b61362a826135fd565b67ffffffffffffffff8111156136435761364261249b565b5b61364d8254613293565b61365882828561349e565b6000601f8311600181146136875760008415613675578287015490505b61367f858261350f565b8655506136f2565b601f1984166136958761337f565b96506136a08661337f565b60005b828110156136c8578489015482556001820191506001850194506020810190506136a3565b868310156136e557848901546136e1601f8916826134f1565b8355505b6001600288020188555050505b5050505050505b565b7f4f776e61626c653a206e6577206f776e657220697320746865207a65726f206160008201527f6464726573730000000000000000000000000000000000000000000000000000602082015250565b600061375760268361285a565b9150613762826136fb565b604082019050919050565b600060208201905081810360008301526137868161374a565b9050919050565b60008190508160005260206000209050919050565b601f8211156137e3576137b48161378d565b6137bd84613394565b810160208510156137cc578190505b6137e06137d885613394565b83018261347b565b50505b505050565b6137f182612b0d565b67ffffffffffffffff81111561380a5761380961249b565b5b6138148254613293565b61381f8282856137a2565b600060209050601f8311600181146138525760008415613840578287015190505b61384a858261350f565b8655506138b2565b601f1984166138608661378d565b60005b8281101561388857848901518255600182019150602085019450602081019050613863565b868310156138a557848901516138a1601f8916826134f1565b8355505b6001600288020188555050505b505050505050565b7f4f776e61626c653a2063616c6c6572206973206e6f7420746865206f776e6572600082015250565b60006138f060208361285a565b91506138fb826138ba565b602082019050919050565b6000602082019050818103600083015261391f816138e3565b9050919050565b600060608201905061393b60008301866128d7565b6139486020830185612387565b818103604083015261395a8184612cee565b9050949350505050565b600061396f826127ec565b915061397a836127ec565b9250827fffffffffffffffffffffffffffffffffffffffffffffffffffffffffffffffff038211156139af576139ae613308565b5b828201905092915050565b60006139c5826127ec565b91506139d0836127ec565b9250828210156139e3576139e2613308565b5b828203905092915050565b60008160601b9050919050565b6000613a06826139ee565b9050919050565b6000613a18826139fb565b9050919050565b613a30613a2b826123d1565b613a0d565b82525050565b6000819050919050565b613a51613a4c8261240f565b613a36565b82525050565b600081905092915050565b6000613a6d82612b0d565b613a778185613a57565b9350613a8781856020860161286b565b80840191505092915050565b6000613a9f8287613a1f565b601482019150613aaf8286613a1f565b601482019150613abf8285613a40565b602082019150613acf8284613a62565b915081905095945050505050565b6000604082019050613af2600083018561315d565b8181036020830152613b048184612cee565b90509392505050565b6000613b20613b1b8461260f565b6124fb565b905082815260208101848484011115613b3c57613b3b61260a565b5b613b4784828561286b565b509392505050565b600082601f830112613b6457613b63612485565b5b8151613b74848260208601613b0d565b91505092915050565b600060208284031215613b9357613b926122ec565b5b600082015167ffffffffffffffff811115613bb157613bb06122f1565b5b613bbd84828501613b4f565b91505092915050565b7f4e487b7100000000000000000000000000000000000000000000000000000000600052603160045260246000fd5b613bfe816122f6565b82525050565b6000602082019050613c196000830184613bf5565b92915050565b6000613c2b8284613a62565b915081905092915050565b600081519050613c4581612c1a565b92915050565b600060208284031215613c6157613c606122ec565b5b6000613c6f84828501613c36565b9150509291505056fea264697066735822122067b379e19ed2b82cec458004b7e44d58d710be92db1b6952c7d4d4319dcd6e0b64736f6c634300080f0033",
  "linkReferences": {},
  "deployedLinkReferences": {}
}