{
  "_format": "hh-sol-artifact-1",
  "contractName": "LSP8PinSave",
  "sourceName": "contracts/LSP8PinSave.sol",
  "abi": [
    {
      "inputs": [
        {
          "internalType": "string",
          "name": "name_",
          "type": "string"
        },
        {
          "internalType": "string",
          "name": "symbol_",
          "type": "string"
        },
        {
          "internalType": "address",
          "name": "newOwner_",
          "type": "address"
        }
      ],
      "stateMutability": "nonpayable",
      "type": "constructor"
    },
    {
      "inputs": [],
      "name": "LSP4TokenNameNotEditable",
      "type": "error"
    },
    {
      "inputs": [],
      "name": "LSP4TokenSymbolNotEditable",
      "type": "error"
    },
    {
      "inputs": [],
      "name": "LSP8CannotSendToAddressZero",
      "type": "error"
    },
    {
      "inputs": [],
      "name": "LSP8CannotSendToSelf",
      "type": "error"
    },
    {
      "inputs": [],
      "name": "LSP8CannotUseAddressZeroAsOperator",
      "type": "error"
    },
    {
      "inputs": [],
      "name": "LSP8InvalidTransferBatch",
      "type": "error"
    },
    {
      "inputs": [
        {
          "internalType": "bytes32",
          "name": "tokenId",
          "type": "bytes32"
        }
      ],
      "name": "LSP8NonExistentTokenId",
      "type": "error"
    },
    {
      "inputs": [
        {
          "internalType": "address",
          "name": "_address",
          "type": "address"
        },
        {
          "internalType": "bytes32",
          "name": "tokenId",
          "type": "bytes32"
        }
      ],
      "name": "LSP8NonExistingOperator",
      "type": "error"
    },
    {
      "inputs": [
        {
          "internalType": "bytes32",
          "name": "tokenId",
          "type": "bytes32"
        },
        {
          "internalType": "address",
          "name": "caller",
          "type": "address"
        }
      ],
      "name": "LSP8NotTokenOperator",
      "type": "error"
    },
    {
      "inputs": [
        {
          "internalType": "address",
          "name": "tokenOwner",
          "type": "address"
        },
        {
          "internalType": "bytes32",
          "name": "tokenId",
          "type": "bytes32"
        },
        {
          "internalType": "address",
          "name": "caller",
          "type": "address"
        }
      ],
      "name": "LSP8NotTokenOwner",
      "type": "error"
    },
    {
      "inputs": [
        {
          "internalType": "address",
          "name": "tokenReceiver",
          "type": "address"
        }
      ],
      "name": "LSP8NotifyTokenReceiverContractMissingLSP1Interface",
      "type": "error"
    },
    {
      "inputs": [
        {
          "internalType": "address",
          "name": "tokenReceiver",
          "type": "address"
        }
      ],
      "name": "LSP8NotifyTokenReceiverIsEOA",
      "type": "error"
    },
    {
      "inputs": [
        {
          "internalType": "address",
          "name": "operator",
          "type": "address"
        },
        {
          "internalType": "bytes32",
          "name": "tokenId",
          "type": "bytes32"
        }
      ],
      "name": "LSP8OperatorAlreadyAuthorized",
      "type": "error"
    },
    {
      "inputs": [
        {
          "internalType": "bytes32",
          "name": "tokenId",
          "type": "bytes32"
        }
      ],
      "name": "LSP8TokenIdAlreadyMinted",
      "type": "error"
    },
    {
      "anonymous": false,
      "inputs": [
        {
          "indexed": true,
          "internalType": "address",
          "name": "operator",
          "type": "address"
        },
        {
          "indexed": true,
          "internalType": "address",
          "name": "tokenOwner",
          "type": "address"
        },
        {
          "indexed": true,
          "internalType": "bytes32",
          "name": "tokenId",
          "type": "bytes32"
        }
      ],
      "name": "AuthorizedOperator",
      "type": "event"
    },
    {
      "anonymous": false,
      "inputs": [
        {
          "indexed": true,
          "internalType": "bytes32",
          "name": "dataKey",
          "type": "bytes32"
        },
        {
          "indexed": false,
          "internalType": "bytes",
          "name": "dataValue",
          "type": "bytes"
        }
      ],
      "name": "DataChanged",
      "type": "event"
    },
    {
      "anonymous": false,
      "inputs": [
        {
          "indexed": true,
          "internalType": "address",
          "name": "previousOwner",
          "type": "address"
        },
        {
          "indexed": true,
          "internalType": "address",
          "name": "newOwner",
          "type": "address"
        }
      ],
      "name": "OwnershipTransferred",
      "type": "event"
    },
    {
      "anonymous": false,
      "inputs": [
        {
          "indexed": true,
          "internalType": "address",
          "name": "operator",
          "type": "address"
        },
        {
          "indexed": true,
          "internalType": "address",
          "name": "tokenOwner",
          "type": "address"
        },
        {
          "indexed": true,
          "internalType": "bytes32",
          "name": "tokenId",
          "type": "bytes32"
        }
      ],
      "name": "RevokedOperator",
      "type": "event"
    },
    {
      "anonymous": false,
      "inputs": [
        {
          "indexed": false,
          "internalType": "address",
          "name": "operator",
          "type": "address"
        },
        {
          "indexed": true,
          "internalType": "address",
          "name": "from",
          "type": "address"
        },
        {
          "indexed": true,
          "internalType": "address",
          "name": "to",
          "type": "address"
        },
        {
          "indexed": true,
          "internalType": "bytes32",
          "name": "tokenId",
          "type": "bytes32"
        },
        {
          "indexed": false,
          "internalType": "bool",
          "name": "force",
          "type": "bool"
        },
        {
          "indexed": false,
          "internalType": "bytes",
          "name": "data",
          "type": "bytes"
        }
      ],
      "name": "Transfer",
      "type": "event"
    },
    {
      "inputs": [
        {
          "internalType": "address",
          "name": "operator",
          "type": "address"
        },
        {
          "internalType": "bytes32",
          "name": "tokenId",
          "type": "bytes32"
        }
      ],
      "name": "authorizeOperator",
      "outputs": [],
      "stateMutability": "nonpayable",
      "type": "function"
    },
    {
      "inputs": [
        {
          "internalType": "address",
          "name": "tokenOwner",
          "type": "address"
        }
      ],
      "name": "balanceOf",
      "outputs": [
        {
          "internalType": "uint256",
          "name": "",
          "type": "uint256"
        }
      ],
      "stateMutability": "view",
      "type": "function"
    },
    {
      "inputs": [
        {
          "internalType": "address",
          "name": "to",
          "type": "address"
        },
        {
          "internalType": "string[]",
          "name": "_cid",
          "type": "string[]"
        },
        {
          "internalType": "bytes32[]",
          "name": "tokenId",
          "type": "bytes32[]"
        }
      ],
      "name": "createBatchPosts",
      "outputs": [],
      "stateMutability": "nonpayable",
      "type": "function"
    },
    {
      "inputs": [
        {
          "internalType": "address",
          "name": "receiver",
          "type": "address"
        },
        {
          "internalType": "string",
          "name": "_cid",
          "type": "string"
        },
        {
          "internalType": "bytes32",
          "name": "tokenId",
          "type": "bytes32"
        }
      ],
      "name": "createPost",
      "outputs": [],
      "stateMutability": "nonpayable",
      "type": "function"
    },
    {
      "inputs": [
        {
          "internalType": "uint256",
          "name": "id",
          "type": "uint256"
        }
      ],
      "name": "getCreator",
      "outputs": [
        {
          "internalType": "address",
          "name": "",
          "type": "address"
        }
      ],
      "stateMutability": "view",
      "type": "function"
    },
    {
      "inputs": [
        {
          "internalType": "bytes32[]",
          "name": "dataKeys",
          "type": "bytes32[]"
        }
      ],
      "name": "getData",
      "outputs": [
        {
          "internalType": "bytes[]",
          "name": "dataValues",
          "type": "bytes[]"
        }
      ],
      "stateMutability": "view",
      "type": "function"
    },
    {
      "inputs": [
        {
          "internalType": "bytes32",
          "name": "dataKey",
          "type": "bytes32"
        }
      ],
      "name": "getData",
      "outputs": [
        {
          "internalType": "bytes",
          "name": "dataValue",
          "type": "bytes"
        }
      ],
      "stateMutability": "view",
      "type": "function"
    },
    {
      "inputs": [
        {
          "internalType": "bytes32",
          "name": "tokenId",
          "type": "bytes32"
        }
      ],
      "name": "getOperatorsOf",
      "outputs": [
        {
          "internalType": "address[]",
          "name": "",
          "type": "address[]"
        }
      ],
      "stateMutability": "view",
      "type": "function"
    },
    {
      "inputs": [
        {
          "internalType": "uint256",
          "name": "id",
          "type": "uint256"
        }
      ],
      "name": "getPost",
      "outputs": [
        {
          "internalType": "string",
          "name": "",
          "type": "string"
        }
      ],
      "stateMutability": "view",
      "type": "function"
    },
    {
      "inputs": [
        {
          "internalType": "uint256",
          "name": "id",
          "type": "uint256"
        }
      ],
      "name": "getPostOwner",
      "outputs": [
        {
          "internalType": "address",
          "name": "",
          "type": "address"
        }
      ],
      "stateMutability": "view",
      "type": "function"
    },
    {
      "inputs": [
        {
          "internalType": "address",
          "name": "operator",
          "type": "address"
        },
        {
          "internalType": "bytes32",
          "name": "tokenId",
          "type": "bytes32"
        }
      ],
      "name": "isOperatorFor",
      "outputs": [
        {
          "internalType": "bool",
          "name": "",
          "type": "bool"
        }
      ],
      "stateMutability": "view",
      "type": "function"
    },
    {
      "inputs": [],
      "name": "owner",
      "outputs": [
        {
          "internalType": "address",
          "name": "",
          "type": "address"
        }
      ],
      "stateMutability": "view",
      "type": "function"
    },
    {
      "inputs": [
        {
          "internalType": "uint256",
          "name": "",
          "type": "uint256"
        }
      ],
      "name": "postByTokenId",
      "outputs": [
        {
          "internalType": "string",
          "name": "cid",
          "type": "string"
        },
        {
          "internalType": "address",
          "name": "author",
          "type": "address"
        },
        {
          "internalType": "uint256",
          "name": "id",
          "type": "uint256"
        },
        {
          "internalType": "bytes32",
          "name": "tokenId",
          "type": "bytes32"
        }
      ],
      "stateMutability": "view",
      "type": "function"
    },
    {
      "inputs": [],
      "name": "renounceOwnership",
      "outputs": [],
      "stateMutability": "nonpayable",
      "type": "function"
    },
    {
      "inputs": [
        {
          "internalType": "address",
          "name": "operator",
          "type": "address"
        },
        {
          "internalType": "bytes32",
          "name": "tokenId",
          "type": "bytes32"
        }
      ],
      "name": "revokeOperator",
      "outputs": [],
      "stateMutability": "nonpayable",
      "type": "function"
    },
    {
      "inputs": [
        {
          "internalType": "bytes32[]",
          "name": "dataKeys",
          "type": "bytes32[]"
        },
        {
          "internalType": "bytes[]",
          "name": "dataValues",
          "type": "bytes[]"
        }
      ],
      "name": "setData",
      "outputs": [],
      "stateMutability": "nonpayable",
      "type": "function"
    },
    {
      "inputs": [
        {
          "internalType": "bytes32",
          "name": "dataKey",
          "type": "bytes32"
        },
        {
          "internalType": "bytes",
          "name": "dataValue",
          "type": "bytes"
        }
      ],
      "name": "setData",
      "outputs": [],
      "stateMutability": "nonpayable",
      "type": "function"
    },
    {
      "inputs": [
        {
          "internalType": "bytes4",
          "name": "interfaceId",
          "type": "bytes4"
        }
      ],
      "name": "supportsInterface",
      "outputs": [
        {
          "internalType": "bool",
          "name": "",
          "type": "bool"
        }
      ],
      "stateMutability": "view",
      "type": "function"
    },
    {
      "inputs": [
        {
          "internalType": "address",
          "name": "tokenOwner",
          "type": "address"
        }
      ],
      "name": "tokenIdsOf",
      "outputs": [
        {
          "internalType": "bytes32[]",
          "name": "",
          "type": "bytes32[]"
        }
      ],
      "stateMutability": "view",
      "type": "function"
    },
    {
      "inputs": [
        {
          "internalType": "bytes32",
          "name": "tokenId",
          "type": "bytes32"
        }
      ],
      "name": "tokenOwnerOf",
      "outputs": [
        {
          "internalType": "address",
          "name": "",
          "type": "address"
        }
      ],
      "stateMutability": "view",
      "type": "function"
    },
    {
      "inputs": [],
      "name": "totalSupply",
      "outputs": [
        {
          "internalType": "uint256",
          "name": "",
          "type": "uint256"
        }
      ],
      "stateMutability": "view",
      "type": "function"
    },
    {
      "inputs": [
        {
          "internalType": "address",
          "name": "from",
          "type": "address"
        },
        {
          "internalType": "address",
          "name": "to",
          "type": "address"
        },
        {
          "internalType": "bytes32",
          "name": "tokenId",
          "type": "bytes32"
        },
        {
          "internalType": "bool",
          "name": "force",
          "type": "bool"
        },
        {
          "internalType": "bytes",
          "name": "data",
          "type": "bytes"
        }
      ],
      "name": "transfer",
      "outputs": [],
      "stateMutability": "nonpayable",
      "type": "function"
    },
    {
      "inputs": [
        {
          "internalType": "address[]",
          "name": "from",
          "type": "address[]"
        },
        {
          "internalType": "address[]",
          "name": "to",
          "type": "address[]"
        },
        {
          "internalType": "bytes32[]",
          "name": "tokenId",
          "type": "bytes32[]"
        },
        {
          "internalType": "bool",
          "name": "force",
          "type": "bool"
        },
        {
          "internalType": "bytes[]",
          "name": "data",
          "type": "bytes[]"
        }
      ],
      "name": "transferBatch",
      "outputs": [],
      "stateMutability": "nonpayable",
      "type": "function"
    },
    {
      "inputs": [
        {
          "internalType": "address",
          "name": "newOwner",
          "type": "address"
        }
      ],
      "name": "transferOwnership",
      "outputs": [],
      "stateMutability": "nonpayable",
      "type": "function"
    }
  ],
  "bytecode": "0x60806040523480156200001157600080fd5b5060405162004dff38038062004dff83398181016040528101906200003791906200054f565b8282828282828080600073ffffffffffffffffffffffffffffffffffffffff168173ffffffffffffffffffffffffffffffffffffffff1603620000b1576040517f08c379a0000000000000000000000000000000000000000000000000000000008152600401620000a89062000670565b60405180910390fd5b620000c782620001bb60201b620012a51760201c565b5050620001387feafec4d89fa9619884b60000a4d96624a38f7ac2d8d9a604ecf07c12c77e480c60001b6040518060400160405280600481526020017fa4d9662400000000000000000000000000000000000000000000000000000000815250620002c360201b620013a41760201c565b620001727fdeba1e292f8ba88238e10ab3c7f88bd4be4fac56cad5194b6ecceaf653468af160001b84620002c360201b620013a41760201c565b620001ac7f2f0a68ab07768e01943a599e73362a0e17a63a72e94dd2e384d2c1d4db93275660001b83620002c360201b620013a41760201c565b50505050505050505062000a3a565b620001cb6200032460201b60201c565b73ffffffffffffffffffffffffffffffffffffffff168173ffffffffffffffffffffffffffffffffffffffff1614620002c05760008060009054906101000a900473ffffffffffffffffffffffffffffffffffffffff169050816000806101000a81548173ffffffffffffffffffffffffffffffffffffffff021916908373ffffffffffffffffffffffffffffffffffffffff1602179055508173ffffffffffffffffffffffffffffffffffffffff168173ffffffffffffffffffffffffffffffffffffffff167f8be0079c531659141344cd1fd0a4f28419497f9722a3daafe3b4186f6b6457e060405160405180910390a3505b50565b80600160008481526020019081526020016000209081620002e59190620008dd565b50817fece574603820d07bc9b91f2a932baadf4628aabcb8afba49776529c14a6104b28260405162000318919062000a16565b60405180910390a25050565b60008060009054906101000a900473ffffffffffffffffffffffffffffffffffffffff16905090565b6000604051905090565b600080fd5b600080fd5b600080fd5b600080fd5b6000601f19601f8301169050919050565b7f4e487b7100000000000000000000000000000000000000000000000000000000600052604160045260246000fd5b620003b6826200036b565b810181811067ffffffffffffffff82111715620003d857620003d76200037c565b5b80604052505050565b6000620003ed6200034d565b9050620003fb8282620003ab565b919050565b600067ffffffffffffffff8211156200041e576200041d6200037c565b5b62000429826200036b565b9050602081019050919050565b60005b838110156200045657808201518184015260208101905062000439565b8381111562000466576000848401525b50505050565b6000620004836200047d8462000400565b620003e1565b905082815260208101848484011115620004a257620004a162000366565b5b620004af84828562000436565b509392505050565b600082601f830112620004cf57620004ce62000361565b5b8151620004e18482602086016200046c565b91505092915050565b600073ffffffffffffffffffffffffffffffffffffffff82169050919050565b60006200051782620004ea565b9050919050565b62000529816200050a565b81146200053557600080fd5b50565b60008151905062000549816200051e565b92915050565b6000806000606084860312156200056b576200056a62000357565b5b600084015167ffffffffffffffff8111156200058c576200058b6200035c565b5b6200059a86828701620004b7565b935050602084015167ffffffffffffffff811115620005be57620005bd6200035c565b5b620005cc86828701620004b7565b9250506040620005df8682870162000538565b9150509250925092565b600082825260208201905092915050565b7f4f776e61626c653a20636f6e7472616374206f776e65722063616e6e6f74206260008201527f6520746865207a65726f20616464726573730000000000000000000000000000602082015250565b600062000658603283620005e9565b91506200066582620005fa565b604082019050919050565b600060208201905081810360008301526200068b8162000649565b9050919050565b600081519050919050565b7f4e487b7100000000000000000000000000000000000000000000000000000000600052602260045260246000fd5b60006002820490506001821680620006e557607f821691505b602082108103620006fb57620006fa6200069d565b5b50919050565b60008190508160005260206000209050919050565b60006020601f8301049050919050565b600082821b905092915050565b600060088302620007657fffffffffffffffffffffffffffffffffffffffffffffffffffffffffffffffff8262000726565b62000771868362000726565b95508019841693508086168417925050509392505050565b6000819050919050565b6000819050919050565b6000620007be620007b8620007b28462000789565b62000793565b62000789565b9050919050565b6000819050919050565b620007da836200079d565b620007f2620007e982620007c5565b84845462000733565b825550505050565b600090565b62000809620007fa565b62000816818484620007cf565b505050565b5b818110156200083e5762000832600082620007ff565b6001810190506200081c565b5050565b601f8211156200088d57620008578162000701565b620008628462000716565b8101602085101562000872578190505b6200088a620008818562000716565b8301826200081b565b50505b505050565b600082821c905092915050565b6000620008b26000198460080262000892565b1980831691505092915050565b6000620008cd83836200089f565b9150826002028217905092915050565b620008e88262000692565b67ffffffffffffffff8111156200090457620009036200037c565b5b620009108254620006cc565b6200091d82828562000842565b600060209050601f83116001811462000955576000841562000940578287015190505b6200094c8582620008bf565b865550620009bc565b601f198416620009658662000701565b60005b828110156200098f5784890151825560018201915060208501945060208101905062000968565b86831015620009af5784890151620009ab601f8916826200089f565b8355505b6001600288020188555050505b505050505050565b600082825260208201905092915050565b6000620009e28262000692565b620009ee8185620009c4565b935062000a0081856020860162000436565b62000a0b816200036b565b840191505092915050565b6000602082019050818103600083015262000a328184620009d5565b905092915050565b6143b58062000a4a6000396000f3fe608060405234801561001057600080fd5b50600436106101585760003560e01c806354f6127f116100c357806395b9945b1161007c57806395b9945b14610412578063a3b261f21461042e578063b92223c31461045e578063cf5182ba1461047a578063d48e638a14610496578063f2fde38b146104c657610158565b806354f6127f14610352578063559088681461038257806370a082311461039e578063715018a6146103ce5780637f23690c146103d85780638da5cb5b146103f457610158565b8063217b227011610115578063217b2270146102465780632a3654a41461027657806340731c24146102a657806349a6078d146102d65780634e3e6e9c14610306578063511b69521461033657610158565b806301ffc9a71461015d578063085f441f1461018d5780630b0c6d82146101bd57806314a6e293146101d957806316ebbe04146101f557806318160ddd14610228575b600080fd5b610177600480360381019061017291906127c7565b6104e2565b604051610184919061280f565b60405180910390f35b6101a760048036038101906101a29190612860565b610543565b6040516101b491906128ce565b60405180910390f35b6101d760048036038101906101d2919061294b565b61056b565b005b6101f360048036038101906101ee9190612c7a565b6106a3565b005b61020f600480360381019061020a9190612860565b61074e565b60405161021f9493929190612d98565b60405180910390f35b610230610826565b60405161023d9190612de4565b60405180910390f35b610260600480360381019061025b9190612dff565b610830565b60405161026d91906128ce565b60405180910390f35b610290600480360381019061028b919061294b565b6108e3565b60405161029d919061280f565b60405180910390f35b6102c060048036038101906102bb9190612860565b610900565b6040516102cd9190612e2c565b60405180910390f35b6102f060048036038101906102eb9190612dff565b6109a8565b6040516102fd9190612f0c565b60405180910390f35b610320600480360381019061031b9190612f2e565b6109d5565b60405161032d919061308e565b60405180910390f35b610350600480360381019061034b91906130dc565b610a8b565b005b61036c60048036038101906103679190612dff565b610af2565b60405161037991906131bd565b60405180910390f35b61039c600480360381019061039791906132a2565b610b04565b005b6103b860048036038101906103b3919061338d565b610bf4565b6040516103c59190612de4565b60405180910390f35b6103d6610c44565b005b6103f260048036038101906103ed91906133ba565b610c58565b005b6103fc610c6e565b60405161040991906128ce565b60405180910390f35b61042c60048036038101906104279190613598565b610c97565b005b6104486004803603810190610443919061338d565b610e52565b60405161045591906136e1565b60405180910390f35b61047860048036038101906104739190613703565b610ea2565b005b610494600480360381019061048f919061294b565b610fec565b005b6104b060048036038101906104ab9190612860565b6111e2565b6040516104bd91906128ce565b60405180910390f35b6104e060048036038101906104db919061338d565b611222565b005b6000634939914560e01b7bffffffffffffffffffffffffffffffffffffffffffffffffffffffff1916827bffffffffffffffffffffffffffffffffffffffffffffffffffffffff1916148061053c575061053b82611401565b5b9050919050565b6000610564600c600084815260200190815260200160002060030154610830565b9050919050565b600061057682610830565b905060003390508073ffffffffffffffffffffffffffffffffffffffff168273ffffffffffffffffffffffffffffffffffffffff16146105f1578183826040517f5b271ea20000000000000000000000000000000000000000000000000000000081526004016105e893929190613772565b60405180910390fd5b600073ffffffffffffffffffffffffffffffffffffffff168473ffffffffffffffffffffffffffffffffffffffff1603610657576040517f9577b8b300000000000000000000000000000000000000000000000000000000815260040160405180910390fd5b8373ffffffffffffffffffffffffffffffffffffffff168273ffffffffffffffffffffffffffffffffffffffff160361069157505061069f565b61069c848385611462565b50505b5050565b6106ab611530565b80518251146106ef576040517f08c379a00000000000000000000000000000000000000000000000000000000081526004016106e69061381b565b60405180910390fd5b60005b8251811015610749576107398382815181106107115761071061383b565b5b602002602001015183838151811061072c5761072b61383b565b5b60200260200101516115a7565b610742816116db565b90506106f2565b505050565b600c60205280600052604060002060009150905080600001805461077190613899565b80601f016020809104026020016040519081016040528092919081815260200182805461079d90613899565b80156107ea5780601f106107bf576101008083540402835291602001916107ea565b820191906000526020600020905b8154815290600101906020018083116107cd57829003601f168201915b5050505050908060010160009054906101000a900473ffffffffffffffffffffffffffffffffffffffff16908060020154908060030154905084565b6000600254905090565b6000806003600084815260200190815260200160002060009054906101000a900473ffffffffffffffffffffffffffffffffffffffff169050600073ffffffffffffffffffffffffffffffffffffffff168173ffffffffffffffffffffffffffffffffffffffff16036108da57826040517fae8f9a360000000000000000000000000000000000000000000000000000000081526004016108d191906138ca565b60405180910390fd5b80915050919050565b60006108ee826116e8565b6108f88383611735565b905092915050565b6060600c6000838152602001908152602001600020600001805461092390613899565b80601f016020809104026020016040519081016040528092919081815260200182805461094f90613899565b801561099c5780601f106109715761010080835404028352916020019161099c565b820191906000526020600020905b81548152906001019060200180831161097f57829003601f168201915b50505050509050919050565b60606109b3826116e8565b6109ce600560008481526020019081526020016000206117a7565b9050919050565b6060815167ffffffffffffffff8111156109f2576109f16129a1565b5b604051908082528060200260200182016040528015610a2557816020015b6060815260200190600190039081610a105790505b50905060005b8251811015610a8557610a57838281518110610a4a57610a4961383b565b5b60200260200101516117c8565b828281518110610a6a57610a6961383b565b5b6020026020010181905250610a7e816116db565b9050610a2b565b50919050565b6000339050610a9a8185611735565b610add5783816040517f1294d2a9000000000000000000000000000000000000000000000000000000008152600401610ad49291906138e5565b60405180910390fd5b610aea868686868661186d565b505050505050565b6060610afd826117c8565b9050919050565b83518551141580610b1757508251855114155b80610b2457508051855114155b15610b5b576040517f93a8311900000000000000000000000000000000000000000000000000000000815260040160405180910390fd5b60005b8551811015610bec57610bdc868281518110610b7d57610b7c61383b565b5b6020026020010151868381518110610b9857610b9761383b565b5b6020026020010151868481518110610bb357610bb261383b565b5b602002602001015186868681518110610bcf57610bce61383b565b5b6020026020010151610a8b565b610be581611b55565b9050610b5e565b505050505050565b6000610c3d600460008473ffffffffffffffffffffffffffffffffffffffff1673ffffffffffffffffffffffffffffffffffffffff168152602001908152602001600020611b62565b9050919050565b610c4c611530565b610c5660006112a5565b565b610c60611530565b610c6a82826115a7565b5050565b60008060009054906101000a900473ffffffffffffffffffffffffffffffffffffffff16905090565b60008151905060005b81811015610e4b57838181518110610cbb57610cba61383b565b5b602002602001015160076000019081610cd49190613aba565b5033600760010160006101000a81548173ffffffffffffffffffffffffffffffffffffffff021916908373ffffffffffffffffffffffffffffffffffffffff160217905550600b60008154610d2890613bbb565b919050819055600760020181905550828181518110610d4a57610d4961383b565b5b60200260200101516007600301819055506007600c6000600b54815260200190815260200160002060008201816000019081610d869190613c19565b506001820160009054906101000a900473ffffffffffffffffffffffffffffffffffffffff168160010160006101000a81548173ffffffffffffffffffffffffffffffffffffffff021916908373ffffffffffffffffffffffffffffffffffffffff1602179055506002820154816002015560038201548160030155905050610e3b85848381518110610e1c57610e1b61383b565b5b6020026020010151600160405180602001604052806000815250611b77565b610e4481611b55565b9050610ca0565b5050505050565b6060610e9b600460008473ffffffffffffffffffffffffffffffffffffffff1673ffffffffffffffffffffffffffffffffffffffff168152602001908152602001600020611d5d565b9050919050565b8160076000019081610eb49190613aba565b5033600760010160006101000a81548173ffffffffffffffffffffffffffffffffffffffff021916908373ffffffffffffffffffffffffffffffffffffffff160217905550600b60008154610f0890613bbb565b919050819055600760020181905550806007600301819055506007600c6000600b54815260200190815260200160002060008201816000019081610f4c9190613c19565b506001820160009054906101000a900473ffffffffffffffffffffffffffffffffffffffff168160010160006101000a81548173ffffffffffffffffffffffffffffffffffffffff021916908373ffffffffffffffffffffffffffffffffffffffff1602179055506002820154816002015560038201548160030155905050610fe78382600160405180602001604052806000815250611b77565b505050565b6000610ff782610830565b905060003390508073ffffffffffffffffffffffffffffffffffffffff168273ffffffffffffffffffffffffffffffffffffffff1614611072578183826040517f5b271ea200000000000000000000000000000000000000000000000000000000815260040161106993929190613772565b60405180910390fd5b600073ffffffffffffffffffffffffffffffffffffffff168473ffffffffffffffffffffffffffffffffffffffff16036110d8576040517f9577b8b300000000000000000000000000000000000000000000000000000000815260040160405180910390fd5b8373ffffffffffffffffffffffffffffffffffffffff168273ffffffffffffffffffffffffffffffffffffffff16036111125750506111de565b60006111398560056000878152602001908152602001600020611d7e90919063ffffffff16565b90508061117f5784846040517fa7626b68000000000000000000000000000000000000000000000000000000008152600401611176929190613d01565b60405180910390fd5b838373ffffffffffffffffffffffffffffffffffffffff168673ffffffffffffffffffffffffffffffffffffffff167f34b797fc5a526f7bf1d2b5de25f6564fd85ae364e3ee939aee7c1ac27871a98860405160405180910390a45050505b5050565b6000600c600083815260200190815260200160002060010160009054906101000a900473ffffffffffffffffffffffffffffffffffffffff169050919050565b61122a611530565b600073ffffffffffffffffffffffffffffffffffffffff168173ffffffffffffffffffffffffffffffffffffffff1603611299576040517f08c379a000000000000000000000000000000000000000000000000000000000815260040161129090613d9c565b60405180910390fd5b6112a2816112a5565b50565b6112ad610c6e565b73ffffffffffffffffffffffffffffffffffffffff168173ffffffffffffffffffffffffffffffffffffffff16146113a15760008060009054906101000a900473ffffffffffffffffffffffffffffffffffffffff169050816000806101000a81548173ffffffffffffffffffffffffffffffffffffffff021916908373ffffffffffffffffffffffffffffffffffffffff1602179055508173ffffffffffffffffffffffffffffffffffffffff168173ffffffffffffffffffffffffffffffffffffffff167f8be0079c531659141344cd1fd0a4f28419497f9722a3daafe3b4186f6b6457e060405160405180910390a3505b50565b806001600084815260200190815260200160002090816113c49190613e17565b50817fece574603820d07bc9b91f2a932baadf4628aabcb8afba49776529c14a6104b2826040516113f591906131bd565b60405180910390a25050565b600063714df77c60e01b7bffffffffffffffffffffffffffffffffffffffffffffffffffffffff1916827bffffffffffffffffffffffffffffffffffffffffffffffffffffffff1916148061145b575061145a82611dae565b5b9050919050565b60006114898460056000858152602001908152602001600020611e1890919063ffffffff16565b9050806114cf5783826040517f4aa31a8c0000000000000000000000000000000000000000000000000000000081526004016114c6929190613d01565b60405180910390fd5b818373ffffffffffffffffffffffffffffffffffffffff168573ffffffffffffffffffffffffffffffffffffffff167f17d5389f6ab6adb2647dfa0aa365c323d37adacc30b33a65310b6158ce1373d560405160405180910390a450505050565b3373ffffffffffffffffffffffffffffffffffffffff1661154f610c6e565b73ffffffffffffffffffffffffffffffffffffffff16146115a5576040517f08c379a000000000000000000000000000000000000000000000000000000000815260040161159c90613f35565b60405180910390fd5b565b7fdeba1e292f8ba88238e10ab3c7f88bd4be4fac56cad5194b6ecceaf653468af160001b8203611603576040517f85c169bd00000000000000000000000000000000000000000000000000000000815260040160405180910390fd5b7f2f0a68ab07768e01943a599e73362a0e17a63a72e94dd2e384d2c1d4db93275660001b820361165f576040517f76755b3800000000000000000000000000000000000000000000000000000000815260040160405180910390fd5b8060016000848152602001908152602001600020908161167f9190613e17565b50817fece574603820d07bc9b91f2a932baadf4628aabcb8afba49776529c14a6104b2610100835111156116c0576116bb836000610100611e48565b6116c2565b825b6040516116cf91906131bd565b60405180910390a25050565b6000600182019050919050565b6116f181611f66565b61173257806040517fae8f9a3600000000000000000000000000000000000000000000000000000000815260040161172991906138ca565b60405180910390fd5b50565b60008061174183610830565b90508073ffffffffffffffffffffffffffffffffffffffff168473ffffffffffffffffffffffffffffffffffffffff16148061179e575061179d8460056000868152602001908152602001600020611fd290919063ffffffff16565b5b91505092915050565b606060006117b783600001612002565b905060608190508092505050919050565b60606001600083815260200190815260200160002080546117e890613899565b80601f016020809104026020016040519081016040528092919081815260200182805461181490613899565b80156118615780601f1061183657610100808354040283529160200191611861565b820191906000526020600020905b81548152906001019060200180831161184457829003601f168201915b50505050509050919050565b8373ffffffffffffffffffffffffffffffffffffffff168573ffffffffffffffffffffffffffffffffffffffff16036118d2576040517f5d67d6c100000000000000000000000000000000000000000000000000000000815260040160405180910390fd5b60006118dd84610830565b90508573ffffffffffffffffffffffffffffffffffffffff168173ffffffffffffffffffffffffffffffffffffffff1614611953578084876040517f5b271ea200000000000000000000000000000000000000000000000000000000815260040161194a93929190613772565b60405180910390fd5b600073ffffffffffffffffffffffffffffffffffffffff168573ffffffffffffffffffffffffffffffffffffffff16036119b9576040517f24ecef4d00000000000000000000000000000000000000000000000000000000815260040160405180910390fd5b60003390506119c987878761205e565b6119d38786612101565b611a2485600460008a73ffffffffffffffffffffffffffffffffffffffff1673ffffffffffffffffffffffffffffffffffffffff16815260200190815260200160002061216b90919063ffffffff16565b50611a7685600460008973ffffffffffffffffffffffffffffffffffffffff1673ffffffffffffffffffffffffffffffffffffffff16815260200190815260200160002061218290919063ffffffff16565b50856003600087815260200190815260200160002060006101000a81548173ffffffffffffffffffffffffffffffffffffffff021916908373ffffffffffffffffffffffffffffffffffffffff160217905550848673ffffffffffffffffffffffffffffffffffffffff168873ffffffffffffffffffffffffffffffffffffffff167fb333c813a7426a7a11e2b190cad52c44119421594b47f6f32ace6d8c7207b2bf848888604051611b2b93929190613f55565b60405180910390a4611b3f87878786612199565b611b4c8787878787612288565b50505050505050565b6000600182019050919050565b6000611b708260000161241b565b9050919050565b600073ffffffffffffffffffffffffffffffffffffffff168473ffffffffffffffffffffffffffffffffffffffff1603611bdd576040517f24ecef4d00000000000000000000000000000000000000000000000000000000815260040160405180910390fd5b611be683611f66565b15611c2857826040517f34c7b511000000000000000000000000000000000000000000000000000000008152600401611c1f91906138ca565b60405180910390fd5b6000339050611c396000868661205e565b611c8a84600460008873ffffffffffffffffffffffffffffffffffffffff1673ffffffffffffffffffffffffffffffffffffffff16815260200190815260200160002061218290919063ffffffff16565b50846003600086815260200190815260200160002060006101000a81548173ffffffffffffffffffffffffffffffffffffffff021916908373ffffffffffffffffffffffffffffffffffffffff160217905550838573ffffffffffffffffffffffffffffffffffffffff16600073ffffffffffffffffffffffffffffffffffffffff167fb333c813a7426a7a11e2b190cad52c44119421594b47f6f32ace6d8c7207b2bf848787604051611d4093929190613f55565b60405180910390a4611d56600086868686612288565b5050505050565b60606000611d6d83600001612002565b905060608190508092505050919050565b6000611da6836000018373ffffffffffffffffffffffffffffffffffffffff1660001b61242c565b905092915050565b60007f01ffc9a7000000000000000000000000000000000000000000000000000000007bffffffffffffffffffffffffffffffffffffffffffffffffffffffff1916827bffffffffffffffffffffffffffffffffffffffffffffffffffffffff1916149050919050565b6000611e40836000018373ffffffffffffffffffffffffffffffffffffffff1660001b61249c565b905092915050565b606081601f83611e589190613f93565b1015611e99576040517f08c379a0000000000000000000000000000000000000000000000000000000008152600401611e9090614035565b60405180910390fd5b8183611ea59190613f93565b84511015611ee8576040517f08c379a0000000000000000000000000000000000000000000000000000000008152600401611edf906140a1565b60405180910390fd5b6060821560008114611f095760405191506000825260208201604052611f5a565b6040519150601f8416801560200281840101858101878315602002848b0101015b81831015611f475780518352602083019250602081019050611f2a565b50868552601f19601f8301166040525050505b50809150509392505050565b60008073ffffffffffffffffffffffffffffffffffffffff166003600084815260200190815260200160002060009054906101000a900473ffffffffffffffffffffffffffffffffffffffff1673ffffffffffffffffffffffffffffffffffffffff1614159050919050565b6000611ffa836000018373ffffffffffffffffffffffffffffffffffffffff1660001b6125b0565b905092915050565b60608160000180548060200260200160405190810160405280929190818152602001828054801561205257602002820191906000526020600020905b81548152602001906001019080831161203e575b50505050509050919050565b600073ffffffffffffffffffffffffffffffffffffffff168373ffffffffffffffffffffffffffffffffffffffff16036120ad576001600260008282546120a59190613f93565b925050819055505b600073ffffffffffffffffffffffffffffffffffffffff168273ffffffffffffffffffffffffffffffffffffffff16036120fc576001600260008282546120f491906140c1565b925050819055505b505050565b60006005600083815260200190815260200160002090506000612123826125d3565b905060005b818110156121645760006121466000856125e890919063ffffffff16565b9050612153818787611462565b5061215d81611b55565b9050612128565b5050505050565b600061217a836000018361249c565b905092915050565b6000612191836000018361242c565b905092915050565b6121aa84636bb56a1460e01b612602565b15612282576000848484846040516020016121c8949392919061419a565b60405160208183030381529060405290508473ffffffffffffffffffffffffffffffffffffffff16636bb56a147f3724c94f0815e936299cca424da4140752198e0beb7931a6e0925d11bc97544c60001b836040518363ffffffff1660e01b81526004016122379291906141e4565b6000604051808303816000875af1158015612256573d6000803e3d6000fd5b505050506040513d6000823e3d601f19601f8201168201806040525081019061227f9190614284565b50505b50505050565b61229984636bb56a1460e01b612602565b15612375576000858585846040516020016122b7949392919061419a565b60405160208183030381529060405290508473ffffffffffffffffffffffffffffffffffffffff16636bb56a147fc7a120a42b6057a0cbed111fbbfbd52fcd96748c04394f77fc2c3adbe0391e0160001b836040518363ffffffff1660e01b81526004016123269291906141e4565b6000604051808303816000875af1158015612345573d6000803e3d6000fd5b505050506040513d6000823e3d601f19601f8201168201806040525081019061236e9190614284565b5050612414565b816124135760008473ffffffffffffffffffffffffffffffffffffffff163b146123d657836040517f4349776d0000000000000000000000000000000000000000000000000000000081526004016123cd91906128ce565b60405180910390fd5b836040517f0317313700000000000000000000000000000000000000000000000000000000815260040161240a91906128ce565b60405180910390fd5b5b5050505050565b600081600001805490509050919050565b600061243883836125b0565b612491578260000182908060018154018082558091505060019003906000526020600020016000909190919091505582600001805490508360010160008481526020019081526020016000208190555060019050612496565b600090505b92915050565b600080836001016000848152602001908152602001600020549050600081146125a45760006001826124ce91906140c1565b90506000600186600001805490506124e691906140c1565b90508181146125555760008660000182815481106125075761250661383b565b5b906000526020600020015490508087600001848154811061252b5761252a61383b565b5b90600052602060002001819055508387600101600083815260200190815260200160002081905550505b85600001805480612569576125686142cd565b5b6001900381819060005260206000200160009055905585600101600086815260200190815260200160002060009055600193505050506125aa565b60009150505b92915050565b600080836001016000848152602001908152602001600020541415905092915050565b60006125e18260000161241b565b9050919050565b60006125f78360000183612730565b60001c905092915050565b6000806301ffc9a760e01b8360405160240161261e919061430b565b604051602081830303815290604052907bffffffffffffffffffffffffffffffffffffffffffffffffffffffff19166020820180517bffffffffffffffffffffffffffffffffffffffffffffffffffffffff838183161783525050505090506000808573ffffffffffffffffffffffffffffffffffffffff16617530846040516126a89190614326565b6000604051808303818686fa925050503d80600081146126e4576040519150601f19603f3d011682016040523d82523d6000602084013e6126e9565b606091505b5091509150602081511015612704576000935050505061272a565b81801561272457506000818060200190518101906127229190614352565b115b93505050505b92915050565b60008260000182815481106127485761274761383b565b5b9060005260206000200154905092915050565b6000604051905090565b600080fd5b600080fd5b60007fffffffff0000000000000000000000000000000000000000000000000000000082169050919050565b6127a48161276f565b81146127af57600080fd5b50565b6000813590506127c18161279b565b92915050565b6000602082840312156127dd576127dc612765565b5b60006127eb848285016127b2565b91505092915050565b60008115159050919050565b612809816127f4565b82525050565b60006020820190506128246000830184612800565b92915050565b6000819050919050565b61283d8161282a565b811461284857600080fd5b50565b60008135905061285a81612834565b92915050565b60006020828403121561287657612875612765565b5b60006128848482850161284b565b91505092915050565b600073ffffffffffffffffffffffffffffffffffffffff82169050919050565b60006128b88261288d565b9050919050565b6128c8816128ad565b82525050565b60006020820190506128e360008301846128bf565b92915050565b6128f2816128ad565b81146128fd57600080fd5b50565b60008135905061290f816128e9565b92915050565b6000819050919050565b61292881612915565b811461293357600080fd5b50565b6000813590506129458161291f565b92915050565b6000806040838503121561296257612961612765565b5b600061297085828601612900565b925050602061298185828601612936565b9150509250929050565b600080fd5b6000601f19601f8301169050919050565b7f4e487b7100000000000000000000000000000000000000000000000000000000600052604160045260246000fd5b6129d982612990565b810181811067ffffffffffffffff821117156129f8576129f76129a1565b5b80604052505050565b6000612a0b61275b565b9050612a1782826129d0565b919050565b600067ffffffffffffffff821115612a3757612a366129a1565b5b602082029050602081019050919050565b600080fd5b6000612a60612a5b84612a1c565b612a01565b90508083825260208201905060208402830185811115612a8357612a82612a48565b5b835b81811015612aac5780612a988882612936565b845260208401935050602081019050612a85565b5050509392505050565b600082601f830112612acb57612aca61298b565b5b8135612adb848260208601612a4d565b91505092915050565b600067ffffffffffffffff821115612aff57612afe6129a1565b5b602082029050602081019050919050565b600080fd5b600067ffffffffffffffff821115612b3057612b2f6129a1565b5b612b3982612990565b9050602081019050919050565b82818337600083830152505050565b6000612b68612b6384612b15565b612a01565b905082815260208101848484011115612b8457612b83612b10565b5b612b8f848285612b46565b509392505050565b600082601f830112612bac57612bab61298b565b5b8135612bbc848260208601612b55565b91505092915050565b6000612bd8612bd384612ae4565b612a01565b90508083825260208201905060208402830185811115612bfb57612bfa612a48565b5b835b81811015612c4257803567ffffffffffffffff811115612c2057612c1f61298b565b5b808601612c2d8982612b97565b85526020850194505050602081019050612bfd565b5050509392505050565b600082601f830112612c6157612c6061298b565b5b8135612c71848260208601612bc5565b91505092915050565b60008060408385031215612c9157612c90612765565b5b600083013567ffffffffffffffff811115612caf57612cae61276a565b5b612cbb85828601612ab6565b925050602083013567ffffffffffffffff811115612cdc57612cdb61276a565b5b612ce885828601612c4c565b9150509250929050565b600081519050919050565b600082825260208201905092915050565b60005b83811015612d2c578082015181840152602081019050612d11565b83811115612d3b576000848401525b50505050565b6000612d4c82612cf2565b612d568185612cfd565b9350612d66818560208601612d0e565b612d6f81612990565b840191505092915050565b612d838161282a565b82525050565b612d9281612915565b82525050565b60006080820190508181036000830152612db28187612d41565b9050612dc160208301866128bf565b612dce6040830185612d7a565b612ddb6060830184612d89565b95945050505050565b6000602082019050612df96000830184612d7a565b92915050565b600060208284031215612e1557612e14612765565b5b6000612e2384828501612936565b91505092915050565b60006020820190508181036000830152612e468184612d41565b905092915050565b600081519050919050565b600082825260208201905092915050565b6000819050602082019050919050565b612e83816128ad565b82525050565b6000612e958383612e7a565b60208301905092915050565b6000602082019050919050565b6000612eb982612e4e565b612ec38185612e59565b9350612ece83612e6a565b8060005b83811015612eff578151612ee68882612e89565b9750612ef183612ea1565b925050600181019050612ed2565b5085935050505092915050565b60006020820190508181036000830152612f268184612eae565b905092915050565b600060208284031215612f4457612f43612765565b5b600082013567ffffffffffffffff811115612f6257612f6161276a565b5b612f6e84828501612ab6565b91505092915050565b600081519050919050565b600082825260208201905092915050565b6000819050602082019050919050565b600081519050919050565b600082825260208201905092915050565b6000612fca82612fa3565b612fd48185612fae565b9350612fe4818560208601612d0e565b612fed81612990565b840191505092915050565b60006130048383612fbf565b905092915050565b6000602082019050919050565b600061302482612f77565b61302e8185612f82565b93508360208202850161304085612f93565b8060005b8581101561307c578484038952815161305d8582612ff8565b94506130688361300c565b925060208a01995050600181019050613044565b50829750879550505050505092915050565b600060208201905081810360008301526130a88184613019565b905092915050565b6130b9816127f4565b81146130c457600080fd5b50565b6000813590506130d6816130b0565b92915050565b600080600080600060a086880312156130f8576130f7612765565b5b600061310688828901612900565b955050602061311788828901612900565b945050604061312888828901612936565b9350506060613139888289016130c7565b925050608086013567ffffffffffffffff81111561315a5761315961276a565b5b61316688828901612b97565b9150509295509295909350565b600082825260208201905092915050565b600061318f82612fa3565b6131998185613173565b93506131a9818560208601612d0e565b6131b281612990565b840191505092915050565b600060208201905081810360008301526131d78184613184565b905092915050565b600067ffffffffffffffff8211156131fa576131f96129a1565b5b602082029050602081019050919050565b600061321e613219846131df565b612a01565b9050808382526020820190506020840283018581111561324157613240612a48565b5b835b8181101561326a57806132568882612900565b845260208401935050602081019050613243565b5050509392505050565b600082601f8301126132895761328861298b565b5b813561329984826020860161320b565b91505092915050565b600080600080600060a086880312156132be576132bd612765565b5b600086013567ffffffffffffffff8111156132dc576132db61276a565b5b6132e888828901613274565b955050602086013567ffffffffffffffff8111156133095761330861276a565b5b61331588828901613274565b945050604086013567ffffffffffffffff8111156133365761333561276a565b5b61334288828901612ab6565b9350506060613353888289016130c7565b925050608086013567ffffffffffffffff8111156133745761337361276a565b5b61338088828901612c4c565b9150509295509295909350565b6000602082840312156133a3576133a2612765565b5b60006133b184828501612900565b91505092915050565b600080604083850312156133d1576133d0612765565b5b60006133df85828601612936565b925050602083013567ffffffffffffffff811115613400576133ff61276a565b5b61340c85828601612b97565b9150509250929050565b600067ffffffffffffffff821115613431576134306129a1565b5b602082029050602081019050919050565b600067ffffffffffffffff82111561345d5761345c6129a1565b5b61346682612990565b9050602081019050919050565b600061348661348184613442565b612a01565b9050828152602081018484840111156134a2576134a1612b10565b5b6134ad848285612b46565b509392505050565b600082601f8301126134ca576134c961298b565b5b81356134da848260208601613473565b91505092915050565b60006134f66134f184613416565b612a01565b9050808382526020820190506020840283018581111561351957613518612a48565b5b835b8181101561356057803567ffffffffffffffff81111561353e5761353d61298b565b5b80860161354b89826134b5565b8552602085019450505060208101905061351b565b5050509392505050565b600082601f83011261357f5761357e61298b565b5b813561358f8482602086016134e3565b91505092915050565b6000806000606084860312156135b1576135b0612765565b5b60006135bf86828701612900565b935050602084013567ffffffffffffffff8111156135e0576135df61276a565b5b6135ec8682870161356a565b925050604084013567ffffffffffffffff81111561360d5761360c61276a565b5b61361986828701612ab6565b9150509250925092565b600081519050919050565b600082825260208201905092915050565b6000819050602082019050919050565b61365881612915565b82525050565b600061366a838361364f565b60208301905092915050565b6000602082019050919050565b600061368e82613623565b613698818561362e565b93506136a38361363f565b8060005b838110156136d45781516136bb888261365e565b97506136c683613676565b9250506001810190506136a7565b5085935050505092915050565b600060208201905081810360008301526136fb8184613683565b905092915050565b60008060006060848603121561371c5761371b612765565b5b600061372a86828701612900565b935050602084013567ffffffffffffffff81111561374b5761374a61276a565b5b613757868287016134b5565b925050604061376886828701612936565b9150509250925092565b600060608201905061378760008301866128bf565b6137946020830185612d89565b6137a160408301846128bf565b949350505050565b7f4b657973206c656e677468206e6f7420657175616c20746f2076616c7565732060008201527f6c656e6774680000000000000000000000000000000000000000000000000000602082015250565b6000613805602683612cfd565b9150613810826137a9565b604082019050919050565b60006020820190508181036000830152613834816137f8565b9050919050565b7f4e487b7100000000000000000000000000000000000000000000000000000000600052603260045260246000fd5b7f4e487b7100000000000000000000000000000000000000000000000000000000600052602260045260246000fd5b600060028204905060018216806138b157607f821691505b6020821081036138c4576138c361386a565b5b50919050565b60006020820190506138df6000830184612d89565b92915050565b60006040820190506138fa6000830185612d89565b61390760208301846128bf565b9392505050565b60008190508160005260206000209050919050565b60006020601f8301049050919050565b600082821b905092915050565b6000600883026139707fffffffffffffffffffffffffffffffffffffffffffffffffffffffffffffffff82613933565b61397a8683613933565b95508019841693508086168417925050509392505050565b6000819050919050565b60006139b76139b26139ad8461282a565b613992565b61282a565b9050919050565b6000819050919050565b6139d18361399c565b6139e56139dd826139be565b848454613940565b825550505050565b600090565b6139fa6139ed565b613a058184846139c8565b505050565b5b81811015613a2957613a1e6000826139f2565b600181019050613a0b565b5050565b601f821115613a6e57613a3f8161390e565b613a4884613923565b81016020851015613a57578190505b613a6b613a6385613923565b830182613a0a565b50505b505050565b600082821c905092915050565b6000613a9160001984600802613a73565b1980831691505092915050565b6000613aaa8383613a80565b9150826002028217905092915050565b613ac382612cf2565b67ffffffffffffffff811115613adc57613adb6129a1565b5b613ae68254613899565b613af1828285613a2d565b600060209050601f831160018114613b245760008415613b12578287015190505b613b1c8582613a9e565b865550613b84565b601f198416613b328661390e565b60005b82811015613b5a57848901518255600182019150602085019450602081019050613b35565b86831015613b775784890151613b73601f891682613a80565b8355505b6001600288020188555050505b505050505050565b7f4e487b7100000000000000000000000000000000000000000000000000000000600052601160045260246000fd5b6000613bc68261282a565b91507fffffffffffffffffffffffffffffffffffffffffffffffffffffffffffffffff8203613bf857613bf7613b8c565b5b600182019050919050565b600081549050613c1281613899565b9050919050565b818103613c27575050613cff565b613c3082613c03565b67ffffffffffffffff811115613c4957613c486129a1565b5b613c538254613899565b613c5e828285613a2d565b6000601f831160018114613c8d5760008415613c7b578287015490505b613c858582613a9e565b865550613cf8565b601f198416613c9b8761390e565b9650613ca68661390e565b60005b82811015613cce57848901548255600182019150600185019450602081019050613ca9565b86831015613ceb5784890154613ce7601f891682613a80565b8355505b6001600288020188555050505b5050505050505b565b6000604082019050613d1660008301856128bf565b613d236020830184612d89565b9392505050565b7f4f776e61626c653a206e6577206f776e657220697320746865207a65726f206160008201527f6464726573730000000000000000000000000000000000000000000000000000602082015250565b6000613d86602683612cfd565b9150613d9182613d2a565b604082019050919050565b60006020820190508181036000830152613db581613d79565b9050919050565b60008190508160005260206000209050919050565b601f821115613e1257613de381613dbc565b613dec84613923565b81016020851015613dfb578190505b613e0f613e0785613923565b830182613a0a565b50505b505050565b613e2082612fa3565b67ffffffffffffffff811115613e3957613e386129a1565b5b613e438254613899565b613e4e828285613dd1565b600060209050601f831160018114613e815760008415613e6f578287015190505b613e798582613a9e565b865550613ee1565b601f198416613e8f86613dbc565b60005b82811015613eb757848901518255600182019150602085019450602081019050613e92565b86831015613ed45784890151613ed0601f891682613a80565b8355505b6001600288020188555050505b505050505050565b7f4f776e61626c653a2063616c6c6572206973206e6f7420746865206f776e6572600082015250565b6000613f1f602083612cfd565b9150613f2a82613ee9565b602082019050919050565b60006020820190508181036000830152613f4e81613f12565b9050919050565b6000606082019050613f6a60008301866128bf565b613f776020830185612800565b8181036040830152613f898184613184565b9050949350505050565b6000613f9e8261282a565b9150613fa98361282a565b9250827fffffffffffffffffffffffffffffffffffffffffffffffffffffffffffffffff03821115613fde57613fdd613b8c565b5b828201905092915050565b7f736c6963655f6f766572666c6f77000000000000000000000000000000000000600082015250565b600061401f600e83612cfd565b915061402a82613fe9565b602082019050919050565b6000602082019050818103600083015261404e81614012565b9050919050565b7f736c6963655f6f75744f66426f756e6473000000000000000000000000000000600082015250565b600061408b601183612cfd565b915061409682614055565b602082019050919050565b600060208201905081810360008301526140ba8161407e565b9050919050565b60006140cc8261282a565b91506140d78361282a565b9250828210156140ea576140e9613b8c565b5b828203905092915050565b60008160601b9050919050565b600061410d826140f5565b9050919050565b600061411f82614102565b9050919050565b614137614132826128ad565b614114565b82525050565b6000819050919050565b61415861415382612915565b61413d565b82525050565b600081905092915050565b600061417482612fa3565b61417e818561415e565b935061418e818560208601612d0e565b80840191505092915050565b60006141a68287614126565b6014820191506141b68286614126565b6014820191506141c68285614147565b6020820191506141d68284614169565b915081905095945050505050565b60006040820190506141f96000830185612d89565b818103602083015261420b8184613184565b90509392505050565b600061422761422284612b15565b612a01565b90508281526020810184848401111561424357614242612b10565b5b61424e848285612d0e565b509392505050565b600082601f83011261426b5761426a61298b565b5b815161427b848260208601614214565b91505092915050565b60006020828403121561429a57614299612765565b5b600082015167ffffffffffffffff8111156142b8576142b761276a565b5b6142c484828501614256565b91505092915050565b7f4e487b7100000000000000000000000000000000000000000000000000000000600052603160045260246000fd5b6143058161276f565b82525050565b600060208201905061432060008301846142fc565b92915050565b60006143328284614169565b915081905092915050565b60008151905061434c81612834565b92915050565b60006020828403121561436857614367612765565b5b60006143768482850161433d565b9150509291505056fea26469706673582212203ee7e48ce900417f334ee5c2792ada232422473803b31e3af79aeb3e408c1c1164736f6c634300080f0033",
  "linkReferences": {},
  "deployedLinkReferences": {}
}