{
    "_format": "hh-sol-artifact-1",
    "contractName": "PinSaveOO",
    "sourceName": "contracts/PinSaveOO.sol",
    "abi": [
        {
            "inputs": [
                {
                    "internalType": "address",
                    "name": "_defaultCurrency",
                    "type": "address"
                },
                {
                    "internalType": "address",
                    "name": "_optimisticOracleV3",
                    "type": "address"
                }
            ],
            "stateMutability": "nonpayable",
            "type": "constructor"
        },
        {
            "anonymous": false,
            "inputs": [
                {
                    "indexed": true,
                    "internalType": "bytes32",
                    "name": "dataId",
                    "type": "bytes32"
                },
                {
                    "indexed": false,
                    "internalType": "bytes32",
                    "name": "data",
                    "type": "bytes32"
                },
                {
                    "indexed": true,
                    "internalType": "address",
                    "name": "asserter",
                    "type": "address"
                },
                {
                    "indexed": true,
                    "internalType": "bytes32",
                    "name": "assertionId",
                    "type": "bytes32"
                }
            ],
            "name": "DataAsserted",
            "type": "event"
        },
        {
            "anonymous": false,
            "inputs": [
                {
                    "indexed": true,
                    "internalType": "bytes32",
                    "name": "dataId",
                    "type": "bytes32"
                },
                {
                    "indexed": false,
                    "internalType": "bytes32",
                    "name": "data",
                    "type": "bytes32"
                },
                {
                    "indexed": true,
                    "internalType": "address",
                    "name": "asserter",
                    "type": "address"
                },
                {
                    "indexed": true,
                    "internalType": "bytes32",
                    "name": "assertionId",
                    "type": "bytes32"
                }
            ],
            "name": "DataAssertionResolved",
            "type": "event"
        },
        {
            "inputs": [
                {
                    "internalType": "bytes32",
                    "name": "dataId",
                    "type": "bytes32"
                },
                {
                    "internalType": "bytes32",
                    "name": "data",
                    "type": "bytes32"
                },
                {
                    "internalType": "address",
                    "name": "asserter",
                    "type": "address"
                }
            ],
            "name": "assertDataFor",
            "outputs": [
                {
                    "internalType": "bytes32",
                    "name": "assertionId",
                    "type": "bytes32"
                }
            ],
            "stateMutability": "nonpayable",
            "type": "function"
        },
        {
            "inputs": [
                {
                    "internalType": "bytes32",
                    "name": "assertionId",
                    "type": "bytes32"
                }
            ],
            "name": "assertionDisputedCallback",
            "outputs": [],
            "stateMutability": "nonpayable",
            "type": "function"
        },
        {
            "inputs": [],
            "name": "assertionLiveness",
            "outputs": [
                {
                    "internalType": "uint64",
                    "name": "",
                    "type": "uint64"
                }
            ],
            "stateMutability": "view",
            "type": "function"
        },
        {
            "inputs": [
                {
                    "internalType": "bytes32",
                    "name": "assertionId",
                    "type": "bytes32"
                },
                {
                    "internalType": "bool",
                    "name": "assertedTruthfully",
                    "type": "bool"
                }
            ],
            "name": "assertionResolvedCallback",
            "outputs": [],
            "stateMutability": "nonpayable",
            "type": "function"
        },
        {
            "inputs": [
                {
                    "internalType": "bytes32",
                    "name": "",
                    "type": "bytes32"
                }
            ],
            "name": "assertionsData",
            "outputs": [
                {
                    "internalType": "bytes32",
                    "name": "dataId",
                    "type": "bytes32"
                },
                {
                    "internalType": "bytes32",
                    "name": "data",
                    "type": "bytes32"
                },
                {
                    "internalType": "address",
                    "name": "asserter",
                    "type": "address"
                },
                {
                    "internalType": "bool",
                    "name": "resolved",
                    "type": "bool"
                },
                {
                    "internalType": "uint256",
                    "name": "counter",
                    "type": "uint256"
                }
            ],
            "stateMutability": "view",
            "type": "function"
        },
        {
            "inputs": [],
            "name": "defaultCurrency",
            "outputs": [
                {
                    "internalType": "contract IERC20",
                    "name": "",
                    "type": "address"
                }
            ],
            "stateMutability": "view",
            "type": "function"
        },
        {
            "inputs": [],
            "name": "defaultIdentifier",
            "outputs": [
                {
                    "internalType": "bytes32",
                    "name": "",
                    "type": "bytes32"
                }
            ],
            "stateMutability": "view",
            "type": "function"
        },
        {
            "inputs": [
                {
                    "internalType": "bytes32",
                    "name": "assertionId",
                    "type": "bytes32"
                }
            ],
            "name": "getAsserter",
            "outputs": [
                {
                    "internalType": "address",
                    "name": "",
                    "type": "address"
                }
            ],
            "stateMutability": "view",
            "type": "function"
        },
        {
            "inputs": [],
            "name": "getCount",
            "outputs": [
                {
                    "internalType": "uint256",
                    "name": "",
                    "type": "uint256"
                }
            ],
            "stateMutability": "view",
            "type": "function"
        },
        {
            "inputs": [
                {
                    "internalType": "bytes32",
                    "name": "assertionId",
                    "type": "bytes32"
                }
            ],
            "name": "getData",
            "outputs": [
                {
                    "internalType": "bytes32",
                    "name": "",
                    "type": "bytes32"
                }
            ],
            "stateMutability": "view",
            "type": "function"
        },
        {
            "inputs": [
                {
                    "internalType": "bytes32",
                    "name": "assertionId",
                    "type": "bytes32"
                }
            ],
            "name": "isResolved",
            "outputs": [
                {
                    "internalType": "bool",
                    "name": "",
                    "type": "bool"
                }
            ],
            "stateMutability": "view",
            "type": "function"
        },
        {
            "inputs": [],
            "name": "oo",
            "outputs": [
                {
                    "internalType": "contract OptimisticOracleV3Interface",
                    "name": "",
                    "type": "address"
                }
            ],
            "stateMutability": "view",
            "type": "function"
        }
    ],
    "bytecode": "0x60e06040523480156200001157600080fd5b5060405162001661380380620016618339810160408190526200003491620000d4565b6001600160a01b03808316608052811660a08190526040805163d509b01760e01b8152905163d509b017916004808201926020929091908290030181865afa15801562000085573d6000803e3d6000fd5b505050506040513d601f19601f82011682018060405250810190620000ab91906200010c565b60c05250620001269050565b80516001600160a01b0381168114620000cf57600080fd5b919050565b60008060408385031215620000e857600080fd5b620000f383620000b7565b91506200010360208401620000b7565b90509250929050565b6000602082840312156200011f57600080fd5b5051919050565b60805160a05160c0516114cd6200019460003960008181610278015261053501526000818161015401528181610361015281816104320152818161045901526106b401526000818160de01528181610333015281816103db01528181610410015261051101526114cd6000f3fe608060405234801561001057600080fd5b50600436106100d45760003560e01c8063b75d4e2411610081578063d509b0171161005b578063d509b01714610273578063de61ece11461029a578063f1b156b2146102d757600080fd5b8063b75d4e2414610213578063c81ce9e214610234578063d448a4ec1461026057600080fd5b806393ee663b116100b257806393ee663b14610176578063a87d942c14610189578063b33893da1461019157600080fd5b806320402e1d146100d957806354f6127f1461011d5780638921a6141461014f575b600080fd5b6101007f000000000000000000000000000000000000000000000000000000000000000081565b6040516001600160a01b0390911681526020015b60405180910390f35b61014161012b366004611046565b6000908152600160208190526040909120015490565b604051908152602001610114565b6101007f000000000000000000000000000000000000000000000000000000000000000081565b61014161018436600461105f565b6102ea565b600054610141565b6101dd61019f366004611046565b6001602081905260009182526040909120805491810154600282015460039092015490916001600160a01b03811691600160a01b90910460ff169085565b6040805195865260208601949094526001600160a01b03909216928401929092529015156060830152608082015260a001610114565b61021b603c81565b60405167ffffffffffffffff9091168152602001610114565b610100610242366004611046565b6000908152600160205260409020600201546001600160a01b031690565b61027161026e366004611046565b50565b005b6101417f000000000000000000000000000000000000000000000000000000000000000081565b6102c76102a8366004611046565b600090815260016020526040902060020154600160a01b900460ff1690565b6040519015158152602001610114565b6102716102e53660046110b2565b6106a9565b60006001600160a01b038216156103015781610303565b335b6040517f4360af3d0000000000000000000000000000000000000000000000000000000081526001600160a01b037f0000000000000000000000000000000000000000000000000000000000000000811660048301529193506000917f00000000000000000000000000000000000000000000000000000000000000001690634360af3d90602401602060405180830381865afa1580156103a8573d6000803e3d6000fd5b505050506040513d601f19601f820116820180604052508101906103cc91906110e2565b90506104036001600160a01b037f0000000000000000000000000000000000000000000000000000000000000000163330846107f0565b6104576001600160a01b037f0000000000000000000000000000000000000000000000000000000000000000167f0000000000000000000000000000000000000000000000000000000000000000836108a7565b7f00000000000000000000000000000000000000000000000000000000000000006001600160a01b0316636457c97961048f866109ff565b610498886109ff565b6104a187610a40565b6104aa42610ab8565b6104b330610a40565b6040516020016104c795949392919061113b565b60408051601f19818403018152908290527fffffffff0000000000000000000000000000000000000000000000000000000060e084901b16825261055f9187903090600090603c907f0000000000000000000000000000000000000000000000000000000000000000908a907f00000000000000000000000000000000000000000000000000000000000000009085906004016112f1565b6020604051808303816000875af115801561057e573d6000803e3d6000fd5b505050506040513d601f19601f820116820180604052508101906105a291906110e2565b91506040518060a00160405280868152602001858152602001846001600160a01b031681526020016000151581526020016000808154809291906105e590611375565b9091555090526000838152600160208181526040928390208451815590840151918101919091558282015160028201805460608601511515600160a01b027fffffffffffffffffffffff0000000000000000000000000000000000000000009091166001600160a01b039384161717905560809093015160039091015551839185169087907f29ae27364abd65b112ad0ac18e7e4f97360c20afa9636864dc91195d4d9204ec906106999089815260200190565b60405180910390a4509392505050565b336001600160a01b037f000000000000000000000000000000000000000000000000000000000000000016146106de57600080fd5b80156107a6576000828152600160208181526040928390206002810180547fffffffffffffffffffffff00ffffffffffffffffffffffffffffffffffffffff8116600160a01b90811792839055865160a0810188528454808252968501548187018190526001600160a01b039093168189018190529190930460ff16151560608401526003909301546080830152945194855293869391927fe49ab75dd8ad20084c43aacc9218434d61af074f44263f887212c41ad2d41c9d910160405180910390a4505050565b50600090815260016020819052604082208281559081018290556002810180547fffffffffffffffffffffff00000000000000000000000000000000000000000016905560030155565b6040516001600160a01b03808516602483015283166044820152606481018290526108a19085907f23b872dd00000000000000000000000000000000000000000000000000000000906084015b60408051601f198184030181529190526020810180517bffffffffffffffffffffffffffffffffffffffffffffffffffffffff167fffffffff0000000000000000000000000000000000000000000000000000000090931692909217909152610c18565b50505050565b80158061093a57506040517fdd62ed3e0000000000000000000000000000000000000000000000000000000081523060048201526001600160a01b03838116602483015284169063dd62ed3e90604401602060405180830381865afa158015610914573d6000803e3d6000fd5b505050506040513d601f19601f8201168201806040525081019061093891906110e2565b155b6109b15760405162461bcd60e51b815260206004820152603660248201527f5361666545524332303a20617070726f76652066726f6d206e6f6e2d7a65726f60448201527f20746f206e6f6e2d7a65726f20616c6c6f77616e63650000000000000000000060648201526084015b60405180910390fd5b6040516001600160a01b0383166024820152604481018290526109fa9084907f095ea7b3000000000000000000000000000000000000000000000000000000009060640161083d565b505050565b6060610a0e608083901c610cfd565b610a1783610cfd565b6040805160208101939093528201526060015b6040516020818303038152906040529050919050565b6060610a616fffffffffffffffffffffffffffffffff602084901c16610cfd565b610a7c8360601b6bffffffffffffffffffffffff1916610cfd565b604051602001610a2a9291909182527fffffffffffffffff00000000000000000000000000000000000000000000000016602082015260280190565b606081600003610afb57505060408051808201909152600181527f3000000000000000000000000000000000000000000000000000000000000000602082015290565b8160005b8115610b255780610b0f81611375565b9150610b1e9050600a836113a5565b9150610aff565b60008167ffffffffffffffff811115610b4057610b406113c7565b6040519080825280601f01601f191660200182016040528015610b6a576020820181803683370190505b509050815b8515610c0f57610b806001826113dd565b90506000610b8f600a886113a5565b610b9a90600a6113f6565b610ba490886113dd565b610baf906030611415565b905060008160f81b905080848481518110610bcc57610bcc61142e565b60200101907effffffffffffffffffffffffffffffffffffffffffffffffffffffffffffff1916908160001a905350610c06600a896113a5565b97505050610b6f565b50949350505050565b6000610c6d826040518060400160405280602081526020017f5361666545524332303a206c6f772d6c6576656c2063616c6c206661696c6564815250856001600160a01b0316610e9f9092919063ffffffff16565b8051909150156109fa5780806020019051810190610c8b9190611444565b6109fa5760405162461bcd60e51b815260206004820152602a60248201527f5361666545524332303a204552433230206f7065726174696f6e20646964206e60448201527f6f7420737563636565640000000000000000000000000000000000000000000060648201526084016109a8565b6000808260001c9050806fffffffffffffffffffffffffffffffff169050806801000000000000000002811777ffffffffffffffff0000000000000000ffffffffffffffff169050806401000000000281177bffffffff00000000ffffffff00000000ffffffff00000000ffffffff16905080620100000281177dffff0000ffff0000ffff0000ffff0000ffff0000ffff0000ffff0000ffff169050806101000281177eff00ff00ff00ff00ff00ff00ff00ff00ff00ff00ff00ff00ff00ff00ff00ff1690508060100281177f0f0f0f0f0f0f0f0f0f0f0f0f0f0f0f0f0f0f0f0f0f0f0f0f0f0f0f0f0f0f0f0f16905060006008827f08080808080808080808080808080808080808080808080808080808080808081681610e2157610e2161138f565b0460047f040404040404040404040404040404040404040404040404040404040404040484160460027f020202020202020202020202020202020202020202020202020202020202020285160417166027029091017f3030303030303030303030303030303030303030303030303030303030303030019392505050565b6060610eae8484600085610eb6565b949350505050565b606082471015610f2e5760405162461bcd60e51b815260206004820152602660248201527f416464726573733a20696e73756666696369656e742062616c616e636520666f60448201527f722063616c6c000000000000000000000000000000000000000000000000000060648201526084016109a8565b600080866001600160a01b03168587604051610f4a9190611468565b60006040518083038185875af1925050503d8060008114610f87576040519150601f19603f3d011682016040523d82523d6000602084013e610f8c565b606091505b5091509150610f9d87838387610fa8565b979650505050505050565b60608315611017578251600003611010576001600160a01b0385163b6110105760405162461bcd60e51b815260206004820152601d60248201527f416464726573733a2063616c6c20746f206e6f6e2d636f6e747261637400000060448201526064016109a8565b5081610eae565b610eae838381511561102c5781518083602001fd5b8060405162461bcd60e51b81526004016109a89190611484565b60006020828403121561105857600080fd5b5035919050565b60008060006060848603121561107457600080fd5b833592506020840135915060408401356001600160a01b038116811461109957600080fd5b809150509250925092565b801515811461026e57600080fd5b600080604083850312156110c557600080fd5b8235915060208301356110d7816110a4565b809150509250929050565b6000602082840312156110f457600080fd5b5051919050565b60005b838110156111165781810151838201526020016110fe565b50506000910152565b600081516111318185602086016110fb565b9290920192915050565b7f446174612061737365727465643a20307800000000000000000000000000000081526000865160206111748260118601838c016110fb565b7f20666f72206461746149643a203078000000000000000000000000000000000060119285019283015287516111af81838501848c016110fb565b7f20616e642061737365727465723a20307800000000000000000000000000000092018181019290925286516111eb81603185018a85016110fb565b6011818401019250507f2061742074696d657374616d703a20000000000000000000000000000000000081830152855161122b81602f8501848a016110fb565b600f818401019250507f20696e207468652044617461417373657274657220636f6e747261637420617481830152507f203078000000000000000000000000000000000000000000000000000000000060408201526112b9611290604383018661111f565b7f2069732076616c69642e000000000000000000000000000000000000000000008152600a0190565b98975050505050505050565b600081518084526112dd8160208601602086016110fb565b601f01601f19169290920160200192915050565b60006101208083526113058184018d6112c5565b6001600160a01b039b8c166020850152998b1660408401525050958816606087015267ffffffffffffffff9490941660808601529190951660a084015260c083019490945260e08201939093526101000191909152919050565b634e487b7160e01b600052601160045260246000fd5b600060001982036113885761138861135f565b5060010190565b634e487b7160e01b600052601260045260246000fd5b6000826113c257634e487b7160e01b600052601260045260246000fd5b500490565b634e487b7160e01b600052604160045260246000fd5b818103818111156113f0576113f061135f565b92915050565b60008160001904831182151516156114105761141061135f565b500290565b60ff81811683821601908111156113f0576113f061135f565b634e487b7160e01b600052603260045260246000fd5b60006020828403121561145657600080fd5b8151611461816110a4565b9392505050565b6000825161147a8184602087016110fb565b9190910192915050565b60208152600061146160208301846112c556fea2646970667358221220afd3fc7f8a9ea5b9b5f5f8ed2243b225a941d29dacc56e29bb560fc10b53380d64736f6c63430008100033",
    "linkReferences": {},
    "deployedLinkReferences": {}
}