{
  "_format": "hh-sol-artifact-1",
  "contractName": "PinSaveL8",
  "sourceName": "contracts/LSP8.sol",
  "abi": [
    {
      "inputs": [
        {
          "internalType": "string",
          "name": "name_",
          "type": "string"
        },
        {
          "internalType": "string",
          "name": "symbol_",
          "type": "string"
        },
        {
          "internalType": "address",
          "name": "newOwner_",
          "type": "address"
        }
      ],
      "stateMutability": "nonpayable",
      "type": "constructor"
    },
    {
      "inputs": [],
      "name": "LSP4TokenNameNotEditable",
      "type": "error"
    },
    {
      "inputs": [],
      "name": "LSP4TokenSymbolNotEditable",
      "type": "error"
    },
    {
      "inputs": [],
      "name": "LSP8CannotSendToAddressZero",
      "type": "error"
    },
    {
      "inputs": [],
      "name": "LSP8CannotUseAddressZeroAsOperator",
      "type": "error"
    },
    {
      "inputs": [],
      "name": "LSP8InvalidTransferBatch",
      "type": "error"
    },
    {
      "inputs": [
        {
          "internalType": "bytes32",
          "name": "tokenId",
          "type": "bytes32"
        }
      ],
      "name": "LSP8NonExistentTokenId",
      "type": "error"
    },
    {
      "inputs": [
        {
          "internalType": "bytes32",
          "name": "tokenId",
          "type": "bytes32"
        },
        {
          "internalType": "address",
          "name": "caller",
          "type": "address"
        }
      ],
      "name": "LSP8NotTokenOperator",
      "type": "error"
    },
    {
      "inputs": [
        {
          "internalType": "address",
          "name": "tokenOwner",
          "type": "address"
        },
        {
          "internalType": "bytes32",
          "name": "tokenId",
          "type": "bytes32"
        },
        {
          "internalType": "address",
          "name": "caller",
          "type": "address"
        }
      ],
      "name": "LSP8NotTokenOwner",
      "type": "error"
    },
    {
      "inputs": [
        {
          "internalType": "address",
          "name": "tokenReceiver",
          "type": "address"
        }
      ],
      "name": "LSP8NotifyTokenReceiverContractMissingLSP1Interface",
      "type": "error"
    },
    {
      "inputs": [
        {
          "internalType": "address",
          "name": "tokenReceiver",
          "type": "address"
        }
      ],
      "name": "LSP8NotifyTokenReceiverIsEOA",
      "type": "error"
    },
    {
      "inputs": [
        {
          "internalType": "bytes32",
          "name": "tokenId",
          "type": "bytes32"
        }
      ],
      "name": "LSP8TokenIdAlreadyMinted",
      "type": "error"
    },
    {
      "anonymous": false,
      "inputs": [
        {
          "indexed": true,
          "internalType": "address",
          "name": "operator",
          "type": "address"
        },
        {
          "indexed": true,
          "internalType": "address",
          "name": "tokenOwner",
          "type": "address"
        },
        {
          "indexed": true,
          "internalType": "bytes32",
          "name": "tokenId",
          "type": "bytes32"
        }
      ],
      "name": "AuthorizedOperator",
      "type": "event"
    },
    {
      "anonymous": false,
      "inputs": [
        {
          "indexed": true,
          "internalType": "bytes32",
          "name": "dataKey",
          "type": "bytes32"
        }
      ],
      "name": "DataChanged",
      "type": "event"
    },
    {
      "anonymous": false,
      "inputs": [
        {
          "indexed": true,
          "internalType": "address",
          "name": "previousOwner",
          "type": "address"
        },
        {
          "indexed": true,
          "internalType": "address",
          "name": "newOwner",
          "type": "address"
        }
      ],
      "name": "OwnershipTransferred",
      "type": "event"
    },
    {
      "anonymous": false,
      "inputs": [
        {
          "indexed": true,
          "internalType": "address",
          "name": "operator",
          "type": "address"
        },
        {
          "indexed": true,
          "internalType": "address",
          "name": "tokenOwner",
          "type": "address"
        },
        {
          "indexed": true,
          "internalType": "bytes32",
          "name": "tokenId",
          "type": "bytes32"
        }
      ],
      "name": "RevokedOperator",
      "type": "event"
    },
    {
      "anonymous": false,
      "inputs": [
        {
          "indexed": false,
          "internalType": "address",
          "name": "operator",
          "type": "address"
        },
        {
          "indexed": true,
          "internalType": "address",
          "name": "from",
          "type": "address"
        },
        {
          "indexed": true,
          "internalType": "address",
          "name": "to",
          "type": "address"
        },
        {
          "indexed": true,
          "internalType": "bytes32",
          "name": "tokenId",
          "type": "bytes32"
        },
        {
          "indexed": false,
          "internalType": "bool",
          "name": "force",
          "type": "bool"
        },
        {
          "indexed": false,
          "internalType": "bytes",
          "name": "data",
          "type": "bytes"
        }
      ],
      "name": "Transfer",
      "type": "event"
    },
    {
      "inputs": [
        {
          "internalType": "address",
          "name": "operator",
          "type": "address"
        },
        {
          "internalType": "bytes32",
          "name": "tokenId",
          "type": "bytes32"
        }
      ],
      "name": "authorizeOperator",
      "outputs": [],
      "stateMutability": "nonpayable",
      "type": "function"
    },
    {
      "inputs": [
        {
          "internalType": "address",
          "name": "tokenOwner",
          "type": "address"
        }
      ],
      "name": "balanceOf",
      "outputs": [
        {
          "internalType": "uint256",
          "name": "",
          "type": "uint256"
        }
      ],
      "stateMutability": "view",
      "type": "function"
    },
    {
      "inputs": [
        {
          "internalType": "string",
          "name": "_cid",
          "type": "string"
        },
        {
          "internalType": "bytes32",
          "name": "tokenId",
          "type": "bytes32"
        }
      ],
      "name": "createPost",
      "outputs": [],
      "stateMutability": "nonpayable",
      "type": "function"
    },
    {
      "inputs": [
        {
          "internalType": "uint256",
          "name": "id",
          "type": "uint256"
        }
      ],
      "name": "getCreator",
      "outputs": [
        {
          "internalType": "address",
          "name": "",
          "type": "address"
        }
      ],
      "stateMutability": "view",
      "type": "function"
    },
    {
      "inputs": [
        {
          "internalType": "bytes32[]",
          "name": "dataKeys",
          "type": "bytes32[]"
        }
      ],
      "name": "getData",
      "outputs": [
        {
          "internalType": "bytes[]",
          "name": "dataValues",
          "type": "bytes[]"
        }
      ],
      "stateMutability": "view",
      "type": "function"
    },
    {
      "inputs": [
        {
          "internalType": "bytes32",
          "name": "dataKey",
          "type": "bytes32"
        }
      ],
      "name": "getData",
      "outputs": [
        {
          "internalType": "bytes",
          "name": "dataValue",
          "type": "bytes"
        }
      ],
      "stateMutability": "view",
      "type": "function"
    },
    {
      "inputs": [
        {
          "internalType": "bytes32",
          "name": "tokenId",
          "type": "bytes32"
        }
      ],
      "name": "getOperatorsOf",
      "outputs": [
        {
          "internalType": "address[]",
          "name": "",
          "type": "address[]"
        }
      ],
      "stateMutability": "view",
      "type": "function"
    },
    {
      "inputs": [
        {
          "internalType": "uint256",
          "name": "id",
          "type": "uint256"
        }
      ],
      "name": "getPost",
      "outputs": [
        {
          "internalType": "string",
          "name": "",
          "type": "string"
        }
      ],
      "stateMutability": "view",
      "type": "function"
    },
    {
      "inputs": [
        {
          "internalType": "uint256",
          "name": "id",
          "type": "uint256"
        }
      ],
      "name": "getPostOwner",
      "outputs": [
        {
          "internalType": "address",
          "name": "",
          "type": "address"
        }
      ],
      "stateMutability": "view",
      "type": "function"
    },
    {
      "inputs": [
        {
          "internalType": "address",
          "name": "operator",
          "type": "address"
        },
        {
          "internalType": "bytes32",
          "name": "tokenId",
          "type": "bytes32"
        }
      ],
      "name": "isOperatorFor",
      "outputs": [
        {
          "internalType": "bool",
          "name": "",
          "type": "bool"
        }
      ],
      "stateMutability": "view",
      "type": "function"
    },
    {
      "inputs": [],
      "name": "owner",
      "outputs": [
        {
          "internalType": "address",
          "name": "",
          "type": "address"
        }
      ],
      "stateMutability": "view",
      "type": "function"
    },
    {
      "inputs": [
        {
          "internalType": "uint256",
          "name": "",
          "type": "uint256"
        }
      ],
      "name": "postByTokenId",
      "outputs": [
        {
          "internalType": "string",
          "name": "cid",
          "type": "string"
        },
        {
          "internalType": "address",
          "name": "author",
          "type": "address"
        },
        {
          "internalType": "uint256",
          "name": "id",
          "type": "uint256"
        },
        {
          "internalType": "bytes32",
          "name": "tokenId",
          "type": "bytes32"
        }
      ],
      "stateMutability": "view",
      "type": "function"
    },
    {
      "inputs": [
        {
          "internalType": "uint256",
          "name": "",
          "type": "uint256"
        }
      ],
      "name": "postsIds",
      "outputs": [
        {
          "internalType": "uint256",
          "name": "",
          "type": "uint256"
        }
      ],
      "stateMutability": "view",
      "type": "function"
    },
    {
      "inputs": [],
      "name": "renounceOwnership",
      "outputs": [],
      "stateMutability": "nonpayable",
      "type": "function"
    },
    {
      "inputs": [
        {
          "internalType": "address",
          "name": "operator",
          "type": "address"
        },
        {
          "internalType": "bytes32",
          "name": "tokenId",
          "type": "bytes32"
        }
      ],
      "name": "revokeOperator",
      "outputs": [],
      "stateMutability": "nonpayable",
      "type": "function"
    },
    {
      "inputs": [
        {
          "internalType": "bytes32[]",
          "name": "dataKeys",
          "type": "bytes32[]"
        },
        {
          "internalType": "bytes[]",
          "name": "dataValues",
          "type": "bytes[]"
        }
      ],
      "name": "setData",
      "outputs": [],
      "stateMutability": "nonpayable",
      "type": "function"
    },
    {
      "inputs": [
        {
          "internalType": "bytes32",
          "name": "dataKey",
          "type": "bytes32"
        },
        {
          "internalType": "bytes",
          "name": "dataValue",
          "type": "bytes"
        }
      ],
      "name": "setData",
      "outputs": [],
      "stateMutability": "nonpayable",
      "type": "function"
    },
    {
      "inputs": [
        {
          "internalType": "bytes4",
          "name": "interfaceId",
          "type": "bytes4"
        }
      ],
      "name": "supportsInterface",
      "outputs": [
        {
          "internalType": "bool",
          "name": "",
          "type": "bool"
        }
      ],
      "stateMutability": "view",
      "type": "function"
    },
    {
      "inputs": [
        {
          "internalType": "address",
          "name": "tokenOwner",
          "type": "address"
        }
      ],
      "name": "tokenIdsOf",
      "outputs": [
        {
          "internalType": "bytes32[]",
          "name": "",
          "type": "bytes32[]"
        }
      ],
      "stateMutability": "view",
      "type": "function"
    },
    {
      "inputs": [
        {
          "internalType": "bytes32",
          "name": "tokenId",
          "type": "bytes32"
        }
      ],
      "name": "tokenOwnerOf",
      "outputs": [
        {
          "internalType": "address",
          "name": "",
          "type": "address"
        }
      ],
      "stateMutability": "view",
      "type": "function"
    },
    {
      "inputs": [],
      "name": "totalSupply",
      "outputs": [
        {
          "internalType": "uint256",
          "name": "",
          "type": "uint256"
        }
      ],
      "stateMutability": "view",
      "type": "function"
    },
    {
      "inputs": [
        {
          "internalType": "address",
          "name": "from",
          "type": "address"
        },
        {
          "internalType": "address",
          "name": "to",
          "type": "address"
        },
        {
          "internalType": "bytes32",
          "name": "tokenId",
          "type": "bytes32"
        },
        {
          "internalType": "bool",
          "name": "force",
          "type": "bool"
        },
        {
          "internalType": "bytes",
          "name": "data",
          "type": "bytes"
        }
      ],
      "name": "transfer",
      "outputs": [],
      "stateMutability": "nonpayable",
      "type": "function"
    },
    {
      "inputs": [
        {
          "internalType": "address[]",
          "name": "from",
          "type": "address[]"
        },
        {
          "internalType": "address[]",
          "name": "to",
          "type": "address[]"
        },
        {
          "internalType": "bytes32[]",
          "name": "tokenId",
          "type": "bytes32[]"
        },
        {
          "internalType": "bool",
          "name": "force",
          "type": "bool"
        },
        {
          "internalType": "bytes[]",
          "name": "data",
          "type": "bytes[]"
        }
      ],
      "name": "transferBatch",
      "outputs": [],
      "stateMutability": "nonpayable",
      "type": "function"
    },
    {
      "inputs": [
        {
          "internalType": "address",
          "name": "newOwner",
          "type": "address"
        }
      ],
      "name": "transferOwnership",
      "outputs": [],
      "stateMutability": "nonpayable",
      "type": "function"
    }
  ],
  "bytecode": "0x60806040523480156200001157600080fd5b50604051620045e4380380620045e48339818101604052810190620000379190620004ce565b8282828282828062000054816200014760201b620010f11760201c565b50620000c47feafec4d89fa9619884b60000a4d96624a38f7ac2d8d9a604ecf07c12c77e480c60001b6040518060400160405280600481526020017fa4d96624000000000000000000000000000000000000000000000000000000008152506200024f60201b620011f01760201c565b620000fe7fdeba1e292f8ba88238e10ab3c7f88bd4be4fac56cad5194b6ecceaf653468af160001b846200024f60201b620011f01760201c565b620001387f2f0a68ab07768e01943a599e73362a0e17a63a72e94dd2e384d2c1d4db93275660001b836200024f60201b620011f01760201c565b5050505050505050506200089a565b62000157620002a360201b60201c565b73ffffffffffffffffffffffffffffffffffffffff168173ffffffffffffffffffffffffffffffffffffffff16146200024c5760008060009054906101000a900473ffffffffffffffffffffffffffffffffffffffff169050816000806101000a81548173ffffffffffffffffffffffffffffffffffffffff021916908373ffffffffffffffffffffffffffffffffffffffff1602179055508173ffffffffffffffffffffffffffffffffffffffff168173ffffffffffffffffffffffffffffffffffffffff167f8be0079c531659141344cd1fd0a4f28419497f9722a3daafe3b4186f6b6457e060405160405180910390a3505b50565b80600160008481526020019081526020016000209081620002719190620007b3565b50817fcdf4e344c0d23d4cdd0474039d176c55b19d531070dbe17856bfb993a5b5720b60405160405180910390a25050565b60008060009054906101000a900473ffffffffffffffffffffffffffffffffffffffff16905090565b6000604051905090565b600080fd5b600080fd5b600080fd5b600080fd5b6000601f19601f8301169050919050565b7f4e487b7100000000000000000000000000000000000000000000000000000000600052604160045260246000fd5b6200033582620002ea565b810181811067ffffffffffffffff82111715620003575762000356620002fb565b5b80604052505050565b60006200036c620002cc565b90506200037a82826200032a565b919050565b600067ffffffffffffffff8211156200039d576200039c620002fb565b5b620003a882620002ea565b9050602081019050919050565b60005b83811015620003d5578082015181840152602081019050620003b8565b83811115620003e5576000848401525b50505050565b600062000402620003fc846200037f565b62000360565b905082815260208101848484011115620004215762000420620002e5565b5b6200042e848285620003b5565b509392505050565b600082601f8301126200044e576200044d620002e0565b5b815162000460848260208601620003eb565b91505092915050565b600073ffffffffffffffffffffffffffffffffffffffff82169050919050565b6000620004968262000469565b9050919050565b620004a88162000489565b8114620004b457600080fd5b50565b600081519050620004c8816200049d565b92915050565b600080600060608486031215620004ea57620004e9620002d6565b5b600084015167ffffffffffffffff8111156200050b576200050a620002db565b5b620005198682870162000436565b935050602084015167ffffffffffffffff8111156200053d576200053c620002db565b5b6200054b8682870162000436565b92505060406200055e86828701620004b7565b9150509250925092565b600081519050919050565b7f4e487b7100000000000000000000000000000000000000000000000000000000600052602260045260246000fd5b60006002820490506001821680620005bb57607f821691505b602082108103620005d157620005d062000573565b5b50919050565b60008190508160005260206000209050919050565b60006020601f8301049050919050565b600082821b905092915050565b6000600883026200063b7fffffffffffffffffffffffffffffffffffffffffffffffffffffffffffffffff82620005fc565b620006478683620005fc565b95508019841693508086168417925050509392505050565b6000819050919050565b6000819050919050565b6000620006946200068e62000688846200065f565b62000669565b6200065f565b9050919050565b6000819050919050565b620006b08362000673565b620006c8620006bf826200069b565b84845462000609565b825550505050565b600090565b620006df620006d0565b620006ec818484620006a5565b505050565b5b81811015620007145762000708600082620006d5565b600181019050620006f2565b5050565b601f82111562000763576200072d81620005d7565b6200073884620005ec565b8101602085101562000748578190505b620007606200075785620005ec565b830182620006f1565b50505b505050565b600082821c905092915050565b6000620007886000198460080262000768565b1980831691505092915050565b6000620007a3838362000775565b9150826002028217905092915050565b620007be8262000568565b67ffffffffffffffff811115620007da57620007d9620002fb565b5b620007e68254620005a2565b620007f382828562000718565b600060209050601f8311600181146200082b576000841562000816578287015190505b62000822858262000795565b86555062000892565b601f1984166200083b86620005d7565b60005b8281101562000865578489015182556001820191506020850194506020810190506200083e565b8683101562000885578489015162000881601f89168262000775565b8355505b6001600288020188555050505b505050505050565b613d3a80620008aa6000396000f3fe608060405234801561001057600080fd5b50600436106101585760003560e01c806354f6127f116100c35780638da5cb5b1161007c5780638da5cb5b14610410578063a3b261f21461042e578063abe48cc91461045e578063cf5182ba1461048e578063d48e638a146104aa578063f2fde38b146104da57610158565b806354f6127f1461035257806355908868146103825780636b3f13ce1461039e57806370a08231146103ba578063715018a6146103ea5780637f23690c146103f457610158565b8063217b227011610115578063217b2270146102465780632a3654a41461027657806340731c24146102a657806349a6078d146102d65780634e3e6e9c14610306578063511b69521461033657610158565b806301ffc9a71461015d578063085f441f1461018d5780630b0c6d82146101bd57806314a6e293146101d957806316ebbe04146101f557806318160ddd14610228575b600080fd5b610177600480360381019061017291906123cc565b6104f6565b6040516101849190612414565b60405180910390f35b6101a760048036038101906101a29190612465565b610557565b6040516101b491906124d3565b60405180910390f35b6101d760048036038101906101d29190612550565b61057f565b005b6101f360048036038101906101ee919061287f565b6106be565b005b61020f600480360381019061020a9190612465565b610769565b60405161021f949392919061299d565b60405180910390f35b610230610841565b60405161023d91906129e9565b60405180910390f35b610260600480360381019061025b9190612a04565b61084b565b60405161026d91906124d3565b60405180910390f35b610290600480360381019061028b9190612550565b6108fe565b60405161029d9190612414565b60405180910390f35b6102c060048036038101906102bb9190612465565b61091b565b6040516102cd9190612a31565b60405180910390f35b6102f060048036038101906102eb9190612a04565b6109c3565b6040516102fd9190612b11565b60405180910390f35b610320600480360381019061031b9190612b33565b6109f0565b60405161032d9190612c93565b60405180910390f35b610350600480360381019061034b9190612ce1565b610aa6565b005b61036c60048036038101906103679190612a04565b610b14565b6040516103799190612dc2565b60405180910390f35b61039c60048036038101906103979190612ea7565b610b26565b005b6103b860048036038101906103b39190613033565b610c19565b005b6103d460048036038101906103cf919061308f565b610d62565b6040516103e191906129e9565b60405180910390f35b6103f2610db2565b005b61040e600480360381019061040991906130bc565b610dc6565b005b610418610ddc565b60405161042591906124d3565b60405180910390f35b6104486004803603810190610443919061308f565b610e05565b60405161045591906131d6565b60405180910390f35b61047860048036038101906104739190612465565b610e55565b60405161048591906129e9565b60405180910390f35b6104a860048036038101906104a39190612550565b610e79565b005b6104c460048036038101906104bf9190612465565b61102e565b6040516104d191906124d3565b60405180910390f35b6104f460048036038101906104ef919061308f565b61106e565b005b6000634939914560e01b7bffffffffffffffffffffffffffffffffffffffffffffffffffffffff1916827bffffffffffffffffffffffffffffffffffffffffffffffffffffffff19161480610550575061054f82611242565b5b9050919050565b6000610578600c60008481526020019081526020016000206003015461084b565b9050919050565b600061058a8261084b565b905060006105966112a3565b90508073ffffffffffffffffffffffffffffffffffffffff168273ffffffffffffffffffffffffffffffffffffffff161461060c578183826040517f5b271ea2000000000000000000000000000000000000000000000000000000008152600401610603939291906131f8565b60405180910390fd5b600073ffffffffffffffffffffffffffffffffffffffff168473ffffffffffffffffffffffffffffffffffffffff1603610672576040517f9577b8b300000000000000000000000000000000000000000000000000000000815260040160405180910390fd5b8373ffffffffffffffffffffffffffffffffffffffff168273ffffffffffffffffffffffffffffffffffffffff16036106ac5750506106ba565b6106b78483856112ab565b50505b5050565b6106c6611331565b805182511461070a576040517f08c379a0000000000000000000000000000000000000000000000000000000008152600401610701906132a1565b60405180910390fd5b60005b82518110156107645761075483828151811061072c5761072b6132c1565b5b6020026020010151838381518110610747576107466132c1565b5b60200260200101516113a8565b61075d8161146e565b905061070d565b505050565b600c60205280600052604060002060009150905080600001805461078c9061331f565b80601f01602080910402602001604051908101604052809291908181526020018280546107b89061331f565b80156108055780601f106107da57610100808354040283529160200191610805565b820191906000526020600020905b8154815290600101906020018083116107e857829003601f168201915b5050505050908060010160009054906101000a900473ffffffffffffffffffffffffffffffffffffffff16908060020154908060030154905084565b6000600254905090565b6000806003600084815260200190815260200160002060009054906101000a900473ffffffffffffffffffffffffffffffffffffffff169050600073ffffffffffffffffffffffffffffffffffffffff168173ffffffffffffffffffffffffffffffffffffffff16036108f557826040517fae8f9a360000000000000000000000000000000000000000000000000000000081526004016108ec9190613350565b60405180910390fd5b80915050919050565b60006109098261147b565b61091383836114c8565b905092915050565b6060600c6000838152602001908152602001600020600001805461093e9061331f565b80601f016020809104026020016040519081016040528092919081815260200182805461096a9061331f565b80156109b75780601f1061098c576101008083540402835291602001916109b7565b820191906000526020600020905b81548152906001019060200180831161099a57829003601f168201915b50505050509050919050565b60606109ce8261147b565b6109e96005600084815260200190815260200160002061153a565b9050919050565b6060815167ffffffffffffffff811115610a0d57610a0c6125a6565b5b604051908082528060200260200182016040528015610a4057816020015b6060815260200190600190039081610a2b5790505b50905060005b8251811015610aa057610a72838281518110610a6557610a646132c1565b5b602002602001015161155b565b828281518110610a8557610a846132c1565b5b6020026020010181905250610a998161146e565b9050610a46565b50919050565b6000610ab06112a3565b9050610abc81856114c8565b610aff5783816040517f1294d2a9000000000000000000000000000000000000000000000000000000008152600401610af692919061336b565b60405180910390fd5b610b0c8686868686611600565b505050505050565b6060610b1f8261155b565b9050919050565b83518551141580610b3957508251855114155b80610b4657508051855114155b15610b7d576040517f93a8311900000000000000000000000000000000000000000000000000000000815260040160405180910390fd5b60005b8551811015610c1157610bfe868281518110610b9f57610b9e6132c1565b5b6020026020010151868381518110610bba57610bb96132c1565b5b6020026020010151868481518110610bd557610bd46132c1565b5b602002602001015186868681518110610bf157610bf06132c1565b5b6020026020010151610aa6565b8080610c09906133c3565b915050610b80565b505050505050565b8160066000019081610c2b91906135b7565b5033600660010160006101000a81548173ffffffffffffffffffffffffffffffffffffffff021916908373ffffffffffffffffffffffffffffffffffffffff160217905550600a60008154610c7f906133c3565b919050819055600660020181905550806006600301819055506006600c6000600a54815260200190815260200160002060008201816000019081610cc3919061369f565b506001820160009054906101000a900473ffffffffffffffffffffffffffffffffffffffff168160010160006101000a81548173ffffffffffffffffffffffffffffffffffffffff021916908373ffffffffffffffffffffffffffffffffffffffff1602179055506002820154816002015560038201548160030155905050610d5e338260016040518060200160405280600081525061188a565b5050565b6000610dab600460008473ffffffffffffffffffffffffffffffffffffffff1673ffffffffffffffffffffffffffffffffffffffff168152602001908152602001600020611a77565b9050919050565b610dba611331565b610dc460006110f1565b565b610dce611331565b610dd882826113a8565b5050565b60008060009054906101000a900473ffffffffffffffffffffffffffffffffffffffff16905090565b6060610e4e600460008473ffffffffffffffffffffffffffffffffffffffff1673ffffffffffffffffffffffffffffffffffffffff168152602001908152602001600020611a8c565b9050919050565b600b8181548110610e6557600080fd5b906000526020600020016000915090505481565b6000610e848261084b565b90506000610e906112a3565b90508073ffffffffffffffffffffffffffffffffffffffff168273ffffffffffffffffffffffffffffffffffffffff1614610f06578183826040517f5b271ea2000000000000000000000000000000000000000000000000000000008152600401610efd939291906131f8565b60405180910390fd5b600073ffffffffffffffffffffffffffffffffffffffff168473ffffffffffffffffffffffffffffffffffffffff1603610f6c576040517f9577b8b300000000000000000000000000000000000000000000000000000000815260040160405180910390fd5b8373ffffffffffffffffffffffffffffffffffffffff168273ffffffffffffffffffffffffffffffffffffffff1603610fa657505061102a565b610fcb8460056000868152602001908152602001600020611aa190919063ffffffff16565b50828273ffffffffffffffffffffffffffffffffffffffff168573ffffffffffffffffffffffffffffffffffffffff167f34b797fc5a526f7bf1d2b5de25f6564fd85ae364e3ee939aee7c1ac27871a98860405160405180910390a450505b5050565b6000600c600083815260200190815260200160002060010160009054906101000a900473ffffffffffffffffffffffffffffffffffffffff169050919050565b611076611331565b600073ffffffffffffffffffffffffffffffffffffffff168173ffffffffffffffffffffffffffffffffffffffff16036110e5576040517f08c379a00000000000000000000000000000000000000000000000000000000081526004016110dc906137f9565b60405180910390fd5b6110ee816110f1565b50565b6110f9610ddc565b73ffffffffffffffffffffffffffffffffffffffff168173ffffffffffffffffffffffffffffffffffffffff16146111ed5760008060009054906101000a900473ffffffffffffffffffffffffffffffffffffffff169050816000806101000a81548173ffffffffffffffffffffffffffffffffffffffff021916908373ffffffffffffffffffffffffffffffffffffffff1602179055508173ffffffffffffffffffffffffffffffffffffffff168173ffffffffffffffffffffffffffffffffffffffff167f8be0079c531659141344cd1fd0a4f28419497f9722a3daafe3b4186f6b6457e060405160405180910390a3505b50565b806001600084815260200190815260200160002090816112109190613874565b50817fcdf4e344c0d23d4cdd0474039d176c55b19d531070dbe17856bfb993a5b5720b60405160405180910390a25050565b600063714df77c60e01b7bffffffffffffffffffffffffffffffffffffffffffffffffffffffff1916827bffffffffffffffffffffffffffffffffffffffffffffffffffffffff1916148061129c575061129b82611ad1565b5b9050919050565b600033905090565b6112d08360056000848152602001908152602001600020611b3b90919063ffffffff16565b50808273ffffffffffffffffffffffffffffffffffffffff168473ffffffffffffffffffffffffffffffffffffffff167f17d5389f6ab6adb2647dfa0aa365c323d37adacc30b33a65310b6158ce1373d560405160405180910390a4505050565b3373ffffffffffffffffffffffffffffffffffffffff16611350610ddc565b73ffffffffffffffffffffffffffffffffffffffff16146113a6576040517f08c379a000000000000000000000000000000000000000000000000000000000815260040161139d90613992565b60405180910390fd5b565b7fdeba1e292f8ba88238e10ab3c7f88bd4be4fac56cad5194b6ecceaf653468af160001b8203611404576040517f85c169bd00000000000000000000000000000000000000000000000000000000815260040160405180910390fd5b7f2f0a68ab07768e01943a599e73362a0e17a63a72e94dd2e384d2c1d4db93275660001b8203611460576040517f76755b3800000000000000000000000000000000000000000000000000000000815260040160405180910390fd5b61146a82826111f0565b5050565b6000600182019050919050565b61148481611b6b565b6114c557806040517fae8f9a360000000000000000000000000000000000000000000000000000000081526004016114bc9190613350565b60405180910390fd5b50565b6000806114d48361084b565b90508073ffffffffffffffffffffffffffffffffffffffff168473ffffffffffffffffffffffffffffffffffffffff16148061153157506115308460056000868152602001908152602001600020611bd790919063ffffffff16565b5b91505092915050565b6060600061154a83600001611c07565b905060608190508092505050919050565b606060016000838152602001908152602001600020805461157b9061331f565b80601f01602080910402602001604051908101604052809291908181526020018280546115a79061331f565b80156115f45780601f106115c9576101008083540402835291602001916115f4565b820191906000526020600020905b8154815290600101906020018083116115d757829003601f168201915b50505050509050919050565b600061160b8461084b565b90508573ffffffffffffffffffffffffffffffffffffffff168173ffffffffffffffffffffffffffffffffffffffff1614611681578084876040517f5b271ea2000000000000000000000000000000000000000000000000000000008152600401611678939291906131f8565b60405180910390fd5b600073ffffffffffffffffffffffffffffffffffffffff168573ffffffffffffffffffffffffffffffffffffffff16036116e7576040517f24ecef4d00000000000000000000000000000000000000000000000000000000815260040160405180910390fd5b60006116f16112a3565b90506116fe878787611c63565b6117088786611d06565b61175985600460008a73ffffffffffffffffffffffffffffffffffffffff1673ffffffffffffffffffffffffffffffffffffffff168152602001908152602001600020611d7390919063ffffffff16565b506117ab85600460008973ffffffffffffffffffffffffffffffffffffffff1673ffffffffffffffffffffffffffffffffffffffff168152602001908152602001600020611d8a90919063ffffffff16565b50856003600087815260200190815260200160002060006101000a81548173ffffffffffffffffffffffffffffffffffffffff021916908373ffffffffffffffffffffffffffffffffffffffff160217905550848673ffffffffffffffffffffffffffffffffffffffff168873ffffffffffffffffffffffffffffffffffffffff167fb333c813a7426a7a11e2b190cad52c44119421594b47f6f32ace6d8c7207b2bf848888604051611860939291906139b2565b60405180910390a461187487878786611da1565b6118818787878787611e90565b50505050505050565b600073ffffffffffffffffffffffffffffffffffffffff168473ffffffffffffffffffffffffffffffffffffffff16036118f0576040517f24ecef4d00000000000000000000000000000000000000000000000000000000815260040160405180910390fd5b6118f983611b6b565b1561193b57826040517f34c7b5110000000000000000000000000000000000000000000000000000000081526004016119329190613350565b60405180910390fd5b60006119456112a3565b905061195360008686611c63565b6119a484600460008873ffffffffffffffffffffffffffffffffffffffff1673ffffffffffffffffffffffffffffffffffffffff168152602001908152602001600020611d8a90919063ffffffff16565b50846003600086815260200190815260200160002060006101000a81548173ffffffffffffffffffffffffffffffffffffffff021916908373ffffffffffffffffffffffffffffffffffffffff160217905550838573ffffffffffffffffffffffffffffffffffffffff16600073ffffffffffffffffffffffffffffffffffffffff167fb333c813a7426a7a11e2b190cad52c44119421594b47f6f32ace6d8c7207b2bf848787604051611a5a939291906139b2565b60405180910390a4611a70600086868686611e90565b5050505050565b6000611a8582600001612023565b9050919050565b6060611a9a82600001611c07565b9050919050565b6000611ac9836000018373ffffffffffffffffffffffffffffffffffffffff1660001b612034565b905092915050565b60007f01ffc9a7000000000000000000000000000000000000000000000000000000007bffffffffffffffffffffffffffffffffffffffffffffffffffffffff1916827bffffffffffffffffffffffffffffffffffffffffffffffffffffffff1916149050919050565b6000611b63836000018373ffffffffffffffffffffffffffffffffffffffff1660001b6120a4565b905092915050565b60008073ffffffffffffffffffffffffffffffffffffffff166003600084815260200190815260200160002060009054906101000a900473ffffffffffffffffffffffffffffffffffffffff1673ffffffffffffffffffffffffffffffffffffffff1614159050919050565b6000611bff836000018373ffffffffffffffffffffffffffffffffffffffff1660001b6121b8565b905092915050565b606081600001805480602002602001604051908101604052809291908181526020018280548015611c5757602002820191906000526020600020905b815481526020019060010190808311611c43575b50505050509050919050565b600073ffffffffffffffffffffffffffffffffffffffff168373ffffffffffffffffffffffffffffffffffffffff1603611cb257600160026000828254611caa91906139f0565b925050819055505b600073ffffffffffffffffffffffffffffffffffffffff168273ffffffffffffffffffffffffffffffffffffffff1603611d0157600160026000828254611cf99190613a46565b925050819055505b505050565b60006005600083815260200190815260200160002090506000611d28826121db565b905060005b81811015611d6c576000611d4b6000856121f090919063ffffffff16565b9050611d588187876112ab565b508080611d64906133c3565b915050611d2d565b5050505050565b6000611d8283600001836120a4565b905092915050565b6000611d998360000183612034565b905092915050565b611db284636bb56a1460e01b61220a565b15611e8a57600084848484604051602001611dd09493929190613b1f565b60405160208183030381529060405290508473ffffffffffffffffffffffffffffffffffffffff16636bb56a147f3724c94f0815e936299cca424da4140752198e0beb7931a6e0925d11bc97544c60001b836040518363ffffffff1660e01b8152600401611e3f929190613b69565b6000604051808303816000875af1158015611e5e573d6000803e3d6000fd5b505050506040513d6000823e3d601f19601f82011682018060405250810190611e879190613c09565b50505b50505050565b611ea184636bb56a1460e01b61220a565b15611f7d57600085858584604051602001611ebf9493929190613b1f565b60405160208183030381529060405290508473ffffffffffffffffffffffffffffffffffffffff16636bb56a147fc7a120a42b6057a0cbed111fbbfbd52fcd96748c04394f77fc2c3adbe0391e0160001b836040518363ffffffff1660e01b8152600401611f2e929190613b69565b6000604051808303816000875af1158015611f4d573d6000803e3d6000fd5b505050506040513d6000823e3d601f19601f82011682018060405250810190611f769190613c09565b505061201c565b8161201b5760008473ffffffffffffffffffffffffffffffffffffffff163b14611fde57836040517f4349776d000000000000000000000000000000000000000000000000000000008152600401611fd591906124d3565b60405180910390fd5b836040517f0317313700000000000000000000000000000000000000000000000000000000815260040161201291906124d3565b60405180910390fd5b5b5050505050565b600081600001805490509050919050565b600061204083836121b8565b61209957826000018290806001815401808255809150506001900390600052602060002001600090919091909150558260000180549050836001016000848152602001908152602001600020819055506001905061209e565b600090505b92915050565b600080836001016000848152602001908152602001600020549050600081146121ac5760006001826120d69190613a46565b90506000600186600001805490506120ee9190613a46565b905081811461215d57600086600001828154811061210f5761210e6132c1565b5b9060005260206000200154905080876000018481548110612133576121326132c1565b5b90600052602060002001819055508387600101600083815260200190815260200160002081905550505b8560000180548061217157612170613c52565b5b6001900381819060005260206000200160009055905585600101600086815260200190815260200160002060009055600193505050506121b2565b60009150505b92915050565b600080836001016000848152602001908152602001600020541415905092915050565b60006121e982600001612023565b9050919050565b60006121ff8360000183612335565b60001c905092915050565b6000806301ffc9a760e01b836040516024016122269190613c90565b604051602081830303815290604052907bffffffffffffffffffffffffffffffffffffffffffffffffffffffff19166020820180517bffffffffffffffffffffffffffffffffffffffffffffffffffffffff838183161783525050505090506000808573ffffffffffffffffffffffffffffffffffffffff16617530846040516122b09190613cab565b6000604051808303818686fa925050503d80600081146122ec576040519150601f19603f3d011682016040523d82523d6000602084013e6122f1565b606091505b509150915060208151101561230c576000935050505061232f565b8180156123295750808060200190518101906123289190613cd7565b5b93505050505b92915050565b600082600001828154811061234d5761234c6132c1565b5b9060005260206000200154905092915050565b6000604051905090565b600080fd5b600080fd5b60007fffffffff0000000000000000000000000000000000000000000000000000000082169050919050565b6123a981612374565b81146123b457600080fd5b50565b6000813590506123c6816123a0565b92915050565b6000602082840312156123e2576123e161236a565b5b60006123f0848285016123b7565b91505092915050565b60008115159050919050565b61240e816123f9565b82525050565b60006020820190506124296000830184612405565b92915050565b6000819050919050565b6124428161242f565b811461244d57600080fd5b50565b60008135905061245f81612439565b92915050565b60006020828403121561247b5761247a61236a565b5b600061248984828501612450565b91505092915050565b600073ffffffffffffffffffffffffffffffffffffffff82169050919050565b60006124bd82612492565b9050919050565b6124cd816124b2565b82525050565b60006020820190506124e860008301846124c4565b92915050565b6124f7816124b2565b811461250257600080fd5b50565b600081359050612514816124ee565b92915050565b6000819050919050565b61252d8161251a565b811461253857600080fd5b50565b60008135905061254a81612524565b92915050565b600080604083850312156125675761256661236a565b5b600061257585828601612505565b92505060206125868582860161253b565b9150509250929050565b600080fd5b6000601f19601f8301169050919050565b7f4e487b7100000000000000000000000000000000000000000000000000000000600052604160045260246000fd5b6125de82612595565b810181811067ffffffffffffffff821117156125fd576125fc6125a6565b5b80604052505050565b6000612610612360565b905061261c82826125d5565b919050565b600067ffffffffffffffff82111561263c5761263b6125a6565b5b602082029050602081019050919050565b600080fd5b600061266561266084612621565b612606565b905080838252602082019050602084028301858111156126885761268761264d565b5b835b818110156126b1578061269d888261253b565b84526020840193505060208101905061268a565b5050509392505050565b600082601f8301126126d0576126cf612590565b5b81356126e0848260208601612652565b91505092915050565b600067ffffffffffffffff821115612704576127036125a6565b5b602082029050602081019050919050565b600080fd5b600067ffffffffffffffff821115612735576127346125a6565b5b61273e82612595565b9050602081019050919050565b82818337600083830152505050565b600061276d6127688461271a565b612606565b90508281526020810184848401111561278957612788612715565b5b61279484828561274b565b509392505050565b600082601f8301126127b1576127b0612590565b5b81356127c184826020860161275a565b91505092915050565b60006127dd6127d8846126e9565b612606565b90508083825260208201905060208402830185811115612800576127ff61264d565b5b835b8181101561284757803567ffffffffffffffff81111561282557612824612590565b5b808601612832898261279c565b85526020850194505050602081019050612802565b5050509392505050565b600082601f83011261286657612865612590565b5b81356128768482602086016127ca565b91505092915050565b600080604083850312156128965761289561236a565b5b600083013567ffffffffffffffff8111156128b4576128b361236f565b5b6128c0858286016126bb565b925050602083013567ffffffffffffffff8111156128e1576128e061236f565b5b6128ed85828601612851565b9150509250929050565b600081519050919050565b600082825260208201905092915050565b60005b83811015612931578082015181840152602081019050612916565b83811115612940576000848401525b50505050565b6000612951826128f7565b61295b8185612902565b935061296b818560208601612913565b61297481612595565b840191505092915050565b6129888161242f565b82525050565b6129978161251a565b82525050565b600060808201905081810360008301526129b78187612946565b90506129c660208301866124c4565b6129d3604083018561297f565b6129e0606083018461298e565b95945050505050565b60006020820190506129fe600083018461297f565b92915050565b600060208284031215612a1a57612a1961236a565b5b6000612a288482850161253b565b91505092915050565b60006020820190508181036000830152612a4b8184612946565b905092915050565b600081519050919050565b600082825260208201905092915050565b6000819050602082019050919050565b612a88816124b2565b82525050565b6000612a9a8383612a7f565b60208301905092915050565b6000602082019050919050565b6000612abe82612a53565b612ac88185612a5e565b9350612ad383612a6f565b8060005b83811015612b04578151612aeb8882612a8e565b9750612af683612aa6565b925050600181019050612ad7565b5085935050505092915050565b60006020820190508181036000830152612b2b8184612ab3565b905092915050565b600060208284031215612b4957612b4861236a565b5b600082013567ffffffffffffffff811115612b6757612b6661236f565b5b612b73848285016126bb565b91505092915050565b600081519050919050565b600082825260208201905092915050565b6000819050602082019050919050565b600081519050919050565b600082825260208201905092915050565b6000612bcf82612ba8565b612bd98185612bb3565b9350612be9818560208601612913565b612bf281612595565b840191505092915050565b6000612c098383612bc4565b905092915050565b6000602082019050919050565b6000612c2982612b7c565b612c338185612b87565b935083602082028501612c4585612b98565b8060005b85811015612c815784840389528151612c628582612bfd565b9450612c6d83612c11565b925060208a01995050600181019050612c49565b50829750879550505050505092915050565b60006020820190508181036000830152612cad8184612c1e565b905092915050565b612cbe816123f9565b8114612cc957600080fd5b50565b600081359050612cdb81612cb5565b92915050565b600080600080600060a08688031215612cfd57612cfc61236a565b5b6000612d0b88828901612505565b9550506020612d1c88828901612505565b9450506040612d2d8882890161253b565b9350506060612d3e88828901612ccc565b925050608086013567ffffffffffffffff811115612d5f57612d5e61236f565b5b612d6b8882890161279c565b9150509295509295909350565b600082825260208201905092915050565b6000612d9482612ba8565b612d9e8185612d78565b9350612dae818560208601612913565b612db781612595565b840191505092915050565b60006020820190508181036000830152612ddc8184612d89565b905092915050565b600067ffffffffffffffff821115612dff57612dfe6125a6565b5b602082029050602081019050919050565b6000612e23612e1e84612de4565b612606565b90508083825260208201905060208402830185811115612e4657612e4561264d565b5b835b81811015612e6f5780612e5b8882612505565b845260208401935050602081019050612e48565b5050509392505050565b600082601f830112612e8e57612e8d612590565b5b8135612e9e848260208601612e10565b91505092915050565b600080600080600060a08688031215612ec357612ec261236a565b5b600086013567ffffffffffffffff811115612ee157612ee061236f565b5b612eed88828901612e79565b955050602086013567ffffffffffffffff811115612f0e57612f0d61236f565b5b612f1a88828901612e79565b945050604086013567ffffffffffffffff811115612f3b57612f3a61236f565b5b612f47888289016126bb565b9350506060612f5888828901612ccc565b925050608086013567ffffffffffffffff811115612f7957612f7861236f565b5b612f8588828901612851565b9150509295509295909350565b600067ffffffffffffffff821115612fad57612fac6125a6565b5b612fb682612595565b9050602081019050919050565b6000612fd6612fd184612f92565b612606565b905082815260208101848484011115612ff257612ff1612715565b5b612ffd84828561274b565b509392505050565b600082601f83011261301a57613019612590565b5b813561302a848260208601612fc3565b91505092915050565b6000806040838503121561304a5761304961236a565b5b600083013567ffffffffffffffff8111156130685761306761236f565b5b61307485828601613005565b92505060206130858582860161253b565b9150509250929050565b6000602082840312156130a5576130a461236a565b5b60006130b384828501612505565b91505092915050565b600080604083850312156130d3576130d261236a565b5b60006130e18582860161253b565b925050602083013567ffffffffffffffff8111156131025761310161236f565b5b61310e8582860161279c565b9150509250929050565b600081519050919050565b600082825260208201905092915050565b6000819050602082019050919050565b61314d8161251a565b82525050565b600061315f8383613144565b60208301905092915050565b6000602082019050919050565b600061318382613118565b61318d8185613123565b935061319883613134565b8060005b838110156131c95781516131b08882613153565b97506131bb8361316b565b92505060018101905061319c565b5085935050505092915050565b600060208201905081810360008301526131f08184613178565b905092915050565b600060608201905061320d60008301866124c4565b61321a602083018561298e565b61322760408301846124c4565b949350505050565b7f4b657973206c656e677468206e6f7420657175616c20746f2076616c7565732060008201527f6c656e6774680000000000000000000000000000000000000000000000000000602082015250565b600061328b602683612902565b91506132968261322f565b604082019050919050565b600060208201905081810360008301526132ba8161327e565b9050919050565b7f4e487b7100000000000000000000000000000000000000000000000000000000600052603260045260246000fd5b7f4e487b7100000000000000000000000000000000000000000000000000000000600052602260045260246000fd5b6000600282049050600182168061333757607f821691505b60208210810361334a576133496132f0565b5b50919050565b6000602082019050613365600083018461298e565b92915050565b6000604082019050613380600083018561298e565b61338d60208301846124c4565b9392505050565b7f4e487b7100000000000000000000000000000000000000000000000000000000600052601160045260246000fd5b60006133ce8261242f565b91507fffffffffffffffffffffffffffffffffffffffffffffffffffffffffffffffff8203613400576133ff613394565b5b600182019050919050565b60008190508160005260206000209050919050565b60006020601f8301049050919050565b600082821b905092915050565b60006008830261346d7fffffffffffffffffffffffffffffffffffffffffffffffffffffffffffffffff82613430565b6134778683613430565b95508019841693508086168417925050509392505050565b6000819050919050565b60006134b46134af6134aa8461242f565b61348f565b61242f565b9050919050565b6000819050919050565b6134ce83613499565b6134e26134da826134bb565b84845461343d565b825550505050565b600090565b6134f76134ea565b6135028184846134c5565b505050565b5b818110156135265761351b6000826134ef565b600181019050613508565b5050565b601f82111561356b5761353c8161340b565b61354584613420565b81016020851015613554578190505b61356861356085613420565b830182613507565b50505b505050565b600082821c905092915050565b600061358e60001984600802613570565b1980831691505092915050565b60006135a7838361357d565b9150826002028217905092915050565b6135c0826128f7565b67ffffffffffffffff8111156135d9576135d86125a6565b5b6135e3825461331f565b6135ee82828561352a565b600060209050601f831160018114613621576000841561360f578287015190505b613619858261359b565b865550613681565b601f19841661362f8661340b565b60005b8281101561365757848901518255600182019150602085019450602081019050613632565b868310156136745784890151613670601f89168261357d565b8355505b6001600288020188555050505b505050505050565b6000815490506136988161331f565b9050919050565b8181036136ad575050613785565b6136b682613689565b67ffffffffffffffff8111156136cf576136ce6125a6565b5b6136d9825461331f565b6136e482828561352a565b6000601f8311600181146137135760008415613701578287015490505b61370b858261359b565b86555061377e565b601f1984166137218761340b565b965061372c8661340b565b60005b828110156137545784890154825560018201915060018501945060208101905061372f565b86831015613771578489015461376d601f89168261357d565b8355505b6001600288020188555050505b5050505050505b565b7f4f776e61626c653a206e6577206f776e657220697320746865207a65726f206160008201527f6464726573730000000000000000000000000000000000000000000000000000602082015250565b60006137e3602683612902565b91506137ee82613787565b604082019050919050565b60006020820190508181036000830152613812816137d6565b9050919050565b60008190508160005260206000209050919050565b601f82111561386f5761384081613819565b61384984613420565b81016020851015613858578190505b61386c61386485613420565b830182613507565b50505b505050565b61387d82612ba8565b67ffffffffffffffff811115613896576138956125a6565b5b6138a0825461331f565b6138ab82828561382e565b600060209050601f8311600181146138de57600084156138cc578287015190505b6138d6858261359b565b86555061393e565b601f1984166138ec86613819565b60005b82811015613914578489015182556001820191506020850194506020810190506138ef565b86831015613931578489015161392d601f89168261357d565b8355505b6001600288020188555050505b505050505050565b7f4f776e61626c653a2063616c6c6572206973206e6f7420746865206f776e6572600082015250565b600061397c602083612902565b915061398782613946565b602082019050919050565b600060208201905081810360008301526139ab8161396f565b9050919050565b60006060820190506139c760008301866124c4565b6139d46020830185612405565b81810360408301526139e68184612d89565b9050949350505050565b60006139fb8261242f565b9150613a068361242f565b9250827fffffffffffffffffffffffffffffffffffffffffffffffffffffffffffffffff03821115613a3b57613a3a613394565b5b828201905092915050565b6000613a518261242f565b9150613a5c8361242f565b925082821015613a6f57613a6e613394565b5b828203905092915050565b60008160601b9050919050565b6000613a9282613a7a565b9050919050565b6000613aa482613a87565b9050919050565b613abc613ab7826124b2565b613a99565b82525050565b6000819050919050565b613add613ad88261251a565b613ac2565b82525050565b600081905092915050565b6000613af982612ba8565b613b038185613ae3565b9350613b13818560208601612913565b80840191505092915050565b6000613b2b8287613aab565b601482019150613b3b8286613aab565b601482019150613b4b8285613acc565b602082019150613b5b8284613aee565b915081905095945050505050565b6000604082019050613b7e600083018561298e565b8181036020830152613b908184612d89565b90509392505050565b6000613bac613ba78461271a565b612606565b905082815260208101848484011115613bc857613bc7612715565b5b613bd3848285612913565b509392505050565b600082601f830112613bf057613bef612590565b5b8151613c00848260208601613b99565b91505092915050565b600060208284031215613c1f57613c1e61236a565b5b600082015167ffffffffffffffff811115613c3d57613c3c61236f565b5b613c4984828501613bdb565b91505092915050565b7f4e487b7100000000000000000000000000000000000000000000000000000000600052603160045260246000fd5b613c8a81612374565b82525050565b6000602082019050613ca56000830184613c81565b92915050565b6000613cb78284613aee565b915081905092915050565b600081519050613cd181612cb5565b92915050565b600060208284031215613ced57613cec61236a565b5b6000613cfb84828501613cc2565b9150509291505056fea264697066735822122076327a1fd7a1dbcf5a12eb10922711d7b515755bb74bcf478f04e32e53c0462664736f6c634300080f0033",
  "linkReferences": {},
  "deployedLinkReferences": {}
}